{
	"contracts/CompareThreeNumbers.sol": {
		"CompareThreeNumbers": {
			"abi": [
				{
					"anonymous": false,
					"inputs": [
						{
							"indexed": false,
							"internalType": "uint256",
							"name": "max",
							"type": "uint256"
						},
						{
							"indexed": false,
							"internalType": "uint256",
							"name": "min",
							"type": "uint256"
						}
					],
					"name": "MaxMin",
					"type": "event"
				},
				{
					"inputs": [
						{
							"internalType": "uint256",
							"name": "num1",
							"type": "uint256"
						},
						{
							"internalType": "uint256",
							"name": "num2",
							"type": "uint256"
						},
						{
							"internalType": "uint256",
							"name": "num3",
							"type": "uint256"
						}
					],
					"name": "compare",
					"outputs": [
						{
							"internalType": "uint256",
							"name": "max",
							"type": "uint256"
						},
						{
							"internalType": "uint256",
							"name": "min",
							"type": "uint256"
						}
					],
					"stateMutability": "pure",
					"type": "function"
				}
			],
			"devdoc": {
				"kind": "dev",
				"methods": {},
				"version": 1
			},
			"evm": {
				"assembly": "    /* \"contracts/CompareThreeNumbers.sol\":69:608  contract CompareThreeNumbers {... */\n  mstore(0x40, 0x80)\n  callvalue\n  dup1\n  iszero\n  tag_1\n  jumpi\n  0x00\n  dup1\n  revert\ntag_1:\n  pop\n  dataSize(sub_0)\n  dup1\n  dataOffset(sub_0)\n  0x00\n  codecopy\n  0x00\n  return\nstop\n\nsub_0: assembly {\n        /* \"contracts/CompareThreeNumbers.sol\":69:608  contract CompareThreeNumbers {... */\n      mstore(0x40, 0x80)\n      callvalue\n      dup1\n      iszero\n      tag_1\n      jumpi\n      0x00\n      dup1\n      revert\n    tag_1:\n      pop\n      jumpi(tag_2, lt(calldatasize, 0x04))\n      shr(0xe0, calldataload(0x00))\n      dup1\n      0xf731955d\n      eq\n      tag_3\n      jumpi\n    tag_2:\n      0x00\n      dup1\n      revert\n        /* \"contracts/CompareThreeNumbers.sol\":149:606  function compare(... */\n    tag_3:\n      tag_4\n      0x04\n      dup1\n      calldatasize\n      sub\n      dup2\n      add\n      swap1\n      tag_5\n      swap2\n      swap1\n      tag_6\n      jump\t// in\n    tag_5:\n      tag_7\n      jump\t// in\n    tag_4:\n      mload(0x40)\n      tag_8\n      swap3\n      swap2\n      swap1\n      tag_9\n      jump\t// in\n    tag_8:\n      mload(0x40)\n      dup1\n      swap2\n      sub\n      swap1\n      return\n    tag_7:\n        /* \"contracts/CompareThreeNumbers.sol\":259:270  uint256 max */\n      0x00\n        /* \"contracts/CompareThreeNumbers.sol\":272:283  uint256 min */\n      dup1\n        /* \"contracts/CompareThreeNumbers.sol\":301:305  num1 */\n      dup5\n        /* \"contracts/CompareThreeNumbers.sol\":295:305  max = num1 */\n      swap2\n      pop\n        /* \"contracts/CompareThreeNumbers.sol\":326:329  max */\n      dup2\n        /* \"contracts/CompareThreeNumbers.sol\":319:323  num2 */\n      dup5\n        /* \"contracts/CompareThreeNumbers.sol\":319:329  num2 > max */\n      gt\n        /* \"contracts/CompareThreeNumbers.sol\":315:366  if (num2 > max) {... */\n      iszero\n      tag_11\n      jumpi\n        /* \"contracts/CompareThreeNumbers.sol\":351:355  num2 */\n      dup4\n        /* \"contracts/CompareThreeNumbers.sol\":345:355  max = num2 */\n      swap2\n      pop\n        /* \"contracts/CompareThreeNumbers.sol\":315:366  if (num2 > max) {... */\n    tag_11:\n        /* \"contracts/CompareThreeNumbers.sol\":386:389  max */\n      dup2\n        /* \"contracts/CompareThreeNumbers.sol\":379:383  num3 */\n      dup4\n        /* \"contracts/CompareThreeNumbers.sol\":379:389  num3 > max */\n      gt\n        /* \"contracts/CompareThreeNumbers.sol\":375:426  if (num3 > max) {... */\n      iszero\n      tag_12\n      jumpi\n        /* \"contracts/CompareThreeNumbers.sol\":411:415  num3 */\n      dup3\n        /* \"contracts/CompareThreeNumbers.sol\":405:415  max = num3 */\n      swap2\n      pop\n        /* \"contracts/CompareThreeNumbers.sol\":375:426  if (num3 > max) {... */\n    tag_12:\n        /* \"contracts/CompareThreeNumbers.sol\":441:445  num1 */\n      dup5\n        /* \"contracts/CompareThreeNumbers.sol\":435:445  min = num1 */\n      swap1\n      pop\n        /* \"contracts/CompareThreeNumbers.sol\":466:469  min */\n      dup1\n        /* \"contracts/CompareThreeNumbers.sol\":459:463  num2 */\n      dup5\n        /* \"contracts/CompareThreeNumbers.sol\":459:469  num2 < min */\n      lt\n        /* \"contracts/CompareThreeNumbers.sol\":455:506  if (num2 < min) {... */\n      iszero\n      tag_13\n      jumpi\n        /* \"contracts/CompareThreeNumbers.sol\":491:495  num2 */\n      dup4\n        /* \"contracts/CompareThreeNumbers.sol\":485:495  min = num2 */\n      swap1\n      pop\n        /* \"contracts/CompareThreeNumbers.sol\":455:506  if (num2 < min) {... */\n    tag_13:\n        /* \"contracts/CompareThreeNumbers.sol\":526:529  min */\n      dup1\n        /* \"contracts/CompareThreeNumbers.sol\":519:523  num3 */\n      dup4\n        /* \"contracts/CompareThreeNumbers.sol\":519:529  num3 < min */\n      lt\n        /* \"contracts/CompareThreeNumbers.sol\":515:566  if (num3 < min) {... */\n      iszero\n      tag_14\n      jumpi\n        /* \"contracts/CompareThreeNumbers.sol\":551:555  num3 */\n      dup3\n        /* \"contracts/CompareThreeNumbers.sol\":545:555  min = num3 */\n      swap1\n      pop\n        /* \"contracts/CompareThreeNumbers.sol\":515:566  if (num3 < min) {... */\n    tag_14:\n        /* \"contracts/CompareThreeNumbers.sol\":149:606  function compare(... */\n      swap4\n      pop\n      swap4\n      swap2\n      pop\n      pop\n      jump\t// out\n        /* \"#utility.yul\":88:205   */\n    tag_16:\n        /* \"#utility.yul\":197:198   */\n      0x00\n        /* \"#utility.yul\":194:195   */\n      dup1\n        /* \"#utility.yul\":187:199   */\n      revert\n        /* \"#utility.yul\":334:411   */\n    tag_18:\n        /* \"#utility.yul\":371:378   */\n      0x00\n        /* \"#utility.yul\":400:405   */\n      dup2\n        /* \"#utility.yul\":389:405   */\n      swap1\n      pop\n        /* \"#utility.yul\":334:411   */\n      swap2\n      swap1\n      pop\n      jump\t// out\n        /* \"#utility.yul\":417:539   */\n    tag_19:\n        /* \"#utility.yul\":490:514   */\n      tag_28\n        /* \"#utility.yul\":508:513   */\n      dup2\n        /* \"#utility.yul\":490:514   */\n      tag_18\n      jump\t// in\n    tag_28:\n        /* \"#utility.yul\":483:488   */\n      dup2\n        /* \"#utility.yul\":480:515   */\n      eq\n        /* \"#utility.yul\":470:533   */\n      tag_29\n      jumpi\n        /* \"#utility.yul\":529:530   */\n      0x00\n        /* \"#utility.yul\":526:527   */\n      dup1\n        /* \"#utility.yul\":519:531   */\n      revert\n        /* \"#utility.yul\":470:533   */\n    tag_29:\n        /* \"#utility.yul\":417:539   */\n      pop\n      jump\t// out\n        /* \"#utility.yul\":545:684   */\n    tag_20:\n        /* \"#utility.yul\":591:596   */\n      0x00\n        /* \"#utility.yul\":629:635   */\n      dup2\n        /* \"#utility.yul\":616:636   */\n      calldataload\n        /* \"#utility.yul\":607:636   */\n      swap1\n      pop\n        /* \"#utility.yul\":645:678   */\n      tag_31\n        /* \"#utility.yul\":672:677   */\n      dup2\n        /* \"#utility.yul\":645:678   */\n      tag_19\n      jump\t// in\n    tag_31:\n        /* \"#utility.yul\":545:684   */\n      swap3\n      swap2\n      pop\n      pop\n      jump\t// out\n        /* \"#utility.yul\":690:1309   */\n    tag_6:\n        /* \"#utility.yul\":767:773   */\n      0x00\n        /* \"#utility.yul\":775:781   */\n      dup1\n        /* \"#utility.yul\":783:789   */\n      0x00\n        /* \"#utility.yul\":832:834   */\n      0x60\n        /* \"#utility.yul\":820:829   */\n      dup5\n        /* \"#utility.yul\":811:818   */\n      dup7\n        /* \"#utility.yul\":807:830   */\n      sub\n        /* \"#utility.yul\":803:835   */\n      slt\n        /* \"#utility.yul\":800:919   */\n      iszero\n      tag_33\n      jumpi\n        /* \"#utility.yul\":838:917   */\n      tag_34\n      tag_16\n      jump\t// in\n    tag_34:\n        /* \"#utility.yul\":800:919   */\n    tag_33:\n        /* \"#utility.yul\":958:959   */\n      0x00\n        /* \"#utility.yul\":983:1036   */\n      tag_35\n        /* \"#utility.yul\":1028:1035   */\n      dup7\n        /* \"#utility.yul\":1019:1025   */\n      dup3\n        /* \"#utility.yul\":1008:1017   */\n      dup8\n        /* \"#utility.yul\":1004:1026   */\n      add\n        /* \"#utility.yul\":983:1036   */\n      tag_20\n      jump\t// in\n    tag_35:\n        /* \"#utility.yul\":973:1036   */\n      swap4\n      pop\n        /* \"#utility.yul\":929:1046   */\n      pop\n        /* \"#utility.yul\":1085:1087   */\n      0x20\n        /* \"#utility.yul\":1111:1164   */\n      tag_36\n        /* \"#utility.yul\":1156:1163   */\n      dup7\n        /* \"#utility.yul\":1147:1153   */\n      dup3\n        /* \"#utility.yul\":1136:1145   */\n      dup8\n        /* \"#utility.yul\":1132:1154   */\n      add\n        /* \"#utility.yul\":1111:1164   */\n      tag_20\n      jump\t// in\n    tag_36:\n        /* \"#utility.yul\":1101:1164   */\n      swap3\n      pop\n        /* \"#utility.yul\":1056:1174   */\n      pop\n        /* \"#utility.yul\":1213:1215   */\n      0x40\n        /* \"#utility.yul\":1239:1292   */\n      tag_37\n        /* \"#utility.yul\":1284:1291   */\n      dup7\n        /* \"#utility.yul\":1275:1281   */\n      dup3\n        /* \"#utility.yul\":1264:1273   */\n      dup8\n        /* \"#utility.yul\":1260:1282   */\n      add\n        /* \"#utility.yul\":1239:1292   */\n      tag_20\n      jump\t// in\n    tag_37:\n        /* \"#utility.yul\":1229:1292   */\n      swap2\n      pop\n        /* \"#utility.yul\":1184:1302   */\n      pop\n        /* \"#utility.yul\":690:1309   */\n      swap3\n      pop\n      swap3\n      pop\n      swap3\n      jump\t// out\n        /* \"#utility.yul\":1315:1433   */\n    tag_21:\n        /* \"#utility.yul\":1402:1426   */\n      tag_39\n        /* \"#utility.yul\":1420:1425   */\n      dup2\n        /* \"#utility.yul\":1402:1426   */\n      tag_18\n      jump\t// in\n    tag_39:\n        /* \"#utility.yul\":1397:1400   */\n      dup3\n        /* \"#utility.yul\":1390:1427   */\n      mstore\n        /* \"#utility.yul\":1315:1433   */\n      pop\n      pop\n      jump\t// out\n        /* \"#utility.yul\":1439:1771   */\n    tag_9:\n        /* \"#utility.yul\":1560:1564   */\n      0x00\n        /* \"#utility.yul\":1598:1600   */\n      0x40\n        /* \"#utility.yul\":1587:1596   */\n      dup3\n        /* \"#utility.yul\":1583:1601   */\n      add\n        /* \"#utility.yul\":1575:1601   */\n      swap1\n      pop\n        /* \"#utility.yul\":1611:1682   */\n      tag_41\n        /* \"#utility.yul\":1679:1680   */\n      0x00\n        /* \"#utility.yul\":1668:1677   */\n      dup4\n        /* \"#utility.yul\":1664:1681   */\n      add\n        /* \"#utility.yul\":1655:1661   */\n      dup6\n        /* \"#utility.yul\":1611:1682   */\n      tag_21\n      jump\t// in\n    tag_41:\n        /* \"#utility.yul\":1692:1764   */\n      tag_42\n        /* \"#utility.yul\":1760:1762   */\n      0x20\n        /* \"#utility.yul\":1749:1758   */\n      dup4\n        /* \"#utility.yul\":1745:1763   */\n      add\n        /* \"#utility.yul\":1736:1742   */\n      dup5\n        /* \"#utility.yul\":1692:1764   */\n      tag_21\n      jump\t// in\n    tag_42:\n        /* \"#utility.yul\":1439:1771   */\n      swap4\n      swap3\n      pop\n      pop\n      pop\n      jump\t// out\n\n    auxdata: 0xa26469706673582212208655f6426d4904db842a1d5547fcb50dd4f56758758901504b18e0c989c191c364736f6c634300081a0033\n}\n",
				"bytecode": {
					"linkReferences": {},
					"object": "6080604052348015600e575f80fd5b506101918061001c5f395ff3fe608060405234801561000f575f80fd5b5060043610610029575f3560e01c8063f731955d1461002d575b5f80fd5b610047600480360381019061004291906100d5565b61005e565b604051610055929190610134565b60405180910390f35b5f808491508184111561006f578391505b8183111561007b578291505b8490508084101561008a578390505b80831015610096578290505b935093915050565b5f80fd5b5f819050919050565b6100b4816100a2565b81146100be575f80fd5b50565b5f813590506100cf816100ab565b92915050565b5f805f606084860312156100ec576100eb61009e565b5b5f6100f9868287016100c1565b935050602061010a868287016100c1565b925050604061011b868287016100c1565b9150509250925092565b61012e816100a2565b82525050565b5f6040820190506101475f830185610125565b6101546020830184610125565b939250505056fea26469706673582212208655f6426d4904db842a1d5547fcb50dd4f56758758901504b18e0c989c191c364736f6c634300081a0033",
					"opcodes": "PUSH1 0x80 PUSH1 0x40 MSTORE CALLVALUE DUP1 ISZERO PUSH1 0xE JUMPI PUSH0 DUP1 REVERT JUMPDEST POP PUSH2 0x191 DUP1 PUSH2 0x1C PUSH0 CODECOPY PUSH0 RETURN INVALID PUSH1 0x80 PUSH1 0x40 MSTORE CALLVALUE DUP1 ISZERO PUSH2 0xF JUMPI PUSH0 DUP1 REVERT JUMPDEST POP PUSH1 0x4 CALLDATASIZE LT PUSH2 0x29 JUMPI PUSH0 CALLDATALOAD PUSH1 0xE0 SHR DUP1 PUSH4 0xF731955D EQ PUSH2 0x2D JUMPI JUMPDEST PUSH0 DUP1 REVERT JUMPDEST PUSH2 0x47 PUSH1 0x4 DUP1 CALLDATASIZE SUB DUP2 ADD SWAP1 PUSH2 0x42 SWAP2 SWAP1 PUSH2 0xD5 JUMP JUMPDEST PUSH2 0x5E JUMP JUMPDEST PUSH1 0x40 MLOAD PUSH2 0x55 SWAP3 SWAP2 SWAP1 PUSH2 0x134 JUMP JUMPDEST PUSH1 0x40 MLOAD DUP1 SWAP2 SUB SWAP1 RETURN JUMPDEST PUSH0 DUP1 DUP5 SWAP2 POP DUP2 DUP5 GT ISZERO PUSH2 0x6F JUMPI DUP4 SWAP2 POP JUMPDEST DUP2 DUP4 GT ISZERO PUSH2 0x7B JUMPI DUP3 SWAP2 POP JUMPDEST DUP5 SWAP1 POP DUP1 DUP5 LT ISZERO PUSH2 0x8A JUMPI DUP4 SWAP1 POP JUMPDEST DUP1 DUP4 LT ISZERO PUSH2 0x96 JUMPI DUP3 SWAP1 POP JUMPDEST SWAP4 POP SWAP4 SWAP2 POP POP JUMP JUMPDEST PUSH0 DUP1 REVERT JUMPDEST PUSH0 DUP2 SWAP1 POP SWAP2 SWAP1 POP JUMP JUMPDEST PUSH2 0xB4 DUP2 PUSH2 0xA2 JUMP JUMPDEST DUP2 EQ PUSH2 0xBE JUMPI PUSH0 DUP1 REVERT JUMPDEST POP JUMP JUMPDEST PUSH0 DUP2 CALLDATALOAD SWAP1 POP PUSH2 0xCF DUP2 PUSH2 0xAB JUMP JUMPDEST SWAP3 SWAP2 POP POP JUMP JUMPDEST PUSH0 DUP1 PUSH0 PUSH1 0x60 DUP5 DUP7 SUB SLT ISZERO PUSH2 0xEC JUMPI PUSH2 0xEB PUSH2 0x9E JUMP JUMPDEST JUMPDEST PUSH0 PUSH2 0xF9 DUP7 DUP3 DUP8 ADD PUSH2 0xC1 JUMP JUMPDEST SWAP4 POP POP PUSH1 0x20 PUSH2 0x10A DUP7 DUP3 DUP8 ADD PUSH2 0xC1 JUMP JUMPDEST SWAP3 POP POP PUSH1 0x40 PUSH2 0x11B DUP7 DUP3 DUP8 ADD PUSH2 0xC1 JUMP JUMPDEST SWAP2 POP POP SWAP3 POP SWAP3 POP SWAP3 JUMP JUMPDEST PUSH2 0x12E DUP2 PUSH2 0xA2 JUMP JUMPDEST DUP3 MSTORE POP POP JUMP JUMPDEST PUSH0 PUSH1 0x40 DUP3 ADD SWAP1 POP PUSH2 0x147 PUSH0 DUP4 ADD DUP6 PUSH2 0x125 JUMP JUMPDEST PUSH2 0x154 PUSH1 0x20 DUP4 ADD DUP5 PUSH2 0x125 JUMP JUMPDEST SWAP4 SWAP3 POP POP POP JUMP INVALID LOG2 PUSH5 0x6970667358 0x22 SLT KECCAK256 DUP7 SSTORE 0xF6 TIMESTAMP PUSH14 0x4904DB842A1D5547FCB50DD4F567 PC PUSH22 0x8901504B18E0C989C191C364736F6C634300081A0033 "
				},
				"gasEstimates": {
					"creation": {
						"codeDepositCost": "80200",
						"executionCost": "127",
						"totalCost": "80327"
					},
					"external": {
						"compare(uint256,uint256,uint256)": "infinite"
					}
				},
				"methodIdentifiers": {
					"compare(uint256,uint256,uint256)": "f731955d"
				}
			},
			"storageLayout": {
				"storage": [],
				"types": null
			},
			"userdoc": {
				"kind": "user",
				"methods": {},
				"version": 1
			}
		}
	}
}