{
	"contracts/DonationContract.sol": {
		"DonationContract": {
			"abi": [
				{
					"inputs": [],
					"stateMutability": "nonpayable",
					"type": "constructor"
				},
				{
					"inputs": [],
					"name": "donate",
					"outputs": [],
					"stateMutability": "payable",
					"type": "function"
				},
				{
					"inputs": [
						{
							"internalType": "address",
							"name": "",
							"type": "address"
						}
					],
					"name": "donations",
					"outputs": [
						{
							"internalType": "uint256",
							"name": "",
							"type": "uint256"
						}
					],
					"stateMutability": "view",
					"type": "function"
				},
				{
					"inputs": [
						{
							"internalType": "uint256",
							"name": "",
							"type": "uint256"
						}
					],
					"name": "donors",
					"outputs": [
						{
							"internalType": "address",
							"name": "",
							"type": "address"
						}
					],
					"stateMutability": "view",
					"type": "function"
				},
				{
					"inputs": [],
					"name": "getBalance",
					"outputs": [
						{
							"internalType": "uint256",
							"name": "",
							"type": "uint256"
						}
					],
					"stateMutability": "view",
					"type": "function"
				},
				{
					"inputs": [],
					"name": "getDonors",
					"outputs": [
						{
							"internalType": "address[]",
							"name": "",
							"type": "address[]"
						},
						{
							"internalType": "uint256[]",
							"name": "",
							"type": "uint256[]"
						}
					],
					"stateMutability": "view",
					"type": "function"
				},
				{
					"inputs": [],
					"name": "owner",
					"outputs": [
						{
							"internalType": "address",
							"name": "",
							"type": "address"
						}
					],
					"stateMutability": "view",
					"type": "function"
				},
				{
					"inputs": [
						{
							"internalType": "uint256",
							"name": "amount",
							"type": "uint256"
						}
					],
					"name": "withdraw",
					"outputs": [],
					"stateMutability": "nonpayable",
					"type": "function"
				},
				{
					"inputs": [],
					"name": "withdrawAll",
					"outputs": [],
					"stateMutability": "nonpayable",
					"type": "function"
				}
			],
			"devdoc": {
				"kind": "dev",
				"methods": {},
				"version": 1
			},
			"evm": {
				"assembly": "    /* \"contracts/DonationContract.sol\":69:2131  contract DonationContract {... */\n  mstore(0x40, 0x80)\n    /* \"contracts/DonationContract.sol\":348:479  constructor() {... */\n  callvalue\n  dup1\n  iszero\n  tag_1\n  jumpi\n  0x00\n  dup1\n  revert\ntag_1:\n  pop\n    /* \"contracts/DonationContract.sol\":462:472  msg.sender */\n  caller\n    /* \"contracts/DonationContract.sol\":454:459  owner */\n  0x00\n  dup1\n    /* \"contracts/DonationContract.sol\":454:472  owner = msg.sender */\n  0x0100\n  exp\n  dup2\n  sload\n  dup2\n  0xffffffffffffffffffffffffffffffffffffffff\n  mul\n  not\n  and\n  swap1\n  dup4\n  0xffffffffffffffffffffffffffffffffffffffff\n  and\n  mul\n  or\n  swap1\n  sstore\n  pop\n    /* \"contracts/DonationContract.sol\":69:2131  contract DonationContract {... */\n  dataSize(sub_0)\n  dup1\n  dataOffset(sub_0)\n  0x00\n  codecopy\n  0x00\n  return\nstop\n\nsub_0: assembly {\n        /* \"contracts/DonationContract.sol\":69:2131  contract DonationContract {... */\n      mstore(0x40, 0x80)\n      jumpi(tag_1, lt(calldatasize, 0x04))\n      shr(0xe0, calldataload(0x00))\n      dup1\n      0x8da5cb5b\n      gt\n      tag_10\n      jumpi\n      dup1\n      0x8da5cb5b\n      eq\n      tag_6\n      jumpi\n      dup1\n      0x96f300d4\n      eq\n      tag_7\n      jumpi\n      dup1\n      0xcc6cb19a\n      eq\n      tag_8\n      jumpi\n      dup1\n      0xed88c68e\n      eq\n      tag_9\n      jumpi\n      jump(tag_1)\n    tag_10:\n      dup1\n      0x12065fe0\n      eq\n      tag_2\n      jumpi\n      dup1\n      0x2e1a7d4d\n      eq\n      tag_3\n      jumpi\n      dup1\n      0x4abfa163\n      eq\n      tag_4\n      jumpi\n      dup1\n      0x853828b6\n      eq\n      tag_5\n      jumpi\n    tag_1:\n      0x00\n      dup1\n      revert\n        /* \"contracts/DonationContract.sol\":2032:2129  function getBalance() public view returns (uint256) {... */\n    tag_2:\n      callvalue\n      dup1\n      iszero\n      tag_11\n      jumpi\n      0x00\n      dup1\n      revert\n    tag_11:\n      pop\n      tag_12\n      tag_13\n      jump\t// in\n    tag_12:\n      mload(0x40)\n      tag_14\n      swap2\n      swap1\n      tag_15\n      jump\t// in\n    tag_14:\n      mload(0x40)\n      dup1\n      swap2\n      sub\n      swap1\n      return\n        /* \"contracts/DonationContract.sol\":1264:1542  function withdraw(uint256 amount) public {... */\n    tag_3:\n      callvalue\n      dup1\n      iszero\n      tag_16\n      jumpi\n      0x00\n      dup1\n      revert\n    tag_16:\n      pop\n      tag_17\n      0x04\n      dup1\n      calldatasize\n      sub\n      dup2\n      add\n      swap1\n      tag_18\n      swap2\n      swap1\n      tag_19\n      jump\t// in\n    tag_18:\n      tag_20\n      jump\t// in\n    tag_17:\n      stop\n        /* \"contracts/DonationContract.sol\":318:341  address[] public donors */\n    tag_4:\n      callvalue\n      dup1\n      iszero\n      tag_21\n      jumpi\n      0x00\n      dup1\n      revert\n    tag_21:\n      pop\n      tag_22\n      0x04\n      dup1\n      calldatasize\n      sub\n      dup2\n      add\n      swap1\n      tag_23\n      swap2\n      swap1\n      tag_19\n      jump\t// in\n    tag_23:\n      tag_24\n      jump\t// in\n    tag_22:\n      mload(0x40)\n      tag_25\n      swap2\n      swap1\n      tag_26\n      jump\t// in\n    tag_25:\n      mload(0x40)\n      dup1\n      swap2\n      sub\n      swap1\n      return\n        /* \"contracts/DonationContract.sol\":1027:1189  function withdrawAll() public {... */\n    tag_5:\n      callvalue\n      dup1\n      iszero\n      tag_27\n      jumpi\n      0x00\n      dup1\n      revert\n    tag_27:\n      pop\n      tag_28\n      tag_29\n      jump\t// in\n    tag_28:\n      stop\n        /* \"contracts/DonationContract.sol\":101:121  address public owner */\n    tag_6:\n      callvalue\n      dup1\n      iszero\n      tag_30\n      jumpi\n      0x00\n      dup1\n      revert\n    tag_30:\n      pop\n      tag_31\n      tag_32\n      jump\t// in\n    tag_31:\n      mload(0x40)\n      tag_33\n      swap2\n      swap1\n      tag_26\n      jump\t// in\n    tag_33:\n      mload(0x40)\n      dup1\n      swap2\n      sub\n      swap1\n      return\n        /* \"contracts/DonationContract.sol\":1642:1967  function getDonors()... */\n    tag_7:\n      callvalue\n      dup1\n      iszero\n      tag_34\n      jumpi\n      0x00\n      dup1\n      revert\n    tag_34:\n      pop\n      tag_35\n      tag_36\n      jump\t// in\n    tag_35:\n      mload(0x40)\n      tag_37\n      swap3\n      swap2\n      swap1\n      tag_38\n      jump\t// in\n    tag_37:\n      mload(0x40)\n      dup1\n      swap2\n      sub\n      swap1\n      return\n        /* \"contracts/DonationContract.sol\":215:259  mapping(address => uint256) public donations */\n    tag_8:\n      callvalue\n      dup1\n      iszero\n      tag_39\n      jumpi\n      0x00\n      dup1\n      revert\n    tag_39:\n      pop\n      tag_40\n      0x04\n      dup1\n      calldatasize\n      sub\n      dup2\n      add\n      swap1\n      tag_41\n      swap2\n      swap1\n      tag_42\n      jump\t// in\n    tag_41:\n      tag_43\n      jump\t// in\n    tag_40:\n      mload(0x40)\n      tag_44\n      swap2\n      swap1\n      tag_15\n      jump\t// in\n    tag_44:\n      mload(0x40)\n      dup1\n      swap2\n      sub\n      swap1\n      return\n        /* \"contracts/DonationContract.sol\":555:954  function donate() public payable {... */\n    tag_9:\n      tag_45\n      tag_46\n      jump\t// in\n    tag_45:\n      stop\n        /* \"contracts/DonationContract.sol\":2032:2129  function getBalance() public view returns (uint256) {... */\n    tag_13:\n        /* \"contracts/DonationContract.sol\":2075:2082  uint256 */\n      0x00\n        /* \"contracts/DonationContract.sol\":2101:2122  address(this).balance */\n      selfbalance\n        /* \"contracts/DonationContract.sol\":2094:2122  return address(this).balance */\n      swap1\n      pop\n        /* \"contracts/DonationContract.sol\":2032:2129  function getBalance() public view returns (uint256) {... */\n      swap1\n      jump\t// out\n        /* \"contracts/DonationContract.sol\":1264:1542  function withdraw(uint256 amount) public {... */\n    tag_20:\n        /* \"contracts/DonationContract.sol\":1337:1342  owner */\n      0x00\n      dup1\n      sload\n      swap1\n      0x0100\n      exp\n      swap1\n      div\n      0xffffffffffffffffffffffffffffffffffffffff\n      and\n        /* \"contracts/DonationContract.sol\":1323:1342  msg.sender == owner */\n      0xffffffffffffffffffffffffffffffffffffffff\n      and\n        /* \"contracts/DonationContract.sol\":1323:1333  msg.sender */\n      caller\n        /* \"contracts/DonationContract.sol\":1323:1342  msg.sender == owner */\n      0xffffffffffffffffffffffffffffffffffffffff\n      and\n      eq\n        /* \"contracts/DonationContract.sol\":1315:1374  require(msg.sender == owner, \"Only the owner can withdraw\") */\n      tag_49\n      jumpi\n      mload(0x40)\n      0x08c379a000000000000000000000000000000000000000000000000000000000\n      dup2\n      mstore\n      0x04\n      add\n      tag_50\n      swap1\n      tag_51\n      jump\t// in\n    tag_50:\n      mload(0x40)\n      dup1\n      swap2\n      sub\n      swap1\n      revert\n    tag_49:\n        /* \"contracts/DonationContract.sol\":1415:1436  address(this).balance */\n      selfbalance\n        /* \"contracts/DonationContract.sol\":1405:1411  amount */\n      dup2\n        /* \"contracts/DonationContract.sol\":1405:1436  amount <= address(this).balance */\n      gt\n      iszero\n        /* \"contracts/DonationContract.sol\":1384:1494  require(... */\n      tag_52\n      jumpi\n      mload(0x40)\n      0x08c379a000000000000000000000000000000000000000000000000000000000\n      dup2\n      mstore\n      0x04\n      add\n      tag_53\n      swap1\n      tag_54\n      jump\t// in\n    tag_53:\n      mload(0x40)\n      dup1\n      swap2\n      sub\n      swap1\n      revert\n    tag_52:\n        /* \"contracts/DonationContract.sol\":1512:1517  owner */\n      0x00\n      dup1\n      sload\n      swap1\n      0x0100\n      exp\n      swap1\n      div\n      0xffffffffffffffffffffffffffffffffffffffff\n      and\n        /* \"contracts/DonationContract.sol\":1504:1527  payable(owner).transfer */\n      0xffffffffffffffffffffffffffffffffffffffff\n      and\n        /* \"contracts/DonationContract.sol\":1504:1535  payable(owner).transfer(amount) */\n      0x08fc\n        /* \"contracts/DonationContract.sol\":1528:1534  amount */\n      dup3\n        /* \"contracts/DonationContract.sol\":1504:1535  payable(owner).transfer(amount) */\n      swap1\n      dup2\n      iszero\n      mul\n      swap1\n      mload(0x40)\n      0x00\n      mload(0x40)\n      dup1\n      dup4\n      sub\n      dup2\n      dup6\n      dup9\n      dup9\n      call\n      swap4\n      pop\n      pop\n      pop\n      pop\n      iszero\n      dup1\n      iszero\n      tag_56\n      jumpi\n      returndatasize\n      0x00\n      dup1\n      returndatacopy\n      revert(0x00, returndatasize)\n    tag_56:\n      pop\n        /* \"contracts/DonationContract.sol\":1264:1542  function withdraw(uint256 amount) public {... */\n      pop\n      jump\t// out\n        /* \"contracts/DonationContract.sol\":318:341  address[] public donors */\n    tag_24:\n      0x02\n      dup2\n      dup2\n      sload\n      dup2\n      lt\n      tag_57\n      jumpi\n      0x00\n      dup1\n      revert\n    tag_57:\n      swap1\n      0x00\n      mstore\n      keccak256(0x00, 0x20)\n      add\n      0x00\n      swap2\n      pop\n      sload\n      swap1\n      0x0100\n      exp\n      swap1\n      div\n      0xffffffffffffffffffffffffffffffffffffffff\n      and\n      dup2\n      jump\t// out\n        /* \"contracts/DonationContract.sol\":1027:1189  function withdrawAll() public {... */\n    tag_29:\n        /* \"contracts/DonationContract.sol\":1089:1094  owner */\n      0x00\n      dup1\n      sload\n      swap1\n      0x0100\n      exp\n      swap1\n      div\n      0xffffffffffffffffffffffffffffffffffffffff\n      and\n        /* \"contracts/DonationContract.sol\":1075:1094  msg.sender == owner */\n      0xffffffffffffffffffffffffffffffffffffffff\n      and\n        /* \"contracts/DonationContract.sol\":1075:1085  msg.sender */\n      caller\n        /* \"contracts/DonationContract.sol\":1075:1094  msg.sender == owner */\n      0xffffffffffffffffffffffffffffffffffffffff\n      and\n      eq\n        /* \"contracts/DonationContract.sol\":1067:1126  require(msg.sender == owner, \"Only the owner can withdraw\") */\n      tag_60\n      jumpi\n      mload(0x40)\n      0x08c379a000000000000000000000000000000000000000000000000000000000\n      dup2\n      mstore\n      0x04\n      add\n      tag_61\n      swap1\n      tag_51\n      jump\t// in\n    tag_61:\n      mload(0x40)\n      dup1\n      swap2\n      sub\n      swap1\n      revert\n    tag_60:\n        /* \"contracts/DonationContract.sol\":1144:1149  owner */\n      0x00\n      dup1\n      sload\n      swap1\n      0x0100\n      exp\n      swap1\n      div\n      0xffffffffffffffffffffffffffffffffffffffff\n      and\n        /* \"contracts/DonationContract.sol\":1136:1159  payable(owner).transfer */\n      0xffffffffffffffffffffffffffffffffffffffff\n      and\n        /* \"contracts/DonationContract.sol\":1136:1182  payable(owner).transfer(address(this).balance) */\n      0x08fc\n        /* \"contracts/DonationContract.sol\":1160:1181  address(this).balance */\n      selfbalance\n        /* \"contracts/DonationContract.sol\":1136:1182  payable(owner).transfer(address(this).balance) */\n      swap1\n      dup2\n      iszero\n      mul\n      swap1\n      mload(0x40)\n      0x00\n      mload(0x40)\n      dup1\n      dup4\n      sub\n      dup2\n      dup6\n      dup9\n      dup9\n      call\n      swap4\n      pop\n      pop\n      pop\n      pop\n      iszero\n      dup1\n      iszero\n      tag_63\n      jumpi\n      returndatasize\n      0x00\n      dup1\n      returndatacopy\n      revert(0x00, returndatasize)\n    tag_63:\n      pop\n        /* \"contracts/DonationContract.sol\":1027:1189  function withdrawAll() public {... */\n      jump\t// out\n        /* \"contracts/DonationContract.sol\":101:121  address public owner */\n    tag_32:\n      0x00\n      dup1\n      sload\n      swap1\n      0x0100\n      exp\n      swap1\n      div\n      0xffffffffffffffffffffffffffffffffffffffff\n      and\n      dup2\n      jump\t// out\n        /* \"contracts/DonationContract.sol\":1642:1967  function getDonors()... */\n    tag_36:\n        /* \"contracts/DonationContract.sol\":1708:1724  address[] memory */\n      0x60\n        /* \"contracts/DonationContract.sol\":1726:1742  uint256[] memory */\n      dup1\n        /* \"contracts/DonationContract.sol\":1758:1782  uint256[] memory amounts */\n      0x00\n        /* \"contracts/DonationContract.sol\":1799:1805  donors */\n      0x02\n        /* \"contracts/DonationContract.sol\":1799:1812  donors.length */\n      dup1\n      sload\n      swap1\n      pop\n        /* \"contracts/DonationContract.sol\":1785:1813  new uint256[](donors.length) */\n      0xffffffffffffffff\n      dup2\n      gt\n      iszero\n      tag_65\n      jumpi\n      tag_66\n      tag_67\n      jump\t// in\n    tag_66:\n    tag_65:\n      mload(0x40)\n      swap1\n      dup1\n      dup3\n      mstore\n      dup1\n      0x20\n      mul\n      0x20\n      add\n      dup3\n      add\n      0x40\n      mstore\n      dup1\n      iszero\n      tag_68\n      jumpi\n      dup2\n      0x20\n      add\n      0x20\n      dup3\n      mul\n      dup1\n      calldatasize\n      dup4\n      calldatacopy\n      dup1\n      dup3\n      add\n      swap2\n      pop\n      pop\n      swap1\n      pop\n    tag_68:\n      pop\n        /* \"contracts/DonationContract.sol\":1758:1813  uint256[] memory amounts = new uint256[](donors.length) */\n      swap1\n      pop\n        /* \"contracts/DonationContract.sol\":1829:1838  uint256 i */\n      0x00\n        /* \"contracts/DonationContract.sol\":1824:1926  for (uint256 i = 0; i < donors.length; i++) {... */\n    tag_69:\n        /* \"contracts/DonationContract.sol\":1848:1854  donors */\n      0x02\n        /* \"contracts/DonationContract.sol\":1848:1861  donors.length */\n      dup1\n      sload\n      swap1\n      pop\n        /* \"contracts/DonationContract.sol\":1844:1845  i */\n      dup2\n        /* \"contracts/DonationContract.sol\":1844:1861  i < donors.length */\n      lt\n        /* \"contracts/DonationContract.sol\":1824:1926  for (uint256 i = 0; i < donors.length; i++) {... */\n      iszero\n      tag_70\n      jumpi\n        /* \"contracts/DonationContract.sol\":1895:1904  donations */\n      0x01\n        /* \"contracts/DonationContract.sol\":1895:1915  donations[donors[i]] */\n      0x00\n        /* \"contracts/DonationContract.sol\":1905:1911  donors */\n      0x02\n        /* \"contracts/DonationContract.sol\":1912:1913  i */\n      dup4\n        /* \"contracts/DonationContract.sol\":1905:1914  donors[i] */\n      dup2\n      sload\n      dup2\n      lt\n      tag_72\n      jumpi\n      tag_73\n      tag_74\n      jump\t// in\n    tag_73:\n    tag_72:\n      swap1\n      0x00\n      mstore\n      keccak256(0x00, 0x20)\n      add\n      0x00\n      swap1\n      sload\n      swap1\n      0x0100\n      exp\n      swap1\n      div\n      0xffffffffffffffffffffffffffffffffffffffff\n      and\n        /* \"contracts/DonationContract.sol\":1895:1915  donations[donors[i]] */\n      0xffffffffffffffffffffffffffffffffffffffff\n      and\n      0xffffffffffffffffffffffffffffffffffffffff\n      and\n      dup2\n      mstore\n      0x20\n      add\n      swap1\n      dup2\n      mstore\n      0x20\n      add\n      0x00\n      keccak256\n      sload\n        /* \"contracts/DonationContract.sol\":1882:1889  amounts */\n      dup3\n        /* \"contracts/DonationContract.sol\":1890:1891  i */\n      dup3\n        /* \"contracts/DonationContract.sol\":1882:1892  amounts[i] */\n      dup2\n      mload\n      dup2\n      lt\n      tag_76\n      jumpi\n      tag_77\n      tag_74\n      jump\t// in\n    tag_77:\n    tag_76:\n      0x20\n      mul\n      0x20\n      add\n      add\n        /* \"contracts/DonationContract.sol\":1882:1915  amounts[i] = donations[donors[i]] */\n      dup2\n      dup2\n      mstore\n      pop\n      pop\n        /* \"contracts/DonationContract.sol\":1863:1866  i++ */\n      dup1\n      dup1\n      0x01\n      add\n      swap2\n      pop\n      pop\n        /* \"contracts/DonationContract.sol\":1824:1926  for (uint256 i = 0; i < donors.length; i++) {... */\n      jump(tag_69)\n    tag_70:\n      pop\n        /* \"contracts/DonationContract.sol\":1944:1950  donors */\n      0x02\n        /* \"contracts/DonationContract.sol\":1952:1959  amounts */\n      dup2\n        /* \"contracts/DonationContract.sol\":1936:1960  return (donors, amounts) */\n      dup2\n      dup1\n      sload\n      dup1\n      0x20\n      mul\n      0x20\n      add\n      mload(0x40)\n      swap1\n      dup2\n      add\n      0x40\n      mstore\n      dup1\n      swap3\n      swap2\n      swap1\n      dup2\n      dup2\n      mstore\n      0x20\n      add\n      dup3\n      dup1\n      sload\n      dup1\n      iszero\n      tag_78\n      jumpi\n      0x20\n      mul\n      dup3\n      add\n      swap2\n      swap1\n      0x00\n      mstore\n      keccak256(0x00, 0x20)\n      swap1\n    tag_79:\n      dup2\n      0x00\n      swap1\n      sload\n      swap1\n      0x0100\n      exp\n      swap1\n      div\n      0xffffffffffffffffffffffffffffffffffffffff\n      and\n      0xffffffffffffffffffffffffffffffffffffffff\n      and\n      dup2\n      mstore\n      0x20\n      add\n      swap1\n      0x01\n      add\n      swap1\n      dup1\n      dup4\n      gt\n      tag_79\n      jumpi\n    tag_78:\n      pop\n      pop\n      pop\n      pop\n      pop\n      swap2\n      pop\n      swap3\n      pop\n      swap3\n      pop\n      pop\n        /* \"contracts/DonationContract.sol\":1642:1967  function getDonors()... */\n      swap1\n      swap2\n      jump\t// out\n        /* \"contracts/DonationContract.sol\":215:259  mapping(address => uint256) public donations */\n    tag_43:\n      mstore(0x20, 0x01)\n      dup1\n      0x00\n      mstore\n      keccak256(0x00, 0x40)\n      0x00\n      swap2\n      pop\n      swap1\n      pop\n      sload\n      dup2\n      jump\t// out\n        /* \"contracts/DonationContract.sol\":555:954  function donate() public payable {... */\n    tag_46:\n        /* \"contracts/DonationContract.sol\":618:619  0 */\n      0x00\n        /* \"contracts/DonationContract.sol\":606:615  msg.value */\n      callvalue\n        /* \"contracts/DonationContract.sol\":606:619  msg.value > 0 */\n      gt\n        /* \"contracts/DonationContract.sol\":598:658  require(msg.value > 0, \"Donation must be greater than zero\") */\n      tag_81\n      jumpi\n      mload(0x40)\n      0x08c379a000000000000000000000000000000000000000000000000000000000\n      dup2\n      mstore\n      0x04\n      add\n      tag_82\n      swap1\n      tag_83\n      jump\t// in\n    tag_82:\n      mload(0x40)\n      dup1\n      swap2\n      sub\n      swap1\n      revert\n    tag_81:\n        /* \"contracts/DonationContract.sol\":790:791  0 */\n      0x00\n        /* \"contracts/DonationContract.sol\":765:774  donations */\n      0x01\n        /* \"contracts/DonationContract.sol\":765:786  donations[msg.sender] */\n      0x00\n        /* \"contracts/DonationContract.sol\":775:785  msg.sender */\n      caller\n        /* \"contracts/DonationContract.sol\":765:786  donations[msg.sender] */\n      0xffffffffffffffffffffffffffffffffffffffff\n      and\n      0xffffffffffffffffffffffffffffffffffffffff\n      and\n      dup2\n      mstore\n      0x20\n      add\n      swap1\n      dup2\n      mstore\n      0x20\n      add\n      0x00\n      keccak256\n      sload\n        /* \"contracts/DonationContract.sol\":765:791  donations[msg.sender] == 0 */\n      sub\n        /* \"contracts/DonationContract.sol\":761:841  if (donations[msg.sender] == 0) {... */\n      tag_84\n      jumpi\n        /* \"contracts/DonationContract.sol\":807:813  donors */\n      0x02\n        /* \"contracts/DonationContract.sol\":819:829  msg.sender */\n      caller\n        /* \"contracts/DonationContract.sol\":807:830  donors.push(msg.sender) */\n      swap1\n      dup1\n      0x01\n      dup2\n      sload\n      add\n      dup1\n      dup3\n      sstore\n      dup1\n      swap2\n      pop\n      pop\n      0x01\n      swap1\n      sub\n      swap1\n      0x00\n      mstore\n      keccak256(0x00, 0x20)\n      add\n      0x00\n      swap1\n      swap2\n      swap1\n      swap2\n      swap1\n      swap2\n      0x0100\n      exp\n      dup2\n      sload\n      dup2\n      0xffffffffffffffffffffffffffffffffffffffff\n      mul\n      not\n      and\n      swap1\n      dup4\n      0xffffffffffffffffffffffffffffffffffffffff\n      and\n      mul\n      or\n      swap1\n      sstore\n      pop\n        /* \"contracts/DonationContract.sol\":761:841  if (donations[msg.sender] == 0) {... */\n    tag_84:\n        /* \"contracts/DonationContract.sol\":938:947  msg.value */\n      callvalue\n        /* \"contracts/DonationContract.sol\":913:922  donations */\n      0x01\n        /* \"contracts/DonationContract.sol\":913:934  donations[msg.sender] */\n      0x00\n        /* \"contracts/DonationContract.sol\":923:933  msg.sender */\n      caller\n        /* \"contracts/DonationContract.sol\":913:934  donations[msg.sender] */\n      0xffffffffffffffffffffffffffffffffffffffff\n      and\n      0xffffffffffffffffffffffffffffffffffffffff\n      and\n      dup2\n      mstore\n      0x20\n      add\n      swap1\n      dup2\n      mstore\n      0x20\n      add\n      0x00\n      keccak256\n      0x00\n        /* \"contracts/DonationContract.sol\":913:947  donations[msg.sender] += msg.value */\n      dup3\n      dup3\n      sload\n      tag_86\n      swap2\n      swap1\n      tag_87\n      jump\t// in\n    tag_86:\n      swap3\n      pop\n      pop\n      dup2\n      swap1\n      sstore\n      pop\n        /* \"contracts/DonationContract.sol\":555:954  function donate() public payable {... */\n      jump\t// out\n        /* \"#utility.yul\":7:84   */\n    tag_88:\n        /* \"#utility.yul\":44:51   */\n      0x00\n        /* \"#utility.yul\":73:78   */\n      dup2\n        /* \"#utility.yul\":62:78   */\n      swap1\n      pop\n        /* \"#utility.yul\":7:84   */\n      swap2\n      swap1\n      pop\n      jump\t// out\n        /* \"#utility.yul\":90:208   */\n    tag_89:\n        /* \"#utility.yul\":177:201   */\n      tag_125\n        /* \"#utility.yul\":195:200   */\n      dup2\n        /* \"#utility.yul\":177:201   */\n      tag_88\n      jump\t// in\n    tag_125:\n        /* \"#utility.yul\":172:175   */\n      dup3\n        /* \"#utility.yul\":165:202   */\n      mstore\n        /* \"#utility.yul\":90:208   */\n      pop\n      pop\n      jump\t// out\n        /* \"#utility.yul\":214:436   */\n    tag_15:\n        /* \"#utility.yul\":307:311   */\n      0x00\n        /* \"#utility.yul\":345:347   */\n      0x20\n        /* \"#utility.yul\":334:343   */\n      dup3\n        /* \"#utility.yul\":330:348   */\n      add\n        /* \"#utility.yul\":322:348   */\n      swap1\n      pop\n        /* \"#utility.yul\":358:429   */\n      tag_127\n        /* \"#utility.yul\":426:427   */\n      0x00\n        /* \"#utility.yul\":415:424   */\n      dup4\n        /* \"#utility.yul\":411:428   */\n      add\n        /* \"#utility.yul\":402:408   */\n      dup5\n        /* \"#utility.yul\":358:429   */\n      tag_89\n      jump\t// in\n    tag_127:\n        /* \"#utility.yul\":214:436   */\n      swap3\n      swap2\n      pop\n      pop\n      jump\t// out\n        /* \"#utility.yul\":523:640   */\n    tag_91:\n        /* \"#utility.yul\":632:633   */\n      0x00\n        /* \"#utility.yul\":629:630   */\n      dup1\n        /* \"#utility.yul\":622:634   */\n      revert\n        /* \"#utility.yul\":769:891   */\n    tag_93:\n        /* \"#utility.yul\":842:866   */\n      tag_132\n        /* \"#utility.yul\":860:865   */\n      dup2\n        /* \"#utility.yul\":842:866   */\n      tag_88\n      jump\t// in\n    tag_132:\n        /* \"#utility.yul\":835:840   */\n      dup2\n        /* \"#utility.yul\":832:867   */\n      eq\n        /* \"#utility.yul\":822:885   */\n      tag_133\n      jumpi\n        /* \"#utility.yul\":881:882   */\n      0x00\n        /* \"#utility.yul\":878:879   */\n      dup1\n        /* \"#utility.yul\":871:883   */\n      revert\n        /* \"#utility.yul\":822:885   */\n    tag_133:\n        /* \"#utility.yul\":769:891   */\n      pop\n      jump\t// out\n        /* \"#utility.yul\":897:1036   */\n    tag_94:\n        /* \"#utility.yul\":943:948   */\n      0x00\n        /* \"#utility.yul\":981:987   */\n      dup2\n        /* \"#utility.yul\":968:988   */\n      calldataload\n        /* \"#utility.yul\":959:988   */\n      swap1\n      pop\n        /* \"#utility.yul\":997:1030   */\n      tag_135\n        /* \"#utility.yul\":1024:1029   */\n      dup2\n        /* \"#utility.yul\":997:1030   */\n      tag_93\n      jump\t// in\n    tag_135:\n        /* \"#utility.yul\":897:1036   */\n      swap3\n      swap2\n      pop\n      pop\n      jump\t// out\n        /* \"#utility.yul\":1042:1371   */\n    tag_19:\n        /* \"#utility.yul\":1101:1107   */\n      0x00\n        /* \"#utility.yul\":1150:1152   */\n      0x20\n        /* \"#utility.yul\":1138:1147   */\n      dup3\n        /* \"#utility.yul\":1129:1136   */\n      dup5\n        /* \"#utility.yul\":1125:1148   */\n      sub\n        /* \"#utility.yul\":1121:1153   */\n      slt\n        /* \"#utility.yul\":1118:1237   */\n      iszero\n      tag_137\n      jumpi\n        /* \"#utility.yul\":1156:1235   */\n      tag_138\n      tag_91\n      jump\t// in\n    tag_138:\n        /* \"#utility.yul\":1118:1237   */\n    tag_137:\n        /* \"#utility.yul\":1276:1277   */\n      0x00\n        /* \"#utility.yul\":1301:1354   */\n      tag_139\n        /* \"#utility.yul\":1346:1353   */\n      dup5\n        /* \"#utility.yul\":1337:1343   */\n      dup3\n        /* \"#utility.yul\":1326:1335   */\n      dup6\n        /* \"#utility.yul\":1322:1344   */\n      add\n        /* \"#utility.yul\":1301:1354   */\n      tag_94\n      jump\t// in\n    tag_139:\n        /* \"#utility.yul\":1291:1354   */\n      swap2\n      pop\n        /* \"#utility.yul\":1247:1364   */\n      pop\n        /* \"#utility.yul\":1042:1371   */\n      swap3\n      swap2\n      pop\n      pop\n      jump\t// out\n        /* \"#utility.yul\":1377:1503   */\n    tag_95:\n        /* \"#utility.yul\":1414:1421   */\n      0x00\n        /* \"#utility.yul\":1454:1496   */\n      0xffffffffffffffffffffffffffffffffffffffff\n        /* \"#utility.yul\":1447:1452   */\n      dup3\n        /* \"#utility.yul\":1443:1497   */\n      and\n        /* \"#utility.yul\":1432:1497   */\n      swap1\n      pop\n        /* \"#utility.yul\":1377:1503   */\n      swap2\n      swap1\n      pop\n      jump\t// out\n        /* \"#utility.yul\":1509:1605   */\n    tag_96:\n        /* \"#utility.yul\":1546:1553   */\n      0x00\n        /* \"#utility.yul\":1575:1599   */\n      tag_142\n        /* \"#utility.yul\":1593:1598   */\n      dup3\n        /* \"#utility.yul\":1575:1599   */\n      tag_95\n      jump\t// in\n    tag_142:\n        /* \"#utility.yul\":1564:1599   */\n      swap1\n      pop\n        /* \"#utility.yul\":1509:1605   */\n      swap2\n      swap1\n      pop\n      jump\t// out\n        /* \"#utility.yul\":1611:1729   */\n    tag_97:\n        /* \"#utility.yul\":1698:1722   */\n      tag_144\n        /* \"#utility.yul\":1716:1721   */\n      dup2\n        /* \"#utility.yul\":1698:1722   */\n      tag_96\n      jump\t// in\n    tag_144:\n        /* \"#utility.yul\":1693:1696   */\n      dup3\n        /* \"#utility.yul\":1686:1723   */\n      mstore\n        /* \"#utility.yul\":1611:1729   */\n      pop\n      pop\n      jump\t// out\n        /* \"#utility.yul\":1735:1957   */\n    tag_26:\n        /* \"#utility.yul\":1828:1832   */\n      0x00\n        /* \"#utility.yul\":1866:1868   */\n      0x20\n        /* \"#utility.yul\":1855:1864   */\n      dup3\n        /* \"#utility.yul\":1851:1869   */\n      add\n        /* \"#utility.yul\":1843:1869   */\n      swap1\n      pop\n        /* \"#utility.yul\":1879:1950   */\n      tag_146\n        /* \"#utility.yul\":1947:1948   */\n      0x00\n        /* \"#utility.yul\":1936:1945   */\n      dup4\n        /* \"#utility.yul\":1932:1949   */\n      add\n        /* \"#utility.yul\":1923:1929   */\n      dup5\n        /* \"#utility.yul\":1879:1950   */\n      tag_97\n      jump\t// in\n    tag_146:\n        /* \"#utility.yul\":1735:1957   */\n      swap3\n      swap2\n      pop\n      pop\n      jump\t// out\n        /* \"#utility.yul\":1963:2077   */\n    tag_98:\n        /* \"#utility.yul\":2030:2036   */\n      0x00\n        /* \"#utility.yul\":2064:2069   */\n      dup2\n        /* \"#utility.yul\":2058:2070   */\n      mload\n        /* \"#utility.yul\":2048:2070   */\n      swap1\n      pop\n        /* \"#utility.yul\":1963:2077   */\n      swap2\n      swap1\n      pop\n      jump\t// out\n        /* \"#utility.yul\":2083:2267   */\n    tag_99:\n        /* \"#utility.yul\":2182:2193   */\n      0x00\n        /* \"#utility.yul\":2216:2222   */\n      dup3\n        /* \"#utility.yul\":2211:2214   */\n      dup3\n        /* \"#utility.yul\":2204:2223   */\n      mstore\n        /* \"#utility.yul\":2256:2260   */\n      0x20\n        /* \"#utility.yul\":2251:2254   */\n      dup3\n        /* \"#utility.yul\":2247:2261   */\n      add\n        /* \"#utility.yul\":2232:2261   */\n      swap1\n      pop\n        /* \"#utility.yul\":2083:2267   */\n      swap3\n      swap2\n      pop\n      pop\n      jump\t// out\n        /* \"#utility.yul\":2273:2405   */\n    tag_100:\n        /* \"#utility.yul\":2340:2344   */\n      0x00\n        /* \"#utility.yul\":2363:2366   */\n      dup2\n        /* \"#utility.yul\":2355:2366   */\n      swap1\n      pop\n        /* \"#utility.yul\":2393:2397   */\n      0x20\n        /* \"#utility.yul\":2388:2391   */\n      dup3\n        /* \"#utility.yul\":2384:2398   */\n      add\n        /* \"#utility.yul\":2376:2398   */\n      swap1\n      pop\n        /* \"#utility.yul\":2273:2405   */\n      swap2\n      swap1\n      pop\n      jump\t// out\n        /* \"#utility.yul\":2411:2519   */\n    tag_101:\n        /* \"#utility.yul\":2488:2512   */\n      tag_151\n        /* \"#utility.yul\":2506:2511   */\n      dup2\n        /* \"#utility.yul\":2488:2512   */\n      tag_96\n      jump\t// in\n    tag_151:\n        /* \"#utility.yul\":2483:2486   */\n      dup3\n        /* \"#utility.yul\":2476:2513   */\n      mstore\n        /* \"#utility.yul\":2411:2519   */\n      pop\n      pop\n      jump\t// out\n        /* \"#utility.yul\":2525:2704   */\n    tag_102:\n        /* \"#utility.yul\":2594:2604   */\n      0x00\n        /* \"#utility.yul\":2615:2661   */\n      tag_153\n        /* \"#utility.yul\":2657:2660   */\n      dup4\n        /* \"#utility.yul\":2649:2655   */\n      dup4\n        /* \"#utility.yul\":2615:2661   */\n      tag_101\n      jump\t// in\n    tag_153:\n        /* \"#utility.yul\":2693:2697   */\n      0x20\n        /* \"#utility.yul\":2688:2691   */\n      dup4\n        /* \"#utility.yul\":2684:2698   */\n      add\n        /* \"#utility.yul\":2670:2698   */\n      swap1\n      pop\n        /* \"#utility.yul\":2525:2704   */\n      swap3\n      swap2\n      pop\n      pop\n      jump\t// out\n        /* \"#utility.yul\":2710:2823   */\n    tag_103:\n        /* \"#utility.yul\":2780:2784   */\n      0x00\n        /* \"#utility.yul\":2812:2816   */\n      0x20\n        /* \"#utility.yul\":2807:2810   */\n      dup3\n        /* \"#utility.yul\":2803:2817   */\n      add\n        /* \"#utility.yul\":2795:2817   */\n      swap1\n      pop\n        /* \"#utility.yul\":2710:2823   */\n      swap2\n      swap1\n      pop\n      jump\t// out\n        /* \"#utility.yul\":2859:3591   */\n    tag_104:\n        /* \"#utility.yul\":2978:2981   */\n      0x00\n        /* \"#utility.yul\":3007:3061   */\n      tag_156\n        /* \"#utility.yul\":3055:3060   */\n      dup3\n        /* \"#utility.yul\":3007:3061   */\n      tag_98\n      jump\t// in\n    tag_156:\n        /* \"#utility.yul\":3077:3163   */\n      tag_157\n        /* \"#utility.yul\":3156:3162   */\n      dup2\n        /* \"#utility.yul\":3151:3154   */\n      dup6\n        /* \"#utility.yul\":3077:3163   */\n      tag_99\n      jump\t// in\n    tag_157:\n        /* \"#utility.yul\":3070:3163   */\n      swap4\n      pop\n        /* \"#utility.yul\":3187:3243   */\n      tag_158\n        /* \"#utility.yul\":3237:3242   */\n      dup4\n        /* \"#utility.yul\":3187:3243   */\n      tag_100\n      jump\t// in\n    tag_158:\n        /* \"#utility.yul\":3266:3273   */\n      dup1\n        /* \"#utility.yul\":3297:3298   */\n      0x00\n        /* \"#utility.yul\":3282:3566   */\n    tag_159:\n        /* \"#utility.yul\":3307:3313   */\n      dup4\n        /* \"#utility.yul\":3304:3305   */\n      dup2\n        /* \"#utility.yul\":3301:3314   */\n      lt\n        /* \"#utility.yul\":3282:3566   */\n      iszero\n      tag_161\n      jumpi\n        /* \"#utility.yul\":3383:3389   */\n      dup2\n        /* \"#utility.yul\":3377:3390   */\n      mload\n        /* \"#utility.yul\":3410:3473   */\n      tag_162\n        /* \"#utility.yul\":3469:3472   */\n      dup9\n        /* \"#utility.yul\":3454:3467   */\n      dup3\n        /* \"#utility.yul\":3410:3473   */\n      tag_102\n      jump\t// in\n    tag_162:\n        /* \"#utility.yul\":3403:3473   */\n      swap8\n      pop\n        /* \"#utility.yul\":3496:3556   */\n      tag_163\n        /* \"#utility.yul\":3549:3555   */\n      dup4\n        /* \"#utility.yul\":3496:3556   */\n      tag_103\n      jump\t// in\n    tag_163:\n        /* \"#utility.yul\":3486:3556   */\n      swap3\n      pop\n        /* \"#utility.yul\":3342:3566   */\n      pop\n        /* \"#utility.yul\":3329:3330   */\n      0x01\n        /* \"#utility.yul\":3326:3327   */\n      dup2\n        /* \"#utility.yul\":3322:3331   */\n      add\n        /* \"#utility.yul\":3317:3331   */\n      swap1\n      pop\n        /* \"#utility.yul\":3282:3566   */\n      jump(tag_159)\n    tag_161:\n        /* \"#utility.yul\":3286:3300   */\n      pop\n        /* \"#utility.yul\":3582:3585   */\n      dup6\n        /* \"#utility.yul\":3575:3585   */\n      swap4\n      pop\n        /* \"#utility.yul\":2983:3591   */\n      pop\n      pop\n      pop\n        /* \"#utility.yul\":2859:3591   */\n      swap3\n      swap2\n      pop\n      pop\n      jump\t// out\n        /* \"#utility.yul\":3597:3711   */\n    tag_105:\n        /* \"#utility.yul\":3664:3670   */\n      0x00\n        /* \"#utility.yul\":3698:3703   */\n      dup2\n        /* \"#utility.yul\":3692:3704   */\n      mload\n        /* \"#utility.yul\":3682:3704   */\n      swap1\n      pop\n        /* \"#utility.yul\":3597:3711   */\n      swap2\n      swap1\n      pop\n      jump\t// out\n        /* \"#utility.yul\":3717:3901   */\n    tag_106:\n        /* \"#utility.yul\":3816:3827   */\n      0x00\n        /* \"#utility.yul\":3850:3856   */\n      dup3\n        /* \"#utility.yul\":3845:3848   */\n      dup3\n        /* \"#utility.yul\":3838:3857   */\n      mstore\n        /* \"#utility.yul\":3890:3894   */\n      0x20\n        /* \"#utility.yul\":3885:3888   */\n      dup3\n        /* \"#utility.yul\":3881:3895   */\n      add\n        /* \"#utility.yul\":3866:3895   */\n      swap1\n      pop\n        /* \"#utility.yul\":3717:3901   */\n      swap3\n      swap2\n      pop\n      pop\n      jump\t// out\n        /* \"#utility.yul\":3907:4039   */\n    tag_107:\n        /* \"#utility.yul\":3974:3978   */\n      0x00\n        /* \"#utility.yul\":3997:4000   */\n      dup2\n        /* \"#utility.yul\":3989:4000   */\n      swap1\n      pop\n        /* \"#utility.yul\":4027:4031   */\n      0x20\n        /* \"#utility.yul\":4022:4025   */\n      dup3\n        /* \"#utility.yul\":4018:4032   */\n      add\n        /* \"#utility.yul\":4010:4032   */\n      swap1\n      pop\n        /* \"#utility.yul\":3907:4039   */\n      swap2\n      swap1\n      pop\n      jump\t// out\n        /* \"#utility.yul\":4045:4153   */\n    tag_108:\n        /* \"#utility.yul\":4122:4146   */\n      tag_168\n        /* \"#utility.yul\":4140:4145   */\n      dup2\n        /* \"#utility.yul\":4122:4146   */\n      tag_88\n      jump\t// in\n    tag_168:\n        /* \"#utility.yul\":4117:4120   */\n      dup3\n        /* \"#utility.yul\":4110:4147   */\n      mstore\n        /* \"#utility.yul\":4045:4153   */\n      pop\n      pop\n      jump\t// out\n        /* \"#utility.yul\":4159:4338   */\n    tag_109:\n        /* \"#utility.yul\":4228:4238   */\n      0x00\n        /* \"#utility.yul\":4249:4295   */\n      tag_170\n        /* \"#utility.yul\":4291:4294   */\n      dup4\n        /* \"#utility.yul\":4283:4289   */\n      dup4\n        /* \"#utility.yul\":4249:4295   */\n      tag_108\n      jump\t// in\n    tag_170:\n        /* \"#utility.yul\":4327:4331   */\n      0x20\n        /* \"#utility.yul\":4322:4325   */\n      dup4\n        /* \"#utility.yul\":4318:4332   */\n      add\n        /* \"#utility.yul\":4304:4332   */\n      swap1\n      pop\n        /* \"#utility.yul\":4159:4338   */\n      swap3\n      swap2\n      pop\n      pop\n      jump\t// out\n        /* \"#utility.yul\":4344:4457   */\n    tag_110:\n        /* \"#utility.yul\":4414:4418   */\n      0x00\n        /* \"#utility.yul\":4446:4450   */\n      0x20\n        /* \"#utility.yul\":4441:4444   */\n      dup3\n        /* \"#utility.yul\":4437:4451   */\n      add\n        /* \"#utility.yul\":4429:4451   */\n      swap1\n      pop\n        /* \"#utility.yul\":4344:4457   */\n      swap2\n      swap1\n      pop\n      jump\t// out\n        /* \"#utility.yul\":4493:5225   */\n    tag_111:\n        /* \"#utility.yul\":4612:4615   */\n      0x00\n        /* \"#utility.yul\":4641:4695   */\n      tag_173\n        /* \"#utility.yul\":4689:4694   */\n      dup3\n        /* \"#utility.yul\":4641:4695   */\n      tag_105\n      jump\t// in\n    tag_173:\n        /* \"#utility.yul\":4711:4797   */\n      tag_174\n        /* \"#utility.yul\":4790:4796   */\n      dup2\n        /* \"#utility.yul\":4785:4788   */\n      dup6\n        /* \"#utility.yul\":4711:4797   */\n      tag_106\n      jump\t// in\n    tag_174:\n        /* \"#utility.yul\":4704:4797   */\n      swap4\n      pop\n        /* \"#utility.yul\":4821:4877   */\n      tag_175\n        /* \"#utility.yul\":4871:4876   */\n      dup4\n        /* \"#utility.yul\":4821:4877   */\n      tag_107\n      jump\t// in\n    tag_175:\n        /* \"#utility.yul\":4900:4907   */\n      dup1\n        /* \"#utility.yul\":4931:4932   */\n      0x00\n        /* \"#utility.yul\":4916:5200   */\n    tag_176:\n        /* \"#utility.yul\":4941:4947   */\n      dup4\n        /* \"#utility.yul\":4938:4939   */\n      dup2\n        /* \"#utility.yul\":4935:4948   */\n      lt\n        /* \"#utility.yul\":4916:5200   */\n      iszero\n      tag_178\n      jumpi\n        /* \"#utility.yul\":5017:5023   */\n      dup2\n        /* \"#utility.yul\":5011:5024   */\n      mload\n        /* \"#utility.yul\":5044:5107   */\n      tag_179\n        /* \"#utility.yul\":5103:5106   */\n      dup9\n        /* \"#utility.yul\":5088:5101   */\n      dup3\n        /* \"#utility.yul\":5044:5107   */\n      tag_109\n      jump\t// in\n    tag_179:\n        /* \"#utility.yul\":5037:5107   */\n      swap8\n      pop\n        /* \"#utility.yul\":5130:5190   */\n      tag_180\n        /* \"#utility.yul\":5183:5189   */\n      dup4\n        /* \"#utility.yul\":5130:5190   */\n      tag_110\n      jump\t// in\n    tag_180:\n        /* \"#utility.yul\":5120:5190   */\n      swap3\n      pop\n        /* \"#utility.yul\":4976:5200   */\n      pop\n        /* \"#utility.yul\":4963:4964   */\n      0x01\n        /* \"#utility.yul\":4960:4961   */\n      dup2\n        /* \"#utility.yul\":4956:4965   */\n      add\n        /* \"#utility.yul\":4951:4965   */\n      swap1\n      pop\n        /* \"#utility.yul\":4916:5200   */\n      jump(tag_176)\n    tag_178:\n        /* \"#utility.yul\":4920:4934   */\n      pop\n        /* \"#utility.yul\":5216:5219   */\n      dup6\n        /* \"#utility.yul\":5209:5219   */\n      swap4\n      pop\n        /* \"#utility.yul\":4617:5225   */\n      pop\n      pop\n      pop\n        /* \"#utility.yul\":4493:5225   */\n      swap3\n      swap2\n      pop\n      pop\n      jump\t// out\n        /* \"#utility.yul\":5231:5865   */\n    tag_38:\n        /* \"#utility.yul\":5452:5456   */\n      0x00\n        /* \"#utility.yul\":5490:5492   */\n      0x40\n        /* \"#utility.yul\":5479:5488   */\n      dup3\n        /* \"#utility.yul\":5475:5493   */\n      add\n        /* \"#utility.yul\":5467:5493   */\n      swap1\n      pop\n        /* \"#utility.yul\":5539:5548   */\n      dup2\n        /* \"#utility.yul\":5533:5537   */\n      dup2\n        /* \"#utility.yul\":5529:5549   */\n      sub\n        /* \"#utility.yul\":5525:5526   */\n      0x00\n        /* \"#utility.yul\":5514:5523   */\n      dup4\n        /* \"#utility.yul\":5510:5527   */\n      add\n        /* \"#utility.yul\":5503:5550   */\n      mstore\n        /* \"#utility.yul\":5567:5675   */\n      tag_182\n        /* \"#utility.yul\":5670:5674   */\n      dup2\n        /* \"#utility.yul\":5661:5667   */\n      dup6\n        /* \"#utility.yul\":5567:5675   */\n      tag_104\n      jump\t// in\n    tag_182:\n        /* \"#utility.yul\":5559:5675   */\n      swap1\n      pop\n        /* \"#utility.yul\":5722:5731   */\n      dup2\n        /* \"#utility.yul\":5716:5720   */\n      dup2\n        /* \"#utility.yul\":5712:5732   */\n      sub\n        /* \"#utility.yul\":5707:5709   */\n      0x20\n        /* \"#utility.yul\":5696:5705   */\n      dup4\n        /* \"#utility.yul\":5692:5710   */\n      add\n        /* \"#utility.yul\":5685:5733   */\n      mstore\n        /* \"#utility.yul\":5750:5858   */\n      tag_183\n        /* \"#utility.yul\":5853:5857   */\n      dup2\n        /* \"#utility.yul\":5844:5850   */\n      dup5\n        /* \"#utility.yul\":5750:5858   */\n      tag_111\n      jump\t// in\n    tag_183:\n        /* \"#utility.yul\":5742:5858   */\n      swap1\n      pop\n        /* \"#utility.yul\":5231:5865   */\n      swap4\n      swap3\n      pop\n      pop\n      pop\n      jump\t// out\n        /* \"#utility.yul\":5871:5993   */\n    tag_112:\n        /* \"#utility.yul\":5944:5968   */\n      tag_185\n        /* \"#utility.yul\":5962:5967   */\n      dup2\n        /* \"#utility.yul\":5944:5968   */\n      tag_96\n      jump\t// in\n    tag_185:\n        /* \"#utility.yul\":5937:5942   */\n      dup2\n        /* \"#utility.yul\":5934:5969   */\n      eq\n        /* \"#utility.yul\":5924:5987   */\n      tag_186\n      jumpi\n        /* \"#utility.yul\":5983:5984   */\n      0x00\n        /* \"#utility.yul\":5980:5981   */\n      dup1\n        /* \"#utility.yul\":5973:5985   */\n      revert\n        /* \"#utility.yul\":5924:5987   */\n    tag_186:\n        /* \"#utility.yul\":5871:5993   */\n      pop\n      jump\t// out\n        /* \"#utility.yul\":5999:6138   */\n    tag_113:\n        /* \"#utility.yul\":6045:6050   */\n      0x00\n        /* \"#utility.yul\":6083:6089   */\n      dup2\n        /* \"#utility.yul\":6070:6090   */\n      calldataload\n        /* \"#utility.yul\":6061:6090   */\n      swap1\n      pop\n        /* \"#utility.yul\":6099:6132   */\n      tag_188\n        /* \"#utility.yul\":6126:6131   */\n      dup2\n        /* \"#utility.yul\":6099:6132   */\n      tag_112\n      jump\t// in\n    tag_188:\n        /* \"#utility.yul\":5999:6138   */\n      swap3\n      swap2\n      pop\n      pop\n      jump\t// out\n        /* \"#utility.yul\":6144:6473   */\n    tag_42:\n        /* \"#utility.yul\":6203:6209   */\n      0x00\n        /* \"#utility.yul\":6252:6254   */\n      0x20\n        /* \"#utility.yul\":6240:6249   */\n      dup3\n        /* \"#utility.yul\":6231:6238   */\n      dup5\n        /* \"#utility.yul\":6227:6250   */\n      sub\n        /* \"#utility.yul\":6223:6255   */\n      slt\n        /* \"#utility.yul\":6220:6339   */\n      iszero\n      tag_190\n      jumpi\n        /* \"#utility.yul\":6258:6337   */\n      tag_191\n      tag_91\n      jump\t// in\n    tag_191:\n        /* \"#utility.yul\":6220:6339   */\n    tag_190:\n        /* \"#utility.yul\":6378:6379   */\n      0x00\n        /* \"#utility.yul\":6403:6456   */\n      tag_192\n        /* \"#utility.yul\":6448:6455   */\n      dup5\n        /* \"#utility.yul\":6439:6445   */\n      dup3\n        /* \"#utility.yul\":6428:6437   */\n      dup6\n        /* \"#utility.yul\":6424:6446   */\n      add\n        /* \"#utility.yul\":6403:6456   */\n      tag_113\n      jump\t// in\n    tag_192:\n        /* \"#utility.yul\":6393:6456   */\n      swap2\n      pop\n        /* \"#utility.yul\":6349:6466   */\n      pop\n        /* \"#utility.yul\":6144:6473   */\n      swap3\n      swap2\n      pop\n      pop\n      jump\t// out\n        /* \"#utility.yul\":6479:6648   */\n    tag_114:\n        /* \"#utility.yul\":6563:6574   */\n      0x00\n        /* \"#utility.yul\":6597:6603   */\n      dup3\n        /* \"#utility.yul\":6592:6595   */\n      dup3\n        /* \"#utility.yul\":6585:6604   */\n      mstore\n        /* \"#utility.yul\":6637:6641   */\n      0x20\n        /* \"#utility.yul\":6632:6635   */\n      dup3\n        /* \"#utility.yul\":6628:6642   */\n      add\n        /* \"#utility.yul\":6613:6642   */\n      swap1\n      pop\n        /* \"#utility.yul\":6479:6648   */\n      swap3\n      swap2\n      pop\n      pop\n      jump\t// out\n        /* \"#utility.yul\":6654:6831   */\n    tag_115:\n        /* \"#utility.yul\":6794:6823   */\n      0x4f6e6c7920746865206f776e65722063616e2077697468647261770000000000\n        /* \"#utility.yul\":6790:6791   */\n      0x00\n        /* \"#utility.yul\":6782:6788   */\n      dup3\n        /* \"#utility.yul\":6778:6792   */\n      add\n        /* \"#utility.yul\":6771:6824   */\n      mstore\n        /* \"#utility.yul\":6654:6831   */\n      pop\n      jump\t// out\n        /* \"#utility.yul\":6837:7203   */\n    tag_116:\n        /* \"#utility.yul\":6979:6982   */\n      0x00\n        /* \"#utility.yul\":7000:7067   */\n      tag_196\n        /* \"#utility.yul\":7064:7066   */\n      0x1b\n        /* \"#utility.yul\":7059:7062   */\n      dup4\n        /* \"#utility.yul\":7000:7067   */\n      tag_114\n      jump\t// in\n    tag_196:\n        /* \"#utility.yul\":6993:7067   */\n      swap2\n      pop\n        /* \"#utility.yul\":7076:7169   */\n      tag_197\n        /* \"#utility.yul\":7165:7168   */\n      dup3\n        /* \"#utility.yul\":7076:7169   */\n      tag_115\n      jump\t// in\n    tag_197:\n        /* \"#utility.yul\":7194:7196   */\n      0x20\n        /* \"#utility.yul\":7189:7192   */\n      dup3\n        /* \"#utility.yul\":7185:7197   */\n      add\n        /* \"#utility.yul\":7178:7197   */\n      swap1\n      pop\n        /* \"#utility.yul\":6837:7203   */\n      swap2\n      swap1\n      pop\n      jump\t// out\n        /* \"#utility.yul\":7209:7628   */\n    tag_51:\n        /* \"#utility.yul\":7375:7379   */\n      0x00\n        /* \"#utility.yul\":7413:7415   */\n      0x20\n        /* \"#utility.yul\":7402:7411   */\n      dup3\n        /* \"#utility.yul\":7398:7416   */\n      add\n        /* \"#utility.yul\":7390:7416   */\n      swap1\n      pop\n        /* \"#utility.yul\":7462:7471   */\n      dup2\n        /* \"#utility.yul\":7456:7460   */\n      dup2\n        /* \"#utility.yul\":7452:7472   */\n      sub\n        /* \"#utility.yul\":7448:7449   */\n      0x00\n        /* \"#utility.yul\":7437:7446   */\n      dup4\n        /* \"#utility.yul\":7433:7450   */\n      add\n        /* \"#utility.yul\":7426:7473   */\n      mstore\n        /* \"#utility.yul\":7490:7621   */\n      tag_199\n        /* \"#utility.yul\":7616:7620   */\n      dup2\n        /* \"#utility.yul\":7490:7621   */\n      tag_116\n      jump\t// in\n    tag_199:\n        /* \"#utility.yul\":7482:7621   */\n      swap1\n      pop\n        /* \"#utility.yul\":7209:7628   */\n      swap2\n      swap1\n      pop\n      jump\t// out\n        /* \"#utility.yul\":7634:7816   */\n    tag_117:\n        /* \"#utility.yul\":7774:7808   */\n      0x496e73756666696369656e742062616c616e636520696e20636f6e7472616374\n        /* \"#utility.yul\":7770:7771   */\n      0x00\n        /* \"#utility.yul\":7762:7768   */\n      dup3\n        /* \"#utility.yul\":7758:7772   */\n      add\n        /* \"#utility.yul\":7751:7809   */\n      mstore\n        /* \"#utility.yul\":7634:7816   */\n      pop\n      jump\t// out\n        /* \"#utility.yul\":7822:8188   */\n    tag_118:\n        /* \"#utility.yul\":7964:7967   */\n      0x00\n        /* \"#utility.yul\":7985:8052   */\n      tag_202\n        /* \"#utility.yul\":8049:8051   */\n      0x20\n        /* \"#utility.yul\":8044:8047   */\n      dup4\n        /* \"#utility.yul\":7985:8052   */\n      tag_114\n      jump\t// in\n    tag_202:\n        /* \"#utility.yul\":7978:8052   */\n      swap2\n      pop\n        /* \"#utility.yul\":8061:8154   */\n      tag_203\n        /* \"#utility.yul\":8150:8153   */\n      dup3\n        /* \"#utility.yul\":8061:8154   */\n      tag_117\n      jump\t// in\n    tag_203:\n        /* \"#utility.yul\":8179:8181   */\n      0x20\n        /* \"#utility.yul\":8174:8177   */\n      dup3\n        /* \"#utility.yul\":8170:8182   */\n      add\n        /* \"#utility.yul\":8163:8182   */\n      swap1\n      pop\n        /* \"#utility.yul\":7822:8188   */\n      swap2\n      swap1\n      pop\n      jump\t// out\n        /* \"#utility.yul\":8194:8613   */\n    tag_54:\n        /* \"#utility.yul\":8360:8364   */\n      0x00\n        /* \"#utility.yul\":8398:8400   */\n      0x20\n        /* \"#utility.yul\":8387:8396   */\n      dup3\n        /* \"#utility.yul\":8383:8401   */\n      add\n        /* \"#utility.yul\":8375:8401   */\n      swap1\n      pop\n        /* \"#utility.yul\":8447:8456   */\n      dup2\n        /* \"#utility.yul\":8441:8445   */\n      dup2\n        /* \"#utility.yul\":8437:8457   */\n      sub\n        /* \"#utility.yul\":8433:8434   */\n      0x00\n        /* \"#utility.yul\":8422:8431   */\n      dup4\n        /* \"#utility.yul\":8418:8435   */\n      add\n        /* \"#utility.yul\":8411:8458   */\n      mstore\n        /* \"#utility.yul\":8475:8606   */\n      tag_205\n        /* \"#utility.yul\":8601:8605   */\n      dup2\n        /* \"#utility.yul\":8475:8606   */\n      tag_118\n      jump\t// in\n    tag_205:\n        /* \"#utility.yul\":8467:8606   */\n      swap1\n      pop\n        /* \"#utility.yul\":8194:8613   */\n      swap2\n      swap1\n      pop\n      jump\t// out\n        /* \"#utility.yul\":8619:8799   */\n    tag_67:\n        /* \"#utility.yul\":8667:8744   */\n      0x4e487b7100000000000000000000000000000000000000000000000000000000\n        /* \"#utility.yul\":8664:8665   */\n      0x00\n        /* \"#utility.yul\":8657:8745   */\n      mstore\n        /* \"#utility.yul\":8764:8768   */\n      0x41\n        /* \"#utility.yul\":8761:8762   */\n      0x04\n        /* \"#utility.yul\":8754:8769   */\n      mstore\n        /* \"#utility.yul\":8788:8792   */\n      0x24\n        /* \"#utility.yul\":8785:8786   */\n      0x00\n        /* \"#utility.yul\":8778:8793   */\n      revert\n        /* \"#utility.yul\":8805:8985   */\n    tag_74:\n        /* \"#utility.yul\":8853:8930   */\n      0x4e487b7100000000000000000000000000000000000000000000000000000000\n        /* \"#utility.yul\":8850:8851   */\n      0x00\n        /* \"#utility.yul\":8843:8931   */\n      mstore\n        /* \"#utility.yul\":8950:8954   */\n      0x32\n        /* \"#utility.yul\":8947:8948   */\n      0x04\n        /* \"#utility.yul\":8940:8955   */\n      mstore\n        /* \"#utility.yul\":8974:8978   */\n      0x24\n        /* \"#utility.yul\":8971:8972   */\n      0x00\n        /* \"#utility.yul\":8964:8979   */\n      revert\n        /* \"#utility.yul\":8991:9212   */\n    tag_119:\n        /* \"#utility.yul\":9131:9165   */\n      0x446f6e6174696f6e206d7573742062652067726561746572207468616e207a65\n        /* \"#utility.yul\":9127:9128   */\n      0x00\n        /* \"#utility.yul\":9119:9125   */\n      dup3\n        /* \"#utility.yul\":9115:9129   */\n      add\n        /* \"#utility.yul\":9108:9166   */\n      mstore\n        /* \"#utility.yul\":9200:9204   */\n      0x726f000000000000000000000000000000000000000000000000000000000000\n        /* \"#utility.yul\":9195:9197   */\n      0x20\n        /* \"#utility.yul\":9187:9193   */\n      dup3\n        /* \"#utility.yul\":9183:9198   */\n      add\n        /* \"#utility.yul\":9176:9205   */\n      mstore\n        /* \"#utility.yul\":8991:9212   */\n      pop\n      jump\t// out\n        /* \"#utility.yul\":9218:9584   */\n    tag_120:\n        /* \"#utility.yul\":9360:9363   */\n      0x00\n        /* \"#utility.yul\":9381:9448   */\n      tag_210\n        /* \"#utility.yul\":9445:9447   */\n      0x22\n        /* \"#utility.yul\":9440:9443   */\n      dup4\n        /* \"#utility.yul\":9381:9448   */\n      tag_114\n      jump\t// in\n    tag_210:\n        /* \"#utility.yul\":9374:9448   */\n      swap2\n      pop\n        /* \"#utility.yul\":9457:9550   */\n      tag_211\n        /* \"#utility.yul\":9546:9549   */\n      dup3\n        /* \"#utility.yul\":9457:9550   */\n      tag_119\n      jump\t// in\n    tag_211:\n        /* \"#utility.yul\":9575:9577   */\n      0x40\n        /* \"#utility.yul\":9570:9573   */\n      dup3\n        /* \"#utility.yul\":9566:9578   */\n      add\n        /* \"#utility.yul\":9559:9578   */\n      swap1\n      pop\n        /* \"#utility.yul\":9218:9584   */\n      swap2\n      swap1\n      pop\n      jump\t// out\n        /* \"#utility.yul\":9590:10009   */\n    tag_83:\n        /* \"#utility.yul\":9756:9760   */\n      0x00\n        /* \"#utility.yul\":9794:9796   */\n      0x20\n        /* \"#utility.yul\":9783:9792   */\n      dup3\n        /* \"#utility.yul\":9779:9797   */\n      add\n        /* \"#utility.yul\":9771:9797   */\n      swap1\n      pop\n        /* \"#utility.yul\":9843:9852   */\n      dup2\n        /* \"#utility.yul\":9837:9841   */\n      dup2\n        /* \"#utility.yul\":9833:9853   */\n      sub\n        /* \"#utility.yul\":9829:9830   */\n      0x00\n        /* \"#utility.yul\":9818:9827   */\n      dup4\n        /* \"#utility.yul\":9814:9831   */\n      add\n        /* \"#utility.yul\":9807:9854   */\n      mstore\n        /* \"#utility.yul\":9871:10002   */\n      tag_213\n        /* \"#utility.yul\":9997:10001   */\n      dup2\n        /* \"#utility.yul\":9871:10002   */\n      tag_120\n      jump\t// in\n    tag_213:\n        /* \"#utility.yul\":9863:10002   */\n      swap1\n      pop\n        /* \"#utility.yul\":9590:10009   */\n      swap2\n      swap1\n      pop\n      jump\t// out\n        /* \"#utility.yul\":10015:10195   */\n    tag_121:\n        /* \"#utility.yul\":10063:10140   */\n      0x4e487b7100000000000000000000000000000000000000000000000000000000\n        /* \"#utility.yul\":10060:10061   */\n      0x00\n        /* \"#utility.yul\":10053:10141   */\n      mstore\n        /* \"#utility.yul\":10160:10164   */\n      0x11\n        /* \"#utility.yul\":10157:10158   */\n      0x04\n        /* \"#utility.yul\":10150:10165   */\n      mstore\n        /* \"#utility.yul\":10184:10188   */\n      0x24\n        /* \"#utility.yul\":10181:10182   */\n      0x00\n        /* \"#utility.yul\":10174:10189   */\n      revert\n        /* \"#utility.yul\":10201:10392   */\n    tag_87:\n        /* \"#utility.yul\":10241:10244   */\n      0x00\n        /* \"#utility.yul\":10260:10280   */\n      tag_216\n        /* \"#utility.yul\":10278:10279   */\n      dup3\n        /* \"#utility.yul\":10260:10280   */\n      tag_88\n      jump\t// in\n    tag_216:\n        /* \"#utility.yul\":10255:10280   */\n      swap2\n      pop\n        /* \"#utility.yul\":10294:10314   */\n      tag_217\n        /* \"#utility.yul\":10312:10313   */\n      dup4\n        /* \"#utility.yul\":10294:10314   */\n      tag_88\n      jump\t// in\n    tag_217:\n        /* \"#utility.yul\":10289:10314   */\n      swap3\n      pop\n        /* \"#utility.yul\":10337:10338   */\n      dup3\n        /* \"#utility.yul\":10334:10335   */\n      dup3\n        /* \"#utility.yul\":10330:10339   */\n      add\n        /* \"#utility.yul\":10323:10339   */\n      swap1\n      pop\n        /* \"#utility.yul\":10358:10361   */\n      dup1\n        /* \"#utility.yul\":10355:10356   */\n      dup3\n        /* \"#utility.yul\":10352:10362   */\n      gt\n        /* \"#utility.yul\":10349:10385   */\n      iszero\n      tag_218\n      jumpi\n        /* \"#utility.yul\":10365:10383   */\n      tag_219\n      tag_121\n      jump\t// in\n    tag_219:\n        /* \"#utility.yul\":10349:10385   */\n    tag_218:\n        /* \"#utility.yul\":10201:10392   */\n      swap3\n      swap2\n      pop\n      pop\n      jump\t// out\n\n    auxdata: 0xa26469706673582212202cabf8288faf809793f039e64560c9cd3b6a2f684aea83d8e0ad2a333325711764736f6c634300081a0033\n}\n",
				"bytecode": {
					"linkReferences": {},
					"object": "6080604052348015600e575f80fd5b50335f806101000a81548173ffffffffffffffffffffffffffffffffffffffff021916908373ffffffffffffffffffffffffffffffffffffffff160217905550610c6d8061005b5f395ff3fe60806040526004361061007a575f3560e01c80638da5cb5b1161004d5780638da5cb5b1461012257806396f300d41461014c578063cc6cb19a14610177578063ed88c68e146101b35761007a565b806312065fe01461007e5780632e1a7d4d146100a85780634abfa163146100d0578063853828b61461010c575b5f80fd5b348015610089575f80fd5b506100926101bd565b60405161009f919061074d565b60405180910390f35b3480156100b3575f80fd5b506100ce60048036038101906100c99190610794565b6101c4565b005b3480156100db575f80fd5b506100f660048036038101906100f19190610794565b6102fa565b60405161010391906107fe565b60405180910390f35b348015610117575f80fd5b50610120610335565b005b34801561012d575f80fd5b50610136610427565b60405161014391906107fe565b60405180910390f35b348015610157575f80fd5b5061016061044a565b60405161016e929190610985565b60405180910390f35b348015610182575f80fd5b5061019d600480360381019061019891906109e4565b6105e4565b6040516101aa919061074d565b60405180910390f35b6101bb6105f9565b005b5f47905090565b5f8054906101000a900473ffffffffffffffffffffffffffffffffffffffff1673ffffffffffffffffffffffffffffffffffffffff163373ffffffffffffffffffffffffffffffffffffffff1614610251576040517f08c379a000000000000000000000000000000000000000000000000000000000815260040161024890610a69565b60405180910390fd5b47811115610294576040517f08c379a000000000000000000000000000000000000000000000000000000000815260040161028b90610ad1565b60405180910390fd5b5f8054906101000a900473ffffffffffffffffffffffffffffffffffffffff1673ffffffffffffffffffffffffffffffffffffffff166108fc8290811502906040515f60405180830381858888f193505050501580156102f6573d5f803e3d5ffd5b5050565b60028181548110610309575f80fd5b905f5260205f20015f915054906101000a900473ffffffffffffffffffffffffffffffffffffffff1681565b5f8054906101000a900473ffffffffffffffffffffffffffffffffffffffff1673ffffffffffffffffffffffffffffffffffffffff163373ffffffffffffffffffffffffffffffffffffffff16146103c2576040517f08c379a00000000000000000000000000000000000000000000000000000000081526004016103b990610a69565b60405180910390fd5b5f8054906101000a900473ffffffffffffffffffffffffffffffffffffffff1673ffffffffffffffffffffffffffffffffffffffff166108fc4790811502906040515f60405180830381858888f19350505050158015610424573d5f803e3d5ffd5b50565b5f8054906101000a900473ffffffffffffffffffffffffffffffffffffffff1681565b6060805f60028054905067ffffffffffffffff81111561046d5761046c610aef565b5b60405190808252806020026020018201604052801561049b5781602001602082028036833780820191505090505b5090505f5b6002805490508110156105525760015f600283815481106104c4576104c3610b1c565b5b905f5260205f20015f9054906101000a900473ffffffffffffffffffffffffffffffffffffffff1673ffffffffffffffffffffffffffffffffffffffff1673ffffffffffffffffffffffffffffffffffffffff1681526020019081526020015f205482828151811061053957610538610b1c565b5b60200260200101818152505080806001019150506104a0565b50600281818054806020026020016040519081016040528092919081815260200182805480156105d457602002820191905f5260205f20905b815f9054906101000a900473ffffffffffffffffffffffffffffffffffffffff1673ffffffffffffffffffffffffffffffffffffffff168152602001906001019080831161058b575b5050505050915092509250509091565b6001602052805f5260405f205f915090505481565b5f341161063b576040517f08c379a000000000000000000000000000000000000000000000000000000000815260040161063290610bb9565b60405180910390fd5b5f60015f3373ffffffffffffffffffffffffffffffffffffffff1673ffffffffffffffffffffffffffffffffffffffff1681526020019081526020015f2054036106e057600233908060018154018082558091505060019003905f5260205f20015f9091909190916101000a81548173ffffffffffffffffffffffffffffffffffffffff021916908373ffffffffffffffffffffffffffffffffffffffff1602179055505b3460015f3373ffffffffffffffffffffffffffffffffffffffff1673ffffffffffffffffffffffffffffffffffffffff1681526020019081526020015f205f82825461072c9190610c04565b92505081905550565b5f819050919050565b61074781610735565b82525050565b5f6020820190506107605f83018461073e565b92915050565b5f80fd5b61077381610735565b811461077d575f80fd5b50565b5f8135905061078e8161076a565b92915050565b5f602082840312156107a9576107a8610766565b5b5f6107b684828501610780565b91505092915050565b5f73ffffffffffffffffffffffffffffffffffffffff82169050919050565b5f6107e8826107bf565b9050919050565b6107f8816107de565b82525050565b5f6020820190506108115f8301846107ef565b92915050565b5f81519050919050565b5f82825260208201905092915050565b5f819050602082019050919050565b610849816107de565b82525050565b5f61085a8383610840565b60208301905092915050565b5f602082019050919050565b5f61087c82610817565b6108868185610821565b935061089183610831565b805f5b838110156108c15781516108a8888261084f565b97506108b383610866565b925050600181019050610894565b5085935050505092915050565b5f81519050919050565b5f82825260208201905092915050565b5f819050602082019050919050565b61090081610735565b82525050565b5f61091183836108f7565b60208301905092915050565b5f602082019050919050565b5f610933826108ce565b61093d81856108d8565b9350610948836108e8565b805f5b8381101561097857815161095f8882610906565b975061096a8361091d565b92505060018101905061094b565b5085935050505092915050565b5f6040820190508181035f83015261099d8185610872565b905081810360208301526109b18184610929565b90509392505050565b6109c3816107de565b81146109cd575f80fd5b50565b5f813590506109de816109ba565b92915050565b5f602082840312156109f9576109f8610766565b5b5f610a06848285016109d0565b91505092915050565b5f82825260208201905092915050565b7f4f6e6c7920746865206f776e65722063616e20776974686472617700000000005f82015250565b5f610a53601b83610a0f565b9150610a5e82610a1f565b602082019050919050565b5f6020820190508181035f830152610a8081610a47565b9050919050565b7f496e73756666696369656e742062616c616e636520696e20636f6e74726163745f82015250565b5f610abb602083610a0f565b9150610ac682610a87565b602082019050919050565b5f6020820190508181035f830152610ae881610aaf565b9050919050565b7f4e487b71000000000000000000000000000000000000000000000000000000005f52604160045260245ffd5b7f4e487b71000000000000000000000000000000000000000000000000000000005f52603260045260245ffd5b7f446f6e6174696f6e206d7573742062652067726561746572207468616e207a655f8201527f726f000000000000000000000000000000000000000000000000000000000000602082015250565b5f610ba3602283610a0f565b9150610bae82610b49565b604082019050919050565b5f6020820190508181035f830152610bd081610b97565b9050919050565b7f4e487b71000000000000000000000000000000000000000000000000000000005f52601160045260245ffd5b5f610c0e82610735565b9150610c1983610735565b9250828201905080821115610c3157610c30610bd7565b5b9291505056fea26469706673582212202cabf8288faf809793f039e64560c9cd3b6a2f684aea83d8e0ad2a333325711764736f6c634300081a0033",
					"opcodes": "PUSH1 0x80 PUSH1 0x40 MSTORE CALLVALUE DUP1 ISZERO PUSH1 0xE JUMPI PUSH0 DUP1 REVERT JUMPDEST POP CALLER PUSH0 DUP1 PUSH2 0x100 EXP DUP2 SLOAD DUP2 PUSH20 0xFFFFFFFFFFFFFFFFFFFFFFFFFFFFFFFFFFFFFFFF MUL NOT AND SWAP1 DUP4 PUSH20 0xFFFFFFFFFFFFFFFFFFFFFFFFFFFFFFFFFFFFFFFF AND MUL OR SWAP1 SSTORE POP PUSH2 0xC6D DUP1 PUSH2 0x5B PUSH0 CODECOPY PUSH0 RETURN INVALID PUSH1 0x80 PUSH1 0x40 MSTORE PUSH1 0x4 CALLDATASIZE LT PUSH2 0x7A JUMPI PUSH0 CALLDATALOAD PUSH1 0xE0 SHR DUP1 PUSH4 0x8DA5CB5B GT PUSH2 0x4D JUMPI DUP1 PUSH4 0x8DA5CB5B EQ PUSH2 0x122 JUMPI DUP1 PUSH4 0x96F300D4 EQ PUSH2 0x14C JUMPI DUP1 PUSH4 0xCC6CB19A EQ PUSH2 0x177 JUMPI DUP1 PUSH4 0xED88C68E EQ PUSH2 0x1B3 JUMPI PUSH2 0x7A JUMP JUMPDEST DUP1 PUSH4 0x12065FE0 EQ PUSH2 0x7E JUMPI DUP1 PUSH4 0x2E1A7D4D EQ PUSH2 0xA8 JUMPI DUP1 PUSH4 0x4ABFA163 EQ PUSH2 0xD0 JUMPI DUP1 PUSH4 0x853828B6 EQ PUSH2 0x10C JUMPI JUMPDEST PUSH0 DUP1 REVERT JUMPDEST CALLVALUE DUP1 ISZERO PUSH2 0x89 JUMPI PUSH0 DUP1 REVERT JUMPDEST POP PUSH2 0x92 PUSH2 0x1BD JUMP JUMPDEST PUSH1 0x40 MLOAD PUSH2 0x9F SWAP2 SWAP1 PUSH2 0x74D JUMP JUMPDEST PUSH1 0x40 MLOAD DUP1 SWAP2 SUB SWAP1 RETURN JUMPDEST CALLVALUE DUP1 ISZERO PUSH2 0xB3 JUMPI PUSH0 DUP1 REVERT JUMPDEST POP PUSH2 0xCE PUSH1 0x4 DUP1 CALLDATASIZE SUB DUP2 ADD SWAP1 PUSH2 0xC9 SWAP2 SWAP1 PUSH2 0x794 JUMP JUMPDEST PUSH2 0x1C4 JUMP JUMPDEST STOP JUMPDEST CALLVALUE DUP1 ISZERO PUSH2 0xDB JUMPI PUSH0 DUP1 REVERT JUMPDEST POP PUSH2 0xF6 PUSH1 0x4 DUP1 CALLDATASIZE SUB DUP2 ADD SWAP1 PUSH2 0xF1 SWAP2 SWAP1 PUSH2 0x794 JUMP JUMPDEST PUSH2 0x2FA JUMP JUMPDEST PUSH1 0x40 MLOAD PUSH2 0x103 SWAP2 SWAP1 PUSH2 0x7FE JUMP JUMPDEST PUSH1 0x40 MLOAD DUP1 SWAP2 SUB SWAP1 RETURN JUMPDEST CALLVALUE DUP1 ISZERO PUSH2 0x117 JUMPI PUSH0 DUP1 REVERT JUMPDEST POP PUSH2 0x120 PUSH2 0x335 JUMP JUMPDEST STOP JUMPDEST CALLVALUE DUP1 ISZERO PUSH2 0x12D JUMPI PUSH0 DUP1 REVERT JUMPDEST POP PUSH2 0x136 PUSH2 0x427 JUMP JUMPDEST PUSH1 0x40 MLOAD PUSH2 0x143 SWAP2 SWAP1 PUSH2 0x7FE JUMP JUMPDEST PUSH1 0x40 MLOAD DUP1 SWAP2 SUB SWAP1 RETURN JUMPDEST CALLVALUE DUP1 ISZERO PUSH2 0x157 JUMPI PUSH0 DUP1 REVERT JUMPDEST POP PUSH2 0x160 PUSH2 0x44A JUMP JUMPDEST PUSH1 0x40 MLOAD PUSH2 0x16E SWAP3 SWAP2 SWAP1 PUSH2 0x985 JUMP JUMPDEST PUSH1 0x40 MLOAD DUP1 SWAP2 SUB SWAP1 RETURN JUMPDEST CALLVALUE DUP1 ISZERO PUSH2 0x182 JUMPI PUSH0 DUP1 REVERT JUMPDEST POP PUSH2 0x19D PUSH1 0x4 DUP1 CALLDATASIZE SUB DUP2 ADD SWAP1 PUSH2 0x198 SWAP2 SWAP1 PUSH2 0x9E4 JUMP JUMPDEST PUSH2 0x5E4 JUMP JUMPDEST PUSH1 0x40 MLOAD PUSH2 0x1AA SWAP2 SWAP1 PUSH2 0x74D JUMP JUMPDEST PUSH1 0x40 MLOAD DUP1 SWAP2 SUB SWAP1 RETURN JUMPDEST PUSH2 0x1BB PUSH2 0x5F9 JUMP JUMPDEST STOP JUMPDEST PUSH0 SELFBALANCE SWAP1 POP SWAP1 JUMP JUMPDEST PUSH0 DUP1 SLOAD SWAP1 PUSH2 0x100 EXP SWAP1 DIV PUSH20 0xFFFFFFFFFFFFFFFFFFFFFFFFFFFFFFFFFFFFFFFF AND PUSH20 0xFFFFFFFFFFFFFFFFFFFFFFFFFFFFFFFFFFFFFFFF AND CALLER PUSH20 0xFFFFFFFFFFFFFFFFFFFFFFFFFFFFFFFFFFFFFFFF AND EQ PUSH2 0x251 JUMPI PUSH1 0x40 MLOAD PUSH32 0x8C379A000000000000000000000000000000000000000000000000000000000 DUP2 MSTORE PUSH1 0x4 ADD PUSH2 0x248 SWAP1 PUSH2 0xA69 JUMP JUMPDEST PUSH1 0x40 MLOAD DUP1 SWAP2 SUB SWAP1 REVERT JUMPDEST SELFBALANCE DUP2 GT ISZERO PUSH2 0x294 JUMPI PUSH1 0x40 MLOAD PUSH32 0x8C379A000000000000000000000000000000000000000000000000000000000 DUP2 MSTORE PUSH1 0x4 ADD PUSH2 0x28B SWAP1 PUSH2 0xAD1 JUMP JUMPDEST PUSH1 0x40 MLOAD DUP1 SWAP2 SUB SWAP1 REVERT JUMPDEST PUSH0 DUP1 SLOAD SWAP1 PUSH2 0x100 EXP SWAP1 DIV PUSH20 0xFFFFFFFFFFFFFFFFFFFFFFFFFFFFFFFFFFFFFFFF AND PUSH20 0xFFFFFFFFFFFFFFFFFFFFFFFFFFFFFFFFFFFFFFFF AND PUSH2 0x8FC DUP3 SWAP1 DUP2 ISZERO MUL SWAP1 PUSH1 0x40 MLOAD PUSH0 PUSH1 0x40 MLOAD DUP1 DUP4 SUB DUP2 DUP6 DUP9 DUP9 CALL SWAP4 POP POP POP POP ISZERO DUP1 ISZERO PUSH2 0x2F6 JUMPI RETURNDATASIZE PUSH0 DUP1 RETURNDATACOPY RETURNDATASIZE PUSH0 REVERT JUMPDEST POP POP JUMP JUMPDEST PUSH1 0x2 DUP2 DUP2 SLOAD DUP2 LT PUSH2 0x309 JUMPI PUSH0 DUP1 REVERT JUMPDEST SWAP1 PUSH0 MSTORE PUSH1 0x20 PUSH0 KECCAK256 ADD PUSH0 SWAP2 POP SLOAD SWAP1 PUSH2 0x100 EXP SWAP1 DIV PUSH20 0xFFFFFFFFFFFFFFFFFFFFFFFFFFFFFFFFFFFFFFFF AND DUP2 JUMP JUMPDEST PUSH0 DUP1 SLOAD SWAP1 PUSH2 0x100 EXP SWAP1 DIV PUSH20 0xFFFFFFFFFFFFFFFFFFFFFFFFFFFFFFFFFFFFFFFF AND PUSH20 0xFFFFFFFFFFFFFFFFFFFFFFFFFFFFFFFFFFFFFFFF AND CALLER PUSH20 0xFFFFFFFFFFFFFFFFFFFFFFFFFFFFFFFFFFFFFFFF AND EQ PUSH2 0x3C2 JUMPI PUSH1 0x40 MLOAD PUSH32 0x8C379A000000000000000000000000000000000000000000000000000000000 DUP2 MSTORE PUSH1 0x4 ADD PUSH2 0x3B9 SWAP1 PUSH2 0xA69 JUMP JUMPDEST PUSH1 0x40 MLOAD DUP1 SWAP2 SUB SWAP1 REVERT JUMPDEST PUSH0 DUP1 SLOAD SWAP1 PUSH2 0x100 EXP SWAP1 DIV PUSH20 0xFFFFFFFFFFFFFFFFFFFFFFFFFFFFFFFFFFFFFFFF AND PUSH20 0xFFFFFFFFFFFFFFFFFFFFFFFFFFFFFFFFFFFFFFFF AND PUSH2 0x8FC SELFBALANCE SWAP1 DUP2 ISZERO MUL SWAP1 PUSH1 0x40 MLOAD PUSH0 PUSH1 0x40 MLOAD DUP1 DUP4 SUB DUP2 DUP6 DUP9 DUP9 CALL SWAP4 POP POP POP POP ISZERO DUP1 ISZERO PUSH2 0x424 JUMPI RETURNDATASIZE PUSH0 DUP1 RETURNDATACOPY RETURNDATASIZE PUSH0 REVERT JUMPDEST POP JUMP JUMPDEST PUSH0 DUP1 SLOAD SWAP1 PUSH2 0x100 EXP SWAP1 DIV PUSH20 0xFFFFFFFFFFFFFFFFFFFFFFFFFFFFFFFFFFFFFFFF AND DUP2 JUMP JUMPDEST PUSH1 0x60 DUP1 PUSH0 PUSH1 0x2 DUP1 SLOAD SWAP1 POP PUSH8 0xFFFFFFFFFFFFFFFF DUP2 GT ISZERO PUSH2 0x46D JUMPI PUSH2 0x46C PUSH2 0xAEF JUMP JUMPDEST JUMPDEST PUSH1 0x40 MLOAD SWAP1 DUP1 DUP3 MSTORE DUP1 PUSH1 0x20 MUL PUSH1 0x20 ADD DUP3 ADD PUSH1 0x40 MSTORE DUP1 ISZERO PUSH2 0x49B JUMPI DUP2 PUSH1 0x20 ADD PUSH1 0x20 DUP3 MUL DUP1 CALLDATASIZE DUP4 CALLDATACOPY DUP1 DUP3 ADD SWAP2 POP POP SWAP1 POP JUMPDEST POP SWAP1 POP PUSH0 JUMPDEST PUSH1 0x2 DUP1 SLOAD SWAP1 POP DUP2 LT ISZERO PUSH2 0x552 JUMPI PUSH1 0x1 PUSH0 PUSH1 0x2 DUP4 DUP2 SLOAD DUP2 LT PUSH2 0x4C4 JUMPI PUSH2 0x4C3 PUSH2 0xB1C JUMP JUMPDEST JUMPDEST SWAP1 PUSH0 MSTORE PUSH1 0x20 PUSH0 KECCAK256 ADD PUSH0 SWAP1 SLOAD SWAP1 PUSH2 0x100 EXP SWAP1 DIV PUSH20 0xFFFFFFFFFFFFFFFFFFFFFFFFFFFFFFFFFFFFFFFF AND PUSH20 0xFFFFFFFFFFFFFFFFFFFFFFFFFFFFFFFFFFFFFFFF AND PUSH20 0xFFFFFFFFFFFFFFFFFFFFFFFFFFFFFFFFFFFFFFFF AND DUP2 MSTORE PUSH1 0x20 ADD SWAP1 DUP2 MSTORE PUSH1 0x20 ADD PUSH0 KECCAK256 SLOAD DUP3 DUP3 DUP2 MLOAD DUP2 LT PUSH2 0x539 JUMPI PUSH2 0x538 PUSH2 0xB1C JUMP JUMPDEST JUMPDEST PUSH1 0x20 MUL PUSH1 0x20 ADD ADD DUP2 DUP2 MSTORE POP POP DUP1 DUP1 PUSH1 0x1 ADD SWAP2 POP POP PUSH2 0x4A0 JUMP JUMPDEST POP PUSH1 0x2 DUP2 DUP2 DUP1 SLOAD DUP1 PUSH1 0x20 MUL PUSH1 0x20 ADD PUSH1 0x40 MLOAD SWAP1 DUP2 ADD PUSH1 0x40 MSTORE DUP1 SWAP3 SWAP2 SWAP1 DUP2 DUP2 MSTORE PUSH1 0x20 ADD DUP3 DUP1 SLOAD DUP1 ISZERO PUSH2 0x5D4 JUMPI PUSH1 0x20 MUL DUP3 ADD SWAP2 SWAP1 PUSH0 MSTORE PUSH1 0x20 PUSH0 KECCAK256 SWAP1 JUMPDEST DUP2 PUSH0 SWAP1 SLOAD SWAP1 PUSH2 0x100 EXP SWAP1 DIV PUSH20 0xFFFFFFFFFFFFFFFFFFFFFFFFFFFFFFFFFFFFFFFF AND PUSH20 0xFFFFFFFFFFFFFFFFFFFFFFFFFFFFFFFFFFFFFFFF AND DUP2 MSTORE PUSH1 0x20 ADD SWAP1 PUSH1 0x1 ADD SWAP1 DUP1 DUP4 GT PUSH2 0x58B JUMPI JUMPDEST POP POP POP POP POP SWAP2 POP SWAP3 POP SWAP3 POP POP SWAP1 SWAP2 JUMP JUMPDEST PUSH1 0x1 PUSH1 0x20 MSTORE DUP1 PUSH0 MSTORE PUSH1 0x40 PUSH0 KECCAK256 PUSH0 SWAP2 POP SWAP1 POP SLOAD DUP2 JUMP JUMPDEST PUSH0 CALLVALUE GT PUSH2 0x63B JUMPI PUSH1 0x40 MLOAD PUSH32 0x8C379A000000000000000000000000000000000000000000000000000000000 DUP2 MSTORE PUSH1 0x4 ADD PUSH2 0x632 SWAP1 PUSH2 0xBB9 JUMP JUMPDEST PUSH1 0x40 MLOAD DUP1 SWAP2 SUB SWAP1 REVERT JUMPDEST PUSH0 PUSH1 0x1 PUSH0 CALLER PUSH20 0xFFFFFFFFFFFFFFFFFFFFFFFFFFFFFFFFFFFFFFFF AND PUSH20 0xFFFFFFFFFFFFFFFFFFFFFFFFFFFFFFFFFFFFFFFF AND DUP2 MSTORE PUSH1 0x20 ADD SWAP1 DUP2 MSTORE PUSH1 0x20 ADD PUSH0 KECCAK256 SLOAD SUB PUSH2 0x6E0 JUMPI PUSH1 0x2 CALLER SWAP1 DUP1 PUSH1 0x1 DUP2 SLOAD ADD DUP1 DUP3 SSTORE DUP1 SWAP2 POP POP PUSH1 0x1 SWAP1 SUB SWAP1 PUSH0 MSTORE PUSH1 0x20 PUSH0 KECCAK256 ADD PUSH0 SWAP1 SWAP2 SWAP1 SWAP2 SWAP1 SWAP2 PUSH2 0x100 EXP DUP2 SLOAD DUP2 PUSH20 0xFFFFFFFFFFFFFFFFFFFFFFFFFFFFFFFFFFFFFFFF MUL NOT AND SWAP1 DUP4 PUSH20 0xFFFFFFFFFFFFFFFFFFFFFFFFFFFFFFFFFFFFFFFF AND MUL OR SWAP1 SSTORE POP JUMPDEST CALLVALUE PUSH1 0x1 PUSH0 CALLER PUSH20 0xFFFFFFFFFFFFFFFFFFFFFFFFFFFFFFFFFFFFFFFF AND PUSH20 0xFFFFFFFFFFFFFFFFFFFFFFFFFFFFFFFFFFFFFFFF AND DUP2 MSTORE PUSH1 0x20 ADD SWAP1 DUP2 MSTORE PUSH1 0x20 ADD PUSH0 KECCAK256 PUSH0 DUP3 DUP3 SLOAD PUSH2 0x72C SWAP2 SWAP1 PUSH2 0xC04 JUMP JUMPDEST SWAP3 POP POP DUP2 SWAP1 SSTORE POP JUMP JUMPDEST PUSH0 DUP2 SWAP1 POP SWAP2 SWAP1 POP JUMP JUMPDEST PUSH2 0x747 DUP2 PUSH2 0x735 JUMP JUMPDEST DUP3 MSTORE POP POP JUMP JUMPDEST PUSH0 PUSH1 0x20 DUP3 ADD SWAP1 POP PUSH2 0x760 PUSH0 DUP4 ADD DUP5 PUSH2 0x73E JUMP JUMPDEST SWAP3 SWAP2 POP POP JUMP JUMPDEST PUSH0 DUP1 REVERT JUMPDEST PUSH2 0x773 DUP2 PUSH2 0x735 JUMP JUMPDEST DUP2 EQ PUSH2 0x77D JUMPI PUSH0 DUP1 REVERT JUMPDEST POP JUMP JUMPDEST PUSH0 DUP2 CALLDATALOAD SWAP1 POP PUSH2 0x78E DUP2 PUSH2 0x76A JUMP JUMPDEST SWAP3 SWAP2 POP POP JUMP JUMPDEST PUSH0 PUSH1 0x20 DUP3 DUP5 SUB SLT ISZERO PUSH2 0x7A9 JUMPI PUSH2 0x7A8 PUSH2 0x766 JUMP JUMPDEST JUMPDEST PUSH0 PUSH2 0x7B6 DUP5 DUP3 DUP6 ADD PUSH2 0x780 JUMP JUMPDEST SWAP2 POP POP SWAP3 SWAP2 POP POP JUMP JUMPDEST PUSH0 PUSH20 0xFFFFFFFFFFFFFFFFFFFFFFFFFFFFFFFFFFFFFFFF DUP3 AND SWAP1 POP SWAP2 SWAP1 POP JUMP JUMPDEST PUSH0 PUSH2 0x7E8 DUP3 PUSH2 0x7BF JUMP JUMPDEST SWAP1 POP SWAP2 SWAP1 POP JUMP JUMPDEST PUSH2 0x7F8 DUP2 PUSH2 0x7DE JUMP JUMPDEST DUP3 MSTORE POP POP JUMP JUMPDEST PUSH0 PUSH1 0x20 DUP3 ADD SWAP1 POP PUSH2 0x811 PUSH0 DUP4 ADD DUP5 PUSH2 0x7EF JUMP JUMPDEST SWAP3 SWAP2 POP POP JUMP JUMPDEST PUSH0 DUP2 MLOAD SWAP1 POP SWAP2 SWAP1 POP JUMP JUMPDEST PUSH0 DUP3 DUP3 MSTORE PUSH1 0x20 DUP3 ADD SWAP1 POP SWAP3 SWAP2 POP POP JUMP JUMPDEST PUSH0 DUP2 SWAP1 POP PUSH1 0x20 DUP3 ADD SWAP1 POP SWAP2 SWAP1 POP JUMP JUMPDEST PUSH2 0x849 DUP2 PUSH2 0x7DE JUMP JUMPDEST DUP3 MSTORE POP POP JUMP JUMPDEST PUSH0 PUSH2 0x85A DUP4 DUP4 PUSH2 0x840 JUMP JUMPDEST PUSH1 0x20 DUP4 ADD SWAP1 POP SWAP3 SWAP2 POP POP JUMP JUMPDEST PUSH0 PUSH1 0x20 DUP3 ADD SWAP1 POP SWAP2 SWAP1 POP JUMP JUMPDEST PUSH0 PUSH2 0x87C DUP3 PUSH2 0x817 JUMP JUMPDEST PUSH2 0x886 DUP2 DUP6 PUSH2 0x821 JUMP JUMPDEST SWAP4 POP PUSH2 0x891 DUP4 PUSH2 0x831 JUMP JUMPDEST DUP1 PUSH0 JUMPDEST DUP4 DUP2 LT ISZERO PUSH2 0x8C1 JUMPI DUP2 MLOAD PUSH2 0x8A8 DUP9 DUP3 PUSH2 0x84F JUMP JUMPDEST SWAP8 POP PUSH2 0x8B3 DUP4 PUSH2 0x866 JUMP JUMPDEST SWAP3 POP POP PUSH1 0x1 DUP2 ADD SWAP1 POP PUSH2 0x894 JUMP JUMPDEST POP DUP6 SWAP4 POP POP POP POP SWAP3 SWAP2 POP POP JUMP JUMPDEST PUSH0 DUP2 MLOAD SWAP1 POP SWAP2 SWAP1 POP JUMP JUMPDEST PUSH0 DUP3 DUP3 MSTORE PUSH1 0x20 DUP3 ADD SWAP1 POP SWAP3 SWAP2 POP POP JUMP JUMPDEST PUSH0 DUP2 SWAP1 POP PUSH1 0x20 DUP3 ADD SWAP1 POP SWAP2 SWAP1 POP JUMP JUMPDEST PUSH2 0x900 DUP2 PUSH2 0x735 JUMP JUMPDEST DUP3 MSTORE POP POP JUMP JUMPDEST PUSH0 PUSH2 0x911 DUP4 DUP4 PUSH2 0x8F7 JUMP JUMPDEST PUSH1 0x20 DUP4 ADD SWAP1 POP SWAP3 SWAP2 POP POP JUMP JUMPDEST PUSH0 PUSH1 0x20 DUP3 ADD SWAP1 POP SWAP2 SWAP1 POP JUMP JUMPDEST PUSH0 PUSH2 0x933 DUP3 PUSH2 0x8CE JUMP JUMPDEST PUSH2 0x93D DUP2 DUP6 PUSH2 0x8D8 JUMP JUMPDEST SWAP4 POP PUSH2 0x948 DUP4 PUSH2 0x8E8 JUMP JUMPDEST DUP1 PUSH0 JUMPDEST DUP4 DUP2 LT ISZERO PUSH2 0x978 JUMPI DUP2 MLOAD PUSH2 0x95F DUP9 DUP3 PUSH2 0x906 JUMP JUMPDEST SWAP8 POP PUSH2 0x96A DUP4 PUSH2 0x91D JUMP JUMPDEST SWAP3 POP POP PUSH1 0x1 DUP2 ADD SWAP1 POP PUSH2 0x94B JUMP JUMPDEST POP DUP6 SWAP4 POP POP POP POP SWAP3 SWAP2 POP POP JUMP JUMPDEST PUSH0 PUSH1 0x40 DUP3 ADD SWAP1 POP DUP2 DUP2 SUB PUSH0 DUP4 ADD MSTORE PUSH2 0x99D DUP2 DUP6 PUSH2 0x872 JUMP JUMPDEST SWAP1 POP DUP2 DUP2 SUB PUSH1 0x20 DUP4 ADD MSTORE PUSH2 0x9B1 DUP2 DUP5 PUSH2 0x929 JUMP JUMPDEST SWAP1 POP SWAP4 SWAP3 POP POP POP JUMP JUMPDEST PUSH2 0x9C3 DUP2 PUSH2 0x7DE JUMP JUMPDEST DUP2 EQ PUSH2 0x9CD JUMPI PUSH0 DUP1 REVERT JUMPDEST POP JUMP JUMPDEST PUSH0 DUP2 CALLDATALOAD SWAP1 POP PUSH2 0x9DE DUP2 PUSH2 0x9BA JUMP JUMPDEST SWAP3 SWAP2 POP POP JUMP JUMPDEST PUSH0 PUSH1 0x20 DUP3 DUP5 SUB SLT ISZERO PUSH2 0x9F9 JUMPI PUSH2 0x9F8 PUSH2 0x766 JUMP JUMPDEST JUMPDEST PUSH0 PUSH2 0xA06 DUP5 DUP3 DUP6 ADD PUSH2 0x9D0 JUMP JUMPDEST SWAP2 POP POP SWAP3 SWAP2 POP POP JUMP JUMPDEST PUSH0 DUP3 DUP3 MSTORE PUSH1 0x20 DUP3 ADD SWAP1 POP SWAP3 SWAP2 POP POP JUMP JUMPDEST PUSH32 0x4F6E6C7920746865206F776E65722063616E2077697468647261770000000000 PUSH0 DUP3 ADD MSTORE POP JUMP JUMPDEST PUSH0 PUSH2 0xA53 PUSH1 0x1B DUP4 PUSH2 0xA0F JUMP JUMPDEST SWAP2 POP PUSH2 0xA5E DUP3 PUSH2 0xA1F JUMP JUMPDEST PUSH1 0x20 DUP3 ADD SWAP1 POP SWAP2 SWAP1 POP JUMP JUMPDEST PUSH0 PUSH1 0x20 DUP3 ADD SWAP1 POP DUP2 DUP2 SUB PUSH0 DUP4 ADD MSTORE PUSH2 0xA80 DUP2 PUSH2 0xA47 JUMP JUMPDEST SWAP1 POP SWAP2 SWAP1 POP JUMP JUMPDEST PUSH32 0x496E73756666696369656E742062616C616E636520696E20636F6E7472616374 PUSH0 DUP3 ADD MSTORE POP JUMP JUMPDEST PUSH0 PUSH2 0xABB PUSH1 0x20 DUP4 PUSH2 0xA0F JUMP JUMPDEST SWAP2 POP PUSH2 0xAC6 DUP3 PUSH2 0xA87 JUMP JUMPDEST PUSH1 0x20 DUP3 ADD SWAP1 POP SWAP2 SWAP1 POP JUMP JUMPDEST PUSH0 PUSH1 0x20 DUP3 ADD SWAP1 POP DUP2 DUP2 SUB PUSH0 DUP4 ADD MSTORE PUSH2 0xAE8 DUP2 PUSH2 0xAAF JUMP JUMPDEST SWAP1 POP SWAP2 SWAP1 POP JUMP JUMPDEST PUSH32 0x4E487B7100000000000000000000000000000000000000000000000000000000 PUSH0 MSTORE PUSH1 0x41 PUSH1 0x4 MSTORE PUSH1 0x24 PUSH0 REVERT JUMPDEST PUSH32 0x4E487B7100000000000000000000000000000000000000000000000000000000 PUSH0 MSTORE PUSH1 0x32 PUSH1 0x4 MSTORE PUSH1 0x24 PUSH0 REVERT JUMPDEST PUSH32 0x446F6E6174696F6E206D7573742062652067726561746572207468616E207A65 PUSH0 DUP3 ADD MSTORE PUSH32 0x726F000000000000000000000000000000000000000000000000000000000000 PUSH1 0x20 DUP3 ADD MSTORE POP JUMP JUMPDEST PUSH0 PUSH2 0xBA3 PUSH1 0x22 DUP4 PUSH2 0xA0F JUMP JUMPDEST SWAP2 POP PUSH2 0xBAE DUP3 PUSH2 0xB49 JUMP JUMPDEST PUSH1 0x40 DUP3 ADD SWAP1 POP SWAP2 SWAP1 POP JUMP JUMPDEST PUSH0 PUSH1 0x20 DUP3 ADD SWAP1 POP DUP2 DUP2 SUB PUSH0 DUP4 ADD MSTORE PUSH2 0xBD0 DUP2 PUSH2 0xB97 JUMP JUMPDEST SWAP1 POP SWAP2 SWAP1 POP JUMP JUMPDEST PUSH32 0x4E487B7100000000000000000000000000000000000000000000000000000000 PUSH0 MSTORE PUSH1 0x11 PUSH1 0x4 MSTORE PUSH1 0x24 PUSH0 REVERT JUMPDEST PUSH0 PUSH2 0xC0E DUP3 PUSH2 0x735 JUMP JUMPDEST SWAP2 POP PUSH2 0xC19 DUP4 PUSH2 0x735 JUMP JUMPDEST SWAP3 POP DUP3 DUP3 ADD SWAP1 POP DUP1 DUP3 GT ISZERO PUSH2 0xC31 JUMPI PUSH2 0xC30 PUSH2 0xBD7 JUMP JUMPDEST JUMPDEST SWAP3 SWAP2 POP POP JUMP INVALID LOG2 PUSH5 0x6970667358 0x22 SLT KECCAK256 0x2C 0xAB 0xF8 0x28 DUP16 0xAF DUP1 SWAP8 SWAP4 CREATE CODECOPY 0xE6 GASLIMIT PUSH1 0xC9 0xCD EXTCODESIZE PUSH11 0x2F684AEA83D8E0AD2A3333 0x25 PUSH18 0x1764736F6C634300081A0033000000000000 "
				},
				"gasEstimates": {
					"creation": {
						"codeDepositCost": "636200",
						"executionCost": "24933",
						"totalCost": "661133"
					},
					"external": {
						"donate()": "infinite",
						"donations(address)": "2846",
						"donors(uint256)": "4989",
						"getBalance()": "335",
						"getDonors()": "infinite",
						"owner()": "2505",
						"withdraw(uint256)": "infinite",
						"withdrawAll()": "infinite"
					}
				},
				"methodIdentifiers": {
					"donate()": "ed88c68e",
					"donations(address)": "cc6cb19a",
					"donors(uint256)": "4abfa163",
					"getBalance()": "12065fe0",
					"getDonors()": "96f300d4",
					"owner()": "8da5cb5b",
					"withdraw(uint256)": "2e1a7d4d",
					"withdrawAll()": "853828b6"
				}
			},
			"storageLayout": {
				"storage": [
					{
						"astId": 3,
						"contract": "contracts/DonationContract.sol:DonationContract",
						"label": "owner",
						"offset": 0,
						"slot": "0",
						"type": "t_address"
					},
					{
						"astId": 7,
						"contract": "contracts/DonationContract.sol:DonationContract",
						"label": "donations",
						"offset": 0,
						"slot": "1",
						"type": "t_mapping(t_address,t_uint256)"
					},
					{
						"astId": 10,
						"contract": "contracts/DonationContract.sol:DonationContract",
						"label": "donors",
						"offset": 0,
						"slot": "2",
						"type": "t_array(t_address)dyn_storage"
					}
				],
				"types": {
					"t_address": {
						"encoding": "inplace",
						"label": "address",
						"numberOfBytes": "20"
					},
					"t_array(t_address)dyn_storage": {
						"base": "t_address",
						"encoding": "dynamic_array",
						"label": "address[]",
						"numberOfBytes": "32"
					},
					"t_mapping(t_address,t_uint256)": {
						"encoding": "mapping",
						"key": "t_address",
						"label": "mapping(address => uint256)",
						"numberOfBytes": "32",
						"value": "t_uint256"
					},
					"t_uint256": {
						"encoding": "inplace",
						"label": "uint256",
						"numberOfBytes": "32"
					}
				}
			},
			"userdoc": {
				"kind": "user",
				"methods": {},
				"version": 1
			}
		}
	}
}