{
	"contracts/StudentManager.sol": {
		"StudentManager": {
			"abi": [
				{
					"inputs": [
						{
							"internalType": "string",
							"name": "_name",
							"type": "string"
						},
						{
							"internalType": "string",
							"name": "_gender",
							"type": "string"
						},
						{
							"internalType": "uint256",
							"name": "_age",
							"type": "uint256"
						},
						{
							"internalType": "uint256",
							"name": "_mathScore",
							"type": "uint256"
						},
						{
							"internalType": "uint256",
							"name": "_physicsScore",
							"type": "uint256"
						},
						{
							"internalType": "uint256",
							"name": "_chemistryScore",
							"type": "uint256"
						}
					],
					"name": "addStudent",
					"outputs": [],
					"stateMutability": "nonpayable",
					"type": "function"
				},
				{
					"inputs": [
						{
							"internalType": "uint256",
							"name": "_id",
							"type": "uint256"
						}
					],
					"name": "deleteStudent",
					"outputs": [],
					"stateMutability": "nonpayable",
					"type": "function"
				},
				{
					"inputs": [],
					"name": "getAllStudents",
					"outputs": [
						{
							"components": [
								{
									"internalType": "uint256",
									"name": "id",
									"type": "uint256"
								},
								{
									"internalType": "string",
									"name": "name",
									"type": "string"
								},
								{
									"internalType": "string",
									"name": "gender",
									"type": "string"
								},
								{
									"internalType": "uint256",
									"name": "age",
									"type": "uint256"
								},
								{
									"internalType": "uint256",
									"name": "mathScore",
									"type": "uint256"
								},
								{
									"internalType": "uint256",
									"name": "physicsScore",
									"type": "uint256"
								},
								{
									"internalType": "uint256",
									"name": "chemistryScore",
									"type": "uint256"
								},
								{
									"internalType": "uint256",
									"name": "gpa",
									"type": "uint256"
								},
								{
									"internalType": "string",
									"name": "academicPerformance",
									"type": "string"
								}
							],
							"internalType": "struct StudentManager.Student[]",
							"name": "",
							"type": "tuple[]"
						}
					],
					"stateMutability": "view",
					"type": "function"
				},
				{
					"inputs": [
						{
							"internalType": "string",
							"name": "_name",
							"type": "string"
						}
					],
					"name": "searchStudentByName",
					"outputs": [
						{
							"components": [
								{
									"internalType": "uint256",
									"name": "id",
									"type": "uint256"
								},
								{
									"internalType": "string",
									"name": "name",
									"type": "string"
								},
								{
									"internalType": "string",
									"name": "gender",
									"type": "string"
								},
								{
									"internalType": "uint256",
									"name": "age",
									"type": "uint256"
								},
								{
									"internalType": "uint256",
									"name": "mathScore",
									"type": "uint256"
								},
								{
									"internalType": "uint256",
									"name": "physicsScore",
									"type": "uint256"
								},
								{
									"internalType": "uint256",
									"name": "chemistryScore",
									"type": "uint256"
								},
								{
									"internalType": "uint256",
									"name": "gpa",
									"type": "uint256"
								},
								{
									"internalType": "string",
									"name": "academicPerformance",
									"type": "string"
								}
							],
							"internalType": "struct StudentManager.Student[]",
							"name": "",
							"type": "tuple[]"
						}
					],
					"stateMutability": "view",
					"type": "function"
				},
				{
					"inputs": [],
					"name": "sortStudentsByGPA",
					"outputs": [
						{
							"components": [
								{
									"internalType": "uint256",
									"name": "id",
									"type": "uint256"
								},
								{
									"internalType": "string",
									"name": "name",
									"type": "string"
								},
								{
									"internalType": "string",
									"name": "gender",
									"type": "string"
								},
								{
									"internalType": "uint256",
									"name": "age",
									"type": "uint256"
								},
								{
									"internalType": "uint256",
									"name": "mathScore",
									"type": "uint256"
								},
								{
									"internalType": "uint256",
									"name": "physicsScore",
									"type": "uint256"
								},
								{
									"internalType": "uint256",
									"name": "chemistryScore",
									"type": "uint256"
								},
								{
									"internalType": "uint256",
									"name": "gpa",
									"type": "uint256"
								},
								{
									"internalType": "string",
									"name": "academicPerformance",
									"type": "string"
								}
							],
							"internalType": "struct StudentManager.Student[]",
							"name": "",
							"type": "tuple[]"
						}
					],
					"stateMutability": "view",
					"type": "function"
				},
				{
					"inputs": [],
					"name": "sortStudentsByID",
					"outputs": [
						{
							"components": [
								{
									"internalType": "uint256",
									"name": "id",
									"type": "uint256"
								},
								{
									"internalType": "string",
									"name": "name",
									"type": "string"
								},
								{
									"internalType": "string",
									"name": "gender",
									"type": "string"
								},
								{
									"internalType": "uint256",
									"name": "age",
									"type": "uint256"
								},
								{
									"internalType": "uint256",
									"name": "mathScore",
									"type": "uint256"
								},
								{
									"internalType": "uint256",
									"name": "physicsScore",
									"type": "uint256"
								},
								{
									"internalType": "uint256",
									"name": "chemistryScore",
									"type": "uint256"
								},
								{
									"internalType": "uint256",
									"name": "gpa",
									"type": "uint256"
								},
								{
									"internalType": "string",
									"name": "academicPerformance",
									"type": "string"
								}
							],
							"internalType": "struct StudentManager.Student[]",
							"name": "",
							"type": "tuple[]"
						}
					],
					"stateMutability": "view",
					"type": "function"
				},
				{
					"inputs": [],
					"name": "sortStudentsByName",
					"outputs": [
						{
							"components": [
								{
									"internalType": "uint256",
									"name": "id",
									"type": "uint256"
								},
								{
									"internalType": "string",
									"name": "name",
									"type": "string"
								},
								{
									"internalType": "string",
									"name": "gender",
									"type": "string"
								},
								{
									"internalType": "uint256",
									"name": "age",
									"type": "uint256"
								},
								{
									"internalType": "uint256",
									"name": "mathScore",
									"type": "uint256"
								},
								{
									"internalType": "uint256",
									"name": "physicsScore",
									"type": "uint256"
								},
								{
									"internalType": "uint256",
									"name": "chemistryScore",
									"type": "uint256"
								},
								{
									"internalType": "uint256",
									"name": "gpa",
									"type": "uint256"
								},
								{
									"internalType": "string",
									"name": "academicPerformance",
									"type": "string"
								}
							],
							"internalType": "struct StudentManager.Student[]",
							"name": "",
							"type": "tuple[]"
						}
					],
					"stateMutability": "view",
					"type": "function"
				},
				{
					"inputs": [],
					"name": "studentCount",
					"outputs": [
						{
							"internalType": "uint256",
							"name": "",
							"type": "uint256"
						}
					],
					"stateMutability": "view",
					"type": "function"
				},
				{
					"inputs": [
						{
							"internalType": "uint256",
							"name": "",
							"type": "uint256"
						}
					],
					"name": "students",
					"outputs": [
						{
							"internalType": "uint256",
							"name": "id",
							"type": "uint256"
						},
						{
							"internalType": "string",
							"name": "name",
							"type": "string"
						},
						{
							"internalType": "string",
							"name": "gender",
							"type": "string"
						},
						{
							"internalType": "uint256",
							"name": "age",
							"type": "uint256"
						},
						{
							"internalType": "uint256",
							"name": "mathScore",
							"type": "uint256"
						},
						{
							"internalType": "uint256",
							"name": "physicsScore",
							"type": "uint256"
						},
						{
							"internalType": "uint256",
							"name": "chemistryScore",
							"type": "uint256"
						},
						{
							"internalType": "uint256",
							"name": "gpa",
							"type": "uint256"
						},
						{
							"internalType": "string",
							"name": "academicPerformance",
							"type": "string"
						}
					],
					"stateMutability": "view",
					"type": "function"
				},
				{
					"inputs": [
						{
							"internalType": "uint256",
							"name": "_id",
							"type": "uint256"
						},
						{
							"internalType": "string",
							"name": "_name",
							"type": "string"
						},
						{
							"internalType": "string",
							"name": "_gender",
							"type": "string"
						},
						{
							"internalType": "uint256",
							"name": "_age",
							"type": "uint256"
						},
						{
							"internalType": "uint256",
							"name": "_mathScore",
							"type": "uint256"
						},
						{
							"internalType": "uint256",
							"name": "_physicsScore",
							"type": "uint256"
						},
						{
							"internalType": "uint256",
							"name": "_chemistryScore",
							"type": "uint256"
						}
					],
					"name": "updateStudent",
					"outputs": [],
					"stateMutability": "nonpayable",
					"type": "function"
				}
			],
			"devdoc": {
				"kind": "dev",
				"methods": {},
				"version": 1
			},
			"evm": {
				"assembly": "    /* \"contracts/StudentManager.sol\":72:5423  contract StudentManager {... */\n  mstore(0x40, 0x80)\n    /* \"contracts/StudentManager.sol\":130:131  0 */\n  0x00\n    /* \"contracts/StudentManager.sol\":103:131  uint public studentCount = 0 */\n  dup1\n  sstore\n    /* \"contracts/StudentManager.sol\":72:5423  contract StudentManager {... */\n  callvalue\n  dup1\n  iszero\n  tag_1\n  jumpi\n  0x00\n  dup1\n  revert\ntag_1:\n  pop\n  dataSize(sub_0)\n  dup1\n  dataOffset(sub_0)\n  0x00\n  codecopy\n  0x00\n  return\nstop\n\nsub_0: assembly {\n        /* \"contracts/StudentManager.sol\":72:5423  contract StudentManager {... */\n      mstore(0x40, 0x80)\n      callvalue\n      dup1\n      iszero\n      tag_1\n      jumpi\n      0x00\n      dup1\n      revert\n    tag_1:\n      pop\n      jumpi(tag_2, lt(calldatasize, 0x04))\n      shr(0xe0, calldataload(0x00))\n      dup1\n      0xb0b627af\n      gt\n      tag_13\n      jumpi\n      dup1\n      0xb0b627af\n      eq\n      tag_8\n      jumpi\n      dup1\n      0xb645307d\n      eq\n      tag_9\n      jumpi\n      dup1\n      0xe581f9ee\n      eq\n      tag_10\n      jumpi\n      dup1\n      0xe9e30927\n      eq\n      tag_11\n      jumpi\n      dup1\n      0xef046ccf\n      eq\n      tag_12\n      jumpi\n      jump(tag_2)\n    tag_13:\n      dup1\n      0x06ead22e\n      eq\n      tag_3\n      jumpi\n      dup1\n      0x6635f2f3\n      eq\n      tag_4\n      jumpi\n      dup1\n      0x82516a9b\n      eq\n      tag_5\n      jumpi\n      dup1\n      0x9c9e9664\n      eq\n      tag_6\n      jumpi\n      dup1\n      0xa2d8919b\n      eq\n      tag_7\n      jumpi\n    tag_2:\n      0x00\n      dup1\n      revert\n        /* \"contracts/StudentManager.sol\":442:482  mapping(uint => Student) public students */\n    tag_3:\n      tag_14\n      0x04\n      dup1\n      calldatasize\n      sub\n      dup2\n      add\n      swap1\n      tag_15\n      swap2\n      swap1\n      tag_16\n      jump\t// in\n    tag_15:\n      tag_17\n      jump\t// in\n    tag_14:\n      mload(0x40)\n      tag_18\n      swap10\n      swap9\n      swap8\n      swap7\n      swap6\n      swap5\n      swap4\n      swap3\n      swap2\n      swap1\n      tag_19\n      jump\t// in\n    tag_18:\n      mload(0x40)\n      dup1\n      swap2\n      sub\n      swap1\n      return\n        /* \"contracts/StudentManager.sol\":3229:3871  function sortStudentsByName() public view returns (Student[] memory) {... */\n    tag_4:\n      tag_20\n      tag_21\n      jump\t// in\n    tag_20:\n      mload(0x40)\n      tag_22\n      swap2\n      swap1\n      tag_23\n      jump\t// in\n    tag_22:\n      mload(0x40)\n      dup1\n      swap2\n      sub\n      swap1\n      return\n        /* \"contracts/StudentManager.sol\":3918:4496  function sortStudentsByID() public view returns (Student[] memory) {... */\n    tag_5:\n      tag_24\n      tag_25\n      jump\t// in\n    tag_24:\n      mload(0x40)\n      tag_26\n      swap2\n      swap1\n      tag_23\n      jump\t// in\n    tag_26:\n      mload(0x40)\n      dup1\n      swap2\n      sub\n      swap1\n      return\n        /* \"contracts/StudentManager.sol\":1050:1572  function updateStudent(uint _id, string memory _name, string memory _gender, uint _age, uint _mathScore, uint _physicsScore, uint _chemistryScore) public {... */\n    tag_6:\n      tag_27\n      0x04\n      dup1\n      calldatasize\n      sub\n      dup2\n      add\n      swap1\n      tag_28\n      swap2\n      swap1\n      tag_29\n      jump\t// in\n    tag_28:\n      tag_30\n      jump\t// in\n    tag_27:\n      stop\n        /* \"contracts/StudentManager.sol\":522:999  function addStudent(string memory _name, string memory _gender, uint _age, uint _mathScore, uint _physicsScore, uint _chemistryScore) public {... */\n    tag_7:\n      tag_31\n      0x04\n      dup1\n      calldatasize\n      sub\n      dup2\n      add\n      swap1\n      tag_32\n      swap2\n      swap1\n      tag_33\n      jump\t// in\n    tag_32:\n      tag_34\n      jump\t// in\n    tag_31:\n      stop\n        /* \"contracts/StudentManager.sol\":2599:3180  function sortStudentsByGPA() public view returns (Student[] memory) {... */\n    tag_8:\n      tag_35\n      tag_36\n      jump\t// in\n    tag_35:\n      mload(0x40)\n      tag_37\n      swap2\n      swap1\n      tag_23\n      jump\t// in\n    tag_37:\n      mload(0x40)\n      dup1\n      swap2\n      sub\n      swap1\n      return\n        /* \"contracts/StudentManager.sol\":1612:1766  function deleteStudent(uint _id) public {... */\n    tag_9:\n      tag_38\n      0x04\n      dup1\n      calldatasize\n      sub\n      dup2\n      add\n      swap1\n      tag_39\n      swap2\n      swap1\n      tag_16\n      jump\t// in\n    tag_39:\n      tag_40\n      jump\t// in\n    tag_38:\n      stop\n        /* \"contracts/StudentManager.sol\":103:131  uint public studentCount = 0 */\n    tag_10:\n      tag_41\n      tag_42\n      jump\t// in\n    tag_41:\n      mload(0x40)\n      tag_43\n      swap2\n      swap1\n      tag_44\n      jump\t// in\n    tag_43:\n      mload(0x40)\n      dup1\n      swap2\n      sub\n      swap1\n      return\n        /* \"contracts/StudentManager.sol\":4547:4828  function getAllStudents() public view returns (Student[] memory) {... */\n    tag_11:\n      tag_45\n      tag_46\n      jump\t// in\n    tag_45:\n      mload(0x40)\n      tag_47\n      swap2\n      swap1\n      tag_23\n      jump\t// in\n    tag_47:\n      mload(0x40)\n      dup1\n      swap2\n      sub\n      swap1\n      return\n        /* \"contracts/StudentManager.sol\":1815:2551  function searchStudentByName(string memory _name) public view returns (Student[] memory) {... */\n    tag_12:\n      tag_48\n      0x04\n      dup1\n      calldatasize\n      sub\n      dup2\n      add\n      swap1\n      tag_49\n      swap2\n      swap1\n      tag_50\n      jump\t// in\n    tag_49:\n      tag_51\n      jump\t// in\n    tag_48:\n      mload(0x40)\n      tag_52\n      swap2\n      swap1\n      tag_23\n      jump\t// in\n    tag_52:\n      mload(0x40)\n      dup1\n      swap2\n      sub\n      swap1\n      return\n        /* \"contracts/StudentManager.sol\":442:482  mapping(uint => Student) public students */\n    tag_17:\n      mstore(0x20, 0x01)\n      dup1\n      0x00\n      mstore\n      keccak256(0x00, 0x40)\n      0x00\n      swap2\n      pop\n      swap1\n      pop\n      dup1\n      0x00\n      add\n      sload\n      swap1\n      dup1\n      0x01\n      add\n      dup1\n      sload\n      tag_53\n      swap1\n      tag_54\n      jump\t// in\n    tag_53:\n      dup1\n      0x1f\n      add\n      0x20\n      dup1\n      swap2\n      div\n      mul\n      0x20\n      add\n      mload(0x40)\n      swap1\n      dup2\n      add\n      0x40\n      mstore\n      dup1\n      swap3\n      swap2\n      swap1\n      dup2\n      dup2\n      mstore\n      0x20\n      add\n      dup3\n      dup1\n      sload\n      tag_55\n      swap1\n      tag_54\n      jump\t// in\n    tag_55:\n      dup1\n      iszero\n      tag_56\n      jumpi\n      dup1\n      0x1f\n      lt\n      tag_57\n      jumpi\n      0x0100\n      dup1\n      dup4\n      sload\n      div\n      mul\n      dup4\n      mstore\n      swap2\n      0x20\n      add\n      swap2\n      jump(tag_56)\n    tag_57:\n      dup3\n      add\n      swap2\n      swap1\n      0x00\n      mstore\n      keccak256(0x00, 0x20)\n      swap1\n    tag_58:\n      dup2\n      sload\n      dup2\n      mstore\n      swap1\n      0x01\n      add\n      swap1\n      0x20\n      add\n      dup1\n      dup4\n      gt\n      tag_58\n      jumpi\n      dup3\n      swap1\n      sub\n      0x1f\n      and\n      dup3\n      add\n      swap2\n    tag_56:\n      pop\n      pop\n      pop\n      pop\n      pop\n      swap1\n      dup1\n      0x02\n      add\n      dup1\n      sload\n      tag_59\n      swap1\n      tag_54\n      jump\t// in\n    tag_59:\n      dup1\n      0x1f\n      add\n      0x20\n      dup1\n      swap2\n      div\n      mul\n      0x20\n      add\n      mload(0x40)\n      swap1\n      dup2\n      add\n      0x40\n      mstore\n      dup1\n      swap3\n      swap2\n      swap1\n      dup2\n      dup2\n      mstore\n      0x20\n      add\n      dup3\n      dup1\n      sload\n      tag_60\n      swap1\n      tag_54\n      jump\t// in\n    tag_60:\n      dup1\n      iszero\n      tag_61\n      jumpi\n      dup1\n      0x1f\n      lt\n      tag_62\n      jumpi\n      0x0100\n      dup1\n      dup4\n      sload\n      div\n      mul\n      dup4\n      mstore\n      swap2\n      0x20\n      add\n      swap2\n      jump(tag_61)\n    tag_62:\n      dup3\n      add\n      swap2\n      swap1\n      0x00\n      mstore\n      keccak256(0x00, 0x20)\n      swap1\n    tag_63:\n      dup2\n      sload\n      dup2\n      mstore\n      swap1\n      0x01\n      add\n      swap1\n      0x20\n      add\n      dup1\n      dup4\n      gt\n      tag_63\n      jumpi\n      dup3\n      swap1\n      sub\n      0x1f\n      and\n      dup3\n      add\n      swap2\n    tag_61:\n      pop\n      pop\n      pop\n      pop\n      pop\n      swap1\n      dup1\n      0x03\n      add\n      sload\n      swap1\n      dup1\n      0x04\n      add\n      sload\n      swap1\n      dup1\n      0x05\n      add\n      sload\n      swap1\n      dup1\n      0x06\n      add\n      sload\n      swap1\n      dup1\n      0x07\n      add\n      sload\n      swap1\n      dup1\n      0x08\n      add\n      dup1\n      sload\n      tag_64\n      swap1\n      tag_54\n      jump\t// in\n    tag_64:\n      dup1\n      0x1f\n      add\n      0x20\n      dup1\n      swap2\n      div\n      mul\n      0x20\n      add\n      mload(0x40)\n      swap1\n      dup2\n      add\n      0x40\n      mstore\n      dup1\n      swap3\n      swap2\n      swap1\n      dup2\n      dup2\n      mstore\n      0x20\n      add\n      dup3\n      dup1\n      sload\n      tag_65\n      swap1\n      tag_54\n      jump\t// in\n    tag_65:\n      dup1\n      iszero\n      tag_66\n      jumpi\n      dup1\n      0x1f\n      lt\n      tag_67\n      jumpi\n      0x0100\n      dup1\n      dup4\n      sload\n      div\n      mul\n      dup4\n      mstore\n      swap2\n      0x20\n      add\n      swap2\n      jump(tag_66)\n    tag_67:\n      dup3\n      add\n      swap2\n      swap1\n      0x00\n      mstore\n      keccak256(0x00, 0x20)\n      swap1\n    tag_68:\n      dup2\n      sload\n      dup2\n      mstore\n      swap1\n      0x01\n      add\n      swap1\n      0x20\n      add\n      dup1\n      dup4\n      gt\n      tag_68\n      jumpi\n      dup3\n      swap1\n      sub\n      0x1f\n      and\n      dup3\n      add\n      swap2\n    tag_66:\n      pop\n      pop\n      pop\n      pop\n      pop\n      swap1\n      pop\n      dup10\n      jump\t// out\n        /* \"contracts/StudentManager.sol\":3229:3871  function sortStudentsByName() public view returns (Student[] memory) {... */\n    tag_21:\n        /* \"contracts/StudentManager.sol\":3280:3296  Student[] memory */\n      0x60\n        /* \"contracts/StudentManager.sol\":3309:3340  Student[] memory sortedStudents */\n      0x00\n        /* \"contracts/StudentManager.sol\":3343:3359  getAllStudents() */\n      tag_70\n        /* \"contracts/StudentManager.sol\":3343:3357  getAllStudents */\n      tag_46\n        /* \"contracts/StudentManager.sol\":3343:3359  getAllStudents() */\n      jump\t// in\n    tag_70:\n        /* \"contracts/StudentManager.sol\":3309:3359  Student[] memory sortedStudents = getAllStudents() */\n      swap1\n      pop\n        /* \"contracts/StudentManager.sol\":3375:3381  uint i */\n      0x00\n        /* \"contracts/StudentManager.sol\":3370:3832  for (uint i = 0; i < sortedStudents.length; i++) {... */\n    tag_71:\n        /* \"contracts/StudentManager.sol\":3391:3405  sortedStudents */\n      dup2\n        /* \"contracts/StudentManager.sol\":3391:3412  sortedStudents.length */\n      mload\n        /* \"contracts/StudentManager.sol\":3387:3388  i */\n      dup2\n        /* \"contracts/StudentManager.sol\":3387:3412  i < sortedStudents.length */\n      lt\n        /* \"contracts/StudentManager.sol\":3370:3832  for (uint i = 0; i < sortedStudents.length; i++) {... */\n      iszero\n      tag_72\n      jumpi\n        /* \"contracts/StudentManager.sol\":3439:3445  uint j */\n      0x00\n        /* \"contracts/StudentManager.sol\":3452:3453  1 */\n      0x01\n        /* \"contracts/StudentManager.sol\":3448:3449  i */\n      dup3\n        /* \"contracts/StudentManager.sol\":3448:3453  i + 1 */\n      tag_77\n      swap2\n      swap1\n      tag_78\n      jump\t// in\n    tag_77:\n        /* \"contracts/StudentManager.sol\":3439:3453  uint j = i + 1 */\n      swap1\n      pop\n        /* \"contracts/StudentManager.sol\":3434:3821  for (uint j = i + 1; j < sortedStudents.length; j++) {... */\n    tag_74:\n        /* \"contracts/StudentManager.sol\":3459:3473  sortedStudents */\n      dup3\n        /* \"contracts/StudentManager.sol\":3459:3480  sortedStudents.length */\n      mload\n        /* \"contracts/StudentManager.sol\":3455:3456  j */\n      dup2\n        /* \"contracts/StudentManager.sol\":3455:3480  j < sortedStudents.length */\n      lt\n        /* \"contracts/StudentManager.sol\":3434:3821  for (uint j = i + 1; j < sortedStudents.length; j++) {... */\n      iszero\n      tag_75\n      jumpi\n        /* \"contracts/StudentManager.sol\":3591:3605  sortedStudents */\n      dup3\n        /* \"contracts/StudentManager.sol\":3606:3607  j */\n      dup2\n        /* \"contracts/StudentManager.sol\":3591:3608  sortedStudents[j] */\n      dup2\n      mload\n      dup2\n      lt\n      tag_79\n      jumpi\n      tag_80\n      tag_81\n      jump\t// in\n    tag_80:\n    tag_79:\n      0x20\n      mul\n      0x20\n      add\n      add\n      mload\n        /* \"contracts/StudentManager.sol\":3591:3613  sortedStudents[j].name */\n      0x20\n      add\n      mload\n        /* \"contracts/StudentManager.sol\":3574:3614  abi.encodePacked(sortedStudents[j].name) */\n      add(0x20, mload(0x40))\n      tag_82\n      swap2\n      swap1\n      tag_83\n      jump\t// in\n    tag_82:\n      mload(0x40)\n      0x20\n      dup2\n      dup4\n      sub\n      sub\n      dup2\n      mstore\n      swap1\n      0x40\n      mstore\n        /* \"contracts/StudentManager.sol\":3564:3615  keccak256(abi.encodePacked(sortedStudents[j].name)) */\n      dup1\n      mload\n      swap1\n      0x20\n      add\n      keccak256\n        /* \"contracts/StudentManager.sol\":3537:3551  sortedStudents */\n      dup4\n        /* \"contracts/StudentManager.sol\":3552:3553  i */\n      dup4\n        /* \"contracts/StudentManager.sol\":3537:3554  sortedStudents[i] */\n      dup2\n      mload\n      dup2\n      lt\n      tag_84\n      jumpi\n      tag_85\n      tag_81\n      jump\t// in\n    tag_85:\n    tag_84:\n      0x20\n      mul\n      0x20\n      add\n      add\n      mload\n        /* \"contracts/StudentManager.sol\":3537:3559  sortedStudents[i].name */\n      0x20\n      add\n      mload\n        /* \"contracts/StudentManager.sol\":3520:3560  abi.encodePacked(sortedStudents[i].name) */\n      add(0x20, mload(0x40))\n      tag_86\n      swap2\n      swap1\n      tag_83\n      jump\t// in\n    tag_86:\n      mload(0x40)\n      0x20\n      dup2\n      dup4\n      sub\n      sub\n      dup2\n      mstore\n      swap1\n      0x40\n      mstore\n        /* \"contracts/StudentManager.sol\":3510:3561  keccak256(abi.encodePacked(sortedStudents[i].name)) */\n      dup1\n      mload\n      swap1\n      0x20\n      add\n      keccak256\n        /* \"contracts/StudentManager.sol\":3510:3615  keccak256(abi.encodePacked(sortedStudents[i].name)) > keccak256(abi.encodePacked(sortedStudents[j].name)) */\n      gt\n        /* \"contracts/StudentManager.sol\":3506:3806  if (keccak256(abi.encodePacked(sortedStudents[i].name)) > keccak256(abi.encodePacked(sortedStudents[j].name))) {... */\n      iszero\n      tag_87\n      jumpi\n        /* \"contracts/StudentManager.sol\":3640:3659  Student memory temp */\n      0x00\n        /* \"contracts/StudentManager.sol\":3662:3676  sortedStudents */\n      dup4\n        /* \"contracts/StudentManager.sol\":3677:3678  i */\n      dup4\n        /* \"contracts/StudentManager.sol\":3662:3679  sortedStudents[i] */\n      dup2\n      mload\n      dup2\n      lt\n      tag_88\n      jumpi\n      tag_89\n      tag_81\n      jump\t// in\n    tag_89:\n    tag_88:\n      0x20\n      mul\n      0x20\n      add\n      add\n      mload\n        /* \"contracts/StudentManager.sol\":3640:3679  Student memory temp = sortedStudents[i] */\n      swap1\n      pop\n        /* \"contracts/StudentManager.sol\":3722:3736  sortedStudents */\n      dup4\n        /* \"contracts/StudentManager.sol\":3737:3738  j */\n      dup3\n        /* \"contracts/StudentManager.sol\":3722:3739  sortedStudents[j] */\n      dup2\n      mload\n      dup2\n      lt\n      tag_90\n      jumpi\n      tag_91\n      tag_81\n      jump\t// in\n    tag_91:\n    tag_90:\n      0x20\n      mul\n      0x20\n      add\n      add\n      mload\n        /* \"contracts/StudentManager.sol\":3702:3716  sortedStudents */\n      dup5\n        /* \"contracts/StudentManager.sol\":3717:3718  i */\n      dup5\n        /* \"contracts/StudentManager.sol\":3702:3719  sortedStudents[i] */\n      dup2\n      mload\n      dup2\n      lt\n      tag_92\n      jumpi\n      tag_93\n      tag_81\n      jump\t// in\n    tag_93:\n    tag_92:\n      0x20\n      mul\n      0x20\n      add\n      add\n        /* \"contracts/StudentManager.sol\":3702:3739  sortedStudents[i] = sortedStudents[j] */\n      dup2\n      swap1\n      mstore\n      pop\n        /* \"contracts/StudentManager.sol\":3782:3786  temp */\n      dup1\n        /* \"contracts/StudentManager.sol\":3762:3776  sortedStudents */\n      dup5\n        /* \"contracts/StudentManager.sol\":3777:3778  j */\n      dup4\n        /* \"contracts/StudentManager.sol\":3762:3779  sortedStudents[j] */\n      dup2\n      mload\n      dup2\n      lt\n      tag_94\n      jumpi\n      tag_95\n      tag_81\n      jump\t// in\n    tag_95:\n    tag_94:\n      0x20\n      mul\n      0x20\n      add\n      add\n        /* \"contracts/StudentManager.sol\":3762:3786  sortedStudents[j] = temp */\n      dup2\n      swap1\n      mstore\n      pop\n        /* \"contracts/StudentManager.sol\":3617:3806  {... */\n      pop\n        /* \"contracts/StudentManager.sol\":3506:3806  if (keccak256(abi.encodePacked(sortedStudents[i].name)) > keccak256(abi.encodePacked(sortedStudents[j].name))) {... */\n    tag_87:\n        /* \"contracts/StudentManager.sol\":3482:3485  j++ */\n      dup1\n      dup1\n      0x01\n      add\n      swap2\n      pop\n      pop\n        /* \"contracts/StudentManager.sol\":3434:3821  for (uint j = i + 1; j < sortedStudents.length; j++) {... */\n      jump(tag_74)\n    tag_75:\n      pop\n        /* \"contracts/StudentManager.sol\":3414:3417  i++ */\n      dup1\n      dup1\n      0x01\n      add\n      swap2\n      pop\n      pop\n        /* \"contracts/StudentManager.sol\":3370:3832  for (uint i = 0; i < sortedStudents.length; i++) {... */\n      jump(tag_71)\n    tag_72:\n      pop\n        /* \"contracts/StudentManager.sol\":3849:3863  sortedStudents */\n      dup1\n        /* \"contracts/StudentManager.sol\":3842:3863  return sortedStudents */\n      swap2\n      pop\n      pop\n        /* \"contracts/StudentManager.sol\":3229:3871  function sortStudentsByName() public view returns (Student[] memory) {... */\n      swap1\n      jump\t// out\n        /* \"contracts/StudentManager.sol\":3918:4496  function sortStudentsByID() public view returns (Student[] memory) {... */\n    tag_25:\n        /* \"contracts/StudentManager.sol\":3967:3983  Student[] memory */\n      0x60\n        /* \"contracts/StudentManager.sol\":3996:4027  Student[] memory sortedStudents */\n      0x00\n        /* \"contracts/StudentManager.sol\":4030:4046  getAllStudents() */\n      tag_97\n        /* \"contracts/StudentManager.sol\":4030:4044  getAllStudents */\n      tag_46\n        /* \"contracts/StudentManager.sol\":4030:4046  getAllStudents() */\n      jump\t// in\n    tag_97:\n        /* \"contracts/StudentManager.sol\":3996:4046  Student[] memory sortedStudents = getAllStudents() */\n      swap1\n      pop\n        /* \"contracts/StudentManager.sol\":4062:4068  uint i */\n      0x00\n        /* \"contracts/StudentManager.sol\":4057:4457  for (uint i = 0; i < sortedStudents.length; i++) {... */\n    tag_98:\n        /* \"contracts/StudentManager.sol\":4078:4092  sortedStudents */\n      dup2\n        /* \"contracts/StudentManager.sol\":4078:4099  sortedStudents.length */\n      mload\n        /* \"contracts/StudentManager.sol\":4074:4075  i */\n      dup2\n        /* \"contracts/StudentManager.sol\":4074:4099  i < sortedStudents.length */\n      lt\n        /* \"contracts/StudentManager.sol\":4057:4457  for (uint i = 0; i < sortedStudents.length; i++) {... */\n      iszero\n      tag_99\n      jumpi\n        /* \"contracts/StudentManager.sol\":4126:4132  uint j */\n      0x00\n        /* \"contracts/StudentManager.sol\":4139:4140  1 */\n      0x01\n        /* \"contracts/StudentManager.sol\":4135:4136  i */\n      dup3\n        /* \"contracts/StudentManager.sol\":4135:4140  i + 1 */\n      tag_104\n      swap2\n      swap1\n      tag_78\n      jump\t// in\n    tag_104:\n        /* \"contracts/StudentManager.sol\":4126:4140  uint j = i + 1 */\n      swap1\n      pop\n        /* \"contracts/StudentManager.sol\":4121:4446  for (uint j = i + 1; j < sortedStudents.length; j++) {... */\n    tag_101:\n        /* \"contracts/StudentManager.sol\":4146:4160  sortedStudents */\n      dup3\n        /* \"contracts/StudentManager.sol\":4146:4167  sortedStudents.length */\n      mload\n        /* \"contracts/StudentManager.sol\":4142:4143  j */\n      dup2\n        /* \"contracts/StudentManager.sol\":4142:4167  j < sortedStudents.length */\n      lt\n        /* \"contracts/StudentManager.sol\":4121:4446  for (uint j = i + 1; j < sortedStudents.length; j++) {... */\n      iszero\n      tag_102\n      jumpi\n        /* \"contracts/StudentManager.sol\":4220:4234  sortedStudents */\n      dup3\n        /* \"contracts/StudentManager.sol\":4235:4236  j */\n      dup2\n        /* \"contracts/StudentManager.sol\":4220:4237  sortedStudents[j] */\n      dup2\n      mload\n      dup2\n      lt\n      tag_105\n      jumpi\n      tag_106\n      tag_81\n      jump\t// in\n    tag_106:\n    tag_105:\n      0x20\n      mul\n      0x20\n      add\n      add\n      mload\n        /* \"contracts/StudentManager.sol\":4220:4240  sortedStudents[j].id */\n      0x00\n      add\n      mload\n        /* \"contracts/StudentManager.sol\":4197:4211  sortedStudents */\n      dup4\n        /* \"contracts/StudentManager.sol\":4212:4213  i */\n      dup4\n        /* \"contracts/StudentManager.sol\":4197:4214  sortedStudents[i] */\n      dup2\n      mload\n      dup2\n      lt\n      tag_107\n      jumpi\n      tag_108\n      tag_81\n      jump\t// in\n    tag_108:\n    tag_107:\n      0x20\n      mul\n      0x20\n      add\n      add\n      mload\n        /* \"contracts/StudentManager.sol\":4197:4217  sortedStudents[i].id */\n      0x00\n      add\n      mload\n        /* \"contracts/StudentManager.sol\":4197:4240  sortedStudents[i].id > sortedStudents[j].id */\n      gt\n        /* \"contracts/StudentManager.sol\":4193:4431  if (sortedStudents[i].id > sortedStudents[j].id) {... */\n      iszero\n      tag_109\n      jumpi\n        /* \"contracts/StudentManager.sol\":4265:4284  Student memory temp */\n      0x00\n        /* \"contracts/StudentManager.sol\":4287:4301  sortedStudents */\n      dup4\n        /* \"contracts/StudentManager.sol\":4302:4303  i */\n      dup4\n        /* \"contracts/StudentManager.sol\":4287:4304  sortedStudents[i] */\n      dup2\n      mload\n      dup2\n      lt\n      tag_110\n      jumpi\n      tag_111\n      tag_81\n      jump\t// in\n    tag_111:\n    tag_110:\n      0x20\n      mul\n      0x20\n      add\n      add\n      mload\n        /* \"contracts/StudentManager.sol\":4265:4304  Student memory temp = sortedStudents[i] */\n      swap1\n      pop\n        /* \"contracts/StudentManager.sol\":4347:4361  sortedStudents */\n      dup4\n        /* \"contracts/StudentManager.sol\":4362:4363  j */\n      dup3\n        /* \"contracts/StudentManager.sol\":4347:4364  sortedStudents[j] */\n      dup2\n      mload\n      dup2\n      lt\n      tag_112\n      jumpi\n      tag_113\n      tag_81\n      jump\t// in\n    tag_113:\n    tag_112:\n      0x20\n      mul\n      0x20\n      add\n      add\n      mload\n        /* \"contracts/StudentManager.sol\":4327:4341  sortedStudents */\n      dup5\n        /* \"contracts/StudentManager.sol\":4342:4343  i */\n      dup5\n        /* \"contracts/StudentManager.sol\":4327:4344  sortedStudents[i] */\n      dup2\n      mload\n      dup2\n      lt\n      tag_114\n      jumpi\n      tag_115\n      tag_81\n      jump\t// in\n    tag_115:\n    tag_114:\n      0x20\n      mul\n      0x20\n      add\n      add\n        /* \"contracts/StudentManager.sol\":4327:4364  sortedStudents[i] = sortedStudents[j] */\n      dup2\n      swap1\n      mstore\n      pop\n        /* \"contracts/StudentManager.sol\":4407:4411  temp */\n      dup1\n        /* \"contracts/StudentManager.sol\":4387:4401  sortedStudents */\n      dup5\n        /* \"contracts/StudentManager.sol\":4402:4403  j */\n      dup4\n        /* \"contracts/StudentManager.sol\":4387:4404  sortedStudents[j] */\n      dup2\n      mload\n      dup2\n      lt\n      tag_116\n      jumpi\n      tag_117\n      tag_81\n      jump\t// in\n    tag_117:\n    tag_116:\n      0x20\n      mul\n      0x20\n      add\n      add\n        /* \"contracts/StudentManager.sol\":4387:4411  sortedStudents[j] = temp */\n      dup2\n      swap1\n      mstore\n      pop\n        /* \"contracts/StudentManager.sol\":4242:4431  {... */\n      pop\n        /* \"contracts/StudentManager.sol\":4193:4431  if (sortedStudents[i].id > sortedStudents[j].id) {... */\n    tag_109:\n        /* \"contracts/StudentManager.sol\":4169:4172  j++ */\n      dup1\n      dup1\n      0x01\n      add\n      swap2\n      pop\n      pop\n        /* \"contracts/StudentManager.sol\":4121:4446  for (uint j = i + 1; j < sortedStudents.length; j++) {... */\n      jump(tag_101)\n    tag_102:\n      pop\n        /* \"contracts/StudentManager.sol\":4101:4104  i++ */\n      dup1\n      dup1\n      0x01\n      add\n      swap2\n      pop\n      pop\n        /* \"contracts/StudentManager.sol\":4057:4457  for (uint i = 0; i < sortedStudents.length; i++) {... */\n      jump(tag_98)\n    tag_99:\n      pop\n        /* \"contracts/StudentManager.sol\":4474:4488  sortedStudents */\n      dup1\n        /* \"contracts/StudentManager.sol\":4467:4488  return sortedStudents */\n      swap2\n      pop\n      pop\n        /* \"contracts/StudentManager.sol\":3918:4496  function sortStudentsByID() public view returns (Student[] memory) {... */\n      swap1\n      jump\t// out\n        /* \"contracts/StudentManager.sol\":1050:1572  function updateStudent(uint _id, string memory _name, string memory _gender, uint _age, uint _mathScore, uint _physicsScore, uint _chemistryScore) public {... */\n    tag_30:\n        /* \"contracts/StudentManager.sol\":1230:1242  studentCount */\n      sload(0x00)\n        /* \"contracts/StudentManager.sol\":1223:1226  _id */\n      dup8\n        /* \"contracts/StudentManager.sol\":1223:1242  _id <= studentCount */\n      gt\n      iszero\n        /* \"contracts/StudentManager.sol\":1223:1253  _id <= studentCount && _id > 0 */\n      dup1\n      iszero\n      tag_119\n      jumpi\n      pop\n        /* \"contracts/StudentManager.sol\":1252:1253  0 */\n      0x00\n        /* \"contracts/StudentManager.sol\":1246:1249  _id */\n      dup8\n        /* \"contracts/StudentManager.sol\":1246:1253  _id > 0 */\n      gt\n        /* \"contracts/StudentManager.sol\":1223:1253  _id <= studentCount && _id > 0 */\n    tag_119:\n        /* \"contracts/StudentManager.sol\":1215:1279  require(_id <= studentCount && _id > 0, \"Student ID is invalid\") */\n      tag_120\n      jumpi\n      mload(0x40)\n      0x08c379a000000000000000000000000000000000000000000000000000000000\n      dup2\n      mstore\n      0x04\n      add\n      tag_121\n      swap1\n      tag_122\n      jump\t// in\n    tag_121:\n      mload(0x40)\n      dup1\n      swap2\n      sub\n      swap1\n      revert\n    tag_120:\n        /* \"contracts/StudentManager.sol\":1290:1299  uint _gpa */\n      0x00\n        /* \"contracts/StudentManager.sol\":1302:1358  calculateGPA(_mathScore, _physicsScore, _chemistryScore) */\n      tag_123\n        /* \"contracts/StudentManager.sol\":1315:1325  _mathScore */\n      dup5\n        /* \"contracts/StudentManager.sol\":1327:1340  _physicsScore */\n      dup5\n        /* \"contracts/StudentManager.sol\":1342:1357  _chemistryScore */\n      dup5\n        /* \"contracts/StudentManager.sol\":1302:1314  calculateGPA */\n      tag_124\n        /* \"contracts/StudentManager.sol\":1302:1358  calculateGPA(_mathScore, _physicsScore, _chemistryScore) */\n      jump\t// in\n    tag_123:\n        /* \"contracts/StudentManager.sol\":1290:1358  uint _gpa = calculateGPA(_mathScore, _physicsScore, _chemistryScore) */\n      swap1\n      pop\n        /* \"contracts/StudentManager.sol\":1369:1403  string memory _academicPerformance */\n      0x00\n        /* \"contracts/StudentManager.sol\":1406:1431  classifyPerformance(_gpa) */\n      tag_125\n        /* \"contracts/StudentManager.sol\":1426:1430  _gpa */\n      dup3\n        /* \"contracts/StudentManager.sol\":1406:1425  classifyPerformance */\n      tag_126\n        /* \"contracts/StudentManager.sol\":1406:1431  classifyPerformance(_gpa) */\n      jump\t// in\n    tag_125:\n        /* \"contracts/StudentManager.sol\":1369:1431  string memory _academicPerformance = classifyPerformance(_gpa) */\n      swap1\n      pop\n        /* \"contracts/StudentManager.sol\":1458:1564  Student(_id, _name, _gender, _age, _mathScore, _physicsScore, _chemistryScore, _gpa, _academicPerformance) */\n      mload(0x40)\n      dup1\n      0x0120\n      add\n      0x40\n      mstore\n      dup1\n        /* \"contracts/StudentManager.sol\":1466:1469  _id */\n      dup11\n        /* \"contracts/StudentManager.sol\":1458:1564  Student(_id, _name, _gender, _age, _mathScore, _physicsScore, _chemistryScore, _gpa, _academicPerformance) */\n      dup2\n      mstore\n      0x20\n      add\n        /* \"contracts/StudentManager.sol\":1471:1476  _name */\n      dup10\n        /* \"contracts/StudentManager.sol\":1458:1564  Student(_id, _name, _gender, _age, _mathScore, _physicsScore, _chemistryScore, _gpa, _academicPerformance) */\n      dup2\n      mstore\n      0x20\n      add\n        /* \"contracts/StudentManager.sol\":1478:1485  _gender */\n      dup9\n        /* \"contracts/StudentManager.sol\":1458:1564  Student(_id, _name, _gender, _age, _mathScore, _physicsScore, _chemistryScore, _gpa, _academicPerformance) */\n      dup2\n      mstore\n      0x20\n      add\n        /* \"contracts/StudentManager.sol\":1487:1491  _age */\n      dup8\n        /* \"contracts/StudentManager.sol\":1458:1564  Student(_id, _name, _gender, _age, _mathScore, _physicsScore, _chemistryScore, _gpa, _academicPerformance) */\n      dup2\n      mstore\n      0x20\n      add\n        /* \"contracts/StudentManager.sol\":1493:1503  _mathScore */\n      dup7\n        /* \"contracts/StudentManager.sol\":1458:1564  Student(_id, _name, _gender, _age, _mathScore, _physicsScore, _chemistryScore, _gpa, _academicPerformance) */\n      dup2\n      mstore\n      0x20\n      add\n        /* \"contracts/StudentManager.sol\":1505:1518  _physicsScore */\n      dup6\n        /* \"contracts/StudentManager.sol\":1458:1564  Student(_id, _name, _gender, _age, _mathScore, _physicsScore, _chemistryScore, _gpa, _academicPerformance) */\n      dup2\n      mstore\n      0x20\n      add\n        /* \"contracts/StudentManager.sol\":1520:1535  _chemistryScore */\n      dup5\n        /* \"contracts/StudentManager.sol\":1458:1564  Student(_id, _name, _gender, _age, _mathScore, _physicsScore, _chemistryScore, _gpa, _academicPerformance) */\n      dup2\n      mstore\n      0x20\n      add\n        /* \"contracts/StudentManager.sol\":1537:1541  _gpa */\n      dup4\n        /* \"contracts/StudentManager.sol\":1458:1564  Student(_id, _name, _gender, _age, _mathScore, _physicsScore, _chemistryScore, _gpa, _academicPerformance) */\n      dup2\n      mstore\n      0x20\n      add\n        /* \"contracts/StudentManager.sol\":1543:1563  _academicPerformance */\n      dup3\n        /* \"contracts/StudentManager.sol\":1458:1564  Student(_id, _name, _gender, _age, _mathScore, _physicsScore, _chemistryScore, _gpa, _academicPerformance) */\n      dup2\n      mstore\n      pop\n        /* \"contracts/StudentManager.sol\":1442:1450  students */\n      0x01\n        /* \"contracts/StudentManager.sol\":1442:1455  students[_id] */\n      0x00\n        /* \"contracts/StudentManager.sol\":1451:1454  _id */\n      dup12\n        /* \"contracts/StudentManager.sol\":1442:1455  students[_id] */\n      dup2\n      mstore\n      0x20\n      add\n      swap1\n      dup2\n      mstore\n      0x20\n      add\n      0x00\n      keccak256\n        /* \"contracts/StudentManager.sol\":1442:1564  students[_id] = Student(_id, _name, _gender, _age, _mathScore, _physicsScore, _chemistryScore, _gpa, _academicPerformance) */\n      0x00\n      dup3\n      add\n      mload\n      dup2\n      0x00\n      add\n      sstore\n      0x20\n      dup3\n      add\n      mload\n      dup2\n      0x01\n      add\n      swap1\n      dup2\n      tag_127\n      swap2\n      swap1\n      tag_128\n      jump\t// in\n    tag_127:\n      pop\n      0x40\n      dup3\n      add\n      mload\n      dup2\n      0x02\n      add\n      swap1\n      dup2\n      tag_129\n      swap2\n      swap1\n      tag_128\n      jump\t// in\n    tag_129:\n      pop\n      0x60\n      dup3\n      add\n      mload\n      dup2\n      0x03\n      add\n      sstore\n      0x80\n      dup3\n      add\n      mload\n      dup2\n      0x04\n      add\n      sstore\n      0xa0\n      dup3\n      add\n      mload\n      dup2\n      0x05\n      add\n      sstore\n      0xc0\n      dup3\n      add\n      mload\n      dup2\n      0x06\n      add\n      sstore\n      0xe0\n      dup3\n      add\n      mload\n      dup2\n      0x07\n      add\n      sstore\n      0x0100\n      dup3\n      add\n      mload\n      dup2\n      0x08\n      add\n      swap1\n      dup2\n      tag_130\n      swap2\n      swap1\n      tag_128\n      jump\t// in\n    tag_130:\n      pop\n      swap1\n      pop\n      pop\n        /* \"contracts/StudentManager.sol\":1204:1572  {... */\n      pop\n      pop\n        /* \"contracts/StudentManager.sol\":1050:1572  function updateStudent(uint _id, string memory _name, string memory _gender, uint _age, uint _mathScore, uint _physicsScore, uint _chemistryScore) public {... */\n      pop\n      pop\n      pop\n      pop\n      pop\n      pop\n      pop\n      jump\t// out\n        /* \"contracts/StudentManager.sol\":522:999  function addStudent(string memory _name, string memory _gender, uint _age, uint _mathScore, uint _physicsScore, uint _chemistryScore) public {... */\n    tag_34:\n        /* \"contracts/StudentManager.sol\":674:683  uint _gpa */\n      0x00\n        /* \"contracts/StudentManager.sol\":686:742  calculateGPA(_mathScore, _physicsScore, _chemistryScore) */\n      tag_132\n        /* \"contracts/StudentManager.sol\":699:709  _mathScore */\n      dup5\n        /* \"contracts/StudentManager.sol\":711:724  _physicsScore */\n      dup5\n        /* \"contracts/StudentManager.sol\":726:741  _chemistryScore */\n      dup5\n        /* \"contracts/StudentManager.sol\":686:698  calculateGPA */\n      tag_124\n        /* \"contracts/StudentManager.sol\":686:742  calculateGPA(_mathScore, _physicsScore, _chemistryScore) */\n      jump\t// in\n    tag_132:\n        /* \"contracts/StudentManager.sol\":674:742  uint _gpa = calculateGPA(_mathScore, _physicsScore, _chemistryScore) */\n      swap1\n      pop\n        /* \"contracts/StudentManager.sol\":753:787  string memory _academicPerformance */\n      0x00\n        /* \"contracts/StudentManager.sol\":790:815  classifyPerformance(_gpa) */\n      tag_133\n        /* \"contracts/StudentManager.sol\":810:814  _gpa */\n      dup3\n        /* \"contracts/StudentManager.sol\":790:809  classifyPerformance */\n      tag_126\n        /* \"contracts/StudentManager.sol\":790:815  classifyPerformance(_gpa) */\n      jump\t// in\n    tag_133:\n        /* \"contracts/StudentManager.sol\":753:815  string memory _academicPerformance = classifyPerformance(_gpa) */\n      swap1\n      pop\n        /* \"contracts/StudentManager.sol\":826:838  studentCount */\n      0x00\n      dup1\n        /* \"contracts/StudentManager.sol\":826:840  studentCount++ */\n      dup2\n      sload\n      dup1\n      swap3\n      swap2\n      swap1\n      tag_134\n      swap1\n      tag_135\n      jump\t// in\n    tag_134:\n      swap2\n      swap1\n      pop\n      sstore\n      pop\n        /* \"contracts/StudentManager.sol\":876:991  Student(studentCount, _name, _gender, _age, _mathScore, _physicsScore, _chemistryScore, _gpa, _academicPerformance) */\n      mload(0x40)\n      dup1\n      0x0120\n      add\n      0x40\n      mstore\n      dup1\n        /* \"contracts/StudentManager.sol\":884:896  studentCount */\n      sload(0x00)\n        /* \"contracts/StudentManager.sol\":876:991  Student(studentCount, _name, _gender, _age, _mathScore, _physicsScore, _chemistryScore, _gpa, _academicPerformance) */\n      dup2\n      mstore\n      0x20\n      add\n        /* \"contracts/StudentManager.sol\":898:903  _name */\n      dup10\n        /* \"contracts/StudentManager.sol\":876:991  Student(studentCount, _name, _gender, _age, _mathScore, _physicsScore, _chemistryScore, _gpa, _academicPerformance) */\n      dup2\n      mstore\n      0x20\n      add\n        /* \"contracts/StudentManager.sol\":905:912  _gender */\n      dup9\n        /* \"contracts/StudentManager.sol\":876:991  Student(studentCount, _name, _gender, _age, _mathScore, _physicsScore, _chemistryScore, _gpa, _academicPerformance) */\n      dup2\n      mstore\n      0x20\n      add\n        /* \"contracts/StudentManager.sol\":914:918  _age */\n      dup8\n        /* \"contracts/StudentManager.sol\":876:991  Student(studentCount, _name, _gender, _age, _mathScore, _physicsScore, _chemistryScore, _gpa, _academicPerformance) */\n      dup2\n      mstore\n      0x20\n      add\n        /* \"contracts/StudentManager.sol\":920:930  _mathScore */\n      dup7\n        /* \"contracts/StudentManager.sol\":876:991  Student(studentCount, _name, _gender, _age, _mathScore, _physicsScore, _chemistryScore, _gpa, _academicPerformance) */\n      dup2\n      mstore\n      0x20\n      add\n        /* \"contracts/StudentManager.sol\":932:945  _physicsScore */\n      dup6\n        /* \"contracts/StudentManager.sol\":876:991  Student(studentCount, _name, _gender, _age, _mathScore, _physicsScore, _chemistryScore, _gpa, _academicPerformance) */\n      dup2\n      mstore\n      0x20\n      add\n        /* \"contracts/StudentManager.sol\":947:962  _chemistryScore */\n      dup5\n        /* \"contracts/StudentManager.sol\":876:991  Student(studentCount, _name, _gender, _age, _mathScore, _physicsScore, _chemistryScore, _gpa, _academicPerformance) */\n      dup2\n      mstore\n      0x20\n      add\n        /* \"contracts/StudentManager.sol\":964:968  _gpa */\n      dup4\n        /* \"contracts/StudentManager.sol\":876:991  Student(studentCount, _name, _gender, _age, _mathScore, _physicsScore, _chemistryScore, _gpa, _academicPerformance) */\n      dup2\n      mstore\n      0x20\n      add\n        /* \"contracts/StudentManager.sol\":970:990  _academicPerformance */\n      dup3\n        /* \"contracts/StudentManager.sol\":876:991  Student(studentCount, _name, _gender, _age, _mathScore, _physicsScore, _chemistryScore, _gpa, _academicPerformance) */\n      dup2\n      mstore\n      pop\n        /* \"contracts/StudentManager.sol\":851:859  students */\n      0x01\n        /* \"contracts/StudentManager.sol\":851:873  students[studentCount] */\n      0x00\n        /* \"contracts/StudentManager.sol\":860:872  studentCount */\n      dup1\n      sload\n        /* \"contracts/StudentManager.sol\":851:873  students[studentCount] */\n      dup2\n      mstore\n      0x20\n      add\n      swap1\n      dup2\n      mstore\n      0x20\n      add\n      0x00\n      keccak256\n        /* \"contracts/StudentManager.sol\":851:991  students[studentCount] = Student(studentCount, _name, _gender, _age, _mathScore, _physicsScore, _chemistryScore, _gpa, _academicPerformance) */\n      0x00\n      dup3\n      add\n      mload\n      dup2\n      0x00\n      add\n      sstore\n      0x20\n      dup3\n      add\n      mload\n      dup2\n      0x01\n      add\n      swap1\n      dup2\n      tag_136\n      swap2\n      swap1\n      tag_128\n      jump\t// in\n    tag_136:\n      pop\n      0x40\n      dup3\n      add\n      mload\n      dup2\n      0x02\n      add\n      swap1\n      dup2\n      tag_137\n      swap2\n      swap1\n      tag_128\n      jump\t// in\n    tag_137:\n      pop\n      0x60\n      dup3\n      add\n      mload\n      dup2\n      0x03\n      add\n      sstore\n      0x80\n      dup3\n      add\n      mload\n      dup2\n      0x04\n      add\n      sstore\n      0xa0\n      dup3\n      add\n      mload\n      dup2\n      0x05\n      add\n      sstore\n      0xc0\n      dup3\n      add\n      mload\n      dup2\n      0x06\n      add\n      sstore\n      0xe0\n      dup3\n      add\n      mload\n      dup2\n      0x07\n      add\n      sstore\n      0x0100\n      dup3\n      add\n      mload\n      dup2\n      0x08\n      add\n      swap1\n      dup2\n      tag_138\n      swap2\n      swap1\n      tag_128\n      jump\t// in\n    tag_138:\n      pop\n      swap1\n      pop\n      pop\n        /* \"contracts/StudentManager.sol\":663:999  {... */\n      pop\n      pop\n        /* \"contracts/StudentManager.sol\":522:999  function addStudent(string memory _name, string memory _gender, uint _age, uint _mathScore, uint _physicsScore, uint _chemistryScore) public {... */\n      pop\n      pop\n      pop\n      pop\n      pop\n      pop\n      jump\t// out\n        /* \"contracts/StudentManager.sol\":2599:3180  function sortStudentsByGPA() public view returns (Student[] memory) {... */\n    tag_36:\n        /* \"contracts/StudentManager.sol\":2649:2665  Student[] memory */\n      0x60\n        /* \"contracts/StudentManager.sol\":2678:2709  Student[] memory sortedStudents */\n      0x00\n        /* \"contracts/StudentManager.sol\":2712:2728  getAllStudents() */\n      tag_140\n        /* \"contracts/StudentManager.sol\":2712:2726  getAllStudents */\n      tag_46\n        /* \"contracts/StudentManager.sol\":2712:2728  getAllStudents() */\n      jump\t// in\n    tag_140:\n        /* \"contracts/StudentManager.sol\":2678:2728  Student[] memory sortedStudents = getAllStudents() */\n      swap1\n      pop\n        /* \"contracts/StudentManager.sol\":2744:2750  uint i */\n      0x00\n        /* \"contracts/StudentManager.sol\":2739:3141  for (uint i = 0; i < sortedStudents.length; i++) {... */\n    tag_141:\n        /* \"contracts/StudentManager.sol\":2760:2774  sortedStudents */\n      dup2\n        /* \"contracts/StudentManager.sol\":2760:2781  sortedStudents.length */\n      mload\n        /* \"contracts/StudentManager.sol\":2756:2757  i */\n      dup2\n        /* \"contracts/StudentManager.sol\":2756:2781  i < sortedStudents.length */\n      lt\n        /* \"contracts/StudentManager.sol\":2739:3141  for (uint i = 0; i < sortedStudents.length; i++) {... */\n      iszero\n      tag_142\n      jumpi\n        /* \"contracts/StudentManager.sol\":2808:2814  uint j */\n      0x00\n        /* \"contracts/StudentManager.sol\":2821:2822  1 */\n      0x01\n        /* \"contracts/StudentManager.sol\":2817:2818  i */\n      dup3\n        /* \"contracts/StudentManager.sol\":2817:2822  i + 1 */\n      tag_147\n      swap2\n      swap1\n      tag_78\n      jump\t// in\n    tag_147:\n        /* \"contracts/StudentManager.sol\":2808:2822  uint j = i + 1 */\n      swap1\n      pop\n        /* \"contracts/StudentManager.sol\":2803:3130  for (uint j = i + 1; j < sortedStudents.length; j++) {... */\n    tag_144:\n        /* \"contracts/StudentManager.sol\":2828:2842  sortedStudents */\n      dup3\n        /* \"contracts/StudentManager.sol\":2828:2849  sortedStudents.length */\n      mload\n        /* \"contracts/StudentManager.sol\":2824:2825  j */\n      dup2\n        /* \"contracts/StudentManager.sol\":2824:2849  j < sortedStudents.length */\n      lt\n        /* \"contracts/StudentManager.sol\":2803:3130  for (uint j = i + 1; j < sortedStudents.length; j++) {... */\n      iszero\n      tag_145\n      jumpi\n        /* \"contracts/StudentManager.sol\":2903:2917  sortedStudents */\n      dup3\n        /* \"contracts/StudentManager.sol\":2918:2919  j */\n      dup2\n        /* \"contracts/StudentManager.sol\":2903:2920  sortedStudents[j] */\n      dup2\n      mload\n      dup2\n      lt\n      tag_148\n      jumpi\n      tag_149\n      tag_81\n      jump\t// in\n    tag_149:\n    tag_148:\n      0x20\n      mul\n      0x20\n      add\n      add\n      mload\n        /* \"contracts/StudentManager.sol\":2903:2924  sortedStudents[j].gpa */\n      0xe0\n      add\n      mload\n        /* \"contracts/StudentManager.sol\":2879:2893  sortedStudents */\n      dup4\n        /* \"contracts/StudentManager.sol\":2894:2895  i */\n      dup4\n        /* \"contracts/StudentManager.sol\":2879:2896  sortedStudents[i] */\n      dup2\n      mload\n      dup2\n      lt\n      tag_150\n      jumpi\n      tag_151\n      tag_81\n      jump\t// in\n    tag_151:\n    tag_150:\n      0x20\n      mul\n      0x20\n      add\n      add\n      mload\n        /* \"contracts/StudentManager.sol\":2879:2900  sortedStudents[i].gpa */\n      0xe0\n      add\n      mload\n        /* \"contracts/StudentManager.sol\":2879:2924  sortedStudents[i].gpa < sortedStudents[j].gpa */\n      lt\n        /* \"contracts/StudentManager.sol\":2875:3115  if (sortedStudents[i].gpa < sortedStudents[j].gpa) {... */\n      iszero\n      tag_152\n      jumpi\n        /* \"contracts/StudentManager.sol\":2949:2968  Student memory temp */\n      0x00\n        /* \"contracts/StudentManager.sol\":2971:2985  sortedStudents */\n      dup4\n        /* \"contracts/StudentManager.sol\":2986:2987  i */\n      dup4\n        /* \"contracts/StudentManager.sol\":2971:2988  sortedStudents[i] */\n      dup2\n      mload\n      dup2\n      lt\n      tag_153\n      jumpi\n      tag_154\n      tag_81\n      jump\t// in\n    tag_154:\n    tag_153:\n      0x20\n      mul\n      0x20\n      add\n      add\n      mload\n        /* \"contracts/StudentManager.sol\":2949:2988  Student memory temp = sortedStudents[i] */\n      swap1\n      pop\n        /* \"contracts/StudentManager.sol\":3031:3045  sortedStudents */\n      dup4\n        /* \"contracts/StudentManager.sol\":3046:3047  j */\n      dup3\n        /* \"contracts/StudentManager.sol\":3031:3048  sortedStudents[j] */\n      dup2\n      mload\n      dup2\n      lt\n      tag_155\n      jumpi\n      tag_156\n      tag_81\n      jump\t// in\n    tag_156:\n    tag_155:\n      0x20\n      mul\n      0x20\n      add\n      add\n      mload\n        /* \"contracts/StudentManager.sol\":3011:3025  sortedStudents */\n      dup5\n        /* \"contracts/StudentManager.sol\":3026:3027  i */\n      dup5\n        /* \"contracts/StudentManager.sol\":3011:3028  sortedStudents[i] */\n      dup2\n      mload\n      dup2\n      lt\n      tag_157\n      jumpi\n      tag_158\n      tag_81\n      jump\t// in\n    tag_158:\n    tag_157:\n      0x20\n      mul\n      0x20\n      add\n      add\n        /* \"contracts/StudentManager.sol\":3011:3048  sortedStudents[i] = sortedStudents[j] */\n      dup2\n      swap1\n      mstore\n      pop\n        /* \"contracts/StudentManager.sol\":3091:3095  temp */\n      dup1\n        /* \"contracts/StudentManager.sol\":3071:3085  sortedStudents */\n      dup5\n        /* \"contracts/StudentManager.sol\":3086:3087  j */\n      dup4\n        /* \"contracts/StudentManager.sol\":3071:3088  sortedStudents[j] */\n      dup2\n      mload\n      dup2\n      lt\n      tag_159\n      jumpi\n      tag_160\n      tag_81\n      jump\t// in\n    tag_160:\n    tag_159:\n      0x20\n      mul\n      0x20\n      add\n      add\n        /* \"contracts/StudentManager.sol\":3071:3095  sortedStudents[j] = temp */\n      dup2\n      swap1\n      mstore\n      pop\n        /* \"contracts/StudentManager.sol\":2926:3115  {... */\n      pop\n        /* \"contracts/StudentManager.sol\":2875:3115  if (sortedStudents[i].gpa < sortedStudents[j].gpa) {... */\n    tag_152:\n        /* \"contracts/StudentManager.sol\":2851:2854  j++ */\n      dup1\n      dup1\n      0x01\n      add\n      swap2\n      pop\n      pop\n        /* \"contracts/StudentManager.sol\":2803:3130  for (uint j = i + 1; j < sortedStudents.length; j++) {... */\n      jump(tag_144)\n    tag_145:\n      pop\n        /* \"contracts/StudentManager.sol\":2783:2786  i++ */\n      dup1\n      dup1\n      0x01\n      add\n      swap2\n      pop\n      pop\n        /* \"contracts/StudentManager.sol\":2739:3141  for (uint i = 0; i < sortedStudents.length; i++) {... */\n      jump(tag_141)\n    tag_142:\n      pop\n        /* \"contracts/StudentManager.sol\":3158:3172  sortedStudents */\n      dup1\n        /* \"contracts/StudentManager.sol\":3151:3172  return sortedStudents */\n      swap2\n      pop\n      pop\n        /* \"contracts/StudentManager.sol\":2599:3180  function sortStudentsByGPA() public view returns (Student[] memory) {... */\n      swap1\n      jump\t// out\n        /* \"contracts/StudentManager.sol\":1612:1766  function deleteStudent(uint _id) public {... */\n    tag_40:\n        /* \"contracts/StudentManager.sol\":1678:1690  studentCount */\n      sload(0x00)\n        /* \"contracts/StudentManager.sol\":1671:1674  _id */\n      dup2\n        /* \"contracts/StudentManager.sol\":1671:1690  _id <= studentCount */\n      gt\n      iszero\n        /* \"contracts/StudentManager.sol\":1671:1701  _id <= studentCount && _id > 0 */\n      dup1\n      iszero\n      tag_162\n      jumpi\n      pop\n        /* \"contracts/StudentManager.sol\":1700:1701  0 */\n      0x00\n        /* \"contracts/StudentManager.sol\":1694:1697  _id */\n      dup2\n        /* \"contracts/StudentManager.sol\":1694:1701  _id > 0 */\n      gt\n        /* \"contracts/StudentManager.sol\":1671:1701  _id <= studentCount && _id > 0 */\n    tag_162:\n        /* \"contracts/StudentManager.sol\":1663:1727  require(_id <= studentCount && _id > 0, \"Student ID is invalid\") */\n      tag_163\n      jumpi\n      mload(0x40)\n      0x08c379a000000000000000000000000000000000000000000000000000000000\n      dup2\n      mstore\n      0x04\n      add\n      tag_164\n      swap1\n      tag_122\n      jump\t// in\n    tag_164:\n      mload(0x40)\n      dup1\n      swap2\n      sub\n      swap1\n      revert\n    tag_163:\n        /* \"contracts/StudentManager.sol\":1745:1753  students */\n      0x01\n        /* \"contracts/StudentManager.sol\":1745:1758  students[_id] */\n      0x00\n        /* \"contracts/StudentManager.sol\":1754:1757  _id */\n      dup3\n        /* \"contracts/StudentManager.sol\":1745:1758  students[_id] */\n      dup2\n      mstore\n      0x20\n      add\n      swap1\n      dup2\n      mstore\n      0x20\n      add\n      0x00\n      keccak256\n      0x00\n        /* \"contracts/StudentManager.sol\":1738:1758  delete students[_id] */\n      dup1\n      dup3\n      add\n      0x00\n      swap1\n      sstore\n      0x01\n      dup3\n      add\n      0x00\n      tag_165\n      swap2\n      swap1\n      tag_166\n      jump\t// in\n    tag_165:\n      0x02\n      dup3\n      add\n      0x00\n      tag_167\n      swap2\n      swap1\n      tag_166\n      jump\t// in\n    tag_167:\n      0x03\n      dup3\n      add\n      0x00\n      swap1\n      sstore\n      0x04\n      dup3\n      add\n      0x00\n      swap1\n      sstore\n      0x05\n      dup3\n      add\n      0x00\n      swap1\n      sstore\n      0x06\n      dup3\n      add\n      0x00\n      swap1\n      sstore\n      0x07\n      dup3\n      add\n      0x00\n      swap1\n      sstore\n      0x08\n      dup3\n      add\n      0x00\n      tag_168\n      swap2\n      swap1\n      tag_166\n      jump\t// in\n    tag_168:\n      pop\n      pop\n        /* \"contracts/StudentManager.sol\":1612:1766  function deleteStudent(uint _id) public {... */\n      pop\n      jump\t// out\n        /* \"contracts/StudentManager.sol\":103:131  uint public studentCount = 0 */\n    tag_42:\n      sload(0x00)\n      dup2\n      jump\t// out\n        /* \"contracts/StudentManager.sol\":4547:4828  function getAllStudents() public view returns (Student[] memory) {... */\n    tag_46:\n        /* \"contracts/StudentManager.sol\":4594:4610  Student[] memory */\n      0x60\n        /* \"contracts/StudentManager.sol\":4623:4651  Student[] memory allStudents */\n      0x00\n        /* \"contracts/StudentManager.sol\":4668:4680  studentCount */\n      dup1\n      sload\n        /* \"contracts/StudentManager.sol\":4654:4681  new Student[](studentCount) */\n      0xffffffffffffffff\n      dup2\n      gt\n      iszero\n      tag_170\n      jumpi\n      tag_171\n      tag_172\n      jump\t// in\n    tag_171:\n    tag_170:\n      mload(0x40)\n      swap1\n      dup1\n      dup3\n      mstore\n      dup1\n      0x20\n      mul\n      0x20\n      add\n      dup3\n      add\n      0x40\n      mstore\n      dup1\n      iszero\n      tag_173\n      jumpi\n      dup2\n      0x20\n      add\n    tag_174:\n      tag_175\n      tag_176\n      jump\t// in\n    tag_175:\n      dup2\n      mstore\n      0x20\n      add\n      swap1\n      0x01\n      swap1\n      sub\n      swap1\n      dup2\n      tag_174\n      jumpi\n      swap1\n      pop\n    tag_173:\n      pop\n        /* \"contracts/StudentManager.sol\":4623:4681  Student[] memory allStudents = new Student[](studentCount) */\n      swap1\n      pop\n        /* \"contracts/StudentManager.sol\":4697:4703  uint i */\n      0x00\n        /* \"contracts/StudentManager.sol\":4706:4707  1 */\n      0x01\n        /* \"contracts/StudentManager.sol\":4697:4707  uint i = 1 */\n      swap1\n      pop\n        /* \"contracts/StudentManager.sol\":4692:4792  for (uint i = 1; i <= studentCount; i++) {... */\n    tag_177:\n        /* \"contracts/StudentManager.sol\":4714:4726  studentCount */\n      sload(0x00)\n        /* \"contracts/StudentManager.sol\":4709:4710  i */\n      dup2\n        /* \"contracts/StudentManager.sol\":4709:4726  i <= studentCount */\n      gt\n        /* \"contracts/StudentManager.sol\":4692:4792  for (uint i = 1; i <= studentCount; i++) {... */\n      tag_178\n      jumpi\n        /* \"contracts/StudentManager.sol\":4769:4777  students */\n      0x01\n        /* \"contracts/StudentManager.sol\":4769:4780  students[i] */\n      0x00\n        /* \"contracts/StudentManager.sol\":4778:4779  i */\n      dup3\n        /* \"contracts/StudentManager.sol\":4769:4780  students[i] */\n      dup2\n      mstore\n      0x20\n      add\n      swap1\n      dup2\n      mstore\n      0x20\n      add\n      0x00\n      keccak256\n        /* \"contracts/StudentManager.sol\":4748:4780  allStudents[i - 1] = students[i] */\n      mload(0x40)\n      dup1\n      0x0120\n      add\n      0x40\n      mstore\n      swap1\n      dup2\n      0x00\n      dup3\n      add\n      sload\n      dup2\n      mstore\n      0x20\n      add\n      0x01\n      dup3\n      add\n      dup1\n      sload\n      tag_180\n      swap1\n      tag_54\n      jump\t// in\n    tag_180:\n      dup1\n      0x1f\n      add\n      0x20\n      dup1\n      swap2\n      div\n      mul\n      0x20\n      add\n      mload(0x40)\n      swap1\n      dup2\n      add\n      0x40\n      mstore\n      dup1\n      swap3\n      swap2\n      swap1\n      dup2\n      dup2\n      mstore\n      0x20\n      add\n      dup3\n      dup1\n      sload\n      tag_181\n      swap1\n      tag_54\n      jump\t// in\n    tag_181:\n      dup1\n      iszero\n      tag_182\n      jumpi\n      dup1\n      0x1f\n      lt\n      tag_183\n      jumpi\n      0x0100\n      dup1\n      dup4\n      sload\n      div\n      mul\n      dup4\n      mstore\n      swap2\n      0x20\n      add\n      swap2\n      jump(tag_182)\n    tag_183:\n      dup3\n      add\n      swap2\n      swap1\n      0x00\n      mstore\n      keccak256(0x00, 0x20)\n      swap1\n    tag_184:\n      dup2\n      sload\n      dup2\n      mstore\n      swap1\n      0x01\n      add\n      swap1\n      0x20\n      add\n      dup1\n      dup4\n      gt\n      tag_184\n      jumpi\n      dup3\n      swap1\n      sub\n      0x1f\n      and\n      dup3\n      add\n      swap2\n    tag_182:\n      pop\n      pop\n      pop\n      pop\n      pop\n      dup2\n      mstore\n      0x20\n      add\n      0x02\n      dup3\n      add\n      dup1\n      sload\n      tag_185\n      swap1\n      tag_54\n      jump\t// in\n    tag_185:\n      dup1\n      0x1f\n      add\n      0x20\n      dup1\n      swap2\n      div\n      mul\n      0x20\n      add\n      mload(0x40)\n      swap1\n      dup2\n      add\n      0x40\n      mstore\n      dup1\n      swap3\n      swap2\n      swap1\n      dup2\n      dup2\n      mstore\n      0x20\n      add\n      dup3\n      dup1\n      sload\n      tag_186\n      swap1\n      tag_54\n      jump\t// in\n    tag_186:\n      dup1\n      iszero\n      tag_187\n      jumpi\n      dup1\n      0x1f\n      lt\n      tag_188\n      jumpi\n      0x0100\n      dup1\n      dup4\n      sload\n      div\n      mul\n      dup4\n      mstore\n      swap2\n      0x20\n      add\n      swap2\n      jump(tag_187)\n    tag_188:\n      dup3\n      add\n      swap2\n      swap1\n      0x00\n      mstore\n      keccak256(0x00, 0x20)\n      swap1\n    tag_189:\n      dup2\n      sload\n      dup2\n      mstore\n      swap1\n      0x01\n      add\n      swap1\n      0x20\n      add\n      dup1\n      dup4\n      gt\n      tag_189\n      jumpi\n      dup3\n      swap1\n      sub\n      0x1f\n      and\n      dup3\n      add\n      swap2\n    tag_187:\n      pop\n      pop\n      pop\n      pop\n      pop\n      dup2\n      mstore\n      0x20\n      add\n      0x03\n      dup3\n      add\n      sload\n      dup2\n      mstore\n      0x20\n      add\n      0x04\n      dup3\n      add\n      sload\n      dup2\n      mstore\n      0x20\n      add\n      0x05\n      dup3\n      add\n      sload\n      dup2\n      mstore\n      0x20\n      add\n      0x06\n      dup3\n      add\n      sload\n      dup2\n      mstore\n      0x20\n      add\n      0x07\n      dup3\n      add\n      sload\n      dup2\n      mstore\n      0x20\n      add\n      0x08\n      dup3\n      add\n      dup1\n      sload\n      tag_190\n      swap1\n      tag_54\n      jump\t// in\n    tag_190:\n      dup1\n      0x1f\n      add\n      0x20\n      dup1\n      swap2\n      div\n      mul\n      0x20\n      add\n      mload(0x40)\n      swap1\n      dup2\n      add\n      0x40\n      mstore\n      dup1\n      swap3\n      swap2\n      swap1\n      dup2\n      dup2\n      mstore\n      0x20\n      add\n      dup3\n      dup1\n      sload\n      tag_191\n      swap1\n      tag_54\n      jump\t// in\n    tag_191:\n      dup1\n      iszero\n      tag_192\n      jumpi\n      dup1\n      0x1f\n      lt\n      tag_193\n      jumpi\n      0x0100\n      dup1\n      dup4\n      sload\n      div\n      mul\n      dup4\n      mstore\n      swap2\n      0x20\n      add\n      swap2\n      jump(tag_192)\n    tag_193:\n      dup3\n      add\n      swap2\n      swap1\n      0x00\n      mstore\n      keccak256(0x00, 0x20)\n      swap1\n    tag_194:\n      dup2\n      sload\n      dup2\n      mstore\n      swap1\n      0x01\n      add\n      swap1\n      0x20\n      add\n      dup1\n      dup4\n      gt\n      tag_194\n      jumpi\n      dup3\n      swap1\n      sub\n      0x1f\n      and\n      dup3\n      add\n      swap2\n    tag_192:\n      pop\n      pop\n      pop\n      pop\n      pop\n      dup2\n      mstore\n      pop\n      pop\n        /* \"contracts/StudentManager.sol\":4748:4759  allStudents */\n      dup3\n        /* \"contracts/StudentManager.sol\":4764:4765  1 */\n      0x01\n        /* \"contracts/StudentManager.sol\":4760:4761  i */\n      dup4\n        /* \"contracts/StudentManager.sol\":4760:4765  i - 1 */\n      tag_195\n      swap2\n      swap1\n      tag_196\n      jump\t// in\n    tag_195:\n        /* \"contracts/StudentManager.sol\":4748:4766  allStudents[i - 1] */\n      dup2\n      mload\n      dup2\n      lt\n      tag_197\n      jumpi\n      tag_198\n      tag_81\n      jump\t// in\n    tag_198:\n    tag_197:\n      0x20\n      mul\n      0x20\n      add\n      add\n        /* \"contracts/StudentManager.sol\":4748:4780  allStudents[i - 1] = students[i] */\n      dup2\n      swap1\n      mstore\n      pop\n        /* \"contracts/StudentManager.sol\":4728:4731  i++ */\n      dup1\n      dup1\n      tag_199\n      swap1\n      tag_135\n      jump\t// in\n    tag_199:\n      swap2\n      pop\n      pop\n        /* \"contracts/StudentManager.sol\":4692:4792  for (uint i = 1; i <= studentCount; i++) {... */\n      jump(tag_177)\n    tag_178:\n      pop\n        /* \"contracts/StudentManager.sol\":4809:4820  allStudents */\n      dup1\n        /* \"contracts/StudentManager.sol\":4802:4820  return allStudents */\n      swap2\n      pop\n      pop\n        /* \"contracts/StudentManager.sol\":4547:4828  function getAllStudents() public view returns (Student[] memory) {... */\n      swap1\n      jump\t// out\n        /* \"contracts/StudentManager.sol\":1815:2551  function searchStudentByName(string memory _name) public view returns (Student[] memory) {... */\n    tag_51:\n        /* \"contracts/StudentManager.sol\":1886:1902  Student[] memory */\n      0x60\n        /* \"contracts/StudentManager.sol\":1915:1930  uint foundCount */\n      0x00\n        /* \"contracts/StudentManager.sol\":1950:1956  uint i */\n      dup1\n        /* \"contracts/StudentManager.sol\":1959:1960  1 */\n      0x01\n        /* \"contracts/StudentManager.sol\":1950:1960  uint i = 1 */\n      swap1\n      pop\n        /* \"contracts/StudentManager.sol\":1945:2148  for (uint i = 1; i <= studentCount; i++) {... */\n    tag_201:\n        /* \"contracts/StudentManager.sol\":1967:1979  studentCount */\n      sload(0x00)\n        /* \"contracts/StudentManager.sol\":1962:1963  i */\n      dup2\n        /* \"contracts/StudentManager.sol\":1962:1979  i <= studentCount */\n      gt\n        /* \"contracts/StudentManager.sol\":1945:2148  for (uint i = 1; i <= studentCount; i++) {... */\n      tag_202\n      jumpi\n        /* \"contracts/StudentManager.sol\":2081:2086  _name */\n      dup4\n        /* \"contracts/StudentManager.sol\":2064:2087  abi.encodePacked(_name) */\n      add(0x20, mload(0x40))\n      tag_204\n      swap2\n      swap1\n      tag_83\n      jump\t// in\n    tag_204:\n      mload(0x40)\n      0x20\n      dup2\n      dup4\n      sub\n      sub\n      dup2\n      mstore\n      swap1\n      0x40\n      mstore\n        /* \"contracts/StudentManager.sol\":2054:2088  keccak256(abi.encodePacked(_name)) */\n      dup1\n      mload\n      swap1\n      0x20\n      add\n      keccak256\n        /* \"contracts/StudentManager.sol\":2032:2040  students */\n      0x01\n        /* \"contracts/StudentManager.sol\":2032:2043  students[i] */\n      0x00\n        /* \"contracts/StudentManager.sol\":2041:2042  i */\n      dup4\n        /* \"contracts/StudentManager.sol\":2032:2043  students[i] */\n      dup2\n      mstore\n      0x20\n      add\n      swap1\n      dup2\n      mstore\n      0x20\n      add\n      0x00\n      keccak256\n        /* \"contracts/StudentManager.sol\":2032:2048  students[i].name */\n      0x01\n      add\n        /* \"contracts/StudentManager.sol\":2015:2049  abi.encodePacked(students[i].name) */\n      add(0x20, mload(0x40))\n      tag_205\n      swap2\n      swap1\n      tag_206\n      jump\t// in\n    tag_205:\n      mload(0x40)\n      0x20\n      dup2\n      dup4\n      sub\n      sub\n      dup2\n      mstore\n      swap1\n      0x40\n      mstore\n        /* \"contracts/StudentManager.sol\":2005:2050  keccak256(abi.encodePacked(students[i].name)) */\n      dup1\n      mload\n      swap1\n      0x20\n      add\n      keccak256\n        /* \"contracts/StudentManager.sol\":2005:2088  keccak256(abi.encodePacked(students[i].name)) == keccak256(abi.encodePacked(_name)) */\n      sub\n        /* \"contracts/StudentManager.sol\":2001:2137  if (keccak256(abi.encodePacked(students[i].name)) == keccak256(abi.encodePacked(_name))) {... */\n      tag_207\n      jumpi\n        /* \"contracts/StudentManager.sol\":2109:2121  foundCount++ */\n      dup2\n      dup1\n      tag_208\n      swap1\n      tag_135\n      jump\t// in\n    tag_208:\n      swap3\n      pop\n      pop\n        /* \"contracts/StudentManager.sol\":2001:2137  if (keccak256(abi.encodePacked(students[i].name)) == keccak256(abi.encodePacked(_name))) {... */\n    tag_207:\n        /* \"contracts/StudentManager.sol\":1981:1984  i++ */\n      dup1\n      dup1\n      tag_209\n      swap1\n      tag_135\n      jump\t// in\n    tag_209:\n      swap2\n      pop\n      pop\n        /* \"contracts/StudentManager.sol\":1945:2148  for (uint i = 1; i <= studentCount; i++) {... */\n      jump(tag_201)\n    tag_202:\n      pop\n        /* \"contracts/StudentManager.sol\":2168:2198  Student[] memory foundStudents */\n      0x00\n        /* \"contracts/StudentManager.sol\":2215:2225  foundCount */\n      dup2\n        /* \"contracts/StudentManager.sol\":2201:2226  new Student[](foundCount) */\n      0xffffffffffffffff\n      dup2\n      gt\n      iszero\n      tag_210\n      jumpi\n      tag_211\n      tag_172\n      jump\t// in\n    tag_211:\n    tag_210:\n      mload(0x40)\n      swap1\n      dup1\n      dup3\n      mstore\n      dup1\n      0x20\n      mul\n      0x20\n      add\n      dup3\n      add\n      0x40\n      mstore\n      dup1\n      iszero\n      tag_212\n      jumpi\n      dup2\n      0x20\n      add\n    tag_213:\n      tag_214\n      tag_176\n      jump\t// in\n    tag_214:\n      dup2\n      mstore\n      0x20\n      add\n      swap1\n      0x01\n      swap1\n      sub\n      swap1\n      dup2\n      tag_213\n      jumpi\n      swap1\n      pop\n    tag_212:\n      pop\n        /* \"contracts/StudentManager.sol\":2168:2226  Student[] memory foundStudents = new Student[](foundCount) */\n      swap1\n      pop\n        /* \"contracts/StudentManager.sol\":2237:2247  uint index */\n      0x00\n        /* \"contracts/StudentManager.sol\":2267:2273  uint i */\n      dup1\n        /* \"contracts/StudentManager.sol\":2276:2277  1 */\n      0x01\n        /* \"contracts/StudentManager.sol\":2267:2277  uint i = 1 */\n      swap1\n      pop\n        /* \"contracts/StudentManager.sol\":2262:2513  for (uint i = 1; i <= studentCount; i++) {... */\n    tag_215:\n        /* \"contracts/StudentManager.sol\":2284:2296  studentCount */\n      sload(0x00)\n        /* \"contracts/StudentManager.sol\":2279:2280  i */\n      dup2\n        /* \"contracts/StudentManager.sol\":2279:2296  i <= studentCount */\n      gt\n        /* \"contracts/StudentManager.sol\":2262:2513  for (uint i = 1; i <= studentCount; i++) {... */\n      tag_216\n      jumpi\n        /* \"contracts/StudentManager.sol\":2398:2403  _name */\n      dup6\n        /* \"contracts/StudentManager.sol\":2381:2404  abi.encodePacked(_name) */\n      add(0x20, mload(0x40))\n      tag_218\n      swap2\n      swap1\n      tag_83\n      jump\t// in\n    tag_218:\n      mload(0x40)\n      0x20\n      dup2\n      dup4\n      sub\n      sub\n      dup2\n      mstore\n      swap1\n      0x40\n      mstore\n        /* \"contracts/StudentManager.sol\":2371:2405  keccak256(abi.encodePacked(_name)) */\n      dup1\n      mload\n      swap1\n      0x20\n      add\n      keccak256\n        /* \"contracts/StudentManager.sol\":2349:2357  students */\n      0x01\n        /* \"contracts/StudentManager.sol\":2349:2360  students[i] */\n      0x00\n        /* \"contracts/StudentManager.sol\":2358:2359  i */\n      dup4\n        /* \"contracts/StudentManager.sol\":2349:2360  students[i] */\n      dup2\n      mstore\n      0x20\n      add\n      swap1\n      dup2\n      mstore\n      0x20\n      add\n      0x00\n      keccak256\n        /* \"contracts/StudentManager.sol\":2349:2365  students[i].name */\n      0x01\n      add\n        /* \"contracts/StudentManager.sol\":2332:2366  abi.encodePacked(students[i].name) */\n      add(0x20, mload(0x40))\n      tag_219\n      swap2\n      swap1\n      tag_206\n      jump\t// in\n    tag_219:\n      mload(0x40)\n      0x20\n      dup2\n      dup4\n      sub\n      sub\n      dup2\n      mstore\n      swap1\n      0x40\n      mstore\n        /* \"contracts/StudentManager.sol\":2322:2367  keccak256(abi.encodePacked(students[i].name)) */\n      dup1\n      mload\n      swap1\n      0x20\n      add\n      keccak256\n        /* \"contracts/StudentManager.sol\":2322:2405  keccak256(abi.encodePacked(students[i].name)) == keccak256(abi.encodePacked(_name)) */\n      sub\n        /* \"contracts/StudentManager.sol\":2318:2502  if (keccak256(abi.encodePacked(students[i].name)) == keccak256(abi.encodePacked(_name))) {... */\n      tag_220\n      jumpi\n        /* \"contracts/StudentManager.sol\":2449:2457  students */\n      0x01\n        /* \"contracts/StudentManager.sol\":2449:2460  students[i] */\n      0x00\n        /* \"contracts/StudentManager.sol\":2458:2459  i */\n      dup3\n        /* \"contracts/StudentManager.sol\":2449:2460  students[i] */\n      dup2\n      mstore\n      0x20\n      add\n      swap1\n      dup2\n      mstore\n      0x20\n      add\n      0x00\n      keccak256\n        /* \"contracts/StudentManager.sol\":2426:2460  foundStudents[index] = students[i] */\n      mload(0x40)\n      dup1\n      0x0120\n      add\n      0x40\n      mstore\n      swap1\n      dup2\n      0x00\n      dup3\n      add\n      sload\n      dup2\n      mstore\n      0x20\n      add\n      0x01\n      dup3\n      add\n      dup1\n      sload\n      tag_221\n      swap1\n      tag_54\n      jump\t// in\n    tag_221:\n      dup1\n      0x1f\n      add\n      0x20\n      dup1\n      swap2\n      div\n      mul\n      0x20\n      add\n      mload(0x40)\n      swap1\n      dup2\n      add\n      0x40\n      mstore\n      dup1\n      swap3\n      swap2\n      swap1\n      dup2\n      dup2\n      mstore\n      0x20\n      add\n      dup3\n      dup1\n      sload\n      tag_222\n      swap1\n      tag_54\n      jump\t// in\n    tag_222:\n      dup1\n      iszero\n      tag_223\n      jumpi\n      dup1\n      0x1f\n      lt\n      tag_224\n      jumpi\n      0x0100\n      dup1\n      dup4\n      sload\n      div\n      mul\n      dup4\n      mstore\n      swap2\n      0x20\n      add\n      swap2\n      jump(tag_223)\n    tag_224:\n      dup3\n      add\n      swap2\n      swap1\n      0x00\n      mstore\n      keccak256(0x00, 0x20)\n      swap1\n    tag_225:\n      dup2\n      sload\n      dup2\n      mstore\n      swap1\n      0x01\n      add\n      swap1\n      0x20\n      add\n      dup1\n      dup4\n      gt\n      tag_225\n      jumpi\n      dup3\n      swap1\n      sub\n      0x1f\n      and\n      dup3\n      add\n      swap2\n    tag_223:\n      pop\n      pop\n      pop\n      pop\n      pop\n      dup2\n      mstore\n      0x20\n      add\n      0x02\n      dup3\n      add\n      dup1\n      sload\n      tag_226\n      swap1\n      tag_54\n      jump\t// in\n    tag_226:\n      dup1\n      0x1f\n      add\n      0x20\n      dup1\n      swap2\n      div\n      mul\n      0x20\n      add\n      mload(0x40)\n      swap1\n      dup2\n      add\n      0x40\n      mstore\n      dup1\n      swap3\n      swap2\n      swap1\n      dup2\n      dup2\n      mstore\n      0x20\n      add\n      dup3\n      dup1\n      sload\n      tag_227\n      swap1\n      tag_54\n      jump\t// in\n    tag_227:\n      dup1\n      iszero\n      tag_228\n      jumpi\n      dup1\n      0x1f\n      lt\n      tag_229\n      jumpi\n      0x0100\n      dup1\n      dup4\n      sload\n      div\n      mul\n      dup4\n      mstore\n      swap2\n      0x20\n      add\n      swap2\n      jump(tag_228)\n    tag_229:\n      dup3\n      add\n      swap2\n      swap1\n      0x00\n      mstore\n      keccak256(0x00, 0x20)\n      swap1\n    tag_230:\n      dup2\n      sload\n      dup2\n      mstore\n      swap1\n      0x01\n      add\n      swap1\n      0x20\n      add\n      dup1\n      dup4\n      gt\n      tag_230\n      jumpi\n      dup3\n      swap1\n      sub\n      0x1f\n      and\n      dup3\n      add\n      swap2\n    tag_228:\n      pop\n      pop\n      pop\n      pop\n      pop\n      dup2\n      mstore\n      0x20\n      add\n      0x03\n      dup3\n      add\n      sload\n      dup2\n      mstore\n      0x20\n      add\n      0x04\n      dup3\n      add\n      sload\n      dup2\n      mstore\n      0x20\n      add\n      0x05\n      dup3\n      add\n      sload\n      dup2\n      mstore\n      0x20\n      add\n      0x06\n      dup3\n      add\n      sload\n      dup2\n      mstore\n      0x20\n      add\n      0x07\n      dup3\n      add\n      sload\n      dup2\n      mstore\n      0x20\n      add\n      0x08\n      dup3\n      add\n      dup1\n      sload\n      tag_231\n      swap1\n      tag_54\n      jump\t// in\n    tag_231:\n      dup1\n      0x1f\n      add\n      0x20\n      dup1\n      swap2\n      div\n      mul\n      0x20\n      add\n      mload(0x40)\n      swap1\n      dup2\n      add\n      0x40\n      mstore\n      dup1\n      swap3\n      swap2\n      swap1\n      dup2\n      dup2\n      mstore\n      0x20\n      add\n      dup3\n      dup1\n      sload\n      tag_232\n      swap1\n      tag_54\n      jump\t// in\n    tag_232:\n      dup1\n      iszero\n      tag_233\n      jumpi\n      dup1\n      0x1f\n      lt\n      tag_234\n      jumpi\n      0x0100\n      dup1\n      dup4\n      sload\n      div\n      mul\n      dup4\n      mstore\n      swap2\n      0x20\n      add\n      swap2\n      jump(tag_233)\n    tag_234:\n      dup3\n      add\n      swap2\n      swap1\n      0x00\n      mstore\n      keccak256(0x00, 0x20)\n      swap1\n    tag_235:\n      dup2\n      sload\n      dup2\n      mstore\n      swap1\n      0x01\n      add\n      swap1\n      0x20\n      add\n      dup1\n      dup4\n      gt\n      tag_235\n      jumpi\n      dup3\n      swap1\n      sub\n      0x1f\n      and\n      dup3\n      add\n      swap2\n    tag_233:\n      pop\n      pop\n      pop\n      pop\n      pop\n      dup2\n      mstore\n      pop\n      pop\n        /* \"contracts/StudentManager.sol\":2426:2439  foundStudents */\n      dup4\n        /* \"contracts/StudentManager.sol\":2440:2445  index */\n      dup4\n        /* \"contracts/StudentManager.sol\":2426:2446  foundStudents[index] */\n      dup2\n      mload\n      dup2\n      lt\n      tag_236\n      jumpi\n      tag_237\n      tag_81\n      jump\t// in\n    tag_237:\n    tag_236:\n      0x20\n      mul\n      0x20\n      add\n      add\n        /* \"contracts/StudentManager.sol\":2426:2460  foundStudents[index] = students[i] */\n      dup2\n      swap1\n      mstore\n      pop\n        /* \"contracts/StudentManager.sol\":2479:2486  index++ */\n      dup2\n      dup1\n      tag_238\n      swap1\n      tag_135\n      jump\t// in\n    tag_238:\n      swap3\n      pop\n      pop\n        /* \"contracts/StudentManager.sol\":2318:2502  if (keccak256(abi.encodePacked(students[i].name)) == keccak256(abi.encodePacked(_name))) {... */\n    tag_220:\n        /* \"contracts/StudentManager.sol\":2298:2301  i++ */\n      dup1\n      dup1\n      tag_239\n      swap1\n      tag_135\n      jump\t// in\n    tag_239:\n      swap2\n      pop\n      pop\n        /* \"contracts/StudentManager.sol\":2262:2513  for (uint i = 1; i <= studentCount; i++) {... */\n      jump(tag_215)\n    tag_216:\n      pop\n        /* \"contracts/StudentManager.sol\":2530:2543  foundStudents */\n      dup2\n        /* \"contracts/StudentManager.sol\":2523:2543  return foundStudents */\n      swap4\n      pop\n      pop\n      pop\n      pop\n        /* \"contracts/StudentManager.sol\":1815:2551  function searchStudentByName(string memory _name) public view returns (Student[] memory) {... */\n      swap2\n      swap1\n      pop\n      jump\t// out\n        /* \"contracts/StudentManager.sol\":4870:5056  function calculateGPA(uint _mathScore, uint _physicsScore, uint _chemistryScore) internal pure returns (uint) {... */\n    tag_124:\n        /* \"contracts/StudentManager.sol\":4974:4978  uint */\n      0x00\n        /* \"contracts/StudentManager.sol\":5047:5048  3 */\n      0x03\n        /* \"contracts/StudentManager.sol\":5028:5043  _chemistryScore */\n      dup3\n        /* \"contracts/StudentManager.sol\":5012:5025  _physicsScore */\n      dup5\n        /* \"contracts/StudentManager.sol\":4999:5009  _mathScore */\n      dup7\n        /* \"contracts/StudentManager.sol\":4999:5025  _mathScore + _physicsScore */\n      tag_241\n      swap2\n      swap1\n      tag_78\n      jump\t// in\n    tag_241:\n        /* \"contracts/StudentManager.sol\":4999:5043  _mathScore + _physicsScore + _chemistryScore */\n      tag_242\n      swap2\n      swap1\n      tag_78\n      jump\t// in\n    tag_242:\n        /* \"contracts/StudentManager.sol\":4998:5048  (_mathScore + _physicsScore + _chemistryScore) / 3 */\n      tag_243\n      swap2\n      swap1\n      tag_244\n      jump\t// in\n    tag_243:\n        /* \"contracts/StudentManager.sol\":4991:5048  return (_mathScore + _physicsScore + _chemistryScore) / 3 */\n      swap1\n      pop\n        /* \"contracts/StudentManager.sol\":4870:5056  function calculateGPA(uint _mathScore, uint _physicsScore, uint _chemistryScore) internal pure returns (uint) {... */\n      swap4\n      swap3\n      pop\n      pop\n      pop\n      jump\t// out\n        /* \"contracts/StudentManager.sol\":5097:5420  function classifyPerformance(uint _gpa) internal pure returns (string memory) {... */\n    tag_126:\n        /* \"contracts/StudentManager.sol\":5160:5173  string memory */\n      0x60\n        /* \"contracts/StudentManager.sol\":5198:5199  8 */\n      0x08\n        /* \"contracts/StudentManager.sol\":5190:5194  _gpa */\n      dup3\n        /* \"contracts/StudentManager.sol\":5190:5199  _gpa >= 8 */\n      lt\n        /* \"contracts/StudentManager.sol\":5186:5413  if (_gpa >= 8) {... */\n      tag_246\n      jumpi\n        /* \"contracts/StudentManager.sol\":5216:5229  return \"Gioi\" */\n      mload(0x40)\n      dup1\n      0x40\n      add\n      0x40\n      mstore\n      dup1\n      0x04\n      dup2\n      mstore\n      0x20\n      add\n      0x47696f6900000000000000000000000000000000000000000000000000000000\n      dup2\n      mstore\n      pop\n      swap1\n      pop\n      jump(tag_245)\n        /* \"contracts/StudentManager.sol\":5186:5413  if (_gpa >= 8) {... */\n    tag_246:\n        /* \"contracts/StudentManager.sol\":5259:5260  6 */\n      0x06\n        /* \"contracts/StudentManager.sol\":5251:5255  _gpa */\n      dup3\n        /* \"contracts/StudentManager.sol\":5251:5260  _gpa >= 6 */\n      lt\n        /* \"contracts/StudentManager.sol\":5247:5413  if (_gpa >= 6) {... */\n      tag_248\n      jumpi\n        /* \"contracts/StudentManager.sol\":5277:5289  return \"Kha\" */\n      mload(0x40)\n      dup1\n      0x40\n      add\n      0x40\n      mstore\n      dup1\n      0x03\n      dup2\n      mstore\n      0x20\n      add\n      0x4b68610000000000000000000000000000000000000000000000000000000000\n      dup2\n      mstore\n      pop\n      swap1\n      pop\n      jump(tag_245)\n        /* \"contracts/StudentManager.sol\":5247:5413  if (_gpa >= 6) {... */\n    tag_248:\n        /* \"contracts/StudentManager.sol\":5319:5320  5 */\n      0x05\n        /* \"contracts/StudentManager.sol\":5311:5315  _gpa */\n      dup3\n        /* \"contracts/StudentManager.sol\":5311:5320  _gpa >= 5 */\n      lt\n        /* \"contracts/StudentManager.sol\":5307:5413  if (_gpa >= 5) {... */\n      tag_250\n      jumpi\n        /* \"contracts/StudentManager.sol\":5337:5356  return \"Trung Binh\" */\n      mload(0x40)\n      dup1\n      0x40\n      add\n      0x40\n      mstore\n      dup1\n      0x0a\n      dup2\n      mstore\n      0x20\n      add\n      0x5472756e672042696e6800000000000000000000000000000000000000000000\n      dup2\n      mstore\n      pop\n      swap1\n      pop\n      jump(tag_245)\n        /* \"contracts/StudentManager.sol\":5307:5413  if (_gpa >= 5) {... */\n    tag_250:\n        /* \"contracts/StudentManager.sol\":5389:5401  return \"Yeu\" */\n      mload(0x40)\n      dup1\n      0x40\n      add\n      0x40\n      mstore\n      dup1\n      0x03\n      dup2\n      mstore\n      0x20\n      add\n      0x5965750000000000000000000000000000000000000000000000000000000000\n      dup2\n      mstore\n      pop\n      swap1\n      pop\n        /* \"contracts/StudentManager.sol\":5097:5420  function classifyPerformance(uint _gpa) internal pure returns (string memory) {... */\n    tag_245:\n      swap2\n      swap1\n      pop\n      jump\t// out\n    tag_166:\n      pop\n      dup1\n      sload\n      tag_252\n      swap1\n      tag_54\n      jump\t// in\n    tag_252:\n      0x00\n      dup3\n      sstore\n      dup1\n      0x1f\n      lt\n      tag_254\n      jumpi\n      pop\n      jump(tag_253)\n    tag_254:\n      0x1f\n      add\n      0x20\n      swap1\n      div\n      swap1\n      0x00\n      mstore\n      keccak256(0x00, 0x20)\n      swap1\n      dup2\n      add\n      swap1\n      tag_255\n      swap2\n      swap1\n      tag_256\n      jump\t// in\n    tag_255:\n    tag_253:\n      pop\n      jump\t// out\n    tag_176:\n      mload(0x40)\n      dup1\n      0x0120\n      add\n      0x40\n      mstore\n      dup1\n      0x00\n      dup2\n      mstore\n      0x20\n      add\n      0x60\n      dup2\n      mstore\n      0x20\n      add\n      0x60\n      dup2\n      mstore\n      0x20\n      add\n      0x00\n      dup2\n      mstore\n      0x20\n      add\n      0x00\n      dup2\n      mstore\n      0x20\n      add\n      0x00\n      dup2\n      mstore\n      0x20\n      add\n      0x00\n      dup2\n      mstore\n      0x20\n      add\n      0x00\n      dup2\n      mstore\n      0x20\n      add\n      0x60\n      dup2\n      mstore\n      pop\n      swap1\n      jump\t// out\n    tag_256:\n    tag_257:\n      dup1\n      dup3\n      gt\n      iszero\n      tag_258\n      jumpi\n      0x00\n      dup2\n      0x00\n      swap1\n      sstore\n      pop\n      0x01\n      add\n      jump(tag_257)\n    tag_258:\n      pop\n      swap1\n      jump\t// out\n        /* \"#utility.yul\":7:82   */\n    tag_259:\n        /* \"#utility.yul\":40:46   */\n      0x00\n        /* \"#utility.yul\":73:75   */\n      0x40\n        /* \"#utility.yul\":67:76   */\n      mload\n        /* \"#utility.yul\":57:76   */\n      swap1\n      pop\n        /* \"#utility.yul\":7:82   */\n      swap1\n      jump\t// out\n        /* \"#utility.yul\":88:205   */\n    tag_260:\n        /* \"#utility.yul\":197:198   */\n      0x00\n        /* \"#utility.yul\":194:195   */\n      dup1\n        /* \"#utility.yul\":187:199   */\n      revert\n        /* \"#utility.yul\":211:328   */\n    tag_261:\n        /* \"#utility.yul\":320:321   */\n      0x00\n        /* \"#utility.yul\":317:318   */\n      dup1\n        /* \"#utility.yul\":310:322   */\n      revert\n        /* \"#utility.yul\":334:411   */\n    tag_262:\n        /* \"#utility.yul\":371:378   */\n      0x00\n        /* \"#utility.yul\":400:405   */\n      dup2\n        /* \"#utility.yul\":389:405   */\n      swap1\n      pop\n        /* \"#utility.yul\":334:411   */\n      swap2\n      swap1\n      pop\n      jump\t// out\n        /* \"#utility.yul\":417:539   */\n    tag_263:\n        /* \"#utility.yul\":490:514   */\n      tag_318\n        /* \"#utility.yul\":508:513   */\n      dup2\n        /* \"#utility.yul\":490:514   */\n      tag_262\n      jump\t// in\n    tag_318:\n        /* \"#utility.yul\":483:488   */\n      dup2\n        /* \"#utility.yul\":480:515   */\n      eq\n        /* \"#utility.yul\":470:533   */\n      tag_319\n      jumpi\n        /* \"#utility.yul\":529:530   */\n      0x00\n        /* \"#utility.yul\":526:527   */\n      dup1\n        /* \"#utility.yul\":519:531   */\n      revert\n        /* \"#utility.yul\":470:533   */\n    tag_319:\n        /* \"#utility.yul\":417:539   */\n      pop\n      jump\t// out\n        /* \"#utility.yul\":545:684   */\n    tag_264:\n        /* \"#utility.yul\":591:596   */\n      0x00\n        /* \"#utility.yul\":629:635   */\n      dup2\n        /* \"#utility.yul\":616:636   */\n      calldataload\n        /* \"#utility.yul\":607:636   */\n      swap1\n      pop\n        /* \"#utility.yul\":645:678   */\n      tag_321\n        /* \"#utility.yul\":672:677   */\n      dup2\n        /* \"#utility.yul\":645:678   */\n      tag_263\n      jump\t// in\n    tag_321:\n        /* \"#utility.yul\":545:684   */\n      swap3\n      swap2\n      pop\n      pop\n      jump\t// out\n        /* \"#utility.yul\":690:1019   */\n    tag_16:\n        /* \"#utility.yul\":749:755   */\n      0x00\n        /* \"#utility.yul\":798:800   */\n      0x20\n        /* \"#utility.yul\":786:795   */\n      dup3\n        /* \"#utility.yul\":777:784   */\n      dup5\n        /* \"#utility.yul\":773:796   */\n      sub\n        /* \"#utility.yul\":769:801   */\n      slt\n        /* \"#utility.yul\":766:885   */\n      iszero\n      tag_323\n      jumpi\n        /* \"#utility.yul\":804:883   */\n      tag_324\n      tag_260\n      jump\t// in\n    tag_324:\n        /* \"#utility.yul\":766:885   */\n    tag_323:\n        /* \"#utility.yul\":924:925   */\n      0x00\n        /* \"#utility.yul\":949:1002   */\n      tag_325\n        /* \"#utility.yul\":994:1001   */\n      dup5\n        /* \"#utility.yul\":985:991   */\n      dup3\n        /* \"#utility.yul\":974:983   */\n      dup6\n        /* \"#utility.yul\":970:992   */\n      add\n        /* \"#utility.yul\":949:1002   */\n      tag_264\n      jump\t// in\n    tag_325:\n        /* \"#utility.yul\":939:1002   */\n      swap2\n      pop\n        /* \"#utility.yul\":895:1012   */\n      pop\n        /* \"#utility.yul\":690:1019   */\n      swap3\n      swap2\n      pop\n      pop\n      jump\t// out\n        /* \"#utility.yul\":1025:1143   */\n    tag_265:\n        /* \"#utility.yul\":1112:1136   */\n      tag_327\n        /* \"#utility.yul\":1130:1135   */\n      dup2\n        /* \"#utility.yul\":1112:1136   */\n      tag_262\n      jump\t// in\n    tag_327:\n        /* \"#utility.yul\":1107:1110   */\n      dup3\n        /* \"#utility.yul\":1100:1137   */\n      mstore\n        /* \"#utility.yul\":1025:1143   */\n      pop\n      pop\n      jump\t// out\n        /* \"#utility.yul\":1149:1248   */\n    tag_266:\n        /* \"#utility.yul\":1201:1207   */\n      0x00\n        /* \"#utility.yul\":1235:1240   */\n      dup2\n        /* \"#utility.yul\":1229:1241   */\n      mload\n        /* \"#utility.yul\":1219:1241   */\n      swap1\n      pop\n        /* \"#utility.yul\":1149:1248   */\n      swap2\n      swap1\n      pop\n      jump\t// out\n        /* \"#utility.yul\":1254:1423   */\n    tag_267:\n        /* \"#utility.yul\":1338:1349   */\n      0x00\n        /* \"#utility.yul\":1372:1378   */\n      dup3\n        /* \"#utility.yul\":1367:1370   */\n      dup3\n        /* \"#utility.yul\":1360:1379   */\n      mstore\n        /* \"#utility.yul\":1412:1416   */\n      0x20\n        /* \"#utility.yul\":1407:1410   */\n      dup3\n        /* \"#utility.yul\":1403:1417   */\n      add\n        /* \"#utility.yul\":1388:1417   */\n      swap1\n      pop\n        /* \"#utility.yul\":1254:1423   */\n      swap3\n      swap2\n      pop\n      pop\n      jump\t// out\n        /* \"#utility.yul\":1429:1568   */\n    tag_268:\n        /* \"#utility.yul\":1518:1524   */\n      dup3\n        /* \"#utility.yul\":1513:1516   */\n      dup2\n        /* \"#utility.yul\":1508:1511   */\n      dup4\n        /* \"#utility.yul\":1502:1525   */\n      mcopy\n        /* \"#utility.yul\":1559:1560   */\n      0x00\n        /* \"#utility.yul\":1550:1556   */\n      dup4\n        /* \"#utility.yul\":1545:1548   */\n      dup4\n        /* \"#utility.yul\":1541:1557   */\n      add\n        /* \"#utility.yul\":1534:1561   */\n      mstore\n        /* \"#utility.yul\":1429:1568   */\n      pop\n      pop\n      pop\n      jump\t// out\n        /* \"#utility.yul\":1574:1676   */\n    tag_269:\n        /* \"#utility.yul\":1615:1621   */\n      0x00\n        /* \"#utility.yul\":1666:1668   */\n      0x1f\n        /* \"#utility.yul\":1662:1669   */\n      not\n        /* \"#utility.yul\":1657:1659   */\n      0x1f\n        /* \"#utility.yul\":1650:1655   */\n      dup4\n        /* \"#utility.yul\":1646:1660   */\n      add\n        /* \"#utility.yul\":1642:1670   */\n      and\n        /* \"#utility.yul\":1632:1670   */\n      swap1\n      pop\n        /* \"#utility.yul\":1574:1676   */\n      swap2\n      swap1\n      pop\n      jump\t// out\n        /* \"#utility.yul\":1682:2059   */\n    tag_270:\n        /* \"#utility.yul\":1770:1773   */\n      0x00\n        /* \"#utility.yul\":1798:1837   */\n      tag_333\n        /* \"#utility.yul\":1831:1836   */\n      dup3\n        /* \"#utility.yul\":1798:1837   */\n      tag_266\n      jump\t// in\n    tag_333:\n        /* \"#utility.yul\":1853:1924   */\n      tag_334\n        /* \"#utility.yul\":1917:1923   */\n      dup2\n        /* \"#utility.yul\":1912:1915   */\n      dup6\n        /* \"#utility.yul\":1853:1924   */\n      tag_267\n      jump\t// in\n    tag_334:\n        /* \"#utility.yul\":1846:1924   */\n      swap4\n      pop\n        /* \"#utility.yul\":1933:1998   */\n      tag_335\n        /* \"#utility.yul\":1991:1997   */\n      dup2\n        /* \"#utility.yul\":1986:1989   */\n      dup6\n        /* \"#utility.yul\":1979:1983   */\n      0x20\n        /* \"#utility.yul\":1972:1977   */\n      dup7\n        /* \"#utility.yul\":1968:1984   */\n      add\n        /* \"#utility.yul\":1933:1998   */\n      tag_268\n      jump\t// in\n    tag_335:\n        /* \"#utility.yul\":2023:2052   */\n      tag_336\n        /* \"#utility.yul\":2045:2051   */\n      dup2\n        /* \"#utility.yul\":2023:2052   */\n      tag_269\n      jump\t// in\n    tag_336:\n        /* \"#utility.yul\":2018:2021   */\n      dup5\n        /* \"#utility.yul\":2014:2053   */\n      add\n        /* \"#utility.yul\":2007:2053   */\n      swap2\n      pop\n        /* \"#utility.yul\":1774:2059   */\n      pop\n        /* \"#utility.yul\":1682:2059   */\n      swap3\n      swap2\n      pop\n      pop\n      jump\t// out\n        /* \"#utility.yul\":2065:3446   */\n    tag_19:\n        /* \"#utility.yul\":2442:2446   */\n      0x00\n        /* \"#utility.yul\":2480:2483   */\n      0x0120\n        /* \"#utility.yul\":2469:2478   */\n      dup3\n        /* \"#utility.yul\":2465:2484   */\n      add\n        /* \"#utility.yul\":2457:2484   */\n      swap1\n      pop\n        /* \"#utility.yul\":2494:2565   */\n      tag_338\n        /* \"#utility.yul\":2562:2563   */\n      0x00\n        /* \"#utility.yul\":2551:2560   */\n      dup4\n        /* \"#utility.yul\":2547:2564   */\n      add\n        /* \"#utility.yul\":2538:2544   */\n      dup13\n        /* \"#utility.yul\":2494:2565   */\n      tag_265\n      jump\t// in\n    tag_338:\n        /* \"#utility.yul\":2612:2621   */\n      dup2\n        /* \"#utility.yul\":2606:2610   */\n      dup2\n        /* \"#utility.yul\":2602:2622   */\n      sub\n        /* \"#utility.yul\":2597:2599   */\n      0x20\n        /* \"#utility.yul\":2586:2595   */\n      dup4\n        /* \"#utility.yul\":2582:2600   */\n      add\n        /* \"#utility.yul\":2575:2623   */\n      mstore\n        /* \"#utility.yul\":2640:2718   */\n      tag_339\n        /* \"#utility.yul\":2713:2717   */\n      dup2\n        /* \"#utility.yul\":2704:2710   */\n      dup12\n        /* \"#utility.yul\":2640:2718   */\n      tag_270\n      jump\t// in\n    tag_339:\n        /* \"#utility.yul\":2632:2718   */\n      swap1\n      pop\n        /* \"#utility.yul\":2765:2774   */\n      dup2\n        /* \"#utility.yul\":2759:2763   */\n      dup2\n        /* \"#utility.yul\":2755:2775   */\n      sub\n        /* \"#utility.yul\":2750:2752   */\n      0x40\n        /* \"#utility.yul\":2739:2748   */\n      dup4\n        /* \"#utility.yul\":2735:2753   */\n      add\n        /* \"#utility.yul\":2728:2776   */\n      mstore\n        /* \"#utility.yul\":2793:2871   */\n      tag_340\n        /* \"#utility.yul\":2866:2870   */\n      dup2\n        /* \"#utility.yul\":2857:2863   */\n      dup11\n        /* \"#utility.yul\":2793:2871   */\n      tag_270\n      jump\t// in\n    tag_340:\n        /* \"#utility.yul\":2785:2871   */\n      swap1\n      pop\n        /* \"#utility.yul\":2881:2953   */\n      tag_341\n        /* \"#utility.yul\":2949:2951   */\n      0x60\n        /* \"#utility.yul\":2938:2947   */\n      dup4\n        /* \"#utility.yul\":2934:2952   */\n      add\n        /* \"#utility.yul\":2925:2931   */\n      dup10\n        /* \"#utility.yul\":2881:2953   */\n      tag_265\n      jump\t// in\n    tag_341:\n        /* \"#utility.yul\":2963:3036   */\n      tag_342\n        /* \"#utility.yul\":3031:3034   */\n      0x80\n        /* \"#utility.yul\":3020:3029   */\n      dup4\n        /* \"#utility.yul\":3016:3035   */\n      add\n        /* \"#utility.yul\":3007:3013   */\n      dup9\n        /* \"#utility.yul\":2963:3036   */\n      tag_265\n      jump\t// in\n    tag_342:\n        /* \"#utility.yul\":3046:3119   */\n      tag_343\n        /* \"#utility.yul\":3114:3117   */\n      0xa0\n        /* \"#utility.yul\":3103:3112   */\n      dup4\n        /* \"#utility.yul\":3099:3118   */\n      add\n        /* \"#utility.yul\":3090:3096   */\n      dup8\n        /* \"#utility.yul\":3046:3119   */\n      tag_265\n      jump\t// in\n    tag_343:\n        /* \"#utility.yul\":3129:3202   */\n      tag_344\n        /* \"#utility.yul\":3197:3200   */\n      0xc0\n        /* \"#utility.yul\":3186:3195   */\n      dup4\n        /* \"#utility.yul\":3182:3201   */\n      add\n        /* \"#utility.yul\":3173:3179   */\n      dup7\n        /* \"#utility.yul\":3129:3202   */\n      tag_265\n      jump\t// in\n    tag_344:\n        /* \"#utility.yul\":3212:3285   */\n      tag_345\n        /* \"#utility.yul\":3280:3283   */\n      0xe0\n        /* \"#utility.yul\":3269:3278   */\n      dup4\n        /* \"#utility.yul\":3265:3284   */\n      add\n        /* \"#utility.yul\":3256:3262   */\n      dup6\n        /* \"#utility.yul\":3212:3285   */\n      tag_265\n      jump\t// in\n    tag_345:\n        /* \"#utility.yul\":3333:3342   */\n      dup2\n        /* \"#utility.yul\":3327:3331   */\n      dup2\n        /* \"#utility.yul\":3323:3343   */\n      sub\n        /* \"#utility.yul\":3317:3320   */\n      0x0100\n        /* \"#utility.yul\":3306:3315   */\n      dup4\n        /* \"#utility.yul\":3302:3321   */\n      add\n        /* \"#utility.yul\":3295:3344   */\n      mstore\n        /* \"#utility.yul\":3361:3439   */\n      tag_346\n        /* \"#utility.yul\":3434:3438   */\n      dup2\n        /* \"#utility.yul\":3425:3431   */\n      dup5\n        /* \"#utility.yul\":3361:3439   */\n      tag_270\n      jump\t// in\n    tag_346:\n        /* \"#utility.yul\":3353:3439   */\n      swap1\n      pop\n        /* \"#utility.yul\":2065:3446   */\n      swap11\n      swap10\n      pop\n      pop\n      pop\n      pop\n      pop\n      pop\n      pop\n      pop\n      pop\n      pop\n      jump\t// out\n        /* \"#utility.yul\":3452:3589   */\n    tag_271:\n        /* \"#utility.yul\":3542:3548   */\n      0x00\n        /* \"#utility.yul\":3576:3581   */\n      dup2\n        /* \"#utility.yul\":3570:3582   */\n      mload\n        /* \"#utility.yul\":3560:3582   */\n      swap1\n      pop\n        /* \"#utility.yul\":3452:3589   */\n      swap2\n      swap1\n      pop\n      jump\t// out\n        /* \"#utility.yul\":3595:3802   */\n    tag_272:\n        /* \"#utility.yul\":3717:3728   */\n      0x00\n        /* \"#utility.yul\":3751:3757   */\n      dup3\n        /* \"#utility.yul\":3746:3749   */\n      dup3\n        /* \"#utility.yul\":3739:3758   */\n      mstore\n        /* \"#utility.yul\":3791:3795   */\n      0x20\n        /* \"#utility.yul\":3786:3789   */\n      dup3\n        /* \"#utility.yul\":3782:3796   */\n      add\n        /* \"#utility.yul\":3767:3796   */\n      swap1\n      pop\n        /* \"#utility.yul\":3595:3802   */\n      swap3\n      swap2\n      pop\n      pop\n      jump\t// out\n        /* \"#utility.yul\":3808:3963   */\n    tag_273:\n        /* \"#utility.yul\":3898:3902   */\n      0x00\n        /* \"#utility.yul\":3921:3924   */\n      dup2\n        /* \"#utility.yul\":3913:3924   */\n      swap1\n      pop\n        /* \"#utility.yul\":3951:3955   */\n      0x20\n        /* \"#utility.yul\":3946:3949   */\n      dup3\n        /* \"#utility.yul\":3942:3956   */\n      add\n        /* \"#utility.yul\":3934:3956   */\n      swap1\n      pop\n        /* \"#utility.yul\":3808:3963   */\n      swap2\n      swap1\n      pop\n      jump\t// out\n        /* \"#utility.yul\":3969:4077   */\n    tag_274:\n        /* \"#utility.yul\":4046:4070   */\n      tag_351\n        /* \"#utility.yul\":4064:4069   */\n      dup2\n        /* \"#utility.yul\":4046:4070   */\n      tag_262\n      jump\t// in\n    tag_351:\n        /* \"#utility.yul\":4041:4044   */\n      dup3\n        /* \"#utility.yul\":4034:4071   */\n      mstore\n        /* \"#utility.yul\":3969:4077   */\n      pop\n      pop\n      jump\t// out\n        /* \"#utility.yul\":4083:4242   */\n    tag_275:\n        /* \"#utility.yul\":4157:4168   */\n      0x00\n        /* \"#utility.yul\":4191:4197   */\n      dup3\n        /* \"#utility.yul\":4186:4189   */\n      dup3\n        /* \"#utility.yul\":4179:4198   */\n      mstore\n        /* \"#utility.yul\":4231:4235   */\n      0x20\n        /* \"#utility.yul\":4226:4229   */\n      dup3\n        /* \"#utility.yul\":4222:4236   */\n      add\n        /* \"#utility.yul\":4207:4236   */\n      swap1\n      pop\n        /* \"#utility.yul\":4083:4242   */\n      swap3\n      swap2\n      pop\n      pop\n      jump\t// out\n        /* \"#utility.yul\":4248:4605   */\n    tag_276:\n        /* \"#utility.yul\":4326:4329   */\n      0x00\n        /* \"#utility.yul\":4354:4393   */\n      tag_354\n        /* \"#utility.yul\":4387:4392   */\n      dup3\n        /* \"#utility.yul\":4354:4393   */\n      tag_266\n      jump\t// in\n    tag_354:\n        /* \"#utility.yul\":4409:4470   */\n      tag_355\n        /* \"#utility.yul\":4463:4469   */\n      dup2\n        /* \"#utility.yul\":4458:4461   */\n      dup6\n        /* \"#utility.yul\":4409:4470   */\n      tag_275\n      jump\t// in\n    tag_355:\n        /* \"#utility.yul\":4402:4470   */\n      swap4\n      pop\n        /* \"#utility.yul\":4479:4544   */\n      tag_356\n        /* \"#utility.yul\":4537:4543   */\n      dup2\n        /* \"#utility.yul\":4532:4535   */\n      dup6\n        /* \"#utility.yul\":4525:4529   */\n      0x20\n        /* \"#utility.yul\":4518:4523   */\n      dup7\n        /* \"#utility.yul\":4514:4530   */\n      add\n        /* \"#utility.yul\":4479:4544   */\n      tag_268\n      jump\t// in\n    tag_356:\n        /* \"#utility.yul\":4569:4598   */\n      tag_357\n        /* \"#utility.yul\":4591:4597   */\n      dup2\n        /* \"#utility.yul\":4569:4598   */\n      tag_269\n      jump\t// in\n    tag_357:\n        /* \"#utility.yul\":4564:4567   */\n      dup5\n        /* \"#utility.yul\":4560:4599   */\n      add\n        /* \"#utility.yul\":4553:4599   */\n      swap2\n      pop\n        /* \"#utility.yul\":4330:4605   */\n      pop\n        /* \"#utility.yul\":4248:4605   */\n      swap3\n      swap2\n      pop\n      pop\n      jump\t// out\n        /* \"#utility.yul\":4681:6675   */\n    tag_277:\n        /* \"#utility.yul\":4786:4789   */\n      0x00\n        /* \"#utility.yul\":4822:4828   */\n      0x0120\n        /* \"#utility.yul\":4817:4820   */\n      dup4\n        /* \"#utility.yul\":4813:4829   */\n      add\n        /* \"#utility.yul\":4909:4913   */\n      0x00\n        /* \"#utility.yul\":4902:4907   */\n      dup4\n        /* \"#utility.yul\":4898:4914   */\n      add\n        /* \"#utility.yul\":4892:4915   */\n      mload\n        /* \"#utility.yul\":4928:4991   */\n      tag_359\n        /* \"#utility.yul\":4985:4989   */\n      0x00\n        /* \"#utility.yul\":4980:4983   */\n      dup7\n        /* \"#utility.yul\":4976:4990   */\n      add\n        /* \"#utility.yul\":4962:4974   */\n      dup3\n        /* \"#utility.yul\":4928:4991   */\n      tag_274\n      jump\t// in\n    tag_359:\n        /* \"#utility.yul\":4839:5001   */\n      pop\n        /* \"#utility.yul\":5083:5087   */\n      0x20\n        /* \"#utility.yul\":5076:5081   */\n      dup4\n        /* \"#utility.yul\":5072:5088   */\n      add\n        /* \"#utility.yul\":5066:5089   */\n      mload\n        /* \"#utility.yul\":5136:5139   */\n      dup5\n        /* \"#utility.yul\":5130:5134   */\n      dup3\n        /* \"#utility.yul\":5126:5140   */\n      sub\n        /* \"#utility.yul\":5119:5123   */\n      0x20\n        /* \"#utility.yul\":5114:5117   */\n      dup7\n        /* \"#utility.yul\":5110:5124   */\n      add\n        /* \"#utility.yul\":5103:5141   */\n      mstore\n        /* \"#utility.yul\":5162:5235   */\n      tag_360\n        /* \"#utility.yul\":5230:5234   */\n      dup3\n        /* \"#utility.yul\":5216:5228   */\n      dup3\n        /* \"#utility.yul\":5162:5235   */\n      tag_276\n      jump\t// in\n    tag_360:\n        /* \"#utility.yul\":5154:5235   */\n      swap2\n      pop\n        /* \"#utility.yul\":5011:5246   */\n      pop\n        /* \"#utility.yul\":5330:5334   */\n      0x40\n        /* \"#utility.yul\":5323:5328   */\n      dup4\n        /* \"#utility.yul\":5319:5335   */\n      add\n        /* \"#utility.yul\":5313:5336   */\n      mload\n        /* \"#utility.yul\":5383:5386   */\n      dup5\n        /* \"#utility.yul\":5377:5381   */\n      dup3\n        /* \"#utility.yul\":5373:5387   */\n      sub\n        /* \"#utility.yul\":5366:5370   */\n      0x40\n        /* \"#utility.yul\":5361:5364   */\n      dup7\n        /* \"#utility.yul\":5357:5371   */\n      add\n        /* \"#utility.yul\":5350:5388   */\n      mstore\n        /* \"#utility.yul\":5409:5482   */\n      tag_361\n        /* \"#utility.yul\":5477:5481   */\n      dup3\n        /* \"#utility.yul\":5463:5475   */\n      dup3\n        /* \"#utility.yul\":5409:5482   */\n      tag_276\n      jump\t// in\n    tag_361:\n        /* \"#utility.yul\":5401:5482   */\n      swap2\n      pop\n        /* \"#utility.yul\":5256:5493   */\n      pop\n        /* \"#utility.yul\":5574:5578   */\n      0x60\n        /* \"#utility.yul\":5567:5572   */\n      dup4\n        /* \"#utility.yul\":5563:5579   */\n      add\n        /* \"#utility.yul\":5557:5580   */\n      mload\n        /* \"#utility.yul\":5593:5656   */\n      tag_362\n        /* \"#utility.yul\":5650:5654   */\n      0x60\n        /* \"#utility.yul\":5645:5648   */\n      dup7\n        /* \"#utility.yul\":5641:5655   */\n      add\n        /* \"#utility.yul\":5627:5639   */\n      dup3\n        /* \"#utility.yul\":5593:5656   */\n      tag_274\n      jump\t// in\n    tag_362:\n        /* \"#utility.yul\":5503:5666   */\n      pop\n        /* \"#utility.yul\":5753:5757   */\n      0x80\n        /* \"#utility.yul\":5746:5751   */\n      dup4\n        /* \"#utility.yul\":5742:5758   */\n      add\n        /* \"#utility.yul\":5736:5759   */\n      mload\n        /* \"#utility.yul\":5772:5835   */\n      tag_363\n        /* \"#utility.yul\":5829:5833   */\n      0x80\n        /* \"#utility.yul\":5824:5827   */\n      dup7\n        /* \"#utility.yul\":5820:5834   */\n      add\n        /* \"#utility.yul\":5806:5818   */\n      dup3\n        /* \"#utility.yul\":5772:5835   */\n      tag_274\n      jump\t// in\n    tag_363:\n        /* \"#utility.yul\":5676:5845   */\n      pop\n        /* \"#utility.yul\":5935:5939   */\n      0xa0\n        /* \"#utility.yul\":5928:5933   */\n      dup4\n        /* \"#utility.yul\":5924:5940   */\n      add\n        /* \"#utility.yul\":5918:5941   */\n      mload\n        /* \"#utility.yul\":5954:6017   */\n      tag_364\n        /* \"#utility.yul\":6011:6015   */\n      0xa0\n        /* \"#utility.yul\":6006:6009   */\n      dup7\n        /* \"#utility.yul\":6002:6016   */\n      add\n        /* \"#utility.yul\":5988:6000   */\n      dup3\n        /* \"#utility.yul\":5954:6017   */\n      tag_274\n      jump\t// in\n    tag_364:\n        /* \"#utility.yul\":5855:6027   */\n      pop\n        /* \"#utility.yul\":6119:6123   */\n      0xc0\n        /* \"#utility.yul\":6112:6117   */\n      dup4\n        /* \"#utility.yul\":6108:6124   */\n      add\n        /* \"#utility.yul\":6102:6125   */\n      mload\n        /* \"#utility.yul\":6138:6201   */\n      tag_365\n        /* \"#utility.yul\":6195:6199   */\n      0xc0\n        /* \"#utility.yul\":6190:6193   */\n      dup7\n        /* \"#utility.yul\":6186:6200   */\n      add\n        /* \"#utility.yul\":6172:6184   */\n      dup3\n        /* \"#utility.yul\":6138:6201   */\n      tag_274\n      jump\t// in\n    tag_365:\n        /* \"#utility.yul\":6037:6211   */\n      pop\n        /* \"#utility.yul\":6292:6296   */\n      0xe0\n        /* \"#utility.yul\":6285:6290   */\n      dup4\n        /* \"#utility.yul\":6281:6297   */\n      add\n        /* \"#utility.yul\":6275:6298   */\n      mload\n        /* \"#utility.yul\":6311:6374   */\n      tag_366\n        /* \"#utility.yul\":6368:6372   */\n      0xe0\n        /* \"#utility.yul\":6363:6366   */\n      dup7\n        /* \"#utility.yul\":6359:6373   */\n      add\n        /* \"#utility.yul\":6345:6357   */\n      dup3\n        /* \"#utility.yul\":6311:6374   */\n      tag_274\n      jump\t// in\n    tag_366:\n        /* \"#utility.yul\":6221:6384   */\n      pop\n        /* \"#utility.yul\":6481:6487   */\n      0x0100\n        /* \"#utility.yul\":6474:6479   */\n      dup4\n        /* \"#utility.yul\":6470:6488   */\n      add\n        /* \"#utility.yul\":6464:6489   */\n      mload\n        /* \"#utility.yul\":6538:6541   */\n      dup5\n        /* \"#utility.yul\":6532:6536   */\n      dup3\n        /* \"#utility.yul\":6528:6542   */\n      sub\n        /* \"#utility.yul\":6519:6525   */\n      0x0100\n        /* \"#utility.yul\":6514:6517   */\n      dup7\n        /* \"#utility.yul\":6510:6526   */\n      add\n        /* \"#utility.yul\":6503:6543   */\n      mstore\n        /* \"#utility.yul\":6564:6637   */\n      tag_367\n        /* \"#utility.yul\":6632:6636   */\n      dup3\n        /* \"#utility.yul\":6618:6630   */\n      dup3\n        /* \"#utility.yul\":6564:6637   */\n      tag_276\n      jump\t// in\n    tag_367:\n        /* \"#utility.yul\":6556:6637   */\n      swap2\n      pop\n        /* \"#utility.yul\":6394:6648   */\n      pop\n        /* \"#utility.yul\":6665:6669   */\n      dup1\n        /* \"#utility.yul\":6658:6669   */\n      swap2\n      pop\n        /* \"#utility.yul\":4791:6675   */\n      pop\n        /* \"#utility.yul\":4681:6675   */\n      swap3\n      swap2\n      pop\n      pop\n      jump\t// out\n        /* \"#utility.yul\":6681:6929   */\n    tag_278:\n        /* \"#utility.yul\":6796:6806   */\n      0x00\n        /* \"#utility.yul\":6831:6923   */\n      tag_369\n        /* \"#utility.yul\":6919:6922   */\n      dup4\n        /* \"#utility.yul\":6911:6917   */\n      dup4\n        /* \"#utility.yul\":6831:6923   */\n      tag_277\n      jump\t// in\n    tag_369:\n        /* \"#utility.yul\":6817:6923   */\n      swap1\n      pop\n        /* \"#utility.yul\":6681:6929   */\n      swap3\n      swap2\n      pop\n      pop\n      jump\t// out\n        /* \"#utility.yul\":6935:7071   */\n    tag_279:\n        /* \"#utility.yul\":7028:7032   */\n      0x00\n        /* \"#utility.yul\":7060:7064   */\n      0x20\n        /* \"#utility.yul\":7055:7058   */\n      dup3\n        /* \"#utility.yul\":7051:7065   */\n      add\n        /* \"#utility.yul\":7043:7065   */\n      swap1\n      pop\n        /* \"#utility.yul\":6935:7071   */\n      swap2\n      swap1\n      pop\n      jump\t// out\n        /* \"#utility.yul\":7151:8246   */\n    tag_280:\n        /* \"#utility.yul\":7316:7319   */\n      0x00\n        /* \"#utility.yul\":7345:7422   */\n      tag_372\n        /* \"#utility.yul\":7416:7421   */\n      dup3\n        /* \"#utility.yul\":7345:7422   */\n      tag_271\n      jump\t// in\n    tag_372:\n        /* \"#utility.yul\":7438:7547   */\n      tag_373\n        /* \"#utility.yul\":7540:7546   */\n      dup2\n        /* \"#utility.yul\":7535:7538   */\n      dup6\n        /* \"#utility.yul\":7438:7547   */\n      tag_272\n      jump\t// in\n    tag_373:\n        /* \"#utility.yul\":7431:7547   */\n      swap4\n      pop\n        /* \"#utility.yul\":7573:7576   */\n      dup4\n        /* \"#utility.yul\":7618:7622   */\n      0x20\n        /* \"#utility.yul\":7610:7616   */\n      dup3\n        /* \"#utility.yul\":7606:7623   */\n      mul\n        /* \"#utility.yul\":7601:7604   */\n      dup6\n        /* \"#utility.yul\":7597:7624   */\n      add\n        /* \"#utility.yul\":7648:7727   */\n      tag_374\n        /* \"#utility.yul\":7721:7726   */\n      dup6\n        /* \"#utility.yul\":7648:7727   */\n      tag_273\n      jump\t// in\n    tag_374:\n        /* \"#utility.yul\":7750:7757   */\n      dup1\n        /* \"#utility.yul\":7781:7782   */\n      0x00\n        /* \"#utility.yul\":7766:8201   */\n    tag_375:\n        /* \"#utility.yul\":7791:7797   */\n      dup6\n        /* \"#utility.yul\":7788:7789   */\n      dup2\n        /* \"#utility.yul\":7785:7798   */\n      lt\n        /* \"#utility.yul\":7766:8201   */\n      iszero\n      tag_377\n      jumpi\n        /* \"#utility.yul\":7862:7871   */\n      dup5\n        /* \"#utility.yul\":7856:7860   */\n      dup5\n        /* \"#utility.yul\":7852:7872   */\n      sub\n        /* \"#utility.yul\":7847:7850   */\n      dup10\n        /* \"#utility.yul\":7840:7873   */\n      mstore\n        /* \"#utility.yul\":7913:7919   */\n      dup2\n        /* \"#utility.yul\":7907:7920   */\n      mload\n        /* \"#utility.yul\":7941:8051   */\n      tag_378\n        /* \"#utility.yul\":8046:8050   */\n      dup6\n        /* \"#utility.yul\":8031:8044   */\n      dup3\n        /* \"#utility.yul\":7941:8051   */\n      tag_278\n      jump\t// in\n    tag_378:\n        /* \"#utility.yul\":7933:8051   */\n      swap5\n      pop\n        /* \"#utility.yul\":8074:8157   */\n      tag_379\n        /* \"#utility.yul\":8150:8156   */\n      dup4\n        /* \"#utility.yul\":8074:8157   */\n      tag_279\n      jump\t// in\n    tag_379:\n        /* \"#utility.yul\":8064:8157   */\n      swap3\n      pop\n        /* \"#utility.yul\":8186:8190   */\n      0x20\n        /* \"#utility.yul\":8181:8184   */\n      dup11\n        /* \"#utility.yul\":8177:8191   */\n      add\n        /* \"#utility.yul\":8170:8191   */\n      swap10\n      pop\n        /* \"#utility.yul\":7826:8201   */\n      pop\n        /* \"#utility.yul\":7813:7814   */\n      0x01\n        /* \"#utility.yul\":7810:7811   */\n      dup2\n        /* \"#utility.yul\":7806:7815   */\n      add\n        /* \"#utility.yul\":7801:7815   */\n      swap1\n      pop\n        /* \"#utility.yul\":7766:8201   */\n      jump(tag_375)\n    tag_377:\n        /* \"#utility.yul\":7770:7784   */\n      pop\n        /* \"#utility.yul\":8217:8221   */\n      dup3\n        /* \"#utility.yul\":8210:8221   */\n      swap8\n      pop\n        /* \"#utility.yul\":8237:8240   */\n      dup8\n        /* \"#utility.yul\":8230:8240   */\n      swap6\n      pop\n        /* \"#utility.yul\":7321:8246   */\n      pop\n      pop\n      pop\n      pop\n      pop\n        /* \"#utility.yul\":7151:8246   */\n      swap3\n      swap2\n      pop\n      pop\n      jump\t// out\n        /* \"#utility.yul\":8252:8717   */\n    tag_23:\n        /* \"#utility.yul\":8441:8445   */\n      0x00\n        /* \"#utility.yul\":8479:8481   */\n      0x20\n        /* \"#utility.yul\":8468:8477   */\n      dup3\n        /* \"#utility.yul\":8464:8482   */\n      add\n        /* \"#utility.yul\":8456:8482   */\n      swap1\n      pop\n        /* \"#utility.yul\":8528:8537   */\n      dup2\n        /* \"#utility.yul\":8522:8526   */\n      dup2\n        /* \"#utility.yul\":8518:8538   */\n      sub\n        /* \"#utility.yul\":8514:8515   */\n      0x00\n        /* \"#utility.yul\":8503:8512   */\n      dup4\n        /* \"#utility.yul\":8499:8516   */\n      add\n        /* \"#utility.yul\":8492:8539   */\n      mstore\n        /* \"#utility.yul\":8556:8710   */\n      tag_381\n        /* \"#utility.yul\":8705:8709   */\n      dup2\n        /* \"#utility.yul\":8696:8702   */\n      dup5\n        /* \"#utility.yul\":8556:8710   */\n      tag_280\n      jump\t// in\n    tag_381:\n        /* \"#utility.yul\":8548:8710   */\n      swap1\n      pop\n        /* \"#utility.yul\":8252:8717   */\n      swap3\n      swap2\n      pop\n      pop\n      jump\t// out\n        /* \"#utility.yul\":8723:8840   */\n    tag_281:\n        /* \"#utility.yul\":8832:8833   */\n      0x00\n        /* \"#utility.yul\":8829:8830   */\n      dup1\n        /* \"#utility.yul\":8822:8834   */\n      revert\n        /* \"#utility.yul\":8846:8963   */\n    tag_282:\n        /* \"#utility.yul\":8955:8956   */\n      0x00\n        /* \"#utility.yul\":8952:8953   */\n      dup1\n        /* \"#utility.yul\":8945:8957   */\n      revert\n        /* \"#utility.yul\":8969:9149   */\n    tag_172:\n        /* \"#utility.yul\":9017:9094   */\n      0x4e487b7100000000000000000000000000000000000000000000000000000000\n        /* \"#utility.yul\":9014:9015   */\n      0x00\n        /* \"#utility.yul\":9007:9095   */\n      mstore\n        /* \"#utility.yul\":9114:9118   */\n      0x41\n        /* \"#utility.yul\":9111:9112   */\n      0x04\n        /* \"#utility.yul\":9104:9119   */\n      mstore\n        /* \"#utility.yul\":9138:9142   */\n      0x24\n        /* \"#utility.yul\":9135:9136   */\n      0x00\n        /* \"#utility.yul\":9128:9143   */\n      revert\n        /* \"#utility.yul\":9155:9436   */\n    tag_283:\n        /* \"#utility.yul\":9238:9265   */\n      tag_386\n        /* \"#utility.yul\":9260:9264   */\n      dup3\n        /* \"#utility.yul\":9238:9265   */\n      tag_269\n      jump\t// in\n    tag_386:\n        /* \"#utility.yul\":9230:9236   */\n      dup2\n        /* \"#utility.yul\":9226:9266   */\n      add\n        /* \"#utility.yul\":9368:9374   */\n      dup2\n        /* \"#utility.yul\":9356:9366   */\n      dup2\n        /* \"#utility.yul\":9353:9375   */\n      lt\n        /* \"#utility.yul\":9332:9350   */\n      0xffffffffffffffff\n        /* \"#utility.yul\":9320:9330   */\n      dup3\n        /* \"#utility.yul\":9317:9351   */\n      gt\n        /* \"#utility.yul\":9314:9376   */\n      or\n        /* \"#utility.yul\":9311:9399   */\n      iszero\n      tag_387\n      jumpi\n        /* \"#utility.yul\":9379:9397   */\n      tag_388\n      tag_172\n      jump\t// in\n    tag_388:\n        /* \"#utility.yul\":9311:9399   */\n    tag_387:\n        /* \"#utility.yul\":9419:9429   */\n      dup1\n        /* \"#utility.yul\":9415:9417   */\n      0x40\n        /* \"#utility.yul\":9408:9430   */\n      mstore\n        /* \"#utility.yul\":9198:9436   */\n      pop\n        /* \"#utility.yul\":9155:9436   */\n      pop\n      pop\n      jump\t// out\n        /* \"#utility.yul\":9442:9571   */\n    tag_284:\n        /* \"#utility.yul\":9476:9482   */\n      0x00\n        /* \"#utility.yul\":9503:9523   */\n      tag_390\n      tag_259\n      jump\t// in\n    tag_390:\n        /* \"#utility.yul\":9493:9523   */\n      swap1\n      pop\n        /* \"#utility.yul\":9532:9565   */\n      tag_391\n        /* \"#utility.yul\":9560:9564   */\n      dup3\n        /* \"#utility.yul\":9552:9558   */\n      dup3\n        /* \"#utility.yul\":9532:9565   */\n      tag_283\n      jump\t// in\n    tag_391:\n        /* \"#utility.yul\":9442:9571   */\n      swap2\n      swap1\n      pop\n      jump\t// out\n        /* \"#utility.yul\":9577:9885   */\n    tag_285:\n        /* \"#utility.yul\":9639:9643   */\n      0x00\n        /* \"#utility.yul\":9729:9747   */\n      0xffffffffffffffff\n        /* \"#utility.yul\":9721:9727   */\n      dup3\n        /* \"#utility.yul\":9718:9748   */\n      gt\n        /* \"#utility.yul\":9715:9771   */\n      iszero\n      tag_393\n      jumpi\n        /* \"#utility.yul\":9751:9769   */\n      tag_394\n      tag_172\n      jump\t// in\n    tag_394:\n        /* \"#utility.yul\":9715:9771   */\n    tag_393:\n        /* \"#utility.yul\":9789:9818   */\n      tag_395\n        /* \"#utility.yul\":9811:9817   */\n      dup3\n        /* \"#utility.yul\":9789:9818   */\n      tag_269\n      jump\t// in\n    tag_395:\n        /* \"#utility.yul\":9781:9818   */\n      swap1\n      pop\n        /* \"#utility.yul\":9873:9877   */\n      0x20\n        /* \"#utility.yul\":9867:9871   */\n      dup2\n        /* \"#utility.yul\":9863:9878   */\n      add\n        /* \"#utility.yul\":9855:9878   */\n      swap1\n      pop\n        /* \"#utility.yul\":9577:9885   */\n      swap2\n      swap1\n      pop\n      jump\t// out\n        /* \"#utility.yul\":9891:10039   */\n    tag_286:\n        /* \"#utility.yul\":9989:9995   */\n      dup3\n        /* \"#utility.yul\":9984:9987   */\n      dup2\n        /* \"#utility.yul\":9979:9982   */\n      dup4\n        /* \"#utility.yul\":9966:9996   */\n      calldatacopy\n        /* \"#utility.yul\":10030:10031   */\n      0x00\n        /* \"#utility.yul\":10021:10027   */\n      dup4\n        /* \"#utility.yul\":10016:10019   */\n      dup4\n        /* \"#utility.yul\":10012:10028   */\n      add\n        /* \"#utility.yul\":10005:10032   */\n      mstore\n        /* \"#utility.yul\":9891:10039   */\n      pop\n      pop\n      pop\n      jump\t// out\n        /* \"#utility.yul\":10045:10470   */\n    tag_287:\n        /* \"#utility.yul\":10123:10128   */\n      0x00\n        /* \"#utility.yul\":10148:10214   */\n      tag_398\n        /* \"#utility.yul\":10164:10213   */\n      tag_399\n        /* \"#utility.yul\":10206:10212   */\n      dup5\n        /* \"#utility.yul\":10164:10213   */\n      tag_285\n      jump\t// in\n    tag_399:\n        /* \"#utility.yul\":10148:10214   */\n      tag_284\n      jump\t// in\n    tag_398:\n        /* \"#utility.yul\":10139:10214   */\n      swap1\n      pop\n        /* \"#utility.yul\":10237:10243   */\n      dup3\n        /* \"#utility.yul\":10230:10235   */\n      dup2\n        /* \"#utility.yul\":10223:10244   */\n      mstore\n        /* \"#utility.yul\":10275:10279   */\n      0x20\n        /* \"#utility.yul\":10268:10273   */\n      dup2\n        /* \"#utility.yul\":10264:10280   */\n      add\n        /* \"#utility.yul\":10313:10316   */\n      dup5\n        /* \"#utility.yul\":10304:10310   */\n      dup5\n        /* \"#utility.yul\":10299:10302   */\n      dup5\n        /* \"#utility.yul\":10295:10311   */\n      add\n        /* \"#utility.yul\":10292:10317   */\n      gt\n        /* \"#utility.yul\":10289:10401   */\n      iszero\n      tag_400\n      jumpi\n        /* \"#utility.yul\":10320:10399   */\n      tag_401\n      tag_282\n      jump\t// in\n    tag_401:\n        /* \"#utility.yul\":10289:10401   */\n    tag_400:\n        /* \"#utility.yul\":10410:10464   */\n      tag_402\n        /* \"#utility.yul\":10457:10463   */\n      dup5\n        /* \"#utility.yul\":10452:10455   */\n      dup3\n        /* \"#utility.yul\":10447:10450   */\n      dup6\n        /* \"#utility.yul\":10410:10464   */\n      tag_286\n      jump\t// in\n    tag_402:\n        /* \"#utility.yul\":10129:10470   */\n      pop\n        /* \"#utility.yul\":10045:10470   */\n      swap4\n      swap3\n      pop\n      pop\n      pop\n      jump\t// out\n        /* \"#utility.yul\":10490:10830   */\n    tag_288:\n        /* \"#utility.yul\":10546:10551   */\n      0x00\n        /* \"#utility.yul\":10595:10598   */\n      dup3\n        /* \"#utility.yul\":10588:10592   */\n      0x1f\n        /* \"#utility.yul\":10580:10586   */\n      dup4\n        /* \"#utility.yul\":10576:10593   */\n      add\n        /* \"#utility.yul\":10572:10599   */\n      slt\n        /* \"#utility.yul\":10562:10684   */\n      tag_404\n      jumpi\n        /* \"#utility.yul\":10603:10682   */\n      tag_405\n      tag_281\n      jump\t// in\n    tag_405:\n        /* \"#utility.yul\":10562:10684   */\n    tag_404:\n        /* \"#utility.yul\":10720:10726   */\n      dup2\n        /* \"#utility.yul\":10707:10727   */\n      calldataload\n        /* \"#utility.yul\":10745:10824   */\n      tag_406\n        /* \"#utility.yul\":10820:10823   */\n      dup5\n        /* \"#utility.yul\":10812:10818   */\n      dup3\n        /* \"#utility.yul\":10805:10809   */\n      0x20\n        /* \"#utility.yul\":10797:10803   */\n      dup7\n        /* \"#utility.yul\":10793:10810   */\n      add\n        /* \"#utility.yul\":10745:10824   */\n      tag_287\n      jump\t// in\n    tag_406:\n        /* \"#utility.yul\":10736:10824   */\n      swap2\n      pop\n        /* \"#utility.yul\":10552:10830   */\n      pop\n        /* \"#utility.yul\":10490:10830   */\n      swap3\n      swap2\n      pop\n      pop\n      jump\t// out\n        /* \"#utility.yul\":10836:12399   */\n    tag_29:\n        /* \"#utility.yul\":10969:10975   */\n      0x00\n        /* \"#utility.yul\":10977:10983   */\n      dup1\n        /* \"#utility.yul\":10985:10991   */\n      0x00\n        /* \"#utility.yul\":10993:10999   */\n      dup1\n        /* \"#utility.yul\":11001:11007   */\n      0x00\n        /* \"#utility.yul\":11009:11015   */\n      dup1\n        /* \"#utility.yul\":11017:11023   */\n      0x00\n        /* \"#utility.yul\":11066:11069   */\n      0xe0\n        /* \"#utility.yul\":11054:11063   */\n      dup9\n        /* \"#utility.yul\":11045:11052   */\n      dup11\n        /* \"#utility.yul\":11041:11064   */\n      sub\n        /* \"#utility.yul\":11037:11070   */\n      slt\n        /* \"#utility.yul\":11034:11154   */\n      iszero\n      tag_408\n      jumpi\n        /* \"#utility.yul\":11073:11152   */\n      tag_409\n      tag_260\n      jump\t// in\n    tag_409:\n        /* \"#utility.yul\":11034:11154   */\n    tag_408:\n        /* \"#utility.yul\":11193:11194   */\n      0x00\n        /* \"#utility.yul\":11218:11271   */\n      tag_410\n        /* \"#utility.yul\":11263:11270   */\n      dup11\n        /* \"#utility.yul\":11254:11260   */\n      dup3\n        /* \"#utility.yul\":11243:11252   */\n      dup12\n        /* \"#utility.yul\":11239:11261   */\n      add\n        /* \"#utility.yul\":11218:11271   */\n      tag_264\n      jump\t// in\n    tag_410:\n        /* \"#utility.yul\":11208:11271   */\n      swap8\n      pop\n        /* \"#utility.yul\":11164:11281   */\n      pop\n        /* \"#utility.yul\":11348:11350   */\n      0x20\n        /* \"#utility.yul\":11337:11346   */\n      dup9\n        /* \"#utility.yul\":11333:11351   */\n      add\n        /* \"#utility.yul\":11320:11352   */\n      calldataload\n        /* \"#utility.yul\":11379:11397   */\n      0xffffffffffffffff\n        /* \"#utility.yul\":11371:11377   */\n      dup2\n        /* \"#utility.yul\":11368:11398   */\n      gt\n        /* \"#utility.yul\":11365:11482   */\n      iszero\n      tag_411\n      jumpi\n        /* \"#utility.yul\":11401:11480   */\n      tag_412\n      tag_261\n      jump\t// in\n    tag_412:\n        /* \"#utility.yul\":11365:11482   */\n    tag_411:\n        /* \"#utility.yul\":11506:11569   */\n      tag_413\n        /* \"#utility.yul\":11561:11568   */\n      dup11\n        /* \"#utility.yul\":11552:11558   */\n      dup3\n        /* \"#utility.yul\":11541:11550   */\n      dup12\n        /* \"#utility.yul\":11537:11559   */\n      add\n        /* \"#utility.yul\":11506:11569   */\n      tag_288\n      jump\t// in\n    tag_413:\n        /* \"#utility.yul\":11496:11569   */\n      swap7\n      pop\n        /* \"#utility.yul\":11291:11579   */\n      pop\n        /* \"#utility.yul\":11646:11648   */\n      0x40\n        /* \"#utility.yul\":11635:11644   */\n      dup9\n        /* \"#utility.yul\":11631:11649   */\n      add\n        /* \"#utility.yul\":11618:11650   */\n      calldataload\n        /* \"#utility.yul\":11677:11695   */\n      0xffffffffffffffff\n        /* \"#utility.yul\":11669:11675   */\n      dup2\n        /* \"#utility.yul\":11666:11696   */\n      gt\n        /* \"#utility.yul\":11663:11780   */\n      iszero\n      tag_414\n      jumpi\n        /* \"#utility.yul\":11699:11778   */\n      tag_415\n      tag_261\n      jump\t// in\n    tag_415:\n        /* \"#utility.yul\":11663:11780   */\n    tag_414:\n        /* \"#utility.yul\":11804:11867   */\n      tag_416\n        /* \"#utility.yul\":11859:11866   */\n      dup11\n        /* \"#utility.yul\":11850:11856   */\n      dup3\n        /* \"#utility.yul\":11839:11848   */\n      dup12\n        /* \"#utility.yul\":11835:11857   */\n      add\n        /* \"#utility.yul\":11804:11867   */\n      tag_288\n      jump\t// in\n    tag_416:\n        /* \"#utility.yul\":11794:11867   */\n      swap6\n      pop\n        /* \"#utility.yul\":11589:11877   */\n      pop\n        /* \"#utility.yul\":11916:11918   */\n      0x60\n        /* \"#utility.yul\":11942:11995   */\n      tag_417\n        /* \"#utility.yul\":11987:11994   */\n      dup11\n        /* \"#utility.yul\":11978:11984   */\n      dup3\n        /* \"#utility.yul\":11967:11976   */\n      dup12\n        /* \"#utility.yul\":11963:11985   */\n      add\n        /* \"#utility.yul\":11942:11995   */\n      tag_264\n      jump\t// in\n    tag_417:\n        /* \"#utility.yul\":11932:11995   */\n      swap5\n      pop\n        /* \"#utility.yul\":11887:12005   */\n      pop\n        /* \"#utility.yul\":12044:12047   */\n      0x80\n        /* \"#utility.yul\":12071:12124   */\n      tag_418\n        /* \"#utility.yul\":12116:12123   */\n      dup11\n        /* \"#utility.yul\":12107:12113   */\n      dup3\n        /* \"#utility.yul\":12096:12105   */\n      dup12\n        /* \"#utility.yul\":12092:12114   */\n      add\n        /* \"#utility.yul\":12071:12124   */\n      tag_264\n      jump\t// in\n    tag_418:\n        /* \"#utility.yul\":12061:12124   */\n      swap4\n      pop\n        /* \"#utility.yul\":12015:12134   */\n      pop\n        /* \"#utility.yul\":12173:12176   */\n      0xa0\n        /* \"#utility.yul\":12200:12253   */\n      tag_419\n        /* \"#utility.yul\":12245:12252   */\n      dup11\n        /* \"#utility.yul\":12236:12242   */\n      dup3\n        /* \"#utility.yul\":12225:12234   */\n      dup12\n        /* \"#utility.yul\":12221:12243   */\n      add\n        /* \"#utility.yul\":12200:12253   */\n      tag_264\n      jump\t// in\n    tag_419:\n        /* \"#utility.yul\":12190:12253   */\n      swap3\n      pop\n        /* \"#utility.yul\":12144:12263   */\n      pop\n        /* \"#utility.yul\":12302:12305   */\n      0xc0\n        /* \"#utility.yul\":12329:12382   */\n      tag_420\n        /* \"#utility.yul\":12374:12381   */\n      dup11\n        /* \"#utility.yul\":12365:12371   */\n      dup3\n        /* \"#utility.yul\":12354:12363   */\n      dup12\n        /* \"#utility.yul\":12350:12372   */\n      add\n        /* \"#utility.yul\":12329:12382   */\n      tag_264\n      jump\t// in\n    tag_420:\n        /* \"#utility.yul\":12319:12382   */\n      swap2\n      pop\n        /* \"#utility.yul\":12273:12392   */\n      pop\n        /* \"#utility.yul\":10836:12399   */\n      swap3\n      swap6\n      swap9\n      swap2\n      swap5\n      swap8\n      pop\n      swap3\n      swap6\n      pop\n      jump\t// out\n        /* \"#utility.yul\":12405:13822   */\n    tag_33:\n        /* \"#utility.yul\":12529:12535   */\n      0x00\n        /* \"#utility.yul\":12537:12543   */\n      dup1\n        /* \"#utility.yul\":12545:12551   */\n      0x00\n        /* \"#utility.yul\":12553:12559   */\n      dup1\n        /* \"#utility.yul\":12561:12567   */\n      0x00\n        /* \"#utility.yul\":12569:12575   */\n      dup1\n        /* \"#utility.yul\":12618:12621   */\n      0xc0\n        /* \"#utility.yul\":12606:12615   */\n      dup8\n        /* \"#utility.yul\":12597:12604   */\n      dup10\n        /* \"#utility.yul\":12593:12616   */\n      sub\n        /* \"#utility.yul\":12589:12622   */\n      slt\n        /* \"#utility.yul\":12586:12706   */\n      iszero\n      tag_422\n      jumpi\n        /* \"#utility.yul\":12625:12704   */\n      tag_423\n      tag_260\n      jump\t// in\n    tag_423:\n        /* \"#utility.yul\":12586:12706   */\n    tag_422:\n        /* \"#utility.yul\":12773:12774   */\n      0x00\n        /* \"#utility.yul\":12762:12771   */\n      dup8\n        /* \"#utility.yul\":12758:12775   */\n      add\n        /* \"#utility.yul\":12745:12776   */\n      calldataload\n        /* \"#utility.yul\":12803:12821   */\n      0xffffffffffffffff\n        /* \"#utility.yul\":12795:12801   */\n      dup2\n        /* \"#utility.yul\":12792:12822   */\n      gt\n        /* \"#utility.yul\":12789:12906   */\n      iszero\n      tag_424\n      jumpi\n        /* \"#utility.yul\":12825:12904   */\n      tag_425\n      tag_261\n      jump\t// in\n    tag_425:\n        /* \"#utility.yul\":12789:12906   */\n    tag_424:\n        /* \"#utility.yul\":12930:12993   */\n      tag_426\n        /* \"#utility.yul\":12985:12992   */\n      dup10\n        /* \"#utility.yul\":12976:12982   */\n      dup3\n        /* \"#utility.yul\":12965:12974   */\n      dup11\n        /* \"#utility.yul\":12961:12983   */\n      add\n        /* \"#utility.yul\":12930:12993   */\n      tag_288\n      jump\t// in\n    tag_426:\n        /* \"#utility.yul\":12920:12993   */\n      swap7\n      pop\n        /* \"#utility.yul\":12716:13003   */\n      pop\n        /* \"#utility.yul\":13070:13072   */\n      0x20\n        /* \"#utility.yul\":13059:13068   */\n      dup8\n        /* \"#utility.yul\":13055:13073   */\n      add\n        /* \"#utility.yul\":13042:13074   */\n      calldataload\n        /* \"#utility.yul\":13101:13119   */\n      0xffffffffffffffff\n        /* \"#utility.yul\":13093:13099   */\n      dup2\n        /* \"#utility.yul\":13090:13120   */\n      gt\n        /* \"#utility.yul\":13087:13204   */\n      iszero\n      tag_427\n      jumpi\n        /* \"#utility.yul\":13123:13202   */\n      tag_428\n      tag_261\n      jump\t// in\n    tag_428:\n        /* \"#utility.yul\":13087:13204   */\n    tag_427:\n        /* \"#utility.yul\":13228:13291   */\n      tag_429\n        /* \"#utility.yul\":13283:13290   */\n      dup10\n        /* \"#utility.yul\":13274:13280   */\n      dup3\n        /* \"#utility.yul\":13263:13272   */\n      dup11\n        /* \"#utility.yul\":13259:13281   */\n      add\n        /* \"#utility.yul\":13228:13291   */\n      tag_288\n      jump\t// in\n    tag_429:\n        /* \"#utility.yul\":13218:13291   */\n      swap6\n      pop\n        /* \"#utility.yul\":13013:13301   */\n      pop\n        /* \"#utility.yul\":13340:13342   */\n      0x40\n        /* \"#utility.yul\":13366:13419   */\n      tag_430\n        /* \"#utility.yul\":13411:13418   */\n      dup10\n        /* \"#utility.yul\":13402:13408   */\n      dup3\n        /* \"#utility.yul\":13391:13400   */\n      dup11\n        /* \"#utility.yul\":13387:13409   */\n      add\n        /* \"#utility.yul\":13366:13419   */\n      tag_264\n      jump\t// in\n    tag_430:\n        /* \"#utility.yul\":13356:13419   */\n      swap5\n      pop\n        /* \"#utility.yul\":13311:13429   */\n      pop\n        /* \"#utility.yul\":13468:13470   */\n      0x60\n        /* \"#utility.yul\":13494:13547   */\n      tag_431\n        /* \"#utility.yul\":13539:13546   */\n      dup10\n        /* \"#utility.yul\":13530:13536   */\n      dup3\n        /* \"#utility.yul\":13519:13528   */\n      dup11\n        /* \"#utility.yul\":13515:13537   */\n      add\n        /* \"#utility.yul\":13494:13547   */\n      tag_264\n      jump\t// in\n    tag_431:\n        /* \"#utility.yul\":13484:13547   */\n      swap4\n      pop\n        /* \"#utility.yul\":13439:13557   */\n      pop\n        /* \"#utility.yul\":13596:13599   */\n      0x80\n        /* \"#utility.yul\":13623:13676   */\n      tag_432\n        /* \"#utility.yul\":13668:13675   */\n      dup10\n        /* \"#utility.yul\":13659:13665   */\n      dup3\n        /* \"#utility.yul\":13648:13657   */\n      dup11\n        /* \"#utility.yul\":13644:13666   */\n      add\n        /* \"#utility.yul\":13623:13676   */\n      tag_264\n      jump\t// in\n    tag_432:\n        /* \"#utility.yul\":13613:13676   */\n      swap3\n      pop\n        /* \"#utility.yul\":13567:13686   */\n      pop\n        /* \"#utility.yul\":13725:13728   */\n      0xa0\n        /* \"#utility.yul\":13752:13805   */\n      tag_433\n        /* \"#utility.yul\":13797:13804   */\n      dup10\n        /* \"#utility.yul\":13788:13794   */\n      dup3\n        /* \"#utility.yul\":13777:13786   */\n      dup11\n        /* \"#utility.yul\":13773:13795   */\n      add\n        /* \"#utility.yul\":13752:13805   */\n      tag_264\n      jump\t// in\n    tag_433:\n        /* \"#utility.yul\":13742:13805   */\n      swap2\n      pop\n        /* \"#utility.yul\":13696:13815   */\n      pop\n        /* \"#utility.yul\":12405:13822   */\n      swap3\n      swap6\n      pop\n      swap3\n      swap6\n      pop\n      swap3\n      swap6\n      jump\t// out\n        /* \"#utility.yul\":13828:14050   */\n    tag_44:\n        /* \"#utility.yul\":13921:13925   */\n      0x00\n        /* \"#utility.yul\":13959:13961   */\n      0x20\n        /* \"#utility.yul\":13948:13957   */\n      dup3\n        /* \"#utility.yul\":13944:13962   */\n      add\n        /* \"#utility.yul\":13936:13962   */\n      swap1\n      pop\n        /* \"#utility.yul\":13972:14043   */\n      tag_435\n        /* \"#utility.yul\":14040:14041   */\n      0x00\n        /* \"#utility.yul\":14029:14038   */\n      dup4\n        /* \"#utility.yul\":14025:14042   */\n      add\n        /* \"#utility.yul\":14016:14022   */\n      dup5\n        /* \"#utility.yul\":13972:14043   */\n      tag_265\n      jump\t// in\n    tag_435:\n        /* \"#utility.yul\":13828:14050   */\n      swap3\n      swap2\n      pop\n      pop\n      jump\t// out\n        /* \"#utility.yul\":14056:14565   */\n    tag_50:\n        /* \"#utility.yul\":14125:14131   */\n      0x00\n        /* \"#utility.yul\":14174:14176   */\n      0x20\n        /* \"#utility.yul\":14162:14171   */\n      dup3\n        /* \"#utility.yul\":14153:14160   */\n      dup5\n        /* \"#utility.yul\":14149:14172   */\n      sub\n        /* \"#utility.yul\":14145:14177   */\n      slt\n        /* \"#utility.yul\":14142:14261   */\n      iszero\n      tag_437\n      jumpi\n        /* \"#utility.yul\":14180:14259   */\n      tag_438\n      tag_260\n      jump\t// in\n    tag_438:\n        /* \"#utility.yul\":14142:14261   */\n    tag_437:\n        /* \"#utility.yul\":14328:14329   */\n      0x00\n        /* \"#utility.yul\":14317:14326   */\n      dup3\n        /* \"#utility.yul\":14313:14330   */\n      add\n        /* \"#utility.yul\":14300:14331   */\n      calldataload\n        /* \"#utility.yul\":14358:14376   */\n      0xffffffffffffffff\n        /* \"#utility.yul\":14350:14356   */\n      dup2\n        /* \"#utility.yul\":14347:14377   */\n      gt\n        /* \"#utility.yul\":14344:14461   */\n      iszero\n      tag_439\n      jumpi\n        /* \"#utility.yul\":14380:14459   */\n      tag_440\n      tag_261\n      jump\t// in\n    tag_440:\n        /* \"#utility.yul\":14344:14461   */\n    tag_439:\n        /* \"#utility.yul\":14485:14548   */\n      tag_441\n        /* \"#utility.yul\":14540:14547   */\n      dup5\n        /* \"#utility.yul\":14531:14537   */\n      dup3\n        /* \"#utility.yul\":14520:14529   */\n      dup6\n        /* \"#utility.yul\":14516:14538   */\n      add\n        /* \"#utility.yul\":14485:14548   */\n      tag_288\n      jump\t// in\n    tag_441:\n        /* \"#utility.yul\":14475:14548   */\n      swap2\n      pop\n        /* \"#utility.yul\":14271:14558   */\n      pop\n        /* \"#utility.yul\":14056:14565   */\n      swap3\n      swap2\n      pop\n      pop\n      jump\t// out\n        /* \"#utility.yul\":14571:14751   */\n    tag_289:\n        /* \"#utility.yul\":14619:14696   */\n      0x4e487b7100000000000000000000000000000000000000000000000000000000\n        /* \"#utility.yul\":14616:14617   */\n      0x00\n        /* \"#utility.yul\":14609:14697   */\n      mstore\n        /* \"#utility.yul\":14716:14720   */\n      0x22\n        /* \"#utility.yul\":14713:14714   */\n      0x04\n        /* \"#utility.yul\":14706:14721   */\n      mstore\n        /* \"#utility.yul\":14740:14744   */\n      0x24\n        /* \"#utility.yul\":14737:14738   */\n      0x00\n        /* \"#utility.yul\":14730:14745   */\n      revert\n        /* \"#utility.yul\":14757:15077   */\n    tag_54:\n        /* \"#utility.yul\":14801:14807   */\n      0x00\n        /* \"#utility.yul\":14838:14839   */\n      0x02\n        /* \"#utility.yul\":14832:14836   */\n      dup3\n        /* \"#utility.yul\":14828:14840   */\n      div\n        /* \"#utility.yul\":14818:14840   */\n      swap1\n      pop\n        /* \"#utility.yul\":14885:14886   */\n      0x01\n        /* \"#utility.yul\":14879:14883   */\n      dup3\n        /* \"#utility.yul\":14875:14887   */\n      and\n        /* \"#utility.yul\":14906:14924   */\n      dup1\n        /* \"#utility.yul\":14896:14977   */\n      tag_444\n      jumpi\n        /* \"#utility.yul\":14962:14966   */\n      0x7f\n        /* \"#utility.yul\":14954:14960   */\n      dup3\n        /* \"#utility.yul\":14950:14967   */\n      and\n        /* \"#utility.yul\":14940:14967   */\n      swap2\n      pop\n        /* \"#utility.yul\":14896:14977   */\n    tag_444:\n        /* \"#utility.yul\":15024:15026   */\n      0x20\n        /* \"#utility.yul\":15016:15022   */\n      dup3\n        /* \"#utility.yul\":15013:15027   */\n      lt\n        /* \"#utility.yul\":14993:15011   */\n      dup2\n        /* \"#utility.yul\":14990:15028   */\n      sub\n        /* \"#utility.yul\":14987:15071   */\n      tag_445\n      jumpi\n        /* \"#utility.yul\":15043:15061   */\n      tag_446\n      tag_289\n      jump\t// in\n    tag_446:\n        /* \"#utility.yul\":14987:15071   */\n    tag_445:\n        /* \"#utility.yul\":14808:15077   */\n      pop\n        /* \"#utility.yul\":14757:15077   */\n      swap2\n      swap1\n      pop\n      jump\t// out\n        /* \"#utility.yul\":15083:15263   */\n    tag_290:\n        /* \"#utility.yul\":15131:15208   */\n      0x4e487b7100000000000000000000000000000000000000000000000000000000\n        /* \"#utility.yul\":15128:15129   */\n      0x00\n        /* \"#utility.yul\":15121:15209   */\n      mstore\n        /* \"#utility.yul\":15228:15232   */\n      0x11\n        /* \"#utility.yul\":15225:15226   */\n      0x04\n        /* \"#utility.yul\":15218:15233   */\n      mstore\n        /* \"#utility.yul\":15252:15256   */\n      0x24\n        /* \"#utility.yul\":15249:15250   */\n      0x00\n        /* \"#utility.yul\":15242:15257   */\n      revert\n        /* \"#utility.yul\":15269:15460   */\n    tag_78:\n        /* \"#utility.yul\":15309:15312   */\n      0x00\n        /* \"#utility.yul\":15328:15348   */\n      tag_449\n        /* \"#utility.yul\":15346:15347   */\n      dup3\n        /* \"#utility.yul\":15328:15348   */\n      tag_262\n      jump\t// in\n    tag_449:\n        /* \"#utility.yul\":15323:15348   */\n      swap2\n      pop\n        /* \"#utility.yul\":15362:15382   */\n      tag_450\n        /* \"#utility.yul\":15380:15381   */\n      dup4\n        /* \"#utility.yul\":15362:15382   */\n      tag_262\n      jump\t// in\n    tag_450:\n        /* \"#utility.yul\":15357:15382   */\n      swap3\n      pop\n        /* \"#utility.yul\":15405:15406   */\n      dup3\n        /* \"#utility.yul\":15402:15403   */\n      dup3\n        /* \"#utility.yul\":15398:15407   */\n      add\n        /* \"#utility.yul\":15391:15407   */\n      swap1\n      pop\n        /* \"#utility.yul\":15426:15429   */\n      dup1\n        /* \"#utility.yul\":15423:15424   */\n      dup3\n        /* \"#utility.yul\":15420:15430   */\n      gt\n        /* \"#utility.yul\":15417:15453   */\n      iszero\n      tag_451\n      jumpi\n        /* \"#utility.yul\":15433:15451   */\n      tag_452\n      tag_290\n      jump\t// in\n    tag_452:\n        /* \"#utility.yul\":15417:15453   */\n    tag_451:\n        /* \"#utility.yul\":15269:15460   */\n      swap3\n      swap2\n      pop\n      pop\n      jump\t// out\n        /* \"#utility.yul\":15466:15646   */\n    tag_81:\n        /* \"#utility.yul\":15514:15591   */\n      0x4e487b7100000000000000000000000000000000000000000000000000000000\n        /* \"#utility.yul\":15511:15512   */\n      0x00\n        /* \"#utility.yul\":15504:15592   */\n      mstore\n        /* \"#utility.yul\":15611:15615   */\n      0x32\n        /* \"#utility.yul\":15608:15609   */\n      0x04\n        /* \"#utility.yul\":15601:15616   */\n      mstore\n        /* \"#utility.yul\":15635:15639   */\n      0x24\n        /* \"#utility.yul\":15632:15633   */\n      0x00\n        /* \"#utility.yul\":15625:15640   */\n      revert\n        /* \"#utility.yul\":15652:15800   */\n    tag_291:\n        /* \"#utility.yul\":15754:15765   */\n      0x00\n        /* \"#utility.yul\":15791:15794   */\n      dup2\n        /* \"#utility.yul\":15776:15794   */\n      swap1\n      pop\n        /* \"#utility.yul\":15652:15800   */\n      swap3\n      swap2\n      pop\n      pop\n      jump\t// out\n        /* \"#utility.yul\":15806:16196   */\n    tag_292:\n        /* \"#utility.yul\":15912:15915   */\n      0x00\n        /* \"#utility.yul\":15940:15979   */\n      tag_456\n        /* \"#utility.yul\":15973:15978   */\n      dup3\n        /* \"#utility.yul\":15940:15979   */\n      tag_266\n      jump\t// in\n    tag_456:\n        /* \"#utility.yul\":15995:16084   */\n      tag_457\n        /* \"#utility.yul\":16077:16083   */\n      dup2\n        /* \"#utility.yul\":16072:16075   */\n      dup6\n        /* \"#utility.yul\":15995:16084   */\n      tag_291\n      jump\t// in\n    tag_457:\n        /* \"#utility.yul\":15988:16084   */\n      swap4\n      pop\n        /* \"#utility.yul\":16093:16158   */\n      tag_458\n        /* \"#utility.yul\":16151:16157   */\n      dup2\n        /* \"#utility.yul\":16146:16149   */\n      dup6\n        /* \"#utility.yul\":16139:16143   */\n      0x20\n        /* \"#utility.yul\":16132:16137   */\n      dup7\n        /* \"#utility.yul\":16128:16144   */\n      add\n        /* \"#utility.yul\":16093:16158   */\n      tag_268\n      jump\t// in\n    tag_458:\n        /* \"#utility.yul\":16183:16189   */\n      dup1\n        /* \"#utility.yul\":16178:16181   */\n      dup5\n        /* \"#utility.yul\":16174:16190   */\n      add\n        /* \"#utility.yul\":16167:16190   */\n      swap2\n      pop\n        /* \"#utility.yul\":15916:16196   */\n      pop\n        /* \"#utility.yul\":15806:16196   */\n      swap3\n      swap2\n      pop\n      pop\n      jump\t// out\n        /* \"#utility.yul\":16202:16477   */\n    tag_83:\n        /* \"#utility.yul\":16334:16337   */\n      0x00\n        /* \"#utility.yul\":16356:16451   */\n      tag_460\n        /* \"#utility.yul\":16447:16450   */\n      dup3\n        /* \"#utility.yul\":16438:16444   */\n      dup5\n        /* \"#utility.yul\":16356:16451   */\n      tag_292\n      jump\t// in\n    tag_460:\n        /* \"#utility.yul\":16349:16451   */\n      swap2\n      pop\n        /* \"#utility.yul\":16468:16471   */\n      dup2\n        /* \"#utility.yul\":16461:16471   */\n      swap1\n      pop\n        /* \"#utility.yul\":16202:16477   */\n      swap3\n      swap2\n      pop\n      pop\n      jump\t// out\n        /* \"#utility.yul\":16483:16654   */\n    tag_293:\n        /* \"#utility.yul\":16623:16646   */\n      0x53747564656e7420494420697320696e76616c69640000000000000000000000\n        /* \"#utility.yul\":16619:16620   */\n      0x00\n        /* \"#utility.yul\":16611:16617   */\n      dup3\n        /* \"#utility.yul\":16607:16621   */\n      add\n        /* \"#utility.yul\":16600:16647   */\n      mstore\n        /* \"#utility.yul\":16483:16654   */\n      pop\n      jump\t// out\n        /* \"#utility.yul\":16660:17026   */\n    tag_294:\n        /* \"#utility.yul\":16802:16805   */\n      0x00\n        /* \"#utility.yul\":16823:16890   */\n      tag_463\n        /* \"#utility.yul\":16887:16889   */\n      0x15\n        /* \"#utility.yul\":16882:16885   */\n      dup4\n        /* \"#utility.yul\":16823:16890   */\n      tag_267\n      jump\t// in\n    tag_463:\n        /* \"#utility.yul\":16816:16890   */\n      swap2\n      pop\n        /* \"#utility.yul\":16899:16992   */\n      tag_464\n        /* \"#utility.yul\":16988:16991   */\n      dup3\n        /* \"#utility.yul\":16899:16992   */\n      tag_293\n      jump\t// in\n    tag_464:\n        /* \"#utility.yul\":17017:17019   */\n      0x20\n        /* \"#utility.yul\":17012:17015   */\n      dup3\n        /* \"#utility.yul\":17008:17020   */\n      add\n        /* \"#utility.yul\":17001:17020   */\n      swap1\n      pop\n        /* \"#utility.yul\":16660:17026   */\n      swap2\n      swap1\n      pop\n      jump\t// out\n        /* \"#utility.yul\":17032:17451   */\n    tag_122:\n        /* \"#utility.yul\":17198:17202   */\n      0x00\n        /* \"#utility.yul\":17236:17238   */\n      0x20\n        /* \"#utility.yul\":17225:17234   */\n      dup3\n        /* \"#utility.yul\":17221:17239   */\n      add\n        /* \"#utility.yul\":17213:17239   */\n      swap1\n      pop\n        /* \"#utility.yul\":17285:17294   */\n      dup2\n        /* \"#utility.yul\":17279:17283   */\n      dup2\n        /* \"#utility.yul\":17275:17295   */\n      sub\n        /* \"#utility.yul\":17271:17272   */\n      0x00\n        /* \"#utility.yul\":17260:17269   */\n      dup4\n        /* \"#utility.yul\":17256:17273   */\n      add\n        /* \"#utility.yul\":17249:17296   */\n      mstore\n        /* \"#utility.yul\":17313:17444   */\n      tag_466\n        /* \"#utility.yul\":17439:17443   */\n      dup2\n        /* \"#utility.yul\":17313:17444   */\n      tag_294\n      jump\t// in\n    tag_466:\n        /* \"#utility.yul\":17305:17444   */\n      swap1\n      pop\n        /* \"#utility.yul\":17032:17451   */\n      swap2\n      swap1\n      pop\n      jump\t// out\n        /* \"#utility.yul\":17457:17598   */\n    tag_295:\n        /* \"#utility.yul\":17506:17510   */\n      0x00\n        /* \"#utility.yul\":17529:17532   */\n      dup2\n        /* \"#utility.yul\":17521:17532   */\n      swap1\n      pop\n        /* \"#utility.yul\":17552:17555   */\n      dup2\n        /* \"#utility.yul\":17549:17550   */\n      0x00\n        /* \"#utility.yul\":17542:17556   */\n      mstore\n        /* \"#utility.yul\":17586:17590   */\n      0x20\n        /* \"#utility.yul\":17583:17584   */\n      0x00\n        /* \"#utility.yul\":17573:17591   */\n      keccak256\n        /* \"#utility.yul\":17565:17591   */\n      swap1\n      pop\n        /* \"#utility.yul\":17457:17598   */\n      swap2\n      swap1\n      pop\n      jump\t// out\n        /* \"#utility.yul\":17604:17697   */\n    tag_296:\n        /* \"#utility.yul\":17641:17647   */\n      0x00\n        /* \"#utility.yul\":17688:17690   */\n      0x20\n        /* \"#utility.yul\":17683:17685   */\n      0x1f\n        /* \"#utility.yul\":17676:17681   */\n      dup4\n        /* \"#utility.yul\":17672:17686   */\n      add\n        /* \"#utility.yul\":17668:17691   */\n      div\n        /* \"#utility.yul\":17658:17691   */\n      swap1\n      pop\n        /* \"#utility.yul\":17604:17697   */\n      swap2\n      swap1\n      pop\n      jump\t// out\n        /* \"#utility.yul\":17703:17810   */\n    tag_297:\n        /* \"#utility.yul\":17747:17755   */\n      0x00\n        /* \"#utility.yul\":17797:17802   */\n      dup3\n        /* \"#utility.yul\":17791:17795   */\n      dup3\n        /* \"#utility.yul\":17787:17803   */\n      shl\n        /* \"#utility.yul\":17766:17803   */\n      swap1\n      pop\n        /* \"#utility.yul\":17703:17810   */\n      swap3\n      swap2\n      pop\n      pop\n      jump\t// out\n        /* \"#utility.yul\":17816:18209   */\n    tag_298:\n        /* \"#utility.yul\":17885:17891   */\n      0x00\n        /* \"#utility.yul\":17935:17936   */\n      0x08\n        /* \"#utility.yul\":17923:17933   */\n      dup4\n        /* \"#utility.yul\":17919:17937   */\n      mul\n        /* \"#utility.yul\":17958:18055   */\n      tag_471\n        /* \"#utility.yul\":17988:18054   */\n      0xffffffffffffffffffffffffffffffffffffffffffffffffffffffffffffffff\n        /* \"#utility.yul\":17977:17986   */\n      dup3\n        /* \"#utility.yul\":17958:18055   */\n      tag_297\n      jump\t// in\n    tag_471:\n        /* \"#utility.yul\":18076:18115   */\n      tag_472\n        /* \"#utility.yul\":18106:18114   */\n      dup7\n        /* \"#utility.yul\":18095:18104   */\n      dup4\n        /* \"#utility.yul\":18076:18115   */\n      tag_297\n      jump\t// in\n    tag_472:\n        /* \"#utility.yul\":18064:18115   */\n      swap6\n      pop\n        /* \"#utility.yul\":18148:18152   */\n      dup1\n        /* \"#utility.yul\":18144:18153   */\n      not\n        /* \"#utility.yul\":18137:18142   */\n      dup5\n        /* \"#utility.yul\":18133:18154   */\n      and\n        /* \"#utility.yul\":18124:18154   */\n      swap4\n      pop\n        /* \"#utility.yul\":18197:18201   */\n      dup1\n        /* \"#utility.yul\":18187:18195   */\n      dup7\n        /* \"#utility.yul\":18183:18202   */\n      and\n        /* \"#utility.yul\":18176:18181   */\n      dup5\n        /* \"#utility.yul\":18173:18203   */\n      or\n        /* \"#utility.yul\":18163:18203   */\n      swap3\n      pop\n        /* \"#utility.yul\":17892:18209   */\n      pop\n      pop\n        /* \"#utility.yul\":17816:18209   */\n      swap4\n      swap3\n      pop\n      pop\n      pop\n      jump\t// out\n        /* \"#utility.yul\":18215:18275   */\n    tag_299:\n        /* \"#utility.yul\":18243:18246   */\n      0x00\n        /* \"#utility.yul\":18264:18269   */\n      dup2\n        /* \"#utility.yul\":18257:18269   */\n      swap1\n      pop\n        /* \"#utility.yul\":18215:18275   */\n      swap2\n      swap1\n      pop\n      jump\t// out\n        /* \"#utility.yul\":18281:18423   */\n    tag_300:\n        /* \"#utility.yul\":18331:18340   */\n      0x00\n        /* \"#utility.yul\":18364:18417   */\n      tag_475\n        /* \"#utility.yul\":18382:18416   */\n      tag_476\n        /* \"#utility.yul\":18391:18415   */\n      tag_477\n        /* \"#utility.yul\":18409:18414   */\n      dup5\n        /* \"#utility.yul\":18391:18415   */\n      tag_262\n      jump\t// in\n    tag_477:\n        /* \"#utility.yul\":18382:18416   */\n      tag_299\n      jump\t// in\n    tag_476:\n        /* \"#utility.yul\":18364:18417   */\n      tag_262\n      jump\t// in\n    tag_475:\n        /* \"#utility.yul\":18351:18417   */\n      swap1\n      pop\n        /* \"#utility.yul\":18281:18423   */\n      swap2\n      swap1\n      pop\n      jump\t// out\n        /* \"#utility.yul\":18429:18504   */\n    tag_301:\n        /* \"#utility.yul\":18472:18475   */\n      0x00\n        /* \"#utility.yul\":18493:18498   */\n      dup2\n        /* \"#utility.yul\":18486:18498   */\n      swap1\n      pop\n        /* \"#utility.yul\":18429:18504   */\n      swap2\n      swap1\n      pop\n      jump\t// out\n        /* \"#utility.yul\":18510:18779   */\n    tag_302:\n        /* \"#utility.yul\":18620:18659   */\n      tag_480\n        /* \"#utility.yul\":18651:18658   */\n      dup4\n        /* \"#utility.yul\":18620:18659   */\n      tag_300\n      jump\t// in\n    tag_480:\n        /* \"#utility.yul\":18681:18772   */\n      tag_481\n        /* \"#utility.yul\":18730:18771   */\n      tag_482\n        /* \"#utility.yul\":18754:18770   */\n      dup3\n        /* \"#utility.yul\":18730:18771   */\n      tag_301\n      jump\t// in\n    tag_482:\n        /* \"#utility.yul\":18722:18728   */\n      dup5\n        /* \"#utility.yul\":18715:18719   */\n      dup5\n        /* \"#utility.yul\":18709:18720   */\n      sload\n        /* \"#utility.yul\":18681:18772   */\n      tag_298\n      jump\t// in\n    tag_481:\n        /* \"#utility.yul\":18675:18679   */\n      dup3\n        /* \"#utility.yul\":18668:18773   */\n      sstore\n        /* \"#utility.yul\":18586:18779   */\n      pop\n        /* \"#utility.yul\":18510:18779   */\n      pop\n      pop\n      pop\n      jump\t// out\n        /* \"#utility.yul\":18785:18858   */\n    tag_303:\n        /* \"#utility.yul\":18830:18833   */\n      0x00\n        /* \"#utility.yul\":18785:18858   */\n      swap1\n      jump\t// out\n        /* \"#utility.yul\":18864:19053   */\n    tag_304:\n        /* \"#utility.yul\":18941:18973   */\n      tag_485\n      tag_303\n      jump\t// in\n    tag_485:\n        /* \"#utility.yul\":18982:19047   */\n      tag_486\n        /* \"#utility.yul\":19040:19046   */\n      dup2\n        /* \"#utility.yul\":19032:19038   */\n      dup5\n        /* \"#utility.yul\":19026:19030   */\n      dup5\n        /* \"#utility.yul\":18982:19047   */\n      tag_302\n      jump\t// in\n    tag_486:\n        /* \"#utility.yul\":18917:19053   */\n      pop\n        /* \"#utility.yul\":18864:19053   */\n      pop\n      pop\n      jump\t// out\n        /* \"#utility.yul\":19059:19245   */\n    tag_305:\n        /* \"#utility.yul\":19119:19239   */\n    tag_488:\n        /* \"#utility.yul\":19136:19139   */\n      dup2\n        /* \"#utility.yul\":19129:19134   */\n      dup2\n        /* \"#utility.yul\":19126:19140   */\n      lt\n        /* \"#utility.yul\":19119:19239   */\n      iszero\n      tag_490\n      jumpi\n        /* \"#utility.yul\":19190:19229   */\n      tag_491\n        /* \"#utility.yul\":19227:19228   */\n      0x00\n        /* \"#utility.yul\":19220:19225   */\n      dup3\n        /* \"#utility.yul\":19190:19229   */\n      tag_304\n      jump\t// in\n    tag_491:\n        /* \"#utility.yul\":19163:19164   */\n      0x01\n        /* \"#utility.yul\":19156:19161   */\n      dup2\n        /* \"#utility.yul\":19152:19165   */\n      add\n        /* \"#utility.yul\":19143:19165   */\n      swap1\n      pop\n        /* \"#utility.yul\":19119:19239   */\n      jump(tag_488)\n    tag_490:\n        /* \"#utility.yul\":19059:19245   */\n      pop\n      pop\n      jump\t// out\n        /* \"#utility.yul\":19251:19794   */\n    tag_306:\n        /* \"#utility.yul\":19352:19354   */\n      0x1f\n        /* \"#utility.yul\":19347:19350   */\n      dup3\n        /* \"#utility.yul\":19344:19355   */\n      gt\n        /* \"#utility.yul\":19341:19787   */\n      iszero\n      tag_493\n      jumpi\n        /* \"#utility.yul\":19386:19424   */\n      tag_494\n        /* \"#utility.yul\":19418:19423   */\n      dup2\n        /* \"#utility.yul\":19386:19424   */\n      tag_295\n      jump\t// in\n    tag_494:\n        /* \"#utility.yul\":19470:19499   */\n      tag_495\n        /* \"#utility.yul\":19488:19498   */\n      dup5\n        /* \"#utility.yul\":19470:19499   */\n      tag_296\n      jump\t// in\n    tag_495:\n        /* \"#utility.yul\":19460:19468   */\n      dup2\n        /* \"#utility.yul\":19456:19500   */\n      add\n        /* \"#utility.yul\":19653:19655   */\n      0x20\n        /* \"#utility.yul\":19641:19651   */\n      dup6\n        /* \"#utility.yul\":19638:19656   */\n      lt\n        /* \"#utility.yul\":19635:19684   */\n      iszero\n      tag_496\n      jumpi\n        /* \"#utility.yul\":19674:19682   */\n      dup2\n        /* \"#utility.yul\":19659:19682   */\n      swap1\n      pop\n        /* \"#utility.yul\":19635:19684   */\n    tag_496:\n        /* \"#utility.yul\":19697:19777   */\n      tag_497\n        /* \"#utility.yul\":19753:19775   */\n      tag_498\n        /* \"#utility.yul\":19771:19774   */\n      dup6\n        /* \"#utility.yul\":19753:19775   */\n      tag_296\n      jump\t// in\n    tag_498:\n        /* \"#utility.yul\":19743:19751   */\n      dup4\n        /* \"#utility.yul\":19739:19776   */\n      add\n        /* \"#utility.yul\":19726:19737   */\n      dup3\n        /* \"#utility.yul\":19697:19777   */\n      tag_305\n      jump\t// in\n    tag_497:\n        /* \"#utility.yul\":19356:19787   */\n      pop\n      pop\n        /* \"#utility.yul\":19341:19787   */\n    tag_493:\n        /* \"#utility.yul\":19251:19794   */\n      pop\n      pop\n      pop\n      jump\t// out\n        /* \"#utility.yul\":19800:19917   */\n    tag_307:\n        /* \"#utility.yul\":19854:19862   */\n      0x00\n        /* \"#utility.yul\":19904:19909   */\n      dup3\n        /* \"#utility.yul\":19898:19902   */\n      dup3\n        /* \"#utility.yul\":19894:19910   */\n      shr\n        /* \"#utility.yul\":19873:19910   */\n      swap1\n      pop\n        /* \"#utility.yul\":19800:19917   */\n      swap3\n      swap2\n      pop\n      pop\n      jump\t// out\n        /* \"#utility.yul\":19923:20092   */\n    tag_308:\n        /* \"#utility.yul\":19967:19973   */\n      0x00\n        /* \"#utility.yul\":20000:20051   */\n      tag_501\n        /* \"#utility.yul\":20048:20049   */\n      0x00\n        /* \"#utility.yul\":20044:20050   */\n      not\n        /* \"#utility.yul\":20036:20041   */\n      dup5\n        /* \"#utility.yul\":20033:20034   */\n      0x08\n        /* \"#utility.yul\":20029:20042   */\n      mul\n        /* \"#utility.yul\":20000:20051   */\n      tag_307\n      jump\t// in\n    tag_501:\n        /* \"#utility.yul\":19996:20052   */\n      not\n        /* \"#utility.yul\":20081:20085   */\n      dup1\n        /* \"#utility.yul\":20075:20079   */\n      dup4\n        /* \"#utility.yul\":20071:20086   */\n      and\n        /* \"#utility.yul\":20061:20086   */\n      swap2\n      pop\n        /* \"#utility.yul\":19974:20092   */\n      pop\n        /* \"#utility.yul\":19923:20092   */\n      swap3\n      swap2\n      pop\n      pop\n      jump\t// out\n        /* \"#utility.yul\":20097:20392   */\n    tag_309:\n        /* \"#utility.yul\":20173:20177   */\n      0x00\n        /* \"#utility.yul\":20319:20348   */\n      tag_503\n        /* \"#utility.yul\":20344:20347   */\n      dup4\n        /* \"#utility.yul\":20338:20342   */\n      dup4\n        /* \"#utility.yul\":20319:20348   */\n      tag_308\n      jump\t// in\n    tag_503:\n        /* \"#utility.yul\":20311:20348   */\n      swap2\n      pop\n        /* \"#utility.yul\":20381:20384   */\n      dup3\n        /* \"#utility.yul\":20378:20379   */\n      0x02\n        /* \"#utility.yul\":20374:20385   */\n      mul\n        /* \"#utility.yul\":20368:20372   */\n      dup3\n        /* \"#utility.yul\":20365:20386   */\n      or\n        /* \"#utility.yul\":20357:20386   */\n      swap1\n      pop\n        /* \"#utility.yul\":20097:20392   */\n      swap3\n      swap2\n      pop\n      pop\n      jump\t// out\n        /* \"#utility.yul\":20397:21792   */\n    tag_128:\n        /* \"#utility.yul\":20514:20551   */\n      tag_505\n        /* \"#utility.yul\":20547:20550   */\n      dup3\n        /* \"#utility.yul\":20514:20551   */\n      tag_266\n      jump\t// in\n    tag_505:\n        /* \"#utility.yul\":20616:20634   */\n      0xffffffffffffffff\n        /* \"#utility.yul\":20608:20614   */\n      dup2\n        /* \"#utility.yul\":20605:20635   */\n      gt\n        /* \"#utility.yul\":20602:20658   */\n      iszero\n      tag_506\n      jumpi\n        /* \"#utility.yul\":20638:20656   */\n      tag_507\n      tag_172\n      jump\t// in\n    tag_507:\n        /* \"#utility.yul\":20602:20658   */\n    tag_506:\n        /* \"#utility.yul\":20682:20720   */\n      tag_508\n        /* \"#utility.yul\":20714:20718   */\n      dup3\n        /* \"#utility.yul\":20708:20719   */\n      sload\n        /* \"#utility.yul\":20682:20720   */\n      tag_54\n      jump\t// in\n    tag_508:\n        /* \"#utility.yul\":20767:20834   */\n      tag_509\n        /* \"#utility.yul\":20827:20833   */\n      dup3\n        /* \"#utility.yul\":20819:20825   */\n      dup3\n        /* \"#utility.yul\":20813:20817   */\n      dup6\n        /* \"#utility.yul\":20767:20834   */\n      tag_306\n      jump\t// in\n    tag_509:\n        /* \"#utility.yul\":20861:20862   */\n      0x00\n        /* \"#utility.yul\":20885:20889   */\n      0x20\n        /* \"#utility.yul\":20872:20889   */\n      swap1\n      pop\n        /* \"#utility.yul\":20917:20919   */\n      0x1f\n        /* \"#utility.yul\":20909:20915   */\n      dup4\n        /* \"#utility.yul\":20906:20920   */\n      gt\n        /* \"#utility.yul\":20934:20935   */\n      0x01\n        /* \"#utility.yul\":20929:21547   */\n      dup2\n      eq\n      tag_511\n      jumpi\n        /* \"#utility.yul\":21591:21592   */\n      0x00\n        /* \"#utility.yul\":21608:21614   */\n      dup5\n        /* \"#utility.yul\":21605:21682   */\n      iszero\n      tag_512\n      jumpi\n        /* \"#utility.yul\":21657:21666   */\n      dup3\n        /* \"#utility.yul\":21652:21655   */\n      dup8\n        /* \"#utility.yul\":21648:21667   */\n      add\n        /* \"#utility.yul\":21642:21668   */\n      mload\n        /* \"#utility.yul\":21633:21668   */\n      swap1\n      pop\n        /* \"#utility.yul\":21605:21682   */\n    tag_512:\n        /* \"#utility.yul\":21708:21775   */\n      tag_513\n        /* \"#utility.yul\":21768:21774   */\n      dup6\n        /* \"#utility.yul\":21761:21766   */\n      dup3\n        /* \"#utility.yul\":21708:21775   */\n      tag_309\n      jump\t// in\n    tag_513:\n        /* \"#utility.yul\":21702:21706   */\n      dup7\n        /* \"#utility.yul\":21695:21776   */\n      sstore\n        /* \"#utility.yul\":21564:21786   */\n      pop\n        /* \"#utility.yul\":20899:21786   */\n      jump(tag_510)\n        /* \"#utility.yul\":20929:21547   */\n    tag_511:\n        /* \"#utility.yul\":20981:20985   */\n      0x1f\n        /* \"#utility.yul\":20977:20986   */\n      not\n        /* \"#utility.yul\":20969:20975   */\n      dup5\n        /* \"#utility.yul\":20965:20987   */\n      and\n        /* \"#utility.yul\":21015:21052   */\n      tag_514\n        /* \"#utility.yul\":21047:21051   */\n      dup7\n        /* \"#utility.yul\":21015:21052   */\n      tag_295\n      jump\t// in\n    tag_514:\n        /* \"#utility.yul\":21074:21075   */\n      0x00\n        /* \"#utility.yul\":21088:21296   */\n    tag_515:\n        /* \"#utility.yul\":21102:21109   */\n      dup3\n        /* \"#utility.yul\":21099:21100   */\n      dup2\n        /* \"#utility.yul\":21096:21110   */\n      lt\n        /* \"#utility.yul\":21088:21296   */\n      iszero\n      tag_517\n      jumpi\n        /* \"#utility.yul\":21181:21190   */\n      dup5\n        /* \"#utility.yul\":21176:21179   */\n      dup10\n        /* \"#utility.yul\":21172:21191   */\n      add\n        /* \"#utility.yul\":21166:21192   */\n      mload\n        /* \"#utility.yul\":21158:21164   */\n      dup3\n        /* \"#utility.yul\":21151:21193   */\n      sstore\n        /* \"#utility.yul\":21232:21233   */\n      0x01\n        /* \"#utility.yul\":21224:21230   */\n      dup3\n        /* \"#utility.yul\":21220:21234   */\n      add\n        /* \"#utility.yul\":21210:21234   */\n      swap2\n      pop\n        /* \"#utility.yul\":21279:21281   */\n      0x20\n        /* \"#utility.yul\":21268:21277   */\n      dup6\n        /* \"#utility.yul\":21264:21282   */\n      add\n        /* \"#utility.yul\":21251:21282   */\n      swap5\n      pop\n        /* \"#utility.yul\":21125:21129   */\n      0x20\n        /* \"#utility.yul\":21122:21123   */\n      dup2\n        /* \"#utility.yul\":21118:21130   */\n      add\n        /* \"#utility.yul\":21113:21130   */\n      swap1\n      pop\n        /* \"#utility.yul\":21088:21296   */\n      jump(tag_515)\n    tag_517:\n        /* \"#utility.yul\":21324:21330   */\n      dup7\n        /* \"#utility.yul\":21315:21322   */\n      dup4\n        /* \"#utility.yul\":21312:21331   */\n      lt\n        /* \"#utility.yul\":21309:21488   */\n      iszero\n      tag_518\n      jumpi\n        /* \"#utility.yul\":21382:21391   */\n      dup5\n        /* \"#utility.yul\":21377:21380   */\n      dup10\n        /* \"#utility.yul\":21373:21392   */\n      add\n        /* \"#utility.yul\":21367:21393   */\n      mload\n        /* \"#utility.yul\":21425:21473   */\n      tag_519\n        /* \"#utility.yul\":21467:21471   */\n      0x1f\n        /* \"#utility.yul\":21459:21465   */\n      dup10\n        /* \"#utility.yul\":21455:21472   */\n      and\n        /* \"#utility.yul\":21444:21453   */\n      dup3\n        /* \"#utility.yul\":21425:21473   */\n      tag_308\n      jump\t// in\n    tag_519:\n        /* \"#utility.yul\":21417:21423   */\n      dup4\n        /* \"#utility.yul\":21410:21474   */\n      sstore\n        /* \"#utility.yul\":21332:21488   */\n      pop\n        /* \"#utility.yul\":21309:21488   */\n    tag_518:\n        /* \"#utility.yul\":21534:21535   */\n      0x01\n        /* \"#utility.yul\":21530:21531   */\n      0x02\n        /* \"#utility.yul\":21522:21528   */\n      dup9\n        /* \"#utility.yul\":21518:21532   */\n      mul\n        /* \"#utility.yul\":21514:21536   */\n      add\n        /* \"#utility.yul\":21508:21512   */\n      dup9\n        /* \"#utility.yul\":21501:21537   */\n      sstore\n        /* \"#utility.yul\":20936:21547   */\n      pop\n      pop\n      pop\n        /* \"#utility.yul\":20899:21786   */\n    tag_510:\n      pop\n        /* \"#utility.yul\":20489:21792   */\n      pop\n      pop\n      pop\n        /* \"#utility.yul\":20397:21792   */\n      pop\n      pop\n      jump\t// out\n        /* \"#utility.yul\":21798:22031   */\n    tag_135:\n        /* \"#utility.yul\":21837:21840   */\n      0x00\n        /* \"#utility.yul\":21860:21884   */\n      tag_521\n        /* \"#utility.yul\":21878:21883   */\n      dup3\n        /* \"#utility.yul\":21860:21884   */\n      tag_262\n      jump\t// in\n    tag_521:\n        /* \"#utility.yul\":21851:21884   */\n      swap2\n      pop\n        /* \"#utility.yul\":21906:21972   */\n      0xffffffffffffffffffffffffffffffffffffffffffffffffffffffffffffffff\n        /* \"#utility.yul\":21899:21904   */\n      dup3\n        /* \"#utility.yul\":21896:21973   */\n      sub\n        /* \"#utility.yul\":21893:21996   */\n      tag_522\n      jumpi\n        /* \"#utility.yul\":21976:21994   */\n      tag_523\n      tag_290\n      jump\t// in\n    tag_523:\n        /* \"#utility.yul\":21893:21996   */\n    tag_522:\n        /* \"#utility.yul\":22023:22024   */\n      0x01\n        /* \"#utility.yul\":22016:22021   */\n      dup3\n        /* \"#utility.yul\":22012:22025   */\n      add\n        /* \"#utility.yul\":22005:22025   */\n      swap1\n      pop\n        /* \"#utility.yul\":21798:22031   */\n      swap2\n      swap1\n      pop\n      jump\t// out\n        /* \"#utility.yul\":22037:22231   */\n    tag_196:\n        /* \"#utility.yul\":22077:22081   */\n      0x00\n        /* \"#utility.yul\":22097:22117   */\n      tag_525\n        /* \"#utility.yul\":22115:22116   */\n      dup3\n        /* \"#utility.yul\":22097:22117   */\n      tag_262\n      jump\t// in\n    tag_525:\n        /* \"#utility.yul\":22092:22117   */\n      swap2\n      pop\n        /* \"#utility.yul\":22131:22151   */\n      tag_526\n        /* \"#utility.yul\":22149:22150   */\n      dup4\n        /* \"#utility.yul\":22131:22151   */\n      tag_262\n      jump\t// in\n    tag_526:\n        /* \"#utility.yul\":22126:22151   */\n      swap3\n      pop\n        /* \"#utility.yul\":22175:22176   */\n      dup3\n        /* \"#utility.yul\":22172:22173   */\n      dup3\n        /* \"#utility.yul\":22168:22177   */\n      sub\n        /* \"#utility.yul\":22160:22177   */\n      swap1\n      pop\n        /* \"#utility.yul\":22199:22200   */\n      dup2\n        /* \"#utility.yul\":22193:22197   */\n      dup2\n        /* \"#utility.yul\":22190:22201   */\n      gt\n        /* \"#utility.yul\":22187:22224   */\n      iszero\n      tag_527\n      jumpi\n        /* \"#utility.yul\":22204:22222   */\n      tag_528\n      tag_290\n      jump\t// in\n    tag_528:\n        /* \"#utility.yul\":22187:22224   */\n    tag_527:\n        /* \"#utility.yul\":22037:22231   */\n      swap3\n      swap2\n      pop\n      pop\n      jump\t// out\n        /* \"#utility.yul\":22261:23135   */\n    tag_310:\n        /* \"#utility.yul\":22364:22367   */\n      0x00\n        /* \"#utility.yul\":22401:22406   */\n      dup2\n        /* \"#utility.yul\":22395:22407   */\n      sload\n        /* \"#utility.yul\":22430:22466   */\n      tag_530\n        /* \"#utility.yul\":22456:22465   */\n      dup2\n        /* \"#utility.yul\":22430:22466   */\n      tag_54\n      jump\t// in\n    tag_530:\n        /* \"#utility.yul\":22482:22571   */\n      tag_531\n        /* \"#utility.yul\":22564:22570   */\n      dup2\n        /* \"#utility.yul\":22559:22562   */\n      dup7\n        /* \"#utility.yul\":22482:22571   */\n      tag_291\n      jump\t// in\n    tag_531:\n        /* \"#utility.yul\":22475:22571   */\n      swap5\n      pop\n        /* \"#utility.yul\":22602:22603   */\n      0x01\n        /* \"#utility.yul\":22591:22600   */\n      dup3\n        /* \"#utility.yul\":22587:22604   */\n      and\n        /* \"#utility.yul\":22618:22619   */\n      0x00\n        /* \"#utility.yul\":22613:22779   */\n      dup2\n      eq\n      tag_533\n      jumpi\n        /* \"#utility.yul\":22793:22794   */\n      0x01\n        /* \"#utility.yul\":22788:23129   */\n      dup2\n      eq\n      tag_534\n      jumpi\n        /* \"#utility.yul\":22580:23129   */\n      jump(tag_532)\n        /* \"#utility.yul\":22613:22779   */\n    tag_533:\n        /* \"#utility.yul\":22697:22701   */\n      0xff\n        /* \"#utility.yul\":22693:22702   */\n      not\n        /* \"#utility.yul\":22682:22691   */\n      dup4\n        /* \"#utility.yul\":22678:22703   */\n      and\n        /* \"#utility.yul\":22673:22676   */\n      dup7\n        /* \"#utility.yul\":22666:22704   */\n      mstore\n        /* \"#utility.yul\":22759:22765   */\n      dup2\n        /* \"#utility.yul\":22752:22766   */\n      iszero\n        /* \"#utility.yul\":22745:22767   */\n      iszero\n        /* \"#utility.yul\":22737:22743   */\n      dup3\n        /* \"#utility.yul\":22733:22768   */\n      mul\n        /* \"#utility.yul\":22728:22731   */\n      dup7\n        /* \"#utility.yul\":22724:22769   */\n      add\n        /* \"#utility.yul\":22717:22769   */\n      swap4\n      pop\n        /* \"#utility.yul\":22613:22779   */\n      jump(tag_532)\n        /* \"#utility.yul\":22788:23129   */\n    tag_534:\n        /* \"#utility.yul\":22855:22893   */\n      tag_535\n        /* \"#utility.yul\":22887:22892   */\n      dup6\n        /* \"#utility.yul\":22855:22893   */\n      tag_295\n      jump\t// in\n    tag_535:\n        /* \"#utility.yul\":22915:22916   */\n      0x00\n        /* \"#utility.yul\":22929:23083   */\n    tag_536:\n        /* \"#utility.yul\":22943:22949   */\n      dup4\n        /* \"#utility.yul\":22940:22941   */\n      dup2\n        /* \"#utility.yul\":22937:22950   */\n      lt\n        /* \"#utility.yul\":22929:23083   */\n      iszero\n      tag_538\n      jumpi\n        /* \"#utility.yul\":23017:23024   */\n      dup2\n        /* \"#utility.yul\":23011:23025   */\n      sload\n        /* \"#utility.yul\":23007:23008   */\n      dup2\n        /* \"#utility.yul\":23002:23005   */\n      dup10\n        /* \"#utility.yul\":22998:23009   */\n      add\n        /* \"#utility.yul\":22991:23026   */\n      mstore\n        /* \"#utility.yul\":23067:23068   */\n      0x01\n        /* \"#utility.yul\":23058:23065   */\n      dup3\n        /* \"#utility.yul\":23054:23069   */\n      add\n        /* \"#utility.yul\":23043:23069   */\n      swap2\n      pop\n        /* \"#utility.yul\":22965:22969   */\n      0x20\n        /* \"#utility.yul\":22962:22963   */\n      dup2\n        /* \"#utility.yul\":22958:22970   */\n      add\n        /* \"#utility.yul\":22953:22970   */\n      swap1\n      pop\n        /* \"#utility.yul\":22929:23083   */\n      jump(tag_536)\n    tag_538:\n        /* \"#utility.yul\":23112:23118   */\n      dup4\n        /* \"#utility.yul\":23107:23110   */\n      dup9\n        /* \"#utility.yul\":23103:23119   */\n      add\n        /* \"#utility.yul\":23096:23119   */\n      swap6\n      pop\n        /* \"#utility.yul\":22795:23129   */\n      pop\n      pop\n        /* \"#utility.yul\":22580:23129   */\n    tag_532:\n      pop\n        /* \"#utility.yul\":22368:23135   */\n      pop\n      pop\n        /* \"#utility.yul\":22261:23135   */\n      swap3\n      swap2\n      pop\n      pop\n      jump\t// out\n        /* \"#utility.yul\":23141:23410   */\n    tag_206:\n        /* \"#utility.yul\":23270:23273   */\n      0x00\n        /* \"#utility.yul\":23292:23384   */\n      tag_540\n        /* \"#utility.yul\":23380:23383   */\n      dup3\n        /* \"#utility.yul\":23371:23377   */\n      dup5\n        /* \"#utility.yul\":23292:23384   */\n      tag_310\n      jump\t// in\n    tag_540:\n        /* \"#utility.yul\":23285:23384   */\n      swap2\n      pop\n        /* \"#utility.yul\":23401:23404   */\n      dup2\n        /* \"#utility.yul\":23394:23404   */\n      swap1\n      pop\n        /* \"#utility.yul\":23141:23410   */\n      swap3\n      swap2\n      pop\n      pop\n      jump\t// out\n        /* \"#utility.yul\":23416:23596   */\n    tag_311:\n        /* \"#utility.yul\":23464:23541   */\n      0x4e487b7100000000000000000000000000000000000000000000000000000000\n        /* \"#utility.yul\":23461:23462   */\n      0x00\n        /* \"#utility.yul\":23454:23542   */\n      mstore\n        /* \"#utility.yul\":23561:23565   */\n      0x12\n        /* \"#utility.yul\":23558:23559   */\n      0x04\n        /* \"#utility.yul\":23551:23566   */\n      mstore\n        /* \"#utility.yul\":23585:23589   */\n      0x24\n        /* \"#utility.yul\":23582:23583   */\n      0x00\n        /* \"#utility.yul\":23575:23590   */\n      revert\n        /* \"#utility.yul\":23602:23787   */\n    tag_244:\n        /* \"#utility.yul\":23642:23643   */\n      0x00\n        /* \"#utility.yul\":23659:23679   */\n      tag_543\n        /* \"#utility.yul\":23677:23678   */\n      dup3\n        /* \"#utility.yul\":23659:23679   */\n      tag_262\n      jump\t// in\n    tag_543:\n        /* \"#utility.yul\":23654:23679   */\n      swap2\n      pop\n        /* \"#utility.yul\":23693:23713   */\n      tag_544\n        /* \"#utility.yul\":23711:23712   */\n      dup4\n        /* \"#utility.yul\":23693:23713   */\n      tag_262\n      jump\t// in\n    tag_544:\n        /* \"#utility.yul\":23688:23713   */\n      swap3\n      pop\n        /* \"#utility.yul\":23732:23733   */\n      dup3\n        /* \"#utility.yul\":23722:23757   */\n      tag_545\n      jumpi\n        /* \"#utility.yul\":23737:23755   */\n      tag_546\n      tag_311\n      jump\t// in\n    tag_546:\n        /* \"#utility.yul\":23722:23757   */\n    tag_545:\n        /* \"#utility.yul\":23779:23780   */\n      dup3\n        /* \"#utility.yul\":23776:23777   */\n      dup3\n        /* \"#utility.yul\":23772:23781   */\n      div\n        /* \"#utility.yul\":23767:23781   */\n      swap1\n      pop\n        /* \"#utility.yul\":23602:23787   */\n      swap3\n      swap2\n      pop\n      pop\n      jump\t// out\n\n    auxdata: 0xa2646970667358221220270872f6ff83b0b49142d5842f3d52fb4c85587862a9e6135793237932fdf95164736f6c634300081a0033\n}\n",
				"bytecode": {
					"linkReferences": {},
					"object": "60806040525f80553480156011575f80fd5b50611f0a8061001f5f395ff3fe608060405234801561000f575f80fd5b506004361061009c575f3560e01c8063b0b627af11610064578063b0b627af1461014c578063b645307d1461016a578063e581f9ee14610186578063e9e30927146101a4578063ef046ccf146101c25761009c565b806306ead22e146100a05780636635f2f3146100d857806382516a9b146100f65780639c9e966414610114578063a2d8919b14610130575b5f80fd5b6100ba60048036038101906100b591906112eb565b6101f2565b6040516100cf99989796959493929190611395565b60405180910390f35b6100e06103ce565b6040516100ed9190611617565b60405180910390f35b6100fe61052b565b60405161010b9190611617565b60405180910390f35b61012e60048036038101906101299190611763565b61063a565b005b61014a60048036038101906101459190611838565b61077f565b005b61015461088c565b6040516101619190611617565b60405180910390f35b610184600480360381019061017f91906112eb565b61099d565b005b61018e610a59565b60405161019b91906118f9565b60405180910390f35b6101ac610a5e565b6040516101b99190611617565b60405180910390f35b6101dc60048036038101906101d79190611912565b610d13565b6040516101e99190611617565b60405180910390f35b6001602052805f5260405f205f91509050805f01549080600101805461021790611986565b80601f016020809104026020016040519081016040528092919081815260200182805461024390611986565b801561028e5780601f106102655761010080835404028352916020019161028e565b820191905f5260205f20905b81548152906001019060200180831161027157829003601f168201915b5050505050908060020180546102a390611986565b80601f01602080910402602001604051908101604052809291908181526020018280546102cf90611986565b801561031a5780601f106102f15761010080835404028352916020019161031a565b820191905f5260205f20905b8154815290600101906020018083116102fd57829003601f168201915b50505050509080600301549080600401549080600501549080600601549080600701549080600801805461034d90611986565b80601f016020809104026020016040519081016040528092919081815260200182805461037990611986565b80156103c45780601f1061039b576101008083540402835291602001916103c4565b820191905f5260205f20905b8154815290600101906020018083116103a757829003601f168201915b5050505050905089565b60605f6103d9610a5e565b90505f5b8151811015610523575f6001826103f491906119e3565b90505b82518110156105155782818151811061041357610412611a16565b5b60200260200101516020015160405160200161042f9190611a7d565b6040516020818303038152906040528051906020012083838151811061045857610457611a16565b5b6020026020010151602001516040516020016104749190611a7d565b604051602081830303815290604052805190602001201115610508575f8383815181106104a4576104a3611a16565b5b602002602001015190508382815181106104c1576104c0611a16565b5b60200260200101518484815181106104dc576104db611a16565b5b6020026020010181905250808483815181106104fb576104fa611a16565b5b6020026020010181905250505b80806001019150506103f7565b5080806001019150506103dd565b508091505090565b60605f610536610a5e565b90505f5b8151811015610632575f60018261055191906119e3565b90505b8251811015610624578281815181106105705761056f611a16565b5b60200260200101515f015183838151811061058e5761058d611a16565b5b60200260200101515f01511115610617575f8383815181106105b3576105b2611a16565b5b602002602001015190508382815181106105d0576105cf611a16565b5b60200260200101518484815181106105eb576105ea611a16565b5b60200260200101819052508084838151811061060a57610609611a16565b5b6020026020010181905250505b8080600101915050610554565b50808060010191505061053a565b508091505090565b5f54871115801561064a57505f87115b610689576040517f08c379a000000000000000000000000000000000000000000000000000000000815260040161068090611add565b60405180910390fd5b5f6106958484846110cd565b90505f6106a1826110fa565b90506040518061012001604052808a81526020018981526020018881526020018781526020018681526020018581526020018481526020018381526020018281525060015f8b81526020019081526020015f205f820151815f015560208201518160010190816107119190611c98565b5060408201518160020190816107279190611c98565b50606082015181600301556080820151816004015560a0820151816005015560c0820151816006015560e082015181600701556101008201518160080190816107709190611c98565b50905050505050505050505050565b5f61078b8484846110cd565b90505f610797826110fa565b90505f808154809291906107aa90611d67565b91905055506040518061012001604052805f5481526020018981526020018881526020018781526020018681526020018581526020018481526020018381526020018281525060015f805481526020019081526020015f205f820151815f0155602082015181600101908161081f9190611c98565b5060408201518160020190816108359190611c98565b50606082015181600301556080820151816004015560a0820151816005015560c0820151816006015560e0820151816007015561010082015181600801908161087e9190611c98565b509050505050505050505050565b60605f610897610a5e565b90505f5b8151811015610995575f6001826108b291906119e3565b90505b8251811015610987578281815181106108d1576108d0611a16565b5b602002602001015160e001518383815181106108f0576108ef611a16565b5b602002602001015160e00151101561097a575f83838151811061091657610915611a16565b5b6020026020010151905083828151811061093357610932611a16565b5b602002602001015184848151811061094e5761094d611a16565b5b60200260200101819052508084838151811061096d5761096c611a16565b5b6020026020010181905250505b80806001019150506108b5565b50808060010191505061089b565b508091505090565b5f5481111580156109ad57505f81115b6109ec576040517f08c379a00000000000000000000000000000000000000000000000000000000081526004016109e390611add565b60405180910390fd5b60015f8281526020019081526020015f205f8082015f9055600182015f610a139190611209565b600282015f610a229190611209565b600382015f9055600482015f9055600582015f9055600682015f9055600782015f9055600882015f610a549190611209565b505050565b5f5481565b60605f805467ffffffffffffffff811115610a7c57610a7b61163f565b5b604051908082528060200260200182016040528015610ab557816020015b610aa2611246565b815260200190600190039081610a9a5790505b5090505f600190505b5f548111610d0b5760015f8281526020019081526020015f20604051806101200160405290815f8201548152602001600182018054610afc90611986565b80601f0160208091040260200160405190810160405280929190818152602001828054610b2890611986565b8015610b735780601f10610b4a57610100808354040283529160200191610b73565b820191905f5260205f20905b815481529060010190602001808311610b5657829003601f168201915b50505050508152602001600282018054610b8c90611986565b80601f0160208091040260200160405190810160405280929190818152602001828054610bb890611986565b8015610c035780601f10610bda57610100808354040283529160200191610c03565b820191905f5260205f20905b815481529060010190602001808311610be657829003601f168201915b505050505081526020016003820154815260200160048201548152602001600582015481526020016006820154815260200160078201548152602001600882018054610c4e90611986565b80601f0160208091040260200160405190810160405280929190818152602001828054610c7a90611986565b8015610cc55780601f10610c9c57610100808354040283529160200191610cc5565b820191905f5260205f20905b815481529060010190602001808311610ca857829003601f168201915b50505050508152505082600183610cdc9190611dae565b81518110610ced57610cec611a16565b5b60200260200101819052508080610d0390611d67565b915050610abe565b508091505090565b60605f80600190505b5f548111610dac5783604051602001610d359190611a7d565b6040516020818303038152906040528051906020012060015f8381526020019081526020015f20600101604051602001610d6f9190611e61565b6040516020818303038152906040528051906020012003610d99578180610d9590611d67565b9250505b8080610da490611d67565b915050610d1c565b505f8167ffffffffffffffff811115610dc857610dc761163f565b5b604051908082528060200260200182016040528015610e0157816020015b610dee611246565b815260200190600190039081610de65790505b5090505f80600190505b5f5481116110c15785604051602001610e249190611a7d565b6040516020818303038152906040528051906020012060015f8381526020019081526020015f20600101604051602001610e5e9190611e61565b60405160208183030381529060405280519060200120036110ae5760015f8281526020019081526020015f20604051806101200160405290815f8201548152602001600182018054610eaf90611986565b80601f0160208091040260200160405190810160405280929190818152602001828054610edb90611986565b8015610f265780601f10610efd57610100808354040283529160200191610f26565b820191905f5260205f20905b815481529060010190602001808311610f0957829003601f168201915b50505050508152602001600282018054610f3f90611986565b80601f0160208091040260200160405190810160405280929190818152602001828054610f6b90611986565b8015610fb65780601f10610f8d57610100808354040283529160200191610fb6565b820191905f5260205f20905b815481529060010190602001808311610f9957829003601f168201915b50505050508152602001600382015481526020016004820154815260200160058201548152602001600682015481526020016007820154815260200160088201805461100190611986565b80601f016020809104026020016040519081016040528092919081815260200182805461102d90611986565b80156110785780601f1061104f57610100808354040283529160200191611078565b820191905f5260205f20905b81548152906001019060200180831161105b57829003601f168201915b50505050508152505083838151811061109457611093611a16565b5b602002602001018190525081806110aa90611d67565b9250505b80806110b990611d67565b915050610e0b565b50819350505050919050565b5f60038284866110dd91906119e3565b6110e791906119e3565b6110f19190611ea4565b90509392505050565b606060088210611141576040518060400160405280600481526020017f47696f69000000000000000000000000000000000000000000000000000000008152509050611204565b60068210611186576040518060400160405280600381526020017f4b686100000000000000000000000000000000000000000000000000000000008152509050611204565b600582106111cb576040518060400160405280600a81526020017f5472756e672042696e68000000000000000000000000000000000000000000008152509050611204565b6040518060400160405280600381526020017f596575000000000000000000000000000000000000000000000000000000000081525090505b919050565b50805461121590611986565b5f825580601f106112265750611243565b601f0160209004905f5260205f2090810190611242919061128c565b5b50565b6040518061012001604052805f815260200160608152602001606081526020015f81526020015f81526020015f81526020015f81526020015f8152602001606081525090565b5b808211156112a3575f815f90555060010161128d565b5090565b5f604051905090565b5f80fd5b5f80fd5b5f819050919050565b6112ca816112b8565b81146112d4575f80fd5b50565b5f813590506112e5816112c1565b92915050565b5f60208284031215611300576112ff6112b0565b5b5f61130d848285016112d7565b91505092915050565b61131f816112b8565b82525050565b5f81519050919050565b5f82825260208201905092915050565b8281835e5f83830152505050565b5f601f19601f8301169050919050565b5f61136782611325565b611371818561132f565b935061138181856020860161133f565b61138a8161134d565b840191505092915050565b5f610120820190506113a95f83018c611316565b81810360208301526113bb818b61135d565b905081810360408301526113cf818a61135d565b90506113de6060830189611316565b6113eb6080830188611316565b6113f860a0830187611316565b61140560c0830186611316565b61141260e0830185611316565b818103610100830152611425818461135d565b90509a9950505050505050505050565b5f81519050919050565b5f82825260208201905092915050565b5f819050602082019050919050565b611467816112b8565b82525050565b5f82825260208201905092915050565b5f61148782611325565b611491818561146d565b93506114a181856020860161133f565b6114aa8161134d565b840191505092915050565b5f61012083015f8301516114cb5f86018261145e565b50602083015184820360208601526114e3828261147d565b915050604083015184820360408601526114fd828261147d565b9150506060830151611512606086018261145e565b506080830151611525608086018261145e565b5060a083015161153860a086018261145e565b5060c083015161154b60c086018261145e565b5060e083015161155e60e086018261145e565b50610100830151848203610100860152611578828261147d565b9150508091505092915050565b5f61159083836114b5565b905092915050565b5f602082019050919050565b5f6115ae82611435565b6115b8818561143f565b9350836020820285016115ca8561144f565b805f5b8581101561160557848403895281516115e68582611585565b94506115f183611598565b925060208a019950506001810190506115cd565b50829750879550505050505092915050565b5f6020820190508181035f83015261162f81846115a4565b905092915050565b5f80fd5b5f80fd5b7f4e487b71000000000000000000000000000000000000000000000000000000005f52604160045260245ffd5b6116758261134d565b810181811067ffffffffffffffff821117156116945761169361163f565b5b80604052505050565b5f6116a66112a7565b90506116b2828261166c565b919050565b5f67ffffffffffffffff8211156116d1576116d061163f565b5b6116da8261134d565b9050602081019050919050565b828183375f83830152505050565b5f611707611702846116b7565b61169d565b9050828152602081018484840111156117235761172261163b565b5b61172e8482856116e7565b509392505050565b5f82601f83011261174a57611749611637565b5b813561175a8482602086016116f5565b91505092915050565b5f805f805f805f60e0888a03121561177e5761177d6112b0565b5b5f61178b8a828b016112d7565b975050602088013567ffffffffffffffff8111156117ac576117ab6112b4565b5b6117b88a828b01611736565b965050604088013567ffffffffffffffff8111156117d9576117d86112b4565b5b6117e58a828b01611736565b95505060606117f68a828b016112d7565b94505060806118078a828b016112d7565b93505060a06118188a828b016112d7565b92505060c06118298a828b016112d7565b91505092959891949750929550565b5f805f805f8060c08789031215611852576118516112b0565b5b5f87013567ffffffffffffffff81111561186f5761186e6112b4565b5b61187b89828a01611736565b965050602087013567ffffffffffffffff81111561189c5761189b6112b4565b5b6118a889828a01611736565b95505060406118b989828a016112d7565b94505060606118ca89828a016112d7565b93505060806118db89828a016112d7565b92505060a06118ec89828a016112d7565b9150509295509295509295565b5f60208201905061190c5f830184611316565b92915050565b5f60208284031215611927576119266112b0565b5b5f82013567ffffffffffffffff811115611944576119436112b4565b5b61195084828501611736565b91505092915050565b7f4e487b71000000000000000000000000000000000000000000000000000000005f52602260045260245ffd5b5f600282049050600182168061199d57607f821691505b6020821081036119b0576119af611959565b5b50919050565b7f4e487b71000000000000000000000000000000000000000000000000000000005f52601160045260245ffd5b5f6119ed826112b8565b91506119f8836112b8565b9250828201905080821115611a1057611a0f6119b6565b5b92915050565b7f4e487b71000000000000000000000000000000000000000000000000000000005f52603260045260245ffd5b5f81905092915050565b5f611a5782611325565b611a618185611a43565b9350611a7181856020860161133f565b80840191505092915050565b5f611a888284611a4d565b915081905092915050565b7f53747564656e7420494420697320696e76616c696400000000000000000000005f82015250565b5f611ac760158361132f565b9150611ad282611a93565b602082019050919050565b5f6020820190508181035f830152611af481611abb565b9050919050565b5f819050815f5260205f209050919050565b5f6020601f8301049050919050565b5f82821b905092915050565b5f60088302611b577fffffffffffffffffffffffffffffffffffffffffffffffffffffffffffffffff82611b1c565b611b618683611b1c565b95508019841693508086168417925050509392505050565b5f819050919050565b5f611b9c611b97611b92846112b8565b611b79565b6112b8565b9050919050565b5f819050919050565b611bb583611b82565b611bc9611bc182611ba3565b848454611b28565b825550505050565b5f90565b611bdd611bd1565b611be8818484611bac565b505050565b5b81811015611c0b57611c005f82611bd5565b600181019050611bee565b5050565b601f821115611c5057611c2181611afb565b611c2a84611b0d565b81016020851015611c39578190505b611c4d611c4585611b0d565b830182611bed565b50505b505050565b5f82821c905092915050565b5f611c705f1984600802611c55565b1980831691505092915050565b5f611c888383611c61565b9150826002028217905092915050565b611ca182611325565b67ffffffffffffffff811115611cba57611cb961163f565b5b611cc48254611986565b611ccf828285611c0f565b5f60209050601f831160018114611d00575f8415611cee578287015190505b611cf88582611c7d565b865550611d5f565b601f198416611d0e86611afb565b5f5b82811015611d3557848901518255600182019150602085019450602081019050611d10565b86831015611d525784890151611d4e601f891682611c61565b8355505b6001600288020188555050505b505050505050565b5f611d71826112b8565b91507fffffffffffffffffffffffffffffffffffffffffffffffffffffffffffffffff8203611da357611da26119b6565b5b600182019050919050565b5f611db8826112b8565b9150611dc3836112b8565b9250828203905081811115611ddb57611dda6119b6565b5b92915050565b5f8154611ded81611986565b611df78186611a43565b9450600182165f8114611e115760018114611e2657611e58565b60ff1983168652811515820286019350611e58565b611e2f85611afb565b5f5b83811015611e5057815481890152600182019150602081019050611e31565b838801955050505b50505092915050565b5f611e6c8284611de1565b915081905092915050565b7f4e487b71000000000000000000000000000000000000000000000000000000005f52601260045260245ffd5b5f611eae826112b8565b9150611eb9836112b8565b925082611ec957611ec8611e77565b5b82820490509291505056fea2646970667358221220270872f6ff83b0b49142d5842f3d52fb4c85587862a9e6135793237932fdf95164736f6c634300081a0033",
					"opcodes": "PUSH1 0x80 PUSH1 0x40 MSTORE PUSH0 DUP1 SSTORE CALLVALUE DUP1 ISZERO PUSH1 0x11 JUMPI PUSH0 DUP1 REVERT JUMPDEST POP PUSH2 0x1F0A DUP1 PUSH2 0x1F PUSH0 CODECOPY PUSH0 RETURN INVALID PUSH1 0x80 PUSH1 0x40 MSTORE CALLVALUE DUP1 ISZERO PUSH2 0xF JUMPI PUSH0 DUP1 REVERT JUMPDEST POP PUSH1 0x4 CALLDATASIZE LT PUSH2 0x9C JUMPI PUSH0 CALLDATALOAD PUSH1 0xE0 SHR DUP1 PUSH4 0xB0B627AF GT PUSH2 0x64 JUMPI DUP1 PUSH4 0xB0B627AF EQ PUSH2 0x14C JUMPI DUP1 PUSH4 0xB645307D EQ PUSH2 0x16A JUMPI DUP1 PUSH4 0xE581F9EE EQ PUSH2 0x186 JUMPI DUP1 PUSH4 0xE9E30927 EQ PUSH2 0x1A4 JUMPI DUP1 PUSH4 0xEF046CCF EQ PUSH2 0x1C2 JUMPI PUSH2 0x9C JUMP JUMPDEST DUP1 PUSH4 0x6EAD22E EQ PUSH2 0xA0 JUMPI DUP1 PUSH4 0x6635F2F3 EQ PUSH2 0xD8 JUMPI DUP1 PUSH4 0x82516A9B EQ PUSH2 0xF6 JUMPI DUP1 PUSH4 0x9C9E9664 EQ PUSH2 0x114 JUMPI DUP1 PUSH4 0xA2D8919B EQ PUSH2 0x130 JUMPI JUMPDEST PUSH0 DUP1 REVERT JUMPDEST PUSH2 0xBA PUSH1 0x4 DUP1 CALLDATASIZE SUB DUP2 ADD SWAP1 PUSH2 0xB5 SWAP2 SWAP1 PUSH2 0x12EB JUMP JUMPDEST PUSH2 0x1F2 JUMP JUMPDEST PUSH1 0x40 MLOAD PUSH2 0xCF SWAP10 SWAP9 SWAP8 SWAP7 SWAP6 SWAP5 SWAP4 SWAP3 SWAP2 SWAP1 PUSH2 0x1395 JUMP JUMPDEST PUSH1 0x40 MLOAD DUP1 SWAP2 SUB SWAP1 RETURN JUMPDEST PUSH2 0xE0 PUSH2 0x3CE JUMP JUMPDEST PUSH1 0x40 MLOAD PUSH2 0xED SWAP2 SWAP1 PUSH2 0x1617 JUMP JUMPDEST PUSH1 0x40 MLOAD DUP1 SWAP2 SUB SWAP1 RETURN JUMPDEST PUSH2 0xFE PUSH2 0x52B JUMP JUMPDEST PUSH1 0x40 MLOAD PUSH2 0x10B SWAP2 SWAP1 PUSH2 0x1617 JUMP JUMPDEST PUSH1 0x40 MLOAD DUP1 SWAP2 SUB SWAP1 RETURN JUMPDEST PUSH2 0x12E PUSH1 0x4 DUP1 CALLDATASIZE SUB DUP2 ADD SWAP1 PUSH2 0x129 SWAP2 SWAP1 PUSH2 0x1763 JUMP JUMPDEST PUSH2 0x63A JUMP JUMPDEST STOP JUMPDEST PUSH2 0x14A PUSH1 0x4 DUP1 CALLDATASIZE SUB DUP2 ADD SWAP1 PUSH2 0x145 SWAP2 SWAP1 PUSH2 0x1838 JUMP JUMPDEST PUSH2 0x77F JUMP JUMPDEST STOP JUMPDEST PUSH2 0x154 PUSH2 0x88C JUMP JUMPDEST PUSH1 0x40 MLOAD PUSH2 0x161 SWAP2 SWAP1 PUSH2 0x1617 JUMP JUMPDEST PUSH1 0x40 MLOAD DUP1 SWAP2 SUB SWAP1 RETURN JUMPDEST PUSH2 0x184 PUSH1 0x4 DUP1 CALLDATASIZE SUB DUP2 ADD SWAP1 PUSH2 0x17F SWAP2 SWAP1 PUSH2 0x12EB JUMP JUMPDEST PUSH2 0x99D JUMP JUMPDEST STOP JUMPDEST PUSH2 0x18E PUSH2 0xA59 JUMP JUMPDEST PUSH1 0x40 MLOAD PUSH2 0x19B SWAP2 SWAP1 PUSH2 0x18F9 JUMP JUMPDEST PUSH1 0x40 MLOAD DUP1 SWAP2 SUB SWAP1 RETURN JUMPDEST PUSH2 0x1AC PUSH2 0xA5E JUMP JUMPDEST PUSH1 0x40 MLOAD PUSH2 0x1B9 SWAP2 SWAP1 PUSH2 0x1617 JUMP JUMPDEST PUSH1 0x40 MLOAD DUP1 SWAP2 SUB SWAP1 RETURN JUMPDEST PUSH2 0x1DC PUSH1 0x4 DUP1 CALLDATASIZE SUB DUP2 ADD SWAP1 PUSH2 0x1D7 SWAP2 SWAP1 PUSH2 0x1912 JUMP JUMPDEST PUSH2 0xD13 JUMP JUMPDEST PUSH1 0x40 MLOAD PUSH2 0x1E9 SWAP2 SWAP1 PUSH2 0x1617 JUMP JUMPDEST PUSH1 0x40 MLOAD DUP1 SWAP2 SUB SWAP1 RETURN JUMPDEST PUSH1 0x1 PUSH1 0x20 MSTORE DUP1 PUSH0 MSTORE PUSH1 0x40 PUSH0 KECCAK256 PUSH0 SWAP2 POP SWAP1 POP DUP1 PUSH0 ADD SLOAD SWAP1 DUP1 PUSH1 0x1 ADD DUP1 SLOAD PUSH2 0x217 SWAP1 PUSH2 0x1986 JUMP JUMPDEST DUP1 PUSH1 0x1F ADD PUSH1 0x20 DUP1 SWAP2 DIV MUL PUSH1 0x20 ADD PUSH1 0x40 MLOAD SWAP1 DUP2 ADD PUSH1 0x40 MSTORE DUP1 SWAP3 SWAP2 SWAP1 DUP2 DUP2 MSTORE PUSH1 0x20 ADD DUP3 DUP1 SLOAD PUSH2 0x243 SWAP1 PUSH2 0x1986 JUMP JUMPDEST DUP1 ISZERO PUSH2 0x28E JUMPI DUP1 PUSH1 0x1F LT PUSH2 0x265 JUMPI PUSH2 0x100 DUP1 DUP4 SLOAD DIV MUL DUP4 MSTORE SWAP2 PUSH1 0x20 ADD SWAP2 PUSH2 0x28E JUMP JUMPDEST DUP3 ADD SWAP2 SWAP1 PUSH0 MSTORE PUSH1 0x20 PUSH0 KECCAK256 SWAP1 JUMPDEST DUP2 SLOAD DUP2 MSTORE SWAP1 PUSH1 0x1 ADD SWAP1 PUSH1 0x20 ADD DUP1 DUP4 GT PUSH2 0x271 JUMPI DUP3 SWAP1 SUB PUSH1 0x1F AND DUP3 ADD SWAP2 JUMPDEST POP POP POP POP POP SWAP1 DUP1 PUSH1 0x2 ADD DUP1 SLOAD PUSH2 0x2A3 SWAP1 PUSH2 0x1986 JUMP JUMPDEST DUP1 PUSH1 0x1F ADD PUSH1 0x20 DUP1 SWAP2 DIV MUL PUSH1 0x20 ADD PUSH1 0x40 MLOAD SWAP1 DUP2 ADD PUSH1 0x40 MSTORE DUP1 SWAP3 SWAP2 SWAP1 DUP2 DUP2 MSTORE PUSH1 0x20 ADD DUP3 DUP1 SLOAD PUSH2 0x2CF SWAP1 PUSH2 0x1986 JUMP JUMPDEST DUP1 ISZERO PUSH2 0x31A JUMPI DUP1 PUSH1 0x1F LT PUSH2 0x2F1 JUMPI PUSH2 0x100 DUP1 DUP4 SLOAD DIV MUL DUP4 MSTORE SWAP2 PUSH1 0x20 ADD SWAP2 PUSH2 0x31A JUMP JUMPDEST DUP3 ADD SWAP2 SWAP1 PUSH0 MSTORE PUSH1 0x20 PUSH0 KECCAK256 SWAP1 JUMPDEST DUP2 SLOAD DUP2 MSTORE SWAP1 PUSH1 0x1 ADD SWAP1 PUSH1 0x20 ADD DUP1 DUP4 GT PUSH2 0x2FD JUMPI DUP3 SWAP1 SUB PUSH1 0x1F AND DUP3 ADD SWAP2 JUMPDEST POP POP POP POP POP SWAP1 DUP1 PUSH1 0x3 ADD SLOAD SWAP1 DUP1 PUSH1 0x4 ADD SLOAD SWAP1 DUP1 PUSH1 0x5 ADD SLOAD SWAP1 DUP1 PUSH1 0x6 ADD SLOAD SWAP1 DUP1 PUSH1 0x7 ADD SLOAD SWAP1 DUP1 PUSH1 0x8 ADD DUP1 SLOAD PUSH2 0x34D SWAP1 PUSH2 0x1986 JUMP JUMPDEST DUP1 PUSH1 0x1F ADD PUSH1 0x20 DUP1 SWAP2 DIV MUL PUSH1 0x20 ADD PUSH1 0x40 MLOAD SWAP1 DUP2 ADD PUSH1 0x40 MSTORE DUP1 SWAP3 SWAP2 SWAP1 DUP2 DUP2 MSTORE PUSH1 0x20 ADD DUP3 DUP1 SLOAD PUSH2 0x379 SWAP1 PUSH2 0x1986 JUMP JUMPDEST DUP1 ISZERO PUSH2 0x3C4 JUMPI DUP1 PUSH1 0x1F LT PUSH2 0x39B JUMPI PUSH2 0x100 DUP1 DUP4 SLOAD DIV MUL DUP4 MSTORE SWAP2 PUSH1 0x20 ADD SWAP2 PUSH2 0x3C4 JUMP JUMPDEST DUP3 ADD SWAP2 SWAP1 PUSH0 MSTORE PUSH1 0x20 PUSH0 KECCAK256 SWAP1 JUMPDEST DUP2 SLOAD DUP2 MSTORE SWAP1 PUSH1 0x1 ADD SWAP1 PUSH1 0x20 ADD DUP1 DUP4 GT PUSH2 0x3A7 JUMPI DUP3 SWAP1 SUB PUSH1 0x1F AND DUP3 ADD SWAP2 JUMPDEST POP POP POP POP POP SWAP1 POP DUP10 JUMP JUMPDEST PUSH1 0x60 PUSH0 PUSH2 0x3D9 PUSH2 0xA5E JUMP JUMPDEST SWAP1 POP PUSH0 JUMPDEST DUP2 MLOAD DUP2 LT ISZERO PUSH2 0x523 JUMPI PUSH0 PUSH1 0x1 DUP3 PUSH2 0x3F4 SWAP2 SWAP1 PUSH2 0x19E3 JUMP JUMPDEST SWAP1 POP JUMPDEST DUP3 MLOAD DUP2 LT ISZERO PUSH2 0x515 JUMPI DUP3 DUP2 DUP2 MLOAD DUP2 LT PUSH2 0x413 JUMPI PUSH2 0x412 PUSH2 0x1A16 JUMP JUMPDEST JUMPDEST PUSH1 0x20 MUL PUSH1 0x20 ADD ADD MLOAD PUSH1 0x20 ADD MLOAD PUSH1 0x40 MLOAD PUSH1 0x20 ADD PUSH2 0x42F SWAP2 SWAP1 PUSH2 0x1A7D JUMP JUMPDEST PUSH1 0x40 MLOAD PUSH1 0x20 DUP2 DUP4 SUB SUB DUP2 MSTORE SWAP1 PUSH1 0x40 MSTORE DUP1 MLOAD SWAP1 PUSH1 0x20 ADD KECCAK256 DUP4 DUP4 DUP2 MLOAD DUP2 LT PUSH2 0x458 JUMPI PUSH2 0x457 PUSH2 0x1A16 JUMP JUMPDEST JUMPDEST PUSH1 0x20 MUL PUSH1 0x20 ADD ADD MLOAD PUSH1 0x20 ADD MLOAD PUSH1 0x40 MLOAD PUSH1 0x20 ADD PUSH2 0x474 SWAP2 SWAP1 PUSH2 0x1A7D JUMP JUMPDEST PUSH1 0x40 MLOAD PUSH1 0x20 DUP2 DUP4 SUB SUB DUP2 MSTORE SWAP1 PUSH1 0x40 MSTORE DUP1 MLOAD SWAP1 PUSH1 0x20 ADD KECCAK256 GT ISZERO PUSH2 0x508 JUMPI PUSH0 DUP4 DUP4 DUP2 MLOAD DUP2 LT PUSH2 0x4A4 JUMPI PUSH2 0x4A3 PUSH2 0x1A16 JUMP JUMPDEST JUMPDEST PUSH1 0x20 MUL PUSH1 0x20 ADD ADD MLOAD SWAP1 POP DUP4 DUP3 DUP2 MLOAD DUP2 LT PUSH2 0x4C1 JUMPI PUSH2 0x4C0 PUSH2 0x1A16 JUMP JUMPDEST JUMPDEST PUSH1 0x20 MUL PUSH1 0x20 ADD ADD MLOAD DUP5 DUP5 DUP2 MLOAD DUP2 LT PUSH2 0x4DC JUMPI PUSH2 0x4DB PUSH2 0x1A16 JUMP JUMPDEST JUMPDEST PUSH1 0x20 MUL PUSH1 0x20 ADD ADD DUP2 SWAP1 MSTORE POP DUP1 DUP5 DUP4 DUP2 MLOAD DUP2 LT PUSH2 0x4FB JUMPI PUSH2 0x4FA PUSH2 0x1A16 JUMP JUMPDEST JUMPDEST PUSH1 0x20 MUL PUSH1 0x20 ADD ADD DUP2 SWAP1 MSTORE POP POP JUMPDEST DUP1 DUP1 PUSH1 0x1 ADD SWAP2 POP POP PUSH2 0x3F7 JUMP JUMPDEST POP DUP1 DUP1 PUSH1 0x1 ADD SWAP2 POP POP PUSH2 0x3DD JUMP JUMPDEST POP DUP1 SWAP2 POP POP SWAP1 JUMP JUMPDEST PUSH1 0x60 PUSH0 PUSH2 0x536 PUSH2 0xA5E JUMP JUMPDEST SWAP1 POP PUSH0 JUMPDEST DUP2 MLOAD DUP2 LT ISZERO PUSH2 0x632 JUMPI PUSH0 PUSH1 0x1 DUP3 PUSH2 0x551 SWAP2 SWAP1 PUSH2 0x19E3 JUMP JUMPDEST SWAP1 POP JUMPDEST DUP3 MLOAD DUP2 LT ISZERO PUSH2 0x624 JUMPI DUP3 DUP2 DUP2 MLOAD DUP2 LT PUSH2 0x570 JUMPI PUSH2 0x56F PUSH2 0x1A16 JUMP JUMPDEST JUMPDEST PUSH1 0x20 MUL PUSH1 0x20 ADD ADD MLOAD PUSH0 ADD MLOAD DUP4 DUP4 DUP2 MLOAD DUP2 LT PUSH2 0x58E JUMPI PUSH2 0x58D PUSH2 0x1A16 JUMP JUMPDEST JUMPDEST PUSH1 0x20 MUL PUSH1 0x20 ADD ADD MLOAD PUSH0 ADD MLOAD GT ISZERO PUSH2 0x617 JUMPI PUSH0 DUP4 DUP4 DUP2 MLOAD DUP2 LT PUSH2 0x5B3 JUMPI PUSH2 0x5B2 PUSH2 0x1A16 JUMP JUMPDEST JUMPDEST PUSH1 0x20 MUL PUSH1 0x20 ADD ADD MLOAD SWAP1 POP DUP4 DUP3 DUP2 MLOAD DUP2 LT PUSH2 0x5D0 JUMPI PUSH2 0x5CF PUSH2 0x1A16 JUMP JUMPDEST JUMPDEST PUSH1 0x20 MUL PUSH1 0x20 ADD ADD MLOAD DUP5 DUP5 DUP2 MLOAD DUP2 LT PUSH2 0x5EB JUMPI PUSH2 0x5EA PUSH2 0x1A16 JUMP JUMPDEST JUMPDEST PUSH1 0x20 MUL PUSH1 0x20 ADD ADD DUP2 SWAP1 MSTORE POP DUP1 DUP5 DUP4 DUP2 MLOAD DUP2 LT PUSH2 0x60A JUMPI PUSH2 0x609 PUSH2 0x1A16 JUMP JUMPDEST JUMPDEST PUSH1 0x20 MUL PUSH1 0x20 ADD ADD DUP2 SWAP1 MSTORE POP POP JUMPDEST DUP1 DUP1 PUSH1 0x1 ADD SWAP2 POP POP PUSH2 0x554 JUMP JUMPDEST POP DUP1 DUP1 PUSH1 0x1 ADD SWAP2 POP POP PUSH2 0x53A JUMP JUMPDEST POP DUP1 SWAP2 POP POP SWAP1 JUMP JUMPDEST PUSH0 SLOAD DUP8 GT ISZERO DUP1 ISZERO PUSH2 0x64A JUMPI POP PUSH0 DUP8 GT JUMPDEST PUSH2 0x689 JUMPI PUSH1 0x40 MLOAD PUSH32 0x8C379A000000000000000000000000000000000000000000000000000000000 DUP2 MSTORE PUSH1 0x4 ADD PUSH2 0x680 SWAP1 PUSH2 0x1ADD JUMP JUMPDEST PUSH1 0x40 MLOAD DUP1 SWAP2 SUB SWAP1 REVERT JUMPDEST PUSH0 PUSH2 0x695 DUP5 DUP5 DUP5 PUSH2 0x10CD JUMP JUMPDEST SWAP1 POP PUSH0 PUSH2 0x6A1 DUP3 PUSH2 0x10FA JUMP JUMPDEST SWAP1 POP PUSH1 0x40 MLOAD DUP1 PUSH2 0x120 ADD PUSH1 0x40 MSTORE DUP1 DUP11 DUP2 MSTORE PUSH1 0x20 ADD DUP10 DUP2 MSTORE PUSH1 0x20 ADD DUP9 DUP2 MSTORE PUSH1 0x20 ADD DUP8 DUP2 MSTORE PUSH1 0x20 ADD DUP7 DUP2 MSTORE PUSH1 0x20 ADD DUP6 DUP2 MSTORE PUSH1 0x20 ADD DUP5 DUP2 MSTORE PUSH1 0x20 ADD DUP4 DUP2 MSTORE PUSH1 0x20 ADD DUP3 DUP2 MSTORE POP PUSH1 0x1 PUSH0 DUP12 DUP2 MSTORE PUSH1 0x20 ADD SWAP1 DUP2 MSTORE PUSH1 0x20 ADD PUSH0 KECCAK256 PUSH0 DUP3 ADD MLOAD DUP2 PUSH0 ADD SSTORE PUSH1 0x20 DUP3 ADD MLOAD DUP2 PUSH1 0x1 ADD SWAP1 DUP2 PUSH2 0x711 SWAP2 SWAP1 PUSH2 0x1C98 JUMP JUMPDEST POP PUSH1 0x40 DUP3 ADD MLOAD DUP2 PUSH1 0x2 ADD SWAP1 DUP2 PUSH2 0x727 SWAP2 SWAP1 PUSH2 0x1C98 JUMP JUMPDEST POP PUSH1 0x60 DUP3 ADD MLOAD DUP2 PUSH1 0x3 ADD SSTORE PUSH1 0x80 DUP3 ADD MLOAD DUP2 PUSH1 0x4 ADD SSTORE PUSH1 0xA0 DUP3 ADD MLOAD DUP2 PUSH1 0x5 ADD SSTORE PUSH1 0xC0 DUP3 ADD MLOAD DUP2 PUSH1 0x6 ADD SSTORE PUSH1 0xE0 DUP3 ADD MLOAD DUP2 PUSH1 0x7 ADD SSTORE PUSH2 0x100 DUP3 ADD MLOAD DUP2 PUSH1 0x8 ADD SWAP1 DUP2 PUSH2 0x770 SWAP2 SWAP1 PUSH2 0x1C98 JUMP JUMPDEST POP SWAP1 POP POP POP POP POP POP POP POP POP POP POP JUMP JUMPDEST PUSH0 PUSH2 0x78B DUP5 DUP5 DUP5 PUSH2 0x10CD JUMP JUMPDEST SWAP1 POP PUSH0 PUSH2 0x797 DUP3 PUSH2 0x10FA JUMP JUMPDEST SWAP1 POP PUSH0 DUP1 DUP2 SLOAD DUP1 SWAP3 SWAP2 SWAP1 PUSH2 0x7AA SWAP1 PUSH2 0x1D67 JUMP JUMPDEST SWAP2 SWAP1 POP SSTORE POP PUSH1 0x40 MLOAD DUP1 PUSH2 0x120 ADD PUSH1 0x40 MSTORE DUP1 PUSH0 SLOAD DUP2 MSTORE PUSH1 0x20 ADD DUP10 DUP2 MSTORE PUSH1 0x20 ADD DUP9 DUP2 MSTORE PUSH1 0x20 ADD DUP8 DUP2 MSTORE PUSH1 0x20 ADD DUP7 DUP2 MSTORE PUSH1 0x20 ADD DUP6 DUP2 MSTORE PUSH1 0x20 ADD DUP5 DUP2 MSTORE PUSH1 0x20 ADD DUP4 DUP2 MSTORE PUSH1 0x20 ADD DUP3 DUP2 MSTORE POP PUSH1 0x1 PUSH0 DUP1 SLOAD DUP2 MSTORE PUSH1 0x20 ADD SWAP1 DUP2 MSTORE PUSH1 0x20 ADD PUSH0 KECCAK256 PUSH0 DUP3 ADD MLOAD DUP2 PUSH0 ADD SSTORE PUSH1 0x20 DUP3 ADD MLOAD DUP2 PUSH1 0x1 ADD SWAP1 DUP2 PUSH2 0x81F SWAP2 SWAP1 PUSH2 0x1C98 JUMP JUMPDEST POP PUSH1 0x40 DUP3 ADD MLOAD DUP2 PUSH1 0x2 ADD SWAP1 DUP2 PUSH2 0x835 SWAP2 SWAP1 PUSH2 0x1C98 JUMP JUMPDEST POP PUSH1 0x60 DUP3 ADD MLOAD DUP2 PUSH1 0x3 ADD SSTORE PUSH1 0x80 DUP3 ADD MLOAD DUP2 PUSH1 0x4 ADD SSTORE PUSH1 0xA0 DUP3 ADD MLOAD DUP2 PUSH1 0x5 ADD SSTORE PUSH1 0xC0 DUP3 ADD MLOAD DUP2 PUSH1 0x6 ADD SSTORE PUSH1 0xE0 DUP3 ADD MLOAD DUP2 PUSH1 0x7 ADD SSTORE PUSH2 0x100 DUP3 ADD MLOAD DUP2 PUSH1 0x8 ADD SWAP1 DUP2 PUSH2 0x87E SWAP2 SWAP1 PUSH2 0x1C98 JUMP JUMPDEST POP SWAP1 POP POP POP POP POP POP POP POP POP POP JUMP JUMPDEST PUSH1 0x60 PUSH0 PUSH2 0x897 PUSH2 0xA5E JUMP JUMPDEST SWAP1 POP PUSH0 JUMPDEST DUP2 MLOAD DUP2 LT ISZERO PUSH2 0x995 JUMPI PUSH0 PUSH1 0x1 DUP3 PUSH2 0x8B2 SWAP2 SWAP1 PUSH2 0x19E3 JUMP JUMPDEST SWAP1 POP JUMPDEST DUP3 MLOAD DUP2 LT ISZERO PUSH2 0x987 JUMPI DUP3 DUP2 DUP2 MLOAD DUP2 LT PUSH2 0x8D1 JUMPI PUSH2 0x8D0 PUSH2 0x1A16 JUMP JUMPDEST JUMPDEST PUSH1 0x20 MUL PUSH1 0x20 ADD ADD MLOAD PUSH1 0xE0 ADD MLOAD DUP4 DUP4 DUP2 MLOAD DUP2 LT PUSH2 0x8F0 JUMPI PUSH2 0x8EF PUSH2 0x1A16 JUMP JUMPDEST JUMPDEST PUSH1 0x20 MUL PUSH1 0x20 ADD ADD MLOAD PUSH1 0xE0 ADD MLOAD LT ISZERO PUSH2 0x97A JUMPI PUSH0 DUP4 DUP4 DUP2 MLOAD DUP2 LT PUSH2 0x916 JUMPI PUSH2 0x915 PUSH2 0x1A16 JUMP JUMPDEST JUMPDEST PUSH1 0x20 MUL PUSH1 0x20 ADD ADD MLOAD SWAP1 POP DUP4 DUP3 DUP2 MLOAD DUP2 LT PUSH2 0x933 JUMPI PUSH2 0x932 PUSH2 0x1A16 JUMP JUMPDEST JUMPDEST PUSH1 0x20 MUL PUSH1 0x20 ADD ADD MLOAD DUP5 DUP5 DUP2 MLOAD DUP2 LT PUSH2 0x94E JUMPI PUSH2 0x94D PUSH2 0x1A16 JUMP JUMPDEST JUMPDEST PUSH1 0x20 MUL PUSH1 0x20 ADD ADD DUP2 SWAP1 MSTORE POP DUP1 DUP5 DUP4 DUP2 MLOAD DUP2 LT PUSH2 0x96D JUMPI PUSH2 0x96C PUSH2 0x1A16 JUMP JUMPDEST JUMPDEST PUSH1 0x20 MUL PUSH1 0x20 ADD ADD DUP2 SWAP1 MSTORE POP POP JUMPDEST DUP1 DUP1 PUSH1 0x1 ADD SWAP2 POP POP PUSH2 0x8B5 JUMP JUMPDEST POP DUP1 DUP1 PUSH1 0x1 ADD SWAP2 POP POP PUSH2 0x89B JUMP JUMPDEST POP DUP1 SWAP2 POP POP SWAP1 JUMP JUMPDEST PUSH0 SLOAD DUP2 GT ISZERO DUP1 ISZERO PUSH2 0x9AD JUMPI POP PUSH0 DUP2 GT JUMPDEST PUSH2 0x9EC JUMPI PUSH1 0x40 MLOAD PUSH32 0x8C379A000000000000000000000000000000000000000000000000000000000 DUP2 MSTORE PUSH1 0x4 ADD PUSH2 0x9E3 SWAP1 PUSH2 0x1ADD JUMP JUMPDEST PUSH1 0x40 MLOAD DUP1 SWAP2 SUB SWAP1 REVERT JUMPDEST PUSH1 0x1 PUSH0 DUP3 DUP2 MSTORE PUSH1 0x20 ADD SWAP1 DUP2 MSTORE PUSH1 0x20 ADD PUSH0 KECCAK256 PUSH0 DUP1 DUP3 ADD PUSH0 SWAP1 SSTORE PUSH1 0x1 DUP3 ADD PUSH0 PUSH2 0xA13 SWAP2 SWAP1 PUSH2 0x1209 JUMP JUMPDEST PUSH1 0x2 DUP3 ADD PUSH0 PUSH2 0xA22 SWAP2 SWAP1 PUSH2 0x1209 JUMP JUMPDEST PUSH1 0x3 DUP3 ADD PUSH0 SWAP1 SSTORE PUSH1 0x4 DUP3 ADD PUSH0 SWAP1 SSTORE PUSH1 0x5 DUP3 ADD PUSH0 SWAP1 SSTORE PUSH1 0x6 DUP3 ADD PUSH0 SWAP1 SSTORE PUSH1 0x7 DUP3 ADD PUSH0 SWAP1 SSTORE PUSH1 0x8 DUP3 ADD PUSH0 PUSH2 0xA54 SWAP2 SWAP1 PUSH2 0x1209 JUMP JUMPDEST POP POP POP JUMP JUMPDEST PUSH0 SLOAD DUP2 JUMP JUMPDEST PUSH1 0x60 PUSH0 DUP1 SLOAD PUSH8 0xFFFFFFFFFFFFFFFF DUP2 GT ISZERO PUSH2 0xA7C JUMPI PUSH2 0xA7B PUSH2 0x163F JUMP JUMPDEST JUMPDEST PUSH1 0x40 MLOAD SWAP1 DUP1 DUP3 MSTORE DUP1 PUSH1 0x20 MUL PUSH1 0x20 ADD DUP3 ADD PUSH1 0x40 MSTORE DUP1 ISZERO PUSH2 0xAB5 JUMPI DUP2 PUSH1 0x20 ADD JUMPDEST PUSH2 0xAA2 PUSH2 0x1246 JUMP JUMPDEST DUP2 MSTORE PUSH1 0x20 ADD SWAP1 PUSH1 0x1 SWAP1 SUB SWAP1 DUP2 PUSH2 0xA9A JUMPI SWAP1 POP JUMPDEST POP SWAP1 POP PUSH0 PUSH1 0x1 SWAP1 POP JUMPDEST PUSH0 SLOAD DUP2 GT PUSH2 0xD0B JUMPI PUSH1 0x1 PUSH0 DUP3 DUP2 MSTORE PUSH1 0x20 ADD SWAP1 DUP2 MSTORE PUSH1 0x20 ADD PUSH0 KECCAK256 PUSH1 0x40 MLOAD DUP1 PUSH2 0x120 ADD PUSH1 0x40 MSTORE SWAP1 DUP2 PUSH0 DUP3 ADD SLOAD DUP2 MSTORE PUSH1 0x20 ADD PUSH1 0x1 DUP3 ADD DUP1 SLOAD PUSH2 0xAFC SWAP1 PUSH2 0x1986 JUMP JUMPDEST DUP1 PUSH1 0x1F ADD PUSH1 0x20 DUP1 SWAP2 DIV MUL PUSH1 0x20 ADD PUSH1 0x40 MLOAD SWAP1 DUP2 ADD PUSH1 0x40 MSTORE DUP1 SWAP3 SWAP2 SWAP1 DUP2 DUP2 MSTORE PUSH1 0x20 ADD DUP3 DUP1 SLOAD PUSH2 0xB28 SWAP1 PUSH2 0x1986 JUMP JUMPDEST DUP1 ISZERO PUSH2 0xB73 JUMPI DUP1 PUSH1 0x1F LT PUSH2 0xB4A JUMPI PUSH2 0x100 DUP1 DUP4 SLOAD DIV MUL DUP4 MSTORE SWAP2 PUSH1 0x20 ADD SWAP2 PUSH2 0xB73 JUMP JUMPDEST DUP3 ADD SWAP2 SWAP1 PUSH0 MSTORE PUSH1 0x20 PUSH0 KECCAK256 SWAP1 JUMPDEST DUP2 SLOAD DUP2 MSTORE SWAP1 PUSH1 0x1 ADD SWAP1 PUSH1 0x20 ADD DUP1 DUP4 GT PUSH2 0xB56 JUMPI DUP3 SWAP1 SUB PUSH1 0x1F AND DUP3 ADD SWAP2 JUMPDEST POP POP POP POP POP DUP2 MSTORE PUSH1 0x20 ADD PUSH1 0x2 DUP3 ADD DUP1 SLOAD PUSH2 0xB8C SWAP1 PUSH2 0x1986 JUMP JUMPDEST DUP1 PUSH1 0x1F ADD PUSH1 0x20 DUP1 SWAP2 DIV MUL PUSH1 0x20 ADD PUSH1 0x40 MLOAD SWAP1 DUP2 ADD PUSH1 0x40 MSTORE DUP1 SWAP3 SWAP2 SWAP1 DUP2 DUP2 MSTORE PUSH1 0x20 ADD DUP3 DUP1 SLOAD PUSH2 0xBB8 SWAP1 PUSH2 0x1986 JUMP JUMPDEST DUP1 ISZERO PUSH2 0xC03 JUMPI DUP1 PUSH1 0x1F LT PUSH2 0xBDA JUMPI PUSH2 0x100 DUP1 DUP4 SLOAD DIV MUL DUP4 MSTORE SWAP2 PUSH1 0x20 ADD SWAP2 PUSH2 0xC03 JUMP JUMPDEST DUP3 ADD SWAP2 SWAP1 PUSH0 MSTORE PUSH1 0x20 PUSH0 KECCAK256 SWAP1 JUMPDEST DUP2 SLOAD DUP2 MSTORE SWAP1 PUSH1 0x1 ADD SWAP1 PUSH1 0x20 ADD DUP1 DUP4 GT PUSH2 0xBE6 JUMPI DUP3 SWAP1 SUB PUSH1 0x1F AND DUP3 ADD SWAP2 JUMPDEST POP POP POP POP POP DUP2 MSTORE PUSH1 0x20 ADD PUSH1 0x3 DUP3 ADD SLOAD DUP2 MSTORE PUSH1 0x20 ADD PUSH1 0x4 DUP3 ADD SLOAD DUP2 MSTORE PUSH1 0x20 ADD PUSH1 0x5 DUP3 ADD SLOAD DUP2 MSTORE PUSH1 0x20 ADD PUSH1 0x6 DUP3 ADD SLOAD DUP2 MSTORE PUSH1 0x20 ADD PUSH1 0x7 DUP3 ADD SLOAD DUP2 MSTORE PUSH1 0x20 ADD PUSH1 0x8 DUP3 ADD DUP1 SLOAD PUSH2 0xC4E SWAP1 PUSH2 0x1986 JUMP JUMPDEST DUP1 PUSH1 0x1F ADD PUSH1 0x20 DUP1 SWAP2 DIV MUL PUSH1 0x20 ADD PUSH1 0x40 MLOAD SWAP1 DUP2 ADD PUSH1 0x40 MSTORE DUP1 SWAP3 SWAP2 SWAP1 DUP2 DUP2 MSTORE PUSH1 0x20 ADD DUP3 DUP1 SLOAD PUSH2 0xC7A SWAP1 PUSH2 0x1986 JUMP JUMPDEST DUP1 ISZERO PUSH2 0xCC5 JUMPI DUP1 PUSH1 0x1F LT PUSH2 0xC9C JUMPI PUSH2 0x100 DUP1 DUP4 SLOAD DIV MUL DUP4 MSTORE SWAP2 PUSH1 0x20 ADD SWAP2 PUSH2 0xCC5 JUMP JUMPDEST DUP3 ADD SWAP2 SWAP1 PUSH0 MSTORE PUSH1 0x20 PUSH0 KECCAK256 SWAP1 JUMPDEST DUP2 SLOAD DUP2 MSTORE SWAP1 PUSH1 0x1 ADD SWAP1 PUSH1 0x20 ADD DUP1 DUP4 GT PUSH2 0xCA8 JUMPI DUP3 SWAP1 SUB PUSH1 0x1F AND DUP3 ADD SWAP2 JUMPDEST POP POP POP POP POP DUP2 MSTORE POP POP DUP3 PUSH1 0x1 DUP4 PUSH2 0xCDC SWAP2 SWAP1 PUSH2 0x1DAE JUMP JUMPDEST DUP2 MLOAD DUP2 LT PUSH2 0xCED JUMPI PUSH2 0xCEC PUSH2 0x1A16 JUMP JUMPDEST JUMPDEST PUSH1 0x20 MUL PUSH1 0x20 ADD ADD DUP2 SWAP1 MSTORE POP DUP1 DUP1 PUSH2 0xD03 SWAP1 PUSH2 0x1D67 JUMP JUMPDEST SWAP2 POP POP PUSH2 0xABE JUMP JUMPDEST POP DUP1 SWAP2 POP POP SWAP1 JUMP JUMPDEST PUSH1 0x60 PUSH0 DUP1 PUSH1 0x1 SWAP1 POP JUMPDEST PUSH0 SLOAD DUP2 GT PUSH2 0xDAC JUMPI DUP4 PUSH1 0x40 MLOAD PUSH1 0x20 ADD PUSH2 0xD35 SWAP2 SWAP1 PUSH2 0x1A7D JUMP JUMPDEST PUSH1 0x40 MLOAD PUSH1 0x20 DUP2 DUP4 SUB SUB DUP2 MSTORE SWAP1 PUSH1 0x40 MSTORE DUP1 MLOAD SWAP1 PUSH1 0x20 ADD KECCAK256 PUSH1 0x1 PUSH0 DUP4 DUP2 MSTORE PUSH1 0x20 ADD SWAP1 DUP2 MSTORE PUSH1 0x20 ADD PUSH0 KECCAK256 PUSH1 0x1 ADD PUSH1 0x40 MLOAD PUSH1 0x20 ADD PUSH2 0xD6F SWAP2 SWAP1 PUSH2 0x1E61 JUMP JUMPDEST PUSH1 0x40 MLOAD PUSH1 0x20 DUP2 DUP4 SUB SUB DUP2 MSTORE SWAP1 PUSH1 0x40 MSTORE DUP1 MLOAD SWAP1 PUSH1 0x20 ADD KECCAK256 SUB PUSH2 0xD99 JUMPI DUP2 DUP1 PUSH2 0xD95 SWAP1 PUSH2 0x1D67 JUMP JUMPDEST SWAP3 POP POP JUMPDEST DUP1 DUP1 PUSH2 0xDA4 SWAP1 PUSH2 0x1D67 JUMP JUMPDEST SWAP2 POP POP PUSH2 0xD1C JUMP JUMPDEST POP PUSH0 DUP2 PUSH8 0xFFFFFFFFFFFFFFFF DUP2 GT ISZERO PUSH2 0xDC8 JUMPI PUSH2 0xDC7 PUSH2 0x163F JUMP JUMPDEST JUMPDEST PUSH1 0x40 MLOAD SWAP1 DUP1 DUP3 MSTORE DUP1 PUSH1 0x20 MUL PUSH1 0x20 ADD DUP3 ADD PUSH1 0x40 MSTORE DUP1 ISZERO PUSH2 0xE01 JUMPI DUP2 PUSH1 0x20 ADD JUMPDEST PUSH2 0xDEE PUSH2 0x1246 JUMP JUMPDEST DUP2 MSTORE PUSH1 0x20 ADD SWAP1 PUSH1 0x1 SWAP1 SUB SWAP1 DUP2 PUSH2 0xDE6 JUMPI SWAP1 POP JUMPDEST POP SWAP1 POP PUSH0 DUP1 PUSH1 0x1 SWAP1 POP JUMPDEST PUSH0 SLOAD DUP2 GT PUSH2 0x10C1 JUMPI DUP6 PUSH1 0x40 MLOAD PUSH1 0x20 ADD PUSH2 0xE24 SWAP2 SWAP1 PUSH2 0x1A7D JUMP JUMPDEST PUSH1 0x40 MLOAD PUSH1 0x20 DUP2 DUP4 SUB SUB DUP2 MSTORE SWAP1 PUSH1 0x40 MSTORE DUP1 MLOAD SWAP1 PUSH1 0x20 ADD KECCAK256 PUSH1 0x1 PUSH0 DUP4 DUP2 MSTORE PUSH1 0x20 ADD SWAP1 DUP2 MSTORE PUSH1 0x20 ADD PUSH0 KECCAK256 PUSH1 0x1 ADD PUSH1 0x40 MLOAD PUSH1 0x20 ADD PUSH2 0xE5E SWAP2 SWAP1 PUSH2 0x1E61 JUMP JUMPDEST PUSH1 0x40 MLOAD PUSH1 0x20 DUP2 DUP4 SUB SUB DUP2 MSTORE SWAP1 PUSH1 0x40 MSTORE DUP1 MLOAD SWAP1 PUSH1 0x20 ADD KECCAK256 SUB PUSH2 0x10AE JUMPI PUSH1 0x1 PUSH0 DUP3 DUP2 MSTORE PUSH1 0x20 ADD SWAP1 DUP2 MSTORE PUSH1 0x20 ADD PUSH0 KECCAK256 PUSH1 0x40 MLOAD DUP1 PUSH2 0x120 ADD PUSH1 0x40 MSTORE SWAP1 DUP2 PUSH0 DUP3 ADD SLOAD DUP2 MSTORE PUSH1 0x20 ADD PUSH1 0x1 DUP3 ADD DUP1 SLOAD PUSH2 0xEAF SWAP1 PUSH2 0x1986 JUMP JUMPDEST DUP1 PUSH1 0x1F ADD PUSH1 0x20 DUP1 SWAP2 DIV MUL PUSH1 0x20 ADD PUSH1 0x40 MLOAD SWAP1 DUP2 ADD PUSH1 0x40 MSTORE DUP1 SWAP3 SWAP2 SWAP1 DUP2 DUP2 MSTORE PUSH1 0x20 ADD DUP3 DUP1 SLOAD PUSH2 0xEDB SWAP1 PUSH2 0x1986 JUMP JUMPDEST DUP1 ISZERO PUSH2 0xF26 JUMPI DUP1 PUSH1 0x1F LT PUSH2 0xEFD JUMPI PUSH2 0x100 DUP1 DUP4 SLOAD DIV MUL DUP4 MSTORE SWAP2 PUSH1 0x20 ADD SWAP2 PUSH2 0xF26 JUMP JUMPDEST DUP3 ADD SWAP2 SWAP1 PUSH0 MSTORE PUSH1 0x20 PUSH0 KECCAK256 SWAP1 JUMPDEST DUP2 SLOAD DUP2 MSTORE SWAP1 PUSH1 0x1 ADD SWAP1 PUSH1 0x20 ADD DUP1 DUP4 GT PUSH2 0xF09 JUMPI DUP3 SWAP1 SUB PUSH1 0x1F AND DUP3 ADD SWAP2 JUMPDEST POP POP POP POP POP DUP2 MSTORE PUSH1 0x20 ADD PUSH1 0x2 DUP3 ADD DUP1 SLOAD PUSH2 0xF3F SWAP1 PUSH2 0x1986 JUMP JUMPDEST DUP1 PUSH1 0x1F ADD PUSH1 0x20 DUP1 SWAP2 DIV MUL PUSH1 0x20 ADD PUSH1 0x40 MLOAD SWAP1 DUP2 ADD PUSH1 0x40 MSTORE DUP1 SWAP3 SWAP2 SWAP1 DUP2 DUP2 MSTORE PUSH1 0x20 ADD DUP3 DUP1 SLOAD PUSH2 0xF6B SWAP1 PUSH2 0x1986 JUMP JUMPDEST DUP1 ISZERO PUSH2 0xFB6 JUMPI DUP1 PUSH1 0x1F LT PUSH2 0xF8D JUMPI PUSH2 0x100 DUP1 DUP4 SLOAD DIV MUL DUP4 MSTORE SWAP2 PUSH1 0x20 ADD SWAP2 PUSH2 0xFB6 JUMP JUMPDEST DUP3 ADD SWAP2 SWAP1 PUSH0 MSTORE PUSH1 0x20 PUSH0 KECCAK256 SWAP1 JUMPDEST DUP2 SLOAD DUP2 MSTORE SWAP1 PUSH1 0x1 ADD SWAP1 PUSH1 0x20 ADD DUP1 DUP4 GT PUSH2 0xF99 JUMPI DUP3 SWAP1 SUB PUSH1 0x1F AND DUP3 ADD SWAP2 JUMPDEST POP POP POP POP POP DUP2 MSTORE PUSH1 0x20 ADD PUSH1 0x3 DUP3 ADD SLOAD DUP2 MSTORE PUSH1 0x20 ADD PUSH1 0x4 DUP3 ADD SLOAD DUP2 MSTORE PUSH1 0x20 ADD PUSH1 0x5 DUP3 ADD SLOAD DUP2 MSTORE PUSH1 0x20 ADD PUSH1 0x6 DUP3 ADD SLOAD DUP2 MSTORE PUSH1 0x20 ADD PUSH1 0x7 DUP3 ADD SLOAD DUP2 MSTORE PUSH1 0x20 ADD PUSH1 0x8 DUP3 ADD DUP1 SLOAD PUSH2 0x1001 SWAP1 PUSH2 0x1986 JUMP JUMPDEST DUP1 PUSH1 0x1F ADD PUSH1 0x20 DUP1 SWAP2 DIV MUL PUSH1 0x20 ADD PUSH1 0x40 MLOAD SWAP1 DUP2 ADD PUSH1 0x40 MSTORE DUP1 SWAP3 SWAP2 SWAP1 DUP2 DUP2 MSTORE PUSH1 0x20 ADD DUP3 DUP1 SLOAD PUSH2 0x102D SWAP1 PUSH2 0x1986 JUMP JUMPDEST DUP1 ISZERO PUSH2 0x1078 JUMPI DUP1 PUSH1 0x1F LT PUSH2 0x104F JUMPI PUSH2 0x100 DUP1 DUP4 SLOAD DIV MUL DUP4 MSTORE SWAP2 PUSH1 0x20 ADD SWAP2 PUSH2 0x1078 JUMP JUMPDEST DUP3 ADD SWAP2 SWAP1 PUSH0 MSTORE PUSH1 0x20 PUSH0 KECCAK256 SWAP1 JUMPDEST DUP2 SLOAD DUP2 MSTORE SWAP1 PUSH1 0x1 ADD SWAP1 PUSH1 0x20 ADD DUP1 DUP4 GT PUSH2 0x105B JUMPI DUP3 SWAP1 SUB PUSH1 0x1F AND DUP3 ADD SWAP2 JUMPDEST POP POP POP POP POP DUP2 MSTORE POP POP DUP4 DUP4 DUP2 MLOAD DUP2 LT PUSH2 0x1094 JUMPI PUSH2 0x1093 PUSH2 0x1A16 JUMP JUMPDEST JUMPDEST PUSH1 0x20 MUL PUSH1 0x20 ADD ADD DUP2 SWAP1 MSTORE POP DUP2 DUP1 PUSH2 0x10AA SWAP1 PUSH2 0x1D67 JUMP JUMPDEST SWAP3 POP POP JUMPDEST DUP1 DUP1 PUSH2 0x10B9 SWAP1 PUSH2 0x1D67 JUMP JUMPDEST SWAP2 POP POP PUSH2 0xE0B JUMP JUMPDEST POP DUP2 SWAP4 POP POP POP POP SWAP2 SWAP1 POP JUMP JUMPDEST PUSH0 PUSH1 0x3 DUP3 DUP5 DUP7 PUSH2 0x10DD SWAP2 SWAP1 PUSH2 0x19E3 JUMP JUMPDEST PUSH2 0x10E7 SWAP2 SWAP1 PUSH2 0x19E3 JUMP JUMPDEST PUSH2 0x10F1 SWAP2 SWAP1 PUSH2 0x1EA4 JUMP JUMPDEST SWAP1 POP SWAP4 SWAP3 POP POP POP JUMP JUMPDEST PUSH1 0x60 PUSH1 0x8 DUP3 LT PUSH2 0x1141 JUMPI PUSH1 0x40 MLOAD DUP1 PUSH1 0x40 ADD PUSH1 0x40 MSTORE DUP1 PUSH1 0x4 DUP2 MSTORE PUSH1 0x20 ADD PUSH32 0x47696F6900000000000000000000000000000000000000000000000000000000 DUP2 MSTORE POP SWAP1 POP PUSH2 0x1204 JUMP JUMPDEST PUSH1 0x6 DUP3 LT PUSH2 0x1186 JUMPI PUSH1 0x40 MLOAD DUP1 PUSH1 0x40 ADD PUSH1 0x40 MSTORE DUP1 PUSH1 0x3 DUP2 MSTORE PUSH1 0x20 ADD PUSH32 0x4B68610000000000000000000000000000000000000000000000000000000000 DUP2 MSTORE POP SWAP1 POP PUSH2 0x1204 JUMP JUMPDEST PUSH1 0x5 DUP3 LT PUSH2 0x11CB JUMPI PUSH1 0x40 MLOAD DUP1 PUSH1 0x40 ADD PUSH1 0x40 MSTORE DUP1 PUSH1 0xA DUP2 MSTORE PUSH1 0x20 ADD PUSH32 0x5472756E672042696E6800000000000000000000000000000000000000000000 DUP2 MSTORE POP SWAP1 POP PUSH2 0x1204 JUMP JUMPDEST PUSH1 0x40 MLOAD DUP1 PUSH1 0x40 ADD PUSH1 0x40 MSTORE DUP1 PUSH1 0x3 DUP2 MSTORE PUSH1 0x20 ADD PUSH32 0x5965750000000000000000000000000000000000000000000000000000000000 DUP2 MSTORE POP SWAP1 POP JUMPDEST SWAP2 SWAP1 POP JUMP JUMPDEST POP DUP1 SLOAD PUSH2 0x1215 SWAP1 PUSH2 0x1986 JUMP JUMPDEST PUSH0 DUP3 SSTORE DUP1 PUSH1 0x1F LT PUSH2 0x1226 JUMPI POP PUSH2 0x1243 JUMP JUMPDEST PUSH1 0x1F ADD PUSH1 0x20 SWAP1 DIV SWAP1 PUSH0 MSTORE PUSH1 0x20 PUSH0 KECCAK256 SWAP1 DUP2 ADD SWAP1 PUSH2 0x1242 SWAP2 SWAP1 PUSH2 0x128C JUMP JUMPDEST JUMPDEST POP JUMP JUMPDEST PUSH1 0x40 MLOAD DUP1 PUSH2 0x120 ADD PUSH1 0x40 MSTORE DUP1 PUSH0 DUP2 MSTORE PUSH1 0x20 ADD PUSH1 0x60 DUP2 MSTORE PUSH1 0x20 ADD PUSH1 0x60 DUP2 MSTORE PUSH1 0x20 ADD PUSH0 DUP2 MSTORE PUSH1 0x20 ADD PUSH0 DUP2 MSTORE PUSH1 0x20 ADD PUSH0 DUP2 MSTORE PUSH1 0x20 ADD PUSH0 DUP2 MSTORE PUSH1 0x20 ADD PUSH0 DUP2 MSTORE PUSH1 0x20 ADD PUSH1 0x60 DUP2 MSTORE POP SWAP1 JUMP JUMPDEST JUMPDEST DUP1 DUP3 GT ISZERO PUSH2 0x12A3 JUMPI PUSH0 DUP2 PUSH0 SWAP1 SSTORE POP PUSH1 0x1 ADD PUSH2 0x128D JUMP JUMPDEST POP SWAP1 JUMP JUMPDEST PUSH0 PUSH1 0x40 MLOAD SWAP1 POP SWAP1 JUMP JUMPDEST PUSH0 DUP1 REVERT JUMPDEST PUSH0 DUP1 REVERT JUMPDEST PUSH0 DUP2 SWAP1 POP SWAP2 SWAP1 POP JUMP JUMPDEST PUSH2 0x12CA DUP2 PUSH2 0x12B8 JUMP JUMPDEST DUP2 EQ PUSH2 0x12D4 JUMPI PUSH0 DUP1 REVERT JUMPDEST POP JUMP JUMPDEST PUSH0 DUP2 CALLDATALOAD SWAP1 POP PUSH2 0x12E5 DUP2 PUSH2 0x12C1 JUMP JUMPDEST SWAP3 SWAP2 POP POP JUMP JUMPDEST PUSH0 PUSH1 0x20 DUP3 DUP5 SUB SLT ISZERO PUSH2 0x1300 JUMPI PUSH2 0x12FF PUSH2 0x12B0 JUMP JUMPDEST JUMPDEST PUSH0 PUSH2 0x130D DUP5 DUP3 DUP6 ADD PUSH2 0x12D7 JUMP JUMPDEST SWAP2 POP POP SWAP3 SWAP2 POP POP JUMP JUMPDEST PUSH2 0x131F DUP2 PUSH2 0x12B8 JUMP JUMPDEST DUP3 MSTORE POP POP JUMP JUMPDEST PUSH0 DUP2 MLOAD SWAP1 POP SWAP2 SWAP1 POP JUMP JUMPDEST PUSH0 DUP3 DUP3 MSTORE PUSH1 0x20 DUP3 ADD SWAP1 POP SWAP3 SWAP2 POP POP JUMP JUMPDEST DUP3 DUP2 DUP4 MCOPY PUSH0 DUP4 DUP4 ADD MSTORE POP POP POP JUMP JUMPDEST PUSH0 PUSH1 0x1F NOT PUSH1 0x1F DUP4 ADD AND SWAP1 POP SWAP2 SWAP1 POP JUMP JUMPDEST PUSH0 PUSH2 0x1367 DUP3 PUSH2 0x1325 JUMP JUMPDEST PUSH2 0x1371 DUP2 DUP6 PUSH2 0x132F JUMP JUMPDEST SWAP4 POP PUSH2 0x1381 DUP2 DUP6 PUSH1 0x20 DUP7 ADD PUSH2 0x133F JUMP JUMPDEST PUSH2 0x138A DUP2 PUSH2 0x134D JUMP JUMPDEST DUP5 ADD SWAP2 POP POP SWAP3 SWAP2 POP POP JUMP JUMPDEST PUSH0 PUSH2 0x120 DUP3 ADD SWAP1 POP PUSH2 0x13A9 PUSH0 DUP4 ADD DUP13 PUSH2 0x1316 JUMP JUMPDEST DUP2 DUP2 SUB PUSH1 0x20 DUP4 ADD MSTORE PUSH2 0x13BB DUP2 DUP12 PUSH2 0x135D JUMP JUMPDEST SWAP1 POP DUP2 DUP2 SUB PUSH1 0x40 DUP4 ADD MSTORE PUSH2 0x13CF DUP2 DUP11 PUSH2 0x135D JUMP JUMPDEST SWAP1 POP PUSH2 0x13DE PUSH1 0x60 DUP4 ADD DUP10 PUSH2 0x1316 JUMP JUMPDEST PUSH2 0x13EB PUSH1 0x80 DUP4 ADD DUP9 PUSH2 0x1316 JUMP JUMPDEST PUSH2 0x13F8 PUSH1 0xA0 DUP4 ADD DUP8 PUSH2 0x1316 JUMP JUMPDEST PUSH2 0x1405 PUSH1 0xC0 DUP4 ADD DUP7 PUSH2 0x1316 JUMP JUMPDEST PUSH2 0x1412 PUSH1 0xE0 DUP4 ADD DUP6 PUSH2 0x1316 JUMP JUMPDEST DUP2 DUP2 SUB PUSH2 0x100 DUP4 ADD MSTORE PUSH2 0x1425 DUP2 DUP5 PUSH2 0x135D JUMP JUMPDEST SWAP1 POP SWAP11 SWAP10 POP POP POP POP POP POP POP POP POP POP JUMP JUMPDEST PUSH0 DUP2 MLOAD SWAP1 POP SWAP2 SWAP1 POP JUMP JUMPDEST PUSH0 DUP3 DUP3 MSTORE PUSH1 0x20 DUP3 ADD SWAP1 POP SWAP3 SWAP2 POP POP JUMP JUMPDEST PUSH0 DUP2 SWAP1 POP PUSH1 0x20 DUP3 ADD SWAP1 POP SWAP2 SWAP1 POP JUMP JUMPDEST PUSH2 0x1467 DUP2 PUSH2 0x12B8 JUMP JUMPDEST DUP3 MSTORE POP POP JUMP JUMPDEST PUSH0 DUP3 DUP3 MSTORE PUSH1 0x20 DUP3 ADD SWAP1 POP SWAP3 SWAP2 POP POP JUMP JUMPDEST PUSH0 PUSH2 0x1487 DUP3 PUSH2 0x1325 JUMP JUMPDEST PUSH2 0x1491 DUP2 DUP6 PUSH2 0x146D JUMP JUMPDEST SWAP4 POP PUSH2 0x14A1 DUP2 DUP6 PUSH1 0x20 DUP7 ADD PUSH2 0x133F JUMP JUMPDEST PUSH2 0x14AA DUP2 PUSH2 0x134D JUMP JUMPDEST DUP5 ADD SWAP2 POP POP SWAP3 SWAP2 POP POP JUMP JUMPDEST PUSH0 PUSH2 0x120 DUP4 ADD PUSH0 DUP4 ADD MLOAD PUSH2 0x14CB PUSH0 DUP7 ADD DUP3 PUSH2 0x145E JUMP JUMPDEST POP PUSH1 0x20 DUP4 ADD MLOAD DUP5 DUP3 SUB PUSH1 0x20 DUP7 ADD MSTORE PUSH2 0x14E3 DUP3 DUP3 PUSH2 0x147D JUMP JUMPDEST SWAP2 POP POP PUSH1 0x40 DUP4 ADD MLOAD DUP5 DUP3 SUB PUSH1 0x40 DUP7 ADD MSTORE PUSH2 0x14FD DUP3 DUP3 PUSH2 0x147D JUMP JUMPDEST SWAP2 POP POP PUSH1 0x60 DUP4 ADD MLOAD PUSH2 0x1512 PUSH1 0x60 DUP7 ADD DUP3 PUSH2 0x145E JUMP JUMPDEST POP PUSH1 0x80 DUP4 ADD MLOAD PUSH2 0x1525 PUSH1 0x80 DUP7 ADD DUP3 PUSH2 0x145E JUMP JUMPDEST POP PUSH1 0xA0 DUP4 ADD MLOAD PUSH2 0x1538 PUSH1 0xA0 DUP7 ADD DUP3 PUSH2 0x145E JUMP JUMPDEST POP PUSH1 0xC0 DUP4 ADD MLOAD PUSH2 0x154B PUSH1 0xC0 DUP7 ADD DUP3 PUSH2 0x145E JUMP JUMPDEST POP PUSH1 0xE0 DUP4 ADD MLOAD PUSH2 0x155E PUSH1 0xE0 DUP7 ADD DUP3 PUSH2 0x145E JUMP JUMPDEST POP PUSH2 0x100 DUP4 ADD MLOAD DUP5 DUP3 SUB PUSH2 0x100 DUP7 ADD MSTORE PUSH2 0x1578 DUP3 DUP3 PUSH2 0x147D JUMP JUMPDEST SWAP2 POP POP DUP1 SWAP2 POP POP SWAP3 SWAP2 POP POP JUMP JUMPDEST PUSH0 PUSH2 0x1590 DUP4 DUP4 PUSH2 0x14B5 JUMP JUMPDEST SWAP1 POP SWAP3 SWAP2 POP POP JUMP JUMPDEST PUSH0 PUSH1 0x20 DUP3 ADD SWAP1 POP SWAP2 SWAP1 POP JUMP JUMPDEST PUSH0 PUSH2 0x15AE DUP3 PUSH2 0x1435 JUMP JUMPDEST PUSH2 0x15B8 DUP2 DUP6 PUSH2 0x143F JUMP JUMPDEST SWAP4 POP DUP4 PUSH1 0x20 DUP3 MUL DUP6 ADD PUSH2 0x15CA DUP6 PUSH2 0x144F JUMP JUMPDEST DUP1 PUSH0 JUMPDEST DUP6 DUP2 LT ISZERO PUSH2 0x1605 JUMPI DUP5 DUP5 SUB DUP10 MSTORE DUP2 MLOAD PUSH2 0x15E6 DUP6 DUP3 PUSH2 0x1585 JUMP JUMPDEST SWAP5 POP PUSH2 0x15F1 DUP4 PUSH2 0x1598 JUMP JUMPDEST SWAP3 POP PUSH1 0x20 DUP11 ADD SWAP10 POP POP PUSH1 0x1 DUP2 ADD SWAP1 POP PUSH2 0x15CD JUMP JUMPDEST POP DUP3 SWAP8 POP DUP8 SWAP6 POP POP POP POP POP POP SWAP3 SWAP2 POP POP JUMP JUMPDEST PUSH0 PUSH1 0x20 DUP3 ADD SWAP1 POP DUP2 DUP2 SUB PUSH0 DUP4 ADD MSTORE PUSH2 0x162F DUP2 DUP5 PUSH2 0x15A4 JUMP JUMPDEST SWAP1 POP SWAP3 SWAP2 POP POP JUMP JUMPDEST PUSH0 DUP1 REVERT JUMPDEST PUSH0 DUP1 REVERT JUMPDEST PUSH32 0x4E487B7100000000000000000000000000000000000000000000000000000000 PUSH0 MSTORE PUSH1 0x41 PUSH1 0x4 MSTORE PUSH1 0x24 PUSH0 REVERT JUMPDEST PUSH2 0x1675 DUP3 PUSH2 0x134D JUMP JUMPDEST DUP2 ADD DUP2 DUP2 LT PUSH8 0xFFFFFFFFFFFFFFFF DUP3 GT OR ISZERO PUSH2 0x1694 JUMPI PUSH2 0x1693 PUSH2 0x163F JUMP JUMPDEST JUMPDEST DUP1 PUSH1 0x40 MSTORE POP POP POP JUMP JUMPDEST PUSH0 PUSH2 0x16A6 PUSH2 0x12A7 JUMP JUMPDEST SWAP1 POP PUSH2 0x16B2 DUP3 DUP3 PUSH2 0x166C JUMP JUMPDEST SWAP2 SWAP1 POP JUMP JUMPDEST PUSH0 PUSH8 0xFFFFFFFFFFFFFFFF DUP3 GT ISZERO PUSH2 0x16D1 JUMPI PUSH2 0x16D0 PUSH2 0x163F JUMP JUMPDEST JUMPDEST PUSH2 0x16DA DUP3 PUSH2 0x134D JUMP JUMPDEST SWAP1 POP PUSH1 0x20 DUP2 ADD SWAP1 POP SWAP2 SWAP1 POP JUMP JUMPDEST DUP3 DUP2 DUP4 CALLDATACOPY PUSH0 DUP4 DUP4 ADD MSTORE POP POP POP JUMP JUMPDEST PUSH0 PUSH2 0x1707 PUSH2 0x1702 DUP5 PUSH2 0x16B7 JUMP JUMPDEST PUSH2 0x169D JUMP JUMPDEST SWAP1 POP DUP3 DUP2 MSTORE PUSH1 0x20 DUP2 ADD DUP5 DUP5 DUP5 ADD GT ISZERO PUSH2 0x1723 JUMPI PUSH2 0x1722 PUSH2 0x163B JUMP JUMPDEST JUMPDEST PUSH2 0x172E DUP5 DUP3 DUP6 PUSH2 0x16E7 JUMP JUMPDEST POP SWAP4 SWAP3 POP POP POP JUMP JUMPDEST PUSH0 DUP3 PUSH1 0x1F DUP4 ADD SLT PUSH2 0x174A JUMPI PUSH2 0x1749 PUSH2 0x1637 JUMP JUMPDEST JUMPDEST DUP2 CALLDATALOAD PUSH2 0x175A DUP5 DUP3 PUSH1 0x20 DUP7 ADD PUSH2 0x16F5 JUMP JUMPDEST SWAP2 POP POP SWAP3 SWAP2 POP POP JUMP JUMPDEST PUSH0 DUP1 PUSH0 DUP1 PUSH0 DUP1 PUSH0 PUSH1 0xE0 DUP9 DUP11 SUB SLT ISZERO PUSH2 0x177E JUMPI PUSH2 0x177D PUSH2 0x12B0 JUMP JUMPDEST JUMPDEST PUSH0 PUSH2 0x178B DUP11 DUP3 DUP12 ADD PUSH2 0x12D7 JUMP JUMPDEST SWAP8 POP POP PUSH1 0x20 DUP9 ADD CALLDATALOAD PUSH8 0xFFFFFFFFFFFFFFFF DUP2 GT ISZERO PUSH2 0x17AC JUMPI PUSH2 0x17AB PUSH2 0x12B4 JUMP JUMPDEST JUMPDEST PUSH2 0x17B8 DUP11 DUP3 DUP12 ADD PUSH2 0x1736 JUMP JUMPDEST SWAP7 POP POP PUSH1 0x40 DUP9 ADD CALLDATALOAD PUSH8 0xFFFFFFFFFFFFFFFF DUP2 GT ISZERO PUSH2 0x17D9 JUMPI PUSH2 0x17D8 PUSH2 0x12B4 JUMP JUMPDEST JUMPDEST PUSH2 0x17E5 DUP11 DUP3 DUP12 ADD PUSH2 0x1736 JUMP JUMPDEST SWAP6 POP POP PUSH1 0x60 PUSH2 0x17F6 DUP11 DUP3 DUP12 ADD PUSH2 0x12D7 JUMP JUMPDEST SWAP5 POP POP PUSH1 0x80 PUSH2 0x1807 DUP11 DUP3 DUP12 ADD PUSH2 0x12D7 JUMP JUMPDEST SWAP4 POP POP PUSH1 0xA0 PUSH2 0x1818 DUP11 DUP3 DUP12 ADD PUSH2 0x12D7 JUMP JUMPDEST SWAP3 POP POP PUSH1 0xC0 PUSH2 0x1829 DUP11 DUP3 DUP12 ADD PUSH2 0x12D7 JUMP JUMPDEST SWAP2 POP POP SWAP3 SWAP6 SWAP9 SWAP2 SWAP5 SWAP8 POP SWAP3 SWAP6 POP JUMP JUMPDEST PUSH0 DUP1 PUSH0 DUP1 PUSH0 DUP1 PUSH1 0xC0 DUP8 DUP10 SUB SLT ISZERO PUSH2 0x1852 JUMPI PUSH2 0x1851 PUSH2 0x12B0 JUMP JUMPDEST JUMPDEST PUSH0 DUP8 ADD CALLDATALOAD PUSH8 0xFFFFFFFFFFFFFFFF DUP2 GT ISZERO PUSH2 0x186F JUMPI PUSH2 0x186E PUSH2 0x12B4 JUMP JUMPDEST JUMPDEST PUSH2 0x187B DUP10 DUP3 DUP11 ADD PUSH2 0x1736 JUMP JUMPDEST SWAP7 POP POP PUSH1 0x20 DUP8 ADD CALLDATALOAD PUSH8 0xFFFFFFFFFFFFFFFF DUP2 GT ISZERO PUSH2 0x189C JUMPI PUSH2 0x189B PUSH2 0x12B4 JUMP JUMPDEST JUMPDEST PUSH2 0x18A8 DUP10 DUP3 DUP11 ADD PUSH2 0x1736 JUMP JUMPDEST SWAP6 POP POP PUSH1 0x40 PUSH2 0x18B9 DUP10 DUP3 DUP11 ADD PUSH2 0x12D7 JUMP JUMPDEST SWAP5 POP POP PUSH1 0x60 PUSH2 0x18CA DUP10 DUP3 DUP11 ADD PUSH2 0x12D7 JUMP JUMPDEST SWAP4 POP POP PUSH1 0x80 PUSH2 0x18DB DUP10 DUP3 DUP11 ADD PUSH2 0x12D7 JUMP JUMPDEST SWAP3 POP POP PUSH1 0xA0 PUSH2 0x18EC DUP10 DUP3 DUP11 ADD PUSH2 0x12D7 JUMP JUMPDEST SWAP2 POP POP SWAP3 SWAP6 POP SWAP3 SWAP6 POP SWAP3 SWAP6 JUMP JUMPDEST PUSH0 PUSH1 0x20 DUP3 ADD SWAP1 POP PUSH2 0x190C PUSH0 DUP4 ADD DUP5 PUSH2 0x1316 JUMP JUMPDEST SWAP3 SWAP2 POP POP JUMP JUMPDEST PUSH0 PUSH1 0x20 DUP3 DUP5 SUB SLT ISZERO PUSH2 0x1927 JUMPI PUSH2 0x1926 PUSH2 0x12B0 JUMP JUMPDEST JUMPDEST PUSH0 DUP3 ADD CALLDATALOAD PUSH8 0xFFFFFFFFFFFFFFFF DUP2 GT ISZERO PUSH2 0x1944 JUMPI PUSH2 0x1943 PUSH2 0x12B4 JUMP JUMPDEST JUMPDEST PUSH2 0x1950 DUP5 DUP3 DUP6 ADD PUSH2 0x1736 JUMP JUMPDEST SWAP2 POP POP SWAP3 SWAP2 POP POP JUMP JUMPDEST PUSH32 0x4E487B7100000000000000000000000000000000000000000000000000000000 PUSH0 MSTORE PUSH1 0x22 PUSH1 0x4 MSTORE PUSH1 0x24 PUSH0 REVERT JUMPDEST PUSH0 PUSH1 0x2 DUP3 DIV SWAP1 POP PUSH1 0x1 DUP3 AND DUP1 PUSH2 0x199D JUMPI PUSH1 0x7F DUP3 AND SWAP2 POP JUMPDEST PUSH1 0x20 DUP3 LT DUP2 SUB PUSH2 0x19B0 JUMPI PUSH2 0x19AF PUSH2 0x1959 JUMP JUMPDEST JUMPDEST POP SWAP2 SWAP1 POP JUMP JUMPDEST PUSH32 0x4E487B7100000000000000000000000000000000000000000000000000000000 PUSH0 MSTORE PUSH1 0x11 PUSH1 0x4 MSTORE PUSH1 0x24 PUSH0 REVERT JUMPDEST PUSH0 PUSH2 0x19ED DUP3 PUSH2 0x12B8 JUMP JUMPDEST SWAP2 POP PUSH2 0x19F8 DUP4 PUSH2 0x12B8 JUMP JUMPDEST SWAP3 POP DUP3 DUP3 ADD SWAP1 POP DUP1 DUP3 GT ISZERO PUSH2 0x1A10 JUMPI PUSH2 0x1A0F PUSH2 0x19B6 JUMP JUMPDEST JUMPDEST SWAP3 SWAP2 POP POP JUMP JUMPDEST PUSH32 0x4E487B7100000000000000000000000000000000000000000000000000000000 PUSH0 MSTORE PUSH1 0x32 PUSH1 0x4 MSTORE PUSH1 0x24 PUSH0 REVERT JUMPDEST PUSH0 DUP2 SWAP1 POP SWAP3 SWAP2 POP POP JUMP JUMPDEST PUSH0 PUSH2 0x1A57 DUP3 PUSH2 0x1325 JUMP JUMPDEST PUSH2 0x1A61 DUP2 DUP6 PUSH2 0x1A43 JUMP JUMPDEST SWAP4 POP PUSH2 0x1A71 DUP2 DUP6 PUSH1 0x20 DUP7 ADD PUSH2 0x133F JUMP JUMPDEST DUP1 DUP5 ADD SWAP2 POP POP SWAP3 SWAP2 POP POP JUMP JUMPDEST PUSH0 PUSH2 0x1A88 DUP3 DUP5 PUSH2 0x1A4D JUMP JUMPDEST SWAP2 POP DUP2 SWAP1 POP SWAP3 SWAP2 POP POP JUMP JUMPDEST PUSH32 0x53747564656E7420494420697320696E76616C69640000000000000000000000 PUSH0 DUP3 ADD MSTORE POP JUMP JUMPDEST PUSH0 PUSH2 0x1AC7 PUSH1 0x15 DUP4 PUSH2 0x132F JUMP JUMPDEST SWAP2 POP PUSH2 0x1AD2 DUP3 PUSH2 0x1A93 JUMP JUMPDEST PUSH1 0x20 DUP3 ADD SWAP1 POP SWAP2 SWAP1 POP JUMP JUMPDEST PUSH0 PUSH1 0x20 DUP3 ADD SWAP1 POP DUP2 DUP2 SUB PUSH0 DUP4 ADD MSTORE PUSH2 0x1AF4 DUP2 PUSH2 0x1ABB JUMP JUMPDEST SWAP1 POP SWAP2 SWAP1 POP JUMP JUMPDEST PUSH0 DUP2 SWAP1 POP DUP2 PUSH0 MSTORE PUSH1 0x20 PUSH0 KECCAK256 SWAP1 POP SWAP2 SWAP1 POP JUMP JUMPDEST PUSH0 PUSH1 0x20 PUSH1 0x1F DUP4 ADD DIV SWAP1 POP SWAP2 SWAP1 POP JUMP JUMPDEST PUSH0 DUP3 DUP3 SHL SWAP1 POP SWAP3 SWAP2 POP POP JUMP JUMPDEST PUSH0 PUSH1 0x8 DUP4 MUL PUSH2 0x1B57 PUSH32 0xFFFFFFFFFFFFFFFFFFFFFFFFFFFFFFFFFFFFFFFFFFFFFFFFFFFFFFFFFFFFFFFF DUP3 PUSH2 0x1B1C JUMP JUMPDEST PUSH2 0x1B61 DUP7 DUP4 PUSH2 0x1B1C JUMP JUMPDEST SWAP6 POP DUP1 NOT DUP5 AND SWAP4 POP DUP1 DUP7 AND DUP5 OR SWAP3 POP POP POP SWAP4 SWAP3 POP POP POP JUMP JUMPDEST PUSH0 DUP2 SWAP1 POP SWAP2 SWAP1 POP JUMP JUMPDEST PUSH0 PUSH2 0x1B9C PUSH2 0x1B97 PUSH2 0x1B92 DUP5 PUSH2 0x12B8 JUMP JUMPDEST PUSH2 0x1B79 JUMP JUMPDEST PUSH2 0x12B8 JUMP JUMPDEST SWAP1 POP SWAP2 SWAP1 POP JUMP JUMPDEST PUSH0 DUP2 SWAP1 POP SWAP2 SWAP1 POP JUMP JUMPDEST PUSH2 0x1BB5 DUP4 PUSH2 0x1B82 JUMP JUMPDEST PUSH2 0x1BC9 PUSH2 0x1BC1 DUP3 PUSH2 0x1BA3 JUMP JUMPDEST DUP5 DUP5 SLOAD PUSH2 0x1B28 JUMP JUMPDEST DUP3 SSTORE POP POP POP POP JUMP JUMPDEST PUSH0 SWAP1 JUMP JUMPDEST PUSH2 0x1BDD PUSH2 0x1BD1 JUMP JUMPDEST PUSH2 0x1BE8 DUP2 DUP5 DUP5 PUSH2 0x1BAC JUMP JUMPDEST POP POP POP JUMP JUMPDEST JUMPDEST DUP2 DUP2 LT ISZERO PUSH2 0x1C0B JUMPI PUSH2 0x1C00 PUSH0 DUP3 PUSH2 0x1BD5 JUMP JUMPDEST PUSH1 0x1 DUP2 ADD SWAP1 POP PUSH2 0x1BEE JUMP JUMPDEST POP POP JUMP JUMPDEST PUSH1 0x1F DUP3 GT ISZERO PUSH2 0x1C50 JUMPI PUSH2 0x1C21 DUP2 PUSH2 0x1AFB JUMP JUMPDEST PUSH2 0x1C2A DUP5 PUSH2 0x1B0D JUMP JUMPDEST DUP2 ADD PUSH1 0x20 DUP6 LT ISZERO PUSH2 0x1C39 JUMPI DUP2 SWAP1 POP JUMPDEST PUSH2 0x1C4D PUSH2 0x1C45 DUP6 PUSH2 0x1B0D JUMP JUMPDEST DUP4 ADD DUP3 PUSH2 0x1BED JUMP JUMPDEST POP POP JUMPDEST POP POP POP JUMP JUMPDEST PUSH0 DUP3 DUP3 SHR SWAP1 POP SWAP3 SWAP2 POP POP JUMP JUMPDEST PUSH0 PUSH2 0x1C70 PUSH0 NOT DUP5 PUSH1 0x8 MUL PUSH2 0x1C55 JUMP JUMPDEST NOT DUP1 DUP4 AND SWAP2 POP POP SWAP3 SWAP2 POP POP JUMP JUMPDEST PUSH0 PUSH2 0x1C88 DUP4 DUP4 PUSH2 0x1C61 JUMP JUMPDEST SWAP2 POP DUP3 PUSH1 0x2 MUL DUP3 OR SWAP1 POP SWAP3 SWAP2 POP POP JUMP JUMPDEST PUSH2 0x1CA1 DUP3 PUSH2 0x1325 JUMP JUMPDEST PUSH8 0xFFFFFFFFFFFFFFFF DUP2 GT ISZERO PUSH2 0x1CBA JUMPI PUSH2 0x1CB9 PUSH2 0x163F JUMP JUMPDEST JUMPDEST PUSH2 0x1CC4 DUP3 SLOAD PUSH2 0x1986 JUMP JUMPDEST PUSH2 0x1CCF DUP3 DUP3 DUP6 PUSH2 0x1C0F JUMP JUMPDEST PUSH0 PUSH1 0x20 SWAP1 POP PUSH1 0x1F DUP4 GT PUSH1 0x1 DUP2 EQ PUSH2 0x1D00 JUMPI PUSH0 DUP5 ISZERO PUSH2 0x1CEE JUMPI DUP3 DUP8 ADD MLOAD SWAP1 POP JUMPDEST PUSH2 0x1CF8 DUP6 DUP3 PUSH2 0x1C7D JUMP JUMPDEST DUP7 SSTORE POP PUSH2 0x1D5F JUMP JUMPDEST PUSH1 0x1F NOT DUP5 AND PUSH2 0x1D0E DUP7 PUSH2 0x1AFB JUMP JUMPDEST PUSH0 JUMPDEST DUP3 DUP2 LT ISZERO PUSH2 0x1D35 JUMPI DUP5 DUP10 ADD MLOAD DUP3 SSTORE PUSH1 0x1 DUP3 ADD SWAP2 POP PUSH1 0x20 DUP6 ADD SWAP5 POP PUSH1 0x20 DUP2 ADD SWAP1 POP PUSH2 0x1D10 JUMP JUMPDEST DUP7 DUP4 LT ISZERO PUSH2 0x1D52 JUMPI DUP5 DUP10 ADD MLOAD PUSH2 0x1D4E PUSH1 0x1F DUP10 AND DUP3 PUSH2 0x1C61 JUMP JUMPDEST DUP4 SSTORE POP JUMPDEST PUSH1 0x1 PUSH1 0x2 DUP9 MUL ADD DUP9 SSTORE POP POP POP JUMPDEST POP POP POP POP POP POP JUMP JUMPDEST PUSH0 PUSH2 0x1D71 DUP3 PUSH2 0x12B8 JUMP JUMPDEST SWAP2 POP PUSH32 0xFFFFFFFFFFFFFFFFFFFFFFFFFFFFFFFFFFFFFFFFFFFFFFFFFFFFFFFFFFFFFFFF DUP3 SUB PUSH2 0x1DA3 JUMPI PUSH2 0x1DA2 PUSH2 0x19B6 JUMP JUMPDEST JUMPDEST PUSH1 0x1 DUP3 ADD SWAP1 POP SWAP2 SWAP1 POP JUMP JUMPDEST PUSH0 PUSH2 0x1DB8 DUP3 PUSH2 0x12B8 JUMP JUMPDEST SWAP2 POP PUSH2 0x1DC3 DUP4 PUSH2 0x12B8 JUMP JUMPDEST SWAP3 POP DUP3 DUP3 SUB SWAP1 POP DUP2 DUP2 GT ISZERO PUSH2 0x1DDB JUMPI PUSH2 0x1DDA PUSH2 0x19B6 JUMP JUMPDEST JUMPDEST SWAP3 SWAP2 POP POP JUMP JUMPDEST PUSH0 DUP2 SLOAD PUSH2 0x1DED DUP2 PUSH2 0x1986 JUMP JUMPDEST PUSH2 0x1DF7 DUP2 DUP7 PUSH2 0x1A43 JUMP JUMPDEST SWAP5 POP PUSH1 0x1 DUP3 AND PUSH0 DUP2 EQ PUSH2 0x1E11 JUMPI PUSH1 0x1 DUP2 EQ PUSH2 0x1E26 JUMPI PUSH2 0x1E58 JUMP JUMPDEST PUSH1 0xFF NOT DUP4 AND DUP7 MSTORE DUP2 ISZERO ISZERO DUP3 MUL DUP7 ADD SWAP4 POP PUSH2 0x1E58 JUMP JUMPDEST PUSH2 0x1E2F DUP6 PUSH2 0x1AFB JUMP JUMPDEST PUSH0 JUMPDEST DUP4 DUP2 LT ISZERO PUSH2 0x1E50 JUMPI DUP2 SLOAD DUP2 DUP10 ADD MSTORE PUSH1 0x1 DUP3 ADD SWAP2 POP PUSH1 0x20 DUP2 ADD SWAP1 POP PUSH2 0x1E31 JUMP JUMPDEST DUP4 DUP9 ADD SWAP6 POP POP POP JUMPDEST POP POP POP SWAP3 SWAP2 POP POP JUMP JUMPDEST PUSH0 PUSH2 0x1E6C DUP3 DUP5 PUSH2 0x1DE1 JUMP JUMPDEST SWAP2 POP DUP2 SWAP1 POP SWAP3 SWAP2 POP POP JUMP JUMPDEST PUSH32 0x4E487B7100000000000000000000000000000000000000000000000000000000 PUSH0 MSTORE PUSH1 0x12 PUSH1 0x4 MSTORE PUSH1 0x24 PUSH0 REVERT JUMPDEST PUSH0 PUSH2 0x1EAE DUP3 PUSH2 0x12B8 JUMP JUMPDEST SWAP2 POP PUSH2 0x1EB9 DUP4 PUSH2 0x12B8 JUMP JUMPDEST SWAP3 POP DUP3 PUSH2 0x1EC9 JUMPI PUSH2 0x1EC8 PUSH2 0x1E77 JUMP JUMPDEST JUMPDEST DUP3 DUP3 DIV SWAP1 POP SWAP3 SWAP2 POP POP JUMP INVALID LOG2 PUSH5 0x6970667358 0x22 SLT KECCAK256 0x27 ADDMOD PUSH19 0xF6FF83B0B49142D5842F3D52FB4C85587862A9 0xE6 SGT JUMPI SWAP4 0x23 PUSH26 0x32FDF95164736F6C634300081A00330000000000000000000000 "
				},
				"gasEstimates": {
					"creation": {
						"codeDepositCost": "1589200",
						"executionCost": "6669",
						"totalCost": "1595869"
					},
					"external": {
						"addStudent(string,string,uint256,uint256,uint256,uint256)": "infinite",
						"deleteStudent(uint256)": "infinite",
						"getAllStudents()": "infinite",
						"searchStudentByName(string)": "infinite",
						"sortStudentsByGPA()": "infinite",
						"sortStudentsByID()": "infinite",
						"sortStudentsByName()": "infinite",
						"studentCount()": "2468",
						"students(uint256)": "infinite",
						"updateStudent(uint256,string,string,uint256,uint256,uint256,uint256)": "infinite"
					},
					"internal": {
						"calculateGPA(uint256,uint256,uint256)": "infinite",
						"classifyPerformance(uint256)": "infinite"
					}
				},
				"methodIdentifiers": {
					"addStudent(string,string,uint256,uint256,uint256,uint256)": "a2d8919b",
					"deleteStudent(uint256)": "b645307d",
					"getAllStudents()": "e9e30927",
					"searchStudentByName(string)": "ef046ccf",
					"sortStudentsByGPA()": "b0b627af",
					"sortStudentsByID()": "82516a9b",
					"sortStudentsByName()": "6635f2f3",
					"studentCount()": "e581f9ee",
					"students(uint256)": "06ead22e",
					"updateStudent(uint256,string,string,uint256,uint256,uint256,uint256)": "9c9e9664"
				}
			},
			"storageLayout": {
				"storage": [
					{
						"astId": 4,
						"contract": "contracts/StudentManager.sol:StudentManager",
						"label": "studentCount",
						"offset": 0,
						"slot": "0",
						"type": "t_uint256"
					},
					{
						"astId": 28,
						"contract": "contracts/StudentManager.sol:StudentManager",
						"label": "students",
						"offset": 0,
						"slot": "1",
						"type": "t_mapping(t_uint256,t_struct(Student)23_storage)"
					}
				],
				"types": {
					"t_mapping(t_uint256,t_struct(Student)23_storage)": {
						"encoding": "mapping",
						"key": "t_uint256",
						"label": "mapping(uint256 => struct StudentManager.Student)",
						"numberOfBytes": "32",
						"value": "t_struct(Student)23_storage"
					},
					"t_string_storage": {
						"encoding": "bytes",
						"label": "string",
						"numberOfBytes": "32"
					},
					"t_struct(Student)23_storage": {
						"encoding": "inplace",
						"label": "struct StudentManager.Student",
						"members": [
							{
								"astId": 6,
								"contract": "contracts/StudentManager.sol:StudentManager",
								"label": "id",
								"offset": 0,
								"slot": "0",
								"type": "t_uint256"
							},
							{
								"astId": 8,
								"contract": "contracts/StudentManager.sol:StudentManager",
								"label": "name",
								"offset": 0,
								"slot": "1",
								"type": "t_string_storage"
							},
							{
								"astId": 10,
								"contract": "contracts/StudentManager.sol:StudentManager",
								"label": "gender",
								"offset": 0,
								"slot": "2",
								"type": "t_string_storage"
							},
							{
								"astId": 12,
								"contract": "contracts/StudentManager.sol:StudentManager",
								"label": "age",
								"offset": 0,
								"slot": "3",
								"type": "t_uint256"
							},
							{
								"astId": 14,
								"contract": "contracts/StudentManager.sol:StudentManager",
								"label": "mathScore",
								"offset": 0,
								"slot": "4",
								"type": "t_uint256"
							},
							{
								"astId": 16,
								"contract": "contracts/StudentManager.sol:StudentManager",
								"label": "physicsScore",
								"offset": 0,
								"slot": "5",
								"type": "t_uint256"
							},
							{
								"astId": 18,
								"contract": "contracts/StudentManager.sol:StudentManager",
								"label": "chemistryScore",
								"offset": 0,
								"slot": "6",
								"type": "t_uint256"
							},
							{
								"astId": 20,
								"contract": "contracts/StudentManager.sol:StudentManager",
								"label": "gpa",
								"offset": 0,
								"slot": "7",
								"type": "t_uint256"
							},
							{
								"astId": 22,
								"contract": "contracts/StudentManager.sol:StudentManager",
								"label": "academicPerformance",
								"offset": 0,
								"slot": "8",
								"type": "t_string_storage"
							}
						],
						"numberOfBytes": "288"
					},
					"t_uint256": {
						"encoding": "inplace",
						"label": "uint256",
						"numberOfBytes": "32"
					}
				}
			},
			"userdoc": {
				"kind": "user",
				"methods": {},
				"version": 1
			}
		}
	}
}