{
	"contracts/LendingContract.sol": {
		"LendingContract": {
			"abi": [
				{
					"anonymous": false,
					"inputs": [
						{
							"indexed": true,
							"internalType": "address",
							"name": "borrower",
							"type": "address"
						},
						{
							"indexed": false,
							"internalType": "uint256",
							"name": "amount",
							"type": "uint256"
						}
					],
					"name": "Borrow",
					"type": "event"
				},
				{
					"anonymous": false,
					"inputs": [
						{
							"indexed": true,
							"internalType": "address",
							"name": "lender",
							"type": "address"
						},
						{
							"indexed": false,
							"internalType": "uint256",
							"name": "amount",
							"type": "uint256"
						}
					],
					"name": "Lend",
					"type": "event"
				},
				{
					"anonymous": false,
					"inputs": [
						{
							"indexed": true,
							"internalType": "address",
							"name": "borrower",
							"type": "address"
						},
						{
							"indexed": false,
							"internalType": "uint256",
							"name": "amount",
							"type": "uint256"
						}
					],
					"name": "Repay",
					"type": "event"
				},
				{
					"inputs": [
						{
							"internalType": "address",
							"name": "",
							"type": "address"
						}
					],
					"name": "balances",
					"outputs": [
						{
							"internalType": "uint256",
							"name": "",
							"type": "uint256"
						}
					],
					"stateMutability": "view",
					"type": "function"
				},
				{
					"inputs": [
						{
							"internalType": "uint256",
							"name": "amount",
							"type": "uint256"
						}
					],
					"name": "borrow",
					"outputs": [],
					"stateMutability": "nonpayable",
					"type": "function"
				},
				{
					"inputs": [],
					"name": "getContractBalance",
					"outputs": [
						{
							"internalType": "uint256",
							"name": "",
							"type": "uint256"
						}
					],
					"stateMutability": "view",
					"type": "function"
				},
				{
					"inputs": [],
					"name": "lend",
					"outputs": [],
					"stateMutability": "payable",
					"type": "function"
				},
				{
					"inputs": [
						{
							"internalType": "address",
							"name": "",
							"type": "address"
						}
					],
					"name": "loans",
					"outputs": [
						{
							"internalType": "uint256",
							"name": "amount",
							"type": "uint256"
						},
						{
							"internalType": "bool",
							"name": "active",
							"type": "bool"
						}
					],
					"stateMutability": "view",
					"type": "function"
				},
				{
					"inputs": [],
					"name": "repay",
					"outputs": [],
					"stateMutability": "payable",
					"type": "function"
				}
			],
			"devdoc": {
				"kind": "dev",
				"methods": {},
				"version": 1
			},
			"evm": {
				"assembly": "    /* \"contracts/LendingContract.sol\":57:1866  contract LendingContract {... */\n  mstore(0x40, 0x80)\n  callvalue\n  dup1\n  iszero\n  tag_1\n  jumpi\n  0x00\n  dup1\n  revert\ntag_1:\n  pop\n  dataSize(sub_0)\n  dup1\n  dataOffset(sub_0)\n  0x00\n  codecopy\n  0x00\n  return\nstop\n\nsub_0: assembly {\n        /* \"contracts/LendingContract.sol\":57:1866  contract LendingContract {... */\n      mstore(0x40, 0x80)\n      jumpi(tag_1, lt(calldatasize, 0x04))\n      shr(0xe0, calldataload(0x00))\n      dup1\n      0x27e235e3\n      eq\n      tag_2\n      jumpi\n      dup1\n      0x402d8883\n      eq\n      tag_3\n      jumpi\n      dup1\n      0x6f9fb98a\n      eq\n      tag_4\n      jumpi\n      dup1\n      0x73b4086b\n      eq\n      tag_5\n      jumpi\n      dup1\n      0x97dffc61\n      eq\n      tag_6\n      jumpi\n      dup1\n      0xc5ebeaec\n      eq\n      tag_7\n      jumpi\n    tag_1:\n      0x00\n      dup1\n      revert\n        /* \"contracts/LendingContract.sol\":158:201  mapping(address => uint256) public balances */\n    tag_2:\n      callvalue\n      dup1\n      iszero\n      tag_8\n      jumpi\n      0x00\n      dup1\n      revert\n    tag_8:\n      pop\n      tag_9\n      0x04\n      dup1\n      calldatasize\n      sub\n      dup2\n      add\n      swap1\n      tag_10\n      swap2\n      swap1\n      tag_11\n      jump\t// in\n    tag_10:\n      tag_12\n      jump\t// in\n    tag_9:\n      mload(0x40)\n      tag_13\n      swap2\n      swap1\n      tag_14\n      jump\t// in\n    tag_13:\n      mload(0x40)\n      dup1\n      swap2\n      sub\n      swap1\n      return\n        /* \"contracts/LendingContract.sol\":1354:1706  function repay() public payable {... */\n    tag_3:\n      tag_15\n      tag_16\n      jump\t// in\n    tag_15:\n      stop\n        /* \"contracts/LendingContract.sol\":1759:1864  function getContractBalance() public view returns (uint256) {... */\n    tag_4:\n      callvalue\n      dup1\n      iszero\n      tag_17\n      jumpi\n      0x00\n      dup1\n      revert\n    tag_17:\n      pop\n      tag_18\n      tag_19\n      jump\t// in\n    tag_18:\n      mload(0x40)\n      tag_20\n      swap2\n      swap1\n      tag_14\n      jump\t// in\n    tag_20:\n      mload(0x40)\n      dup1\n      swap2\n      sub\n      swap1\n      return\n        /* \"contracts/LendingContract.sol\":207:244  mapping(address => Loan) public loans */\n    tag_5:\n      callvalue\n      dup1\n      iszero\n      tag_21\n      jumpi\n      0x00\n      dup1\n      revert\n    tag_21:\n      pop\n      tag_22\n      0x04\n      dup1\n      calldatasize\n      sub\n      dup2\n      add\n      swap1\n      tag_23\n      swap2\n      swap1\n      tag_11\n      jump\t// in\n    tag_23:\n      tag_24\n      jump\t// in\n    tag_22:\n      mload(0x40)\n      tag_25\n      swap3\n      swap2\n      swap1\n      tag_26\n      jump\t// in\n    tag_25:\n      mload(0x40)\n      dup1\n      swap2\n      sub\n      swap1\n      return\n        /* \"contracts/LendingContract.sol\":526:709  function lend() public payable {... */\n    tag_6:\n      tag_27\n      tag_28\n      jump\t// in\n    tag_27:\n      stop\n        /* \"contracts/LendingContract.sol\":800:1294  function borrow(uint256 amount) public {... */\n    tag_7:\n      callvalue\n      dup1\n      iszero\n      tag_29\n      jumpi\n      0x00\n      dup1\n      revert\n    tag_29:\n      pop\n      tag_30\n      0x04\n      dup1\n      calldatasize\n      sub\n      dup2\n      add\n      swap1\n      tag_31\n      swap2\n      swap1\n      tag_32\n      jump\t// in\n    tag_31:\n      tag_33\n      jump\t// in\n    tag_30:\n      stop\n        /* \"contracts/LendingContract.sol\":158:201  mapping(address => uint256) public balances */\n    tag_12:\n      mstore(0x20, 0x00)\n      dup1\n      0x00\n      mstore\n      keccak256(0x00, 0x40)\n      0x00\n      swap2\n      pop\n      swap1\n      pop\n      sload\n      dup2\n      jump\t// out\n        /* \"contracts/LendingContract.sol\":1354:1706  function repay() public payable {... */\n    tag_16:\n        /* \"contracts/LendingContract.sol\":1396:1412  Loan memory loan */\n      0x00\n        /* \"contracts/LendingContract.sol\":1415:1420  loans */\n      0x01\n        /* \"contracts/LendingContract.sol\":1415:1432  loans[msg.sender] */\n      0x00\n        /* \"contracts/LendingContract.sol\":1421:1431  msg.sender */\n      caller\n        /* \"contracts/LendingContract.sol\":1415:1432  loans[msg.sender] */\n      0xffffffffffffffffffffffffffffffffffffffff\n      and\n      0xffffffffffffffffffffffffffffffffffffffff\n      and\n      dup2\n      mstore\n      0x20\n      add\n      swap1\n      dup2\n      mstore\n      0x20\n      add\n      0x00\n      keccak256\n        /* \"contracts/LendingContract.sol\":1396:1432  Loan memory loan = loans[msg.sender] */\n      mload(0x40)\n      dup1\n      0x40\n      add\n      0x40\n      mstore\n      swap1\n      dup2\n      0x00\n      dup3\n      add\n      sload\n      dup2\n      mstore\n      0x20\n      add\n      0x01\n      dup3\n      add\n      0x00\n      swap1\n      sload\n      swap1\n      0x0100\n      exp\n      swap1\n      div\n      0xff\n      and\n      iszero\n      iszero\n      iszero\n      iszero\n      dup2\n      mstore\n      pop\n      pop\n      swap1\n      pop\n        /* \"contracts/LendingContract.sol\":1450:1454  loan */\n      dup1\n        /* \"contracts/LendingContract.sol\":1450:1461  loan.active */\n      0x20\n      add\n      mload\n        /* \"contracts/LendingContract.sol\":1442:1487  require(loan.active, \"No active loan found.\") */\n      tag_35\n      jumpi\n      mload(0x40)\n      0x08c379a000000000000000000000000000000000000000000000000000000000\n      dup2\n      mstore\n      0x04\n      add\n      tag_36\n      swap1\n      tag_37\n      jump\t// in\n    tag_36:\n      mload(0x40)\n      dup1\n      swap2\n      sub\n      swap1\n      revert\n    tag_35:\n        /* \"contracts/LendingContract.sol\":1518:1522  loan */\n      dup1\n        /* \"contracts/LendingContract.sol\":1518:1529  loan.amount */\n      0x00\n      add\n      mload\n        /* \"contracts/LendingContract.sol\":1505:1514  msg.value */\n      callvalue\n        /* \"contracts/LendingContract.sol\":1505:1529  msg.value == loan.amount */\n      eq\n        /* \"contracts/LendingContract.sol\":1497:1567  require(msg.value == loan.amount, \"Repayment amount must match loan.\") */\n      tag_38\n      jumpi\n      mload(0x40)\n      0x08c379a000000000000000000000000000000000000000000000000000000000\n      dup2\n      mstore\n      0x04\n      add\n      tag_39\n      swap1\n      tag_40\n      jump\t// in\n    tag_39:\n      mload(0x40)\n      dup1\n      swap2\n      sub\n      swap1\n      revert\n    tag_38:\n        /* \"contracts/LendingContract.sol\":1605:1610  false */\n      0x00\n        /* \"contracts/LendingContract.sol\":1578:1583  loans */\n      0x01\n        /* \"contracts/LendingContract.sol\":1578:1595  loans[msg.sender] */\n      0x00\n        /* \"contracts/LendingContract.sol\":1584:1594  msg.sender */\n      caller\n        /* \"contracts/LendingContract.sol\":1578:1595  loans[msg.sender] */\n      0xffffffffffffffffffffffffffffffffffffffff\n      and\n      0xffffffffffffffffffffffffffffffffffffffff\n      and\n      dup2\n      mstore\n      0x20\n      add\n      swap1\n      dup2\n      mstore\n      0x20\n      add\n      0x00\n      keccak256\n        /* \"contracts/LendingContract.sol\":1578:1602  loans[msg.sender].active */\n      0x01\n      add\n      0x00\n        /* \"contracts/LendingContract.sol\":1578:1610  loans[msg.sender].active = false */\n      0x0100\n      exp\n      dup2\n      sload\n      dup2\n      0xff\n      mul\n      not\n      and\n      swap1\n      dup4\n      iszero\n      iszero\n      mul\n      or\n      swap1\n      sstore\n      pop\n        /* \"contracts/LendingContract.sol\":1647:1656  msg.value */\n      callvalue\n        /* \"contracts/LendingContract.sol\":1620:1628  balances */\n      0x00\n        /* \"contracts/LendingContract.sol\":1620:1643  balances[address(this)] */\n      dup1\n        /* \"contracts/LendingContract.sol\":1637:1641  this */\n      address\n        /* \"contracts/LendingContract.sol\":1620:1643  balances[address(this)] */\n      0xffffffffffffffffffffffffffffffffffffffff\n      and\n      0xffffffffffffffffffffffffffffffffffffffff\n      and\n      dup2\n      mstore\n      0x20\n      add\n      swap1\n      dup2\n      mstore\n      0x20\n      add\n      0x00\n      keccak256\n      0x00\n        /* \"contracts/LendingContract.sol\":1620:1656  balances[address(this)] += msg.value */\n      dup3\n      dup3\n      sload\n      tag_41\n      swap2\n      swap1\n      tag_42\n      jump\t// in\n    tag_41:\n      swap3\n      pop\n      pop\n      dup2\n      swap1\n      sstore\n      pop\n        /* \"contracts/LendingContract.sol\":1677:1687  msg.sender */\n      caller\n        /* \"contracts/LendingContract.sol\":1671:1699  Repay(msg.sender, msg.value) */\n      0xffffffffffffffffffffffffffffffffffffffff\n      and\n      0x5c16de4f8b59bd9caf0f49a545f25819a895ed223294290b408242e72a594231\n        /* \"contracts/LendingContract.sol\":1689:1698  msg.value */\n      callvalue\n        /* \"contracts/LendingContract.sol\":1671:1699  Repay(msg.sender, msg.value) */\n      mload(0x40)\n      tag_43\n      swap2\n      swap1\n      tag_14\n      jump\t// in\n    tag_43:\n      mload(0x40)\n      dup1\n      swap2\n      sub\n      swap1\n      log2\n        /* \"contracts/LendingContract.sol\":1386:1706  {... */\n      pop\n        /* \"contracts/LendingContract.sol\":1354:1706  function repay() public payable {... */\n      jump\t// out\n        /* \"contracts/LendingContract.sol\":1759:1864  function getContractBalance() public view returns (uint256) {... */\n    tag_19:\n        /* \"contracts/LendingContract.sol\":1810:1817  uint256 */\n      0x00\n        /* \"contracts/LendingContract.sol\":1836:1857  address(this).balance */\n      selfbalance\n        /* \"contracts/LendingContract.sol\":1829:1857  return address(this).balance */\n      swap1\n      pop\n        /* \"contracts/LendingContract.sol\":1759:1864  function getContractBalance() public view returns (uint256) {... */\n      swap1\n      jump\t// out\n        /* \"contracts/LendingContract.sol\":207:244  mapping(address => Loan) public loans */\n    tag_24:\n      mstore(0x20, 0x01)\n      dup1\n      0x00\n      mstore\n      keccak256(0x00, 0x40)\n      0x00\n      swap2\n      pop\n      swap1\n      pop\n      dup1\n      0x00\n      add\n      sload\n      swap1\n      dup1\n      0x01\n      add\n      0x00\n      swap1\n      sload\n      swap1\n      0x0100\n      exp\n      swap1\n      div\n      0xff\n      and\n      swap1\n      pop\n      dup3\n      jump\t// out\n        /* \"contracts/LendingContract.sol\":526:709  function lend() public payable {... */\n    tag_28:\n        /* \"contracts/LendingContract.sol\":587:588  0 */\n      0x00\n        /* \"contracts/LendingContract.sol\":575:584  msg.value */\n      callvalue\n        /* \"contracts/LendingContract.sol\":575:588  msg.value > 0 */\n      gt\n        /* \"contracts/LendingContract.sol\":567:617  require(msg.value > 0, \"Must send Ether to lend.\") */\n      tag_46\n      jumpi\n      mload(0x40)\n      0x08c379a000000000000000000000000000000000000000000000000000000000\n      dup2\n      mstore\n      0x04\n      add\n      tag_47\n      swap1\n      tag_48\n      jump\t// in\n    tag_47:\n      mload(0x40)\n      dup1\n      swap2\n      sub\n      swap1\n      revert\n    tag_46:\n        /* \"contracts/LendingContract.sol\":651:660  msg.value */\n      callvalue\n        /* \"contracts/LendingContract.sol\":627:635  balances */\n      0x00\n        /* \"contracts/LendingContract.sol\":627:647  balances[msg.sender] */\n      dup1\n        /* \"contracts/LendingContract.sol\":636:646  msg.sender */\n      caller\n        /* \"contracts/LendingContract.sol\":627:647  balances[msg.sender] */\n      0xffffffffffffffffffffffffffffffffffffffff\n      and\n      0xffffffffffffffffffffffffffffffffffffffff\n      and\n      dup2\n      mstore\n      0x20\n      add\n      swap1\n      dup2\n      mstore\n      0x20\n      add\n      0x00\n      keccak256\n      0x00\n        /* \"contracts/LendingContract.sol\":627:660  balances[msg.sender] += msg.value */\n      dup3\n      dup3\n      sload\n      tag_49\n      swap2\n      swap1\n      tag_42\n      jump\t// in\n    tag_49:\n      swap3\n      pop\n      pop\n      dup2\n      swap1\n      sstore\n      pop\n        /* \"contracts/LendingContract.sol\":680:690  msg.sender */\n      caller\n        /* \"contracts/LendingContract.sol\":675:702  Lend(msg.sender, msg.value) */\n      0xffffffffffffffffffffffffffffffffffffffff\n      and\n      0x41b123d2493c7b2067b8b7f49cf71532523d83ead11494d793531ece1fd4d046\n        /* \"contracts/LendingContract.sol\":692:701  msg.value */\n      callvalue\n        /* \"contracts/LendingContract.sol\":675:702  Lend(msg.sender, msg.value) */\n      mload(0x40)\n      tag_50\n      swap2\n      swap1\n      tag_14\n      jump\t// in\n    tag_50:\n      mload(0x40)\n      dup1\n      swap2\n      sub\n      swap1\n      log2\n        /* \"contracts/LendingContract.sol\":526:709  function lend() public payable {... */\n      jump\t// out\n        /* \"contracts/LendingContract.sol\":800:1294  function borrow(uint256 amount) public {... */\n    tag_33:\n        /* \"contracts/LendingContract.sol\":866:867  0 */\n      0x00\n        /* \"contracts/LendingContract.sol\":857:863  amount */\n      dup2\n        /* \"contracts/LendingContract.sol\":857:867  amount > 0 */\n      gt\n        /* \"contracts/LendingContract.sol\":849:913  require(amount > 0, \"Must request an amount greater than zero.\") */\n      tag_52\n      jumpi\n      mload(0x40)\n      0x08c379a000000000000000000000000000000000000000000000000000000000\n      dup2\n      mstore\n      0x04\n      add\n      tag_53\n      swap1\n      tag_54\n      jump\t// in\n    tag_53:\n      mload(0x40)\n      dup1\n      swap2\n      sub\n      swap1\n      revert\n    tag_52:\n        /* \"contracts/LendingContract.sol\":971:977  amount */\n      dup1\n        /* \"contracts/LendingContract.sol\":944:952  balances */\n      0x00\n        /* \"contracts/LendingContract.sol\":944:967  balances[address(this)] */\n      dup1\n        /* \"contracts/LendingContract.sol\":961:965  this */\n      address\n        /* \"contracts/LendingContract.sol\":944:967  balances[address(this)] */\n      0xffffffffffffffffffffffffffffffffffffffff\n      and\n      0xffffffffffffffffffffffffffffffffffffffff\n      and\n      dup2\n      mstore\n      0x20\n      add\n      swap1\n      dup2\n      mstore\n      0x20\n      add\n      0x00\n      keccak256\n      sload\n        /* \"contracts/LendingContract.sol\":944:977  balances[address(this)] >= amount */\n      lt\n      iszero\n        /* \"contracts/LendingContract.sol\":923:1034  require(... */\n      tag_55\n      jumpi\n      mload(0x40)\n      0x08c379a000000000000000000000000000000000000000000000000000000000\n      dup2\n      mstore\n      0x04\n      add\n      tag_56\n      swap1\n      tag_57\n      jump\t// in\n    tag_56:\n      mload(0x40)\n      dup1\n      swap2\n      sub\n      swap1\n      revert\n    tag_55:\n        /* \"contracts/LendingContract.sol\":1066:1071  loans */\n      0x01\n        /* \"contracts/LendingContract.sol\":1066:1083  loans[msg.sender] */\n      0x00\n        /* \"contracts/LendingContract.sol\":1072:1082  msg.sender */\n      caller\n        /* \"contracts/LendingContract.sol\":1066:1083  loans[msg.sender] */\n      0xffffffffffffffffffffffffffffffffffffffff\n      and\n      0xffffffffffffffffffffffffffffffffffffffff\n      and\n      dup2\n      mstore\n      0x20\n      add\n      swap1\n      dup2\n      mstore\n      0x20\n      add\n      0x00\n      keccak256\n        /* \"contracts/LendingContract.sol\":1066:1090  loans[msg.sender].active */\n      0x01\n      add\n      0x00\n      swap1\n      sload\n      swap1\n      0x0100\n      exp\n      swap1\n      div\n      0xff\n      and\n        /* \"contracts/LendingContract.sol\":1065:1090  !loans[msg.sender].active */\n      iszero\n        /* \"contracts/LendingContract.sol\":1044:1151  require(... */\n      tag_58\n      jumpi\n      mload(0x40)\n      0x08c379a000000000000000000000000000000000000000000000000000000000\n      dup2\n      mstore\n      0x04\n      add\n      tag_59\n      swap1\n      tag_60\n      jump\t// in\n    tag_59:\n      mload(0x40)\n      dup1\n      swap2\n      sub\n      swap1\n      revert\n    tag_58:\n        /* \"contracts/LendingContract.sol\":1182:1200  Loan(amount, true) */\n      mload(0x40)\n      dup1\n      0x40\n      add\n      0x40\n      mstore\n      dup1\n        /* \"contracts/LendingContract.sol\":1187:1193  amount */\n      dup3\n        /* \"contracts/LendingContract.sol\":1182:1200  Loan(amount, true) */\n      dup2\n      mstore\n      0x20\n      add\n        /* \"contracts/LendingContract.sol\":1195:1199  true */\n      0x01\n        /* \"contracts/LendingContract.sol\":1182:1200  Loan(amount, true) */\n      iszero\n      iszero\n      dup2\n      mstore\n      pop\n        /* \"contracts/LendingContract.sol\":1162:1167  loans */\n      0x01\n        /* \"contracts/LendingContract.sol\":1162:1179  loans[msg.sender] */\n      0x00\n        /* \"contracts/LendingContract.sol\":1168:1178  msg.sender */\n      caller\n        /* \"contracts/LendingContract.sol\":1162:1179  loans[msg.sender] */\n      0xffffffffffffffffffffffffffffffffffffffff\n      and\n      0xffffffffffffffffffffffffffffffffffffffff\n      and\n      dup2\n      mstore\n      0x20\n      add\n      swap1\n      dup2\n      mstore\n      0x20\n      add\n      0x00\n      keccak256\n        /* \"contracts/LendingContract.sol\":1162:1200  loans[msg.sender] = Loan(amount, true) */\n      0x00\n      dup3\n      add\n      mload\n      dup2\n      0x00\n      add\n      sstore\n      0x20\n      dup3\n      add\n      mload\n      dup2\n      0x01\n      add\n      exp(0x0100, 0x00)\n      dup2\n      sload\n      dup2\n      0xff\n      mul\n      not\n      and\n      swap1\n      dup4\n      iszero\n      iszero\n      mul\n      or\n      swap1\n      sstore\n      pop\n      swap1\n      pop\n      pop\n        /* \"contracts/LendingContract.sol\":1218:1228  msg.sender */\n      caller\n        /* \"contracts/LendingContract.sol\":1210:1238  payable(msg.sender).transfer */\n      0xffffffffffffffffffffffffffffffffffffffff\n      and\n        /* \"contracts/LendingContract.sol\":1210:1246  payable(msg.sender).transfer(amount) */\n      0x08fc\n        /* \"contracts/LendingContract.sol\":1239:1245  amount */\n      dup3\n        /* \"contracts/LendingContract.sol\":1210:1246  payable(msg.sender).transfer(amount) */\n      swap1\n      dup2\n      iszero\n      mul\n      swap1\n      mload(0x40)\n      0x00\n      mload(0x40)\n      dup1\n      dup4\n      sub\n      dup2\n      dup6\n      dup9\n      dup9\n      call\n      swap4\n      pop\n      pop\n      pop\n      pop\n      iszero\n      dup1\n      iszero\n      tag_62\n      jumpi\n      returndatasize\n      0x00\n      dup1\n      returndatacopy\n      revert(0x00, returndatasize)\n    tag_62:\n      pop\n        /* \"contracts/LendingContract.sol\":1268:1278  msg.sender */\n      caller\n        /* \"contracts/LendingContract.sol\":1261:1287  Borrow(msg.sender, amount) */\n      0xffffffffffffffffffffffffffffffffffffffff\n      and\n      0xcbc04eca7e9da35cb1393a6135a199ca52e450d5e9251cbd99f7847d33a36750\n        /* \"contracts/LendingContract.sol\":1280:1286  amount */\n      dup3\n        /* \"contracts/LendingContract.sol\":1261:1287  Borrow(msg.sender, amount) */\n      mload(0x40)\n      tag_63\n      swap2\n      swap1\n      tag_14\n      jump\t// in\n    tag_63:\n      mload(0x40)\n      dup1\n      swap2\n      sub\n      swap1\n      log2\n        /* \"contracts/LendingContract.sol\":800:1294  function borrow(uint256 amount) public {... */\n      pop\n      jump\t// out\n        /* \"#utility.yul\":88:205   */\n    tag_65:\n        /* \"#utility.yul\":197:198   */\n      0x00\n        /* \"#utility.yul\":194:195   */\n      dup1\n        /* \"#utility.yul\":187:199   */\n      revert\n        /* \"#utility.yul\":334:460   */\n    tag_67:\n        /* \"#utility.yul\":371:378   */\n      0x00\n        /* \"#utility.yul\":411:453   */\n      0xffffffffffffffffffffffffffffffffffffffff\n        /* \"#utility.yul\":404:409   */\n      dup3\n        /* \"#utility.yul\":400:454   */\n      and\n        /* \"#utility.yul\":389:454   */\n      swap1\n      pop\n        /* \"#utility.yul\":334:460   */\n      swap2\n      swap1\n      pop\n      jump\t// out\n        /* \"#utility.yul\":466:562   */\n    tag_68:\n        /* \"#utility.yul\":503:510   */\n      0x00\n        /* \"#utility.yul\":532:556   */\n      tag_97\n        /* \"#utility.yul\":550:555   */\n      dup3\n        /* \"#utility.yul\":532:556   */\n      tag_67\n      jump\t// in\n    tag_97:\n        /* \"#utility.yul\":521:556   */\n      swap1\n      pop\n        /* \"#utility.yul\":466:562   */\n      swap2\n      swap1\n      pop\n      jump\t// out\n        /* \"#utility.yul\":568:690   */\n    tag_69:\n        /* \"#utility.yul\":641:665   */\n      tag_99\n        /* \"#utility.yul\":659:664   */\n      dup2\n        /* \"#utility.yul\":641:665   */\n      tag_68\n      jump\t// in\n    tag_99:\n        /* \"#utility.yul\":634:639   */\n      dup2\n        /* \"#utility.yul\":631:666   */\n      eq\n        /* \"#utility.yul\":621:684   */\n      tag_100\n      jumpi\n        /* \"#utility.yul\":680:681   */\n      0x00\n        /* \"#utility.yul\":677:678   */\n      dup1\n        /* \"#utility.yul\":670:682   */\n      revert\n        /* \"#utility.yul\":621:684   */\n    tag_100:\n        /* \"#utility.yul\":568:690   */\n      pop\n      jump\t// out\n        /* \"#utility.yul\":696:835   */\n    tag_70:\n        /* \"#utility.yul\":742:747   */\n      0x00\n        /* \"#utility.yul\":780:786   */\n      dup2\n        /* \"#utility.yul\":767:787   */\n      calldataload\n        /* \"#utility.yul\":758:787   */\n      swap1\n      pop\n        /* \"#utility.yul\":796:829   */\n      tag_102\n        /* \"#utility.yul\":823:828   */\n      dup2\n        /* \"#utility.yul\":796:829   */\n      tag_69\n      jump\t// in\n    tag_102:\n        /* \"#utility.yul\":696:835   */\n      swap3\n      swap2\n      pop\n      pop\n      jump\t// out\n        /* \"#utility.yul\":841:1170   */\n    tag_11:\n        /* \"#utility.yul\":900:906   */\n      0x00\n        /* \"#utility.yul\":949:951   */\n      0x20\n        /* \"#utility.yul\":937:946   */\n      dup3\n        /* \"#utility.yul\":928:935   */\n      dup5\n        /* \"#utility.yul\":924:947   */\n      sub\n        /* \"#utility.yul\":920:952   */\n      slt\n        /* \"#utility.yul\":917:1036   */\n      iszero\n      tag_104\n      jumpi\n        /* \"#utility.yul\":955:1034   */\n      tag_105\n      tag_65\n      jump\t// in\n    tag_105:\n        /* \"#utility.yul\":917:1036   */\n    tag_104:\n        /* \"#utility.yul\":1075:1076   */\n      0x00\n        /* \"#utility.yul\":1100:1153   */\n      tag_106\n        /* \"#utility.yul\":1145:1152   */\n      dup5\n        /* \"#utility.yul\":1136:1142   */\n      dup3\n        /* \"#utility.yul\":1125:1134   */\n      dup6\n        /* \"#utility.yul\":1121:1143   */\n      add\n        /* \"#utility.yul\":1100:1153   */\n      tag_70\n      jump\t// in\n    tag_106:\n        /* \"#utility.yul\":1090:1153   */\n      swap2\n      pop\n        /* \"#utility.yul\":1046:1163   */\n      pop\n        /* \"#utility.yul\":841:1170   */\n      swap3\n      swap2\n      pop\n      pop\n      jump\t// out\n        /* \"#utility.yul\":1176:1253   */\n    tag_71:\n        /* \"#utility.yul\":1213:1220   */\n      0x00\n        /* \"#utility.yul\":1242:1247   */\n      dup2\n        /* \"#utility.yul\":1231:1247   */\n      swap1\n      pop\n        /* \"#utility.yul\":1176:1253   */\n      swap2\n      swap1\n      pop\n      jump\t// out\n        /* \"#utility.yul\":1259:1377   */\n    tag_72:\n        /* \"#utility.yul\":1346:1370   */\n      tag_109\n        /* \"#utility.yul\":1364:1369   */\n      dup2\n        /* \"#utility.yul\":1346:1370   */\n      tag_71\n      jump\t// in\n    tag_109:\n        /* \"#utility.yul\":1341:1344   */\n      dup3\n        /* \"#utility.yul\":1334:1371   */\n      mstore\n        /* \"#utility.yul\":1259:1377   */\n      pop\n      pop\n      jump\t// out\n        /* \"#utility.yul\":1383:1605   */\n    tag_14:\n        /* \"#utility.yul\":1476:1480   */\n      0x00\n        /* \"#utility.yul\":1514:1516   */\n      0x20\n        /* \"#utility.yul\":1503:1512   */\n      dup3\n        /* \"#utility.yul\":1499:1517   */\n      add\n        /* \"#utility.yul\":1491:1517   */\n      swap1\n      pop\n        /* \"#utility.yul\":1527:1598   */\n      tag_111\n        /* \"#utility.yul\":1595:1596   */\n      0x00\n        /* \"#utility.yul\":1584:1593   */\n      dup4\n        /* \"#utility.yul\":1580:1597   */\n      add\n        /* \"#utility.yul\":1571:1577   */\n      dup5\n        /* \"#utility.yul\":1527:1598   */\n      tag_72\n      jump\t// in\n    tag_111:\n        /* \"#utility.yul\":1383:1605   */\n      swap3\n      swap2\n      pop\n      pop\n      jump\t// out\n        /* \"#utility.yul\":1611:1701   */\n    tag_73:\n        /* \"#utility.yul\":1645:1652   */\n      0x00\n        /* \"#utility.yul\":1688:1693   */\n      dup2\n        /* \"#utility.yul\":1681:1694   */\n      iszero\n        /* \"#utility.yul\":1674:1695   */\n      iszero\n        /* \"#utility.yul\":1663:1695   */\n      swap1\n      pop\n        /* \"#utility.yul\":1611:1701   */\n      swap2\n      swap1\n      pop\n      jump\t// out\n        /* \"#utility.yul\":1707:1816   */\n    tag_74:\n        /* \"#utility.yul\":1788:1809   */\n      tag_114\n        /* \"#utility.yul\":1803:1808   */\n      dup2\n        /* \"#utility.yul\":1788:1809   */\n      tag_73\n      jump\t// in\n    tag_114:\n        /* \"#utility.yul\":1783:1786   */\n      dup3\n        /* \"#utility.yul\":1776:1810   */\n      mstore\n        /* \"#utility.yul\":1707:1816   */\n      pop\n      pop\n      jump\t// out\n        /* \"#utility.yul\":1822:2142   */\n    tag_26:\n        /* \"#utility.yul\":1937:1941   */\n      0x00\n        /* \"#utility.yul\":1975:1977   */\n      0x40\n        /* \"#utility.yul\":1964:1973   */\n      dup3\n        /* \"#utility.yul\":1960:1978   */\n      add\n        /* \"#utility.yul\":1952:1978   */\n      swap1\n      pop\n        /* \"#utility.yul\":1988:2059   */\n      tag_116\n        /* \"#utility.yul\":2056:2057   */\n      0x00\n        /* \"#utility.yul\":2045:2054   */\n      dup4\n        /* \"#utility.yul\":2041:2058   */\n      add\n        /* \"#utility.yul\":2032:2038   */\n      dup6\n        /* \"#utility.yul\":1988:2059   */\n      tag_72\n      jump\t// in\n    tag_116:\n        /* \"#utility.yul\":2069:2135   */\n      tag_117\n        /* \"#utility.yul\":2131:2133   */\n      0x20\n        /* \"#utility.yul\":2120:2129   */\n      dup4\n        /* \"#utility.yul\":2116:2134   */\n      add\n        /* \"#utility.yul\":2107:2113   */\n      dup5\n        /* \"#utility.yul\":2069:2135   */\n      tag_74\n      jump\t// in\n    tag_117:\n        /* \"#utility.yul\":1822:2142   */\n      swap4\n      swap3\n      pop\n      pop\n      pop\n      jump\t// out\n        /* \"#utility.yul\":2148:2270   */\n    tag_75:\n        /* \"#utility.yul\":2221:2245   */\n      tag_119\n        /* \"#utility.yul\":2239:2244   */\n      dup2\n        /* \"#utility.yul\":2221:2245   */\n      tag_71\n      jump\t// in\n    tag_119:\n        /* \"#utility.yul\":2214:2219   */\n      dup2\n        /* \"#utility.yul\":2211:2246   */\n      eq\n        /* \"#utility.yul\":2201:2264   */\n      tag_120\n      jumpi\n        /* \"#utility.yul\":2260:2261   */\n      0x00\n        /* \"#utility.yul\":2257:2258   */\n      dup1\n        /* \"#utility.yul\":2250:2262   */\n      revert\n        /* \"#utility.yul\":2201:2264   */\n    tag_120:\n        /* \"#utility.yul\":2148:2270   */\n      pop\n      jump\t// out\n        /* \"#utility.yul\":2276:2415   */\n    tag_76:\n        /* \"#utility.yul\":2322:2327   */\n      0x00\n        /* \"#utility.yul\":2360:2366   */\n      dup2\n        /* \"#utility.yul\":2347:2367   */\n      calldataload\n        /* \"#utility.yul\":2338:2367   */\n      swap1\n      pop\n        /* \"#utility.yul\":2376:2409   */\n      tag_122\n        /* \"#utility.yul\":2403:2408   */\n      dup2\n        /* \"#utility.yul\":2376:2409   */\n      tag_75\n      jump\t// in\n    tag_122:\n        /* \"#utility.yul\":2276:2415   */\n      swap3\n      swap2\n      pop\n      pop\n      jump\t// out\n        /* \"#utility.yul\":2421:2750   */\n    tag_32:\n        /* \"#utility.yul\":2480:2486   */\n      0x00\n        /* \"#utility.yul\":2529:2531   */\n      0x20\n        /* \"#utility.yul\":2517:2526   */\n      dup3\n        /* \"#utility.yul\":2508:2515   */\n      dup5\n        /* \"#utility.yul\":2504:2527   */\n      sub\n        /* \"#utility.yul\":2500:2532   */\n      slt\n        /* \"#utility.yul\":2497:2616   */\n      iszero\n      tag_124\n      jumpi\n        /* \"#utility.yul\":2535:2614   */\n      tag_125\n      tag_65\n      jump\t// in\n    tag_125:\n        /* \"#utility.yul\":2497:2616   */\n    tag_124:\n        /* \"#utility.yul\":2655:2656   */\n      0x00\n        /* \"#utility.yul\":2680:2733   */\n      tag_126\n        /* \"#utility.yul\":2725:2732   */\n      dup5\n        /* \"#utility.yul\":2716:2722   */\n      dup3\n        /* \"#utility.yul\":2705:2714   */\n      dup6\n        /* \"#utility.yul\":2701:2723   */\n      add\n        /* \"#utility.yul\":2680:2733   */\n      tag_76\n      jump\t// in\n    tag_126:\n        /* \"#utility.yul\":2670:2733   */\n      swap2\n      pop\n        /* \"#utility.yul\":2626:2743   */\n      pop\n        /* \"#utility.yul\":2421:2750   */\n      swap3\n      swap2\n      pop\n      pop\n      jump\t// out\n        /* \"#utility.yul\":2756:2925   */\n    tag_77:\n        /* \"#utility.yul\":2840:2851   */\n      0x00\n        /* \"#utility.yul\":2874:2880   */\n      dup3\n        /* \"#utility.yul\":2869:2872   */\n      dup3\n        /* \"#utility.yul\":2862:2881   */\n      mstore\n        /* \"#utility.yul\":2914:2918   */\n      0x20\n        /* \"#utility.yul\":2909:2912   */\n      dup3\n        /* \"#utility.yul\":2905:2919   */\n      add\n        /* \"#utility.yul\":2890:2919   */\n      swap1\n      pop\n        /* \"#utility.yul\":2756:2925   */\n      swap3\n      swap2\n      pop\n      pop\n      jump\t// out\n        /* \"#utility.yul\":2931:3102   */\n    tag_78:\n        /* \"#utility.yul\":3071:3094   */\n      0x4e6f20616374697665206c6f616e20666f756e642e0000000000000000000000\n        /* \"#utility.yul\":3067:3068   */\n      0x00\n        /* \"#utility.yul\":3059:3065   */\n      dup3\n        /* \"#utility.yul\":3055:3069   */\n      add\n        /* \"#utility.yul\":3048:3095   */\n      mstore\n        /* \"#utility.yul\":2931:3102   */\n      pop\n      jump\t// out\n        /* \"#utility.yul\":3108:3474   */\n    tag_79:\n        /* \"#utility.yul\":3250:3253   */\n      0x00\n        /* \"#utility.yul\":3271:3338   */\n      tag_130\n        /* \"#utility.yul\":3335:3337   */\n      0x15\n        /* \"#utility.yul\":3330:3333   */\n      dup4\n        /* \"#utility.yul\":3271:3338   */\n      tag_77\n      jump\t// in\n    tag_130:\n        /* \"#utility.yul\":3264:3338   */\n      swap2\n      pop\n        /* \"#utility.yul\":3347:3440   */\n      tag_131\n        /* \"#utility.yul\":3436:3439   */\n      dup3\n        /* \"#utility.yul\":3347:3440   */\n      tag_78\n      jump\t// in\n    tag_131:\n        /* \"#utility.yul\":3465:3467   */\n      0x20\n        /* \"#utility.yul\":3460:3463   */\n      dup3\n        /* \"#utility.yul\":3456:3468   */\n      add\n        /* \"#utility.yul\":3449:3468   */\n      swap1\n      pop\n        /* \"#utility.yul\":3108:3474   */\n      swap2\n      swap1\n      pop\n      jump\t// out\n        /* \"#utility.yul\":3480:3899   */\n    tag_37:\n        /* \"#utility.yul\":3646:3650   */\n      0x00\n        /* \"#utility.yul\":3684:3686   */\n      0x20\n        /* \"#utility.yul\":3673:3682   */\n      dup3\n        /* \"#utility.yul\":3669:3687   */\n      add\n        /* \"#utility.yul\":3661:3687   */\n      swap1\n      pop\n        /* \"#utility.yul\":3733:3742   */\n      dup2\n        /* \"#utility.yul\":3727:3731   */\n      dup2\n        /* \"#utility.yul\":3723:3743   */\n      sub\n        /* \"#utility.yul\":3719:3720   */\n      0x00\n        /* \"#utility.yul\":3708:3717   */\n      dup4\n        /* \"#utility.yul\":3704:3721   */\n      add\n        /* \"#utility.yul\":3697:3744   */\n      mstore\n        /* \"#utility.yul\":3761:3892   */\n      tag_133\n        /* \"#utility.yul\":3887:3891   */\n      dup2\n        /* \"#utility.yul\":3761:3892   */\n      tag_79\n      jump\t// in\n    tag_133:\n        /* \"#utility.yul\":3753:3892   */\n      swap1\n      pop\n        /* \"#utility.yul\":3480:3899   */\n      swap2\n      swap1\n      pop\n      jump\t// out\n        /* \"#utility.yul\":3905:4125   */\n    tag_80:\n        /* \"#utility.yul\":4045:4079   */\n      0x52657061796d656e7420616d6f756e74206d757374206d61746368206c6f616e\n        /* \"#utility.yul\":4041:4042   */\n      0x00\n        /* \"#utility.yul\":4033:4039   */\n      dup3\n        /* \"#utility.yul\":4029:4043   */\n      add\n        /* \"#utility.yul\":4022:4080   */\n      mstore\n        /* \"#utility.yul\":4114:4117   */\n      0x2e00000000000000000000000000000000000000000000000000000000000000\n        /* \"#utility.yul\":4109:4111   */\n      0x20\n        /* \"#utility.yul\":4101:4107   */\n      dup3\n        /* \"#utility.yul\":4097:4112   */\n      add\n        /* \"#utility.yul\":4090:4118   */\n      mstore\n        /* \"#utility.yul\":3905:4125   */\n      pop\n      jump\t// out\n        /* \"#utility.yul\":4131:4497   */\n    tag_81:\n        /* \"#utility.yul\":4273:4276   */\n      0x00\n        /* \"#utility.yul\":4294:4361   */\n      tag_136\n        /* \"#utility.yul\":4358:4360   */\n      0x21\n        /* \"#utility.yul\":4353:4356   */\n      dup4\n        /* \"#utility.yul\":4294:4361   */\n      tag_77\n      jump\t// in\n    tag_136:\n        /* \"#utility.yul\":4287:4361   */\n      swap2\n      pop\n        /* \"#utility.yul\":4370:4463   */\n      tag_137\n        /* \"#utility.yul\":4459:4462   */\n      dup3\n        /* \"#utility.yul\":4370:4463   */\n      tag_80\n      jump\t// in\n    tag_137:\n        /* \"#utility.yul\":4488:4490   */\n      0x40\n        /* \"#utility.yul\":4483:4486   */\n      dup3\n        /* \"#utility.yul\":4479:4491   */\n      add\n        /* \"#utility.yul\":4472:4491   */\n      swap1\n      pop\n        /* \"#utility.yul\":4131:4497   */\n      swap2\n      swap1\n      pop\n      jump\t// out\n        /* \"#utility.yul\":4503:4922   */\n    tag_40:\n        /* \"#utility.yul\":4669:4673   */\n      0x00\n        /* \"#utility.yul\":4707:4709   */\n      0x20\n        /* \"#utility.yul\":4696:4705   */\n      dup3\n        /* \"#utility.yul\":4692:4710   */\n      add\n        /* \"#utility.yul\":4684:4710   */\n      swap1\n      pop\n        /* \"#utility.yul\":4756:4765   */\n      dup2\n        /* \"#utility.yul\":4750:4754   */\n      dup2\n        /* \"#utility.yul\":4746:4766   */\n      sub\n        /* \"#utility.yul\":4742:4743   */\n      0x00\n        /* \"#utility.yul\":4731:4740   */\n      dup4\n        /* \"#utility.yul\":4727:4744   */\n      add\n        /* \"#utility.yul\":4720:4767   */\n      mstore\n        /* \"#utility.yul\":4784:4915   */\n      tag_139\n        /* \"#utility.yul\":4910:4914   */\n      dup2\n        /* \"#utility.yul\":4784:4915   */\n      tag_81\n      jump\t// in\n    tag_139:\n        /* \"#utility.yul\":4776:4915   */\n      swap1\n      pop\n        /* \"#utility.yul\":4503:4922   */\n      swap2\n      swap1\n      pop\n      jump\t// out\n        /* \"#utility.yul\":4928:5108   */\n    tag_82:\n        /* \"#utility.yul\":4976:5053   */\n      0x4e487b7100000000000000000000000000000000000000000000000000000000\n        /* \"#utility.yul\":4973:4974   */\n      0x00\n        /* \"#utility.yul\":4966:5054   */\n      mstore\n        /* \"#utility.yul\":5073:5077   */\n      0x11\n        /* \"#utility.yul\":5070:5071   */\n      0x04\n        /* \"#utility.yul\":5063:5078   */\n      mstore\n        /* \"#utility.yul\":5097:5101   */\n      0x24\n        /* \"#utility.yul\":5094:5095   */\n      0x00\n        /* \"#utility.yul\":5087:5102   */\n      revert\n        /* \"#utility.yul\":5114:5305   */\n    tag_42:\n        /* \"#utility.yul\":5154:5157   */\n      0x00\n        /* \"#utility.yul\":5173:5193   */\n      tag_142\n        /* \"#utility.yul\":5191:5192   */\n      dup3\n        /* \"#utility.yul\":5173:5193   */\n      tag_71\n      jump\t// in\n    tag_142:\n        /* \"#utility.yul\":5168:5193   */\n      swap2\n      pop\n        /* \"#utility.yul\":5207:5227   */\n      tag_143\n        /* \"#utility.yul\":5225:5226   */\n      dup4\n        /* \"#utility.yul\":5207:5227   */\n      tag_71\n      jump\t// in\n    tag_143:\n        /* \"#utility.yul\":5202:5227   */\n      swap3\n      pop\n        /* \"#utility.yul\":5250:5251   */\n      dup3\n        /* \"#utility.yul\":5247:5248   */\n      dup3\n        /* \"#utility.yul\":5243:5252   */\n      add\n        /* \"#utility.yul\":5236:5252   */\n      swap1\n      pop\n        /* \"#utility.yul\":5271:5274   */\n      dup1\n        /* \"#utility.yul\":5268:5269   */\n      dup3\n        /* \"#utility.yul\":5265:5275   */\n      gt\n        /* \"#utility.yul\":5262:5298   */\n      iszero\n      tag_144\n      jumpi\n        /* \"#utility.yul\":5278:5296   */\n      tag_145\n      tag_82\n      jump\t// in\n    tag_145:\n        /* \"#utility.yul\":5262:5298   */\n    tag_144:\n        /* \"#utility.yul\":5114:5305   */\n      swap3\n      swap2\n      pop\n      pop\n      jump\t// out\n        /* \"#utility.yul\":5311:5485   */\n    tag_83:\n        /* \"#utility.yul\":5451:5477   */\n      0x4d7573742073656e6420457468657220746f206c656e642e0000000000000000\n        /* \"#utility.yul\":5447:5448   */\n      0x00\n        /* \"#utility.yul\":5439:5445   */\n      dup3\n        /* \"#utility.yul\":5435:5449   */\n      add\n        /* \"#utility.yul\":5428:5478   */\n      mstore\n        /* \"#utility.yul\":5311:5485   */\n      pop\n      jump\t// out\n        /* \"#utility.yul\":5491:5857   */\n    tag_84:\n        /* \"#utility.yul\":5633:5636   */\n      0x00\n        /* \"#utility.yul\":5654:5721   */\n      tag_148\n        /* \"#utility.yul\":5718:5720   */\n      0x18\n        /* \"#utility.yul\":5713:5716   */\n      dup4\n        /* \"#utility.yul\":5654:5721   */\n      tag_77\n      jump\t// in\n    tag_148:\n        /* \"#utility.yul\":5647:5721   */\n      swap2\n      pop\n        /* \"#utility.yul\":5730:5823   */\n      tag_149\n        /* \"#utility.yul\":5819:5822   */\n      dup3\n        /* \"#utility.yul\":5730:5823   */\n      tag_83\n      jump\t// in\n    tag_149:\n        /* \"#utility.yul\":5848:5850   */\n      0x20\n        /* \"#utility.yul\":5843:5846   */\n      dup3\n        /* \"#utility.yul\":5839:5851   */\n      add\n        /* \"#utility.yul\":5832:5851   */\n      swap1\n      pop\n        /* \"#utility.yul\":5491:5857   */\n      swap2\n      swap1\n      pop\n      jump\t// out\n        /* \"#utility.yul\":5863:6282   */\n    tag_48:\n        /* \"#utility.yul\":6029:6033   */\n      0x00\n        /* \"#utility.yul\":6067:6069   */\n      0x20\n        /* \"#utility.yul\":6056:6065   */\n      dup3\n        /* \"#utility.yul\":6052:6070   */\n      add\n        /* \"#utility.yul\":6044:6070   */\n      swap1\n      pop\n        /* \"#utility.yul\":6116:6125   */\n      dup2\n        /* \"#utility.yul\":6110:6114   */\n      dup2\n        /* \"#utility.yul\":6106:6126   */\n      sub\n        /* \"#utility.yul\":6102:6103   */\n      0x00\n        /* \"#utility.yul\":6091:6100   */\n      dup4\n        /* \"#utility.yul\":6087:6104   */\n      add\n        /* \"#utility.yul\":6080:6127   */\n      mstore\n        /* \"#utility.yul\":6144:6275   */\n      tag_151\n        /* \"#utility.yul\":6270:6274   */\n      dup2\n        /* \"#utility.yul\":6144:6275   */\n      tag_84\n      jump\t// in\n    tag_151:\n        /* \"#utility.yul\":6136:6275   */\n      swap1\n      pop\n        /* \"#utility.yul\":5863:6282   */\n      swap2\n      swap1\n      pop\n      jump\t// out\n        /* \"#utility.yul\":6288:6516   */\n    tag_85:\n        /* \"#utility.yul\":6428:6462   */\n      0x4d757374207265717565737420616e20616d6f756e7420677265617465722074\n        /* \"#utility.yul\":6424:6425   */\n      0x00\n        /* \"#utility.yul\":6416:6422   */\n      dup3\n        /* \"#utility.yul\":6412:6426   */\n      add\n        /* \"#utility.yul\":6405:6463   */\n      mstore\n        /* \"#utility.yul\":6497:6508   */\n      0x68616e207a65726f2e0000000000000000000000000000000000000000000000\n        /* \"#utility.yul\":6492:6494   */\n      0x20\n        /* \"#utility.yul\":6484:6490   */\n      dup3\n        /* \"#utility.yul\":6480:6495   */\n      add\n        /* \"#utility.yul\":6473:6509   */\n      mstore\n        /* \"#utility.yul\":6288:6516   */\n      pop\n      jump\t// out\n        /* \"#utility.yul\":6522:6888   */\n    tag_86:\n        /* \"#utility.yul\":6664:6667   */\n      0x00\n        /* \"#utility.yul\":6685:6752   */\n      tag_154\n        /* \"#utility.yul\":6749:6751   */\n      0x29\n        /* \"#utility.yul\":6744:6747   */\n      dup4\n        /* \"#utility.yul\":6685:6752   */\n      tag_77\n      jump\t// in\n    tag_154:\n        /* \"#utility.yul\":6678:6752   */\n      swap2\n      pop\n        /* \"#utility.yul\":6761:6854   */\n      tag_155\n        /* \"#utility.yul\":6850:6853   */\n      dup3\n        /* \"#utility.yul\":6761:6854   */\n      tag_85\n      jump\t// in\n    tag_155:\n        /* \"#utility.yul\":6879:6881   */\n      0x40\n        /* \"#utility.yul\":6874:6877   */\n      dup3\n        /* \"#utility.yul\":6870:6882   */\n      add\n        /* \"#utility.yul\":6863:6882   */\n      swap1\n      pop\n        /* \"#utility.yul\":6522:6888   */\n      swap2\n      swap1\n      pop\n      jump\t// out\n        /* \"#utility.yul\":6894:7313   */\n    tag_54:\n        /* \"#utility.yul\":7060:7064   */\n      0x00\n        /* \"#utility.yul\":7098:7100   */\n      0x20\n        /* \"#utility.yul\":7087:7096   */\n      dup3\n        /* \"#utility.yul\":7083:7101   */\n      add\n        /* \"#utility.yul\":7075:7101   */\n      swap1\n      pop\n        /* \"#utility.yul\":7147:7156   */\n      dup2\n        /* \"#utility.yul\":7141:7145   */\n      dup2\n        /* \"#utility.yul\":7137:7157   */\n      sub\n        /* \"#utility.yul\":7133:7134   */\n      0x00\n        /* \"#utility.yul\":7122:7131   */\n      dup4\n        /* \"#utility.yul\":7118:7135   */\n      add\n        /* \"#utility.yul\":7111:7158   */\n      mstore\n        /* \"#utility.yul\":7175:7306   */\n      tag_157\n        /* \"#utility.yul\":7301:7305   */\n      dup2\n        /* \"#utility.yul\":7175:7306   */\n      tag_86\n      jump\t// in\n    tag_157:\n        /* \"#utility.yul\":7167:7306   */\n      swap1\n      pop\n        /* \"#utility.yul\":6894:7313   */\n      swap2\n      swap1\n      pop\n      jump\t// out\n        /* \"#utility.yul\":7319:7500   */\n    tag_87:\n        /* \"#utility.yul\":7459:7492   */\n      0x496e73756666696369656e742066756e647320696e20636f6e74726163742e00\n        /* \"#utility.yul\":7455:7456   */\n      0x00\n        /* \"#utility.yul\":7447:7453   */\n      dup3\n        /* \"#utility.yul\":7443:7457   */\n      add\n        /* \"#utility.yul\":7436:7493   */\n      mstore\n        /* \"#utility.yul\":7319:7500   */\n      pop\n      jump\t// out\n        /* \"#utility.yul\":7506:7872   */\n    tag_88:\n        /* \"#utility.yul\":7648:7651   */\n      0x00\n        /* \"#utility.yul\":7669:7736   */\n      tag_160\n        /* \"#utility.yul\":7733:7735   */\n      0x1f\n        /* \"#utility.yul\":7728:7731   */\n      dup4\n        /* \"#utility.yul\":7669:7736   */\n      tag_77\n      jump\t// in\n    tag_160:\n        /* \"#utility.yul\":7662:7736   */\n      swap2\n      pop\n        /* \"#utility.yul\":7745:7838   */\n      tag_161\n        /* \"#utility.yul\":7834:7837   */\n      dup3\n        /* \"#utility.yul\":7745:7838   */\n      tag_87\n      jump\t// in\n    tag_161:\n        /* \"#utility.yul\":7863:7865   */\n      0x20\n        /* \"#utility.yul\":7858:7861   */\n      dup3\n        /* \"#utility.yul\":7854:7866   */\n      add\n        /* \"#utility.yul\":7847:7866   */\n      swap1\n      pop\n        /* \"#utility.yul\":7506:7872   */\n      swap2\n      swap1\n      pop\n      jump\t// out\n        /* \"#utility.yul\":7878:8297   */\n    tag_57:\n        /* \"#utility.yul\":8044:8048   */\n      0x00\n        /* \"#utility.yul\":8082:8084   */\n      0x20\n        /* \"#utility.yul\":8071:8080   */\n      dup3\n        /* \"#utility.yul\":8067:8085   */\n      add\n        /* \"#utility.yul\":8059:8085   */\n      swap1\n      pop\n        /* \"#utility.yul\":8131:8140   */\n      dup2\n        /* \"#utility.yul\":8125:8129   */\n      dup2\n        /* \"#utility.yul\":8121:8141   */\n      sub\n        /* \"#utility.yul\":8117:8118   */\n      0x00\n        /* \"#utility.yul\":8106:8115   */\n      dup4\n        /* \"#utility.yul\":8102:8119   */\n      add\n        /* \"#utility.yul\":8095:8142   */\n      mstore\n        /* \"#utility.yul\":8159:8290   */\n      tag_163\n        /* \"#utility.yul\":8285:8289   */\n      dup2\n        /* \"#utility.yul\":8159:8290   */\n      tag_88\n      jump\t// in\n    tag_163:\n        /* \"#utility.yul\":8151:8290   */\n      swap1\n      pop\n        /* \"#utility.yul\":7878:8297   */\n      swap2\n      swap1\n      pop\n      jump\t// out\n        /* \"#utility.yul\":8303:8525   */\n    tag_89:\n        /* \"#utility.yul\":8443:8477   */\n      0x4578697374696e67206c6f616e206d7573742062652072657061696420666972\n        /* \"#utility.yul\":8439:8440   */\n      0x00\n        /* \"#utility.yul\":8431:8437   */\n      dup3\n        /* \"#utility.yul\":8427:8441   */\n      add\n        /* \"#utility.yul\":8420:8478   */\n      mstore\n        /* \"#utility.yul\":8512:8517   */\n      0x73742e0000000000000000000000000000000000000000000000000000000000\n        /* \"#utility.yul\":8507:8509   */\n      0x20\n        /* \"#utility.yul\":8499:8505   */\n      dup3\n        /* \"#utility.yul\":8495:8510   */\n      add\n        /* \"#utility.yul\":8488:8518   */\n      mstore\n        /* \"#utility.yul\":8303:8525   */\n      pop\n      jump\t// out\n        /* \"#utility.yul\":8531:8897   */\n    tag_90:\n        /* \"#utility.yul\":8673:8676   */\n      0x00\n        /* \"#utility.yul\":8694:8761   */\n      tag_166\n        /* \"#utility.yul\":8758:8760   */\n      0x23\n        /* \"#utility.yul\":8753:8756   */\n      dup4\n        /* \"#utility.yul\":8694:8761   */\n      tag_77\n      jump\t// in\n    tag_166:\n        /* \"#utility.yul\":8687:8761   */\n      swap2\n      pop\n        /* \"#utility.yul\":8770:8863   */\n      tag_167\n        /* \"#utility.yul\":8859:8862   */\n      dup3\n        /* \"#utility.yul\":8770:8863   */\n      tag_89\n      jump\t// in\n    tag_167:\n        /* \"#utility.yul\":8888:8890   */\n      0x40\n        /* \"#utility.yul\":8883:8886   */\n      dup3\n        /* \"#utility.yul\":8879:8891   */\n      add\n        /* \"#utility.yul\":8872:8891   */\n      swap1\n      pop\n        /* \"#utility.yul\":8531:8897   */\n      swap2\n      swap1\n      pop\n      jump\t// out\n        /* \"#utility.yul\":8903:9322   */\n    tag_60:\n        /* \"#utility.yul\":9069:9073   */\n      0x00\n        /* \"#utility.yul\":9107:9109   */\n      0x20\n        /* \"#utility.yul\":9096:9105   */\n      dup3\n        /* \"#utility.yul\":9092:9110   */\n      add\n        /* \"#utility.yul\":9084:9110   */\n      swap1\n      pop\n        /* \"#utility.yul\":9156:9165   */\n      dup2\n        /* \"#utility.yul\":9150:9154   */\n      dup2\n        /* \"#utility.yul\":9146:9166   */\n      sub\n        /* \"#utility.yul\":9142:9143   */\n      0x00\n        /* \"#utility.yul\":9131:9140   */\n      dup4\n        /* \"#utility.yul\":9127:9144   */\n      add\n        /* \"#utility.yul\":9120:9167   */\n      mstore\n        /* \"#utility.yul\":9184:9315   */\n      tag_169\n        /* \"#utility.yul\":9310:9314   */\n      dup2\n        /* \"#utility.yul\":9184:9315   */\n      tag_90\n      jump\t// in\n    tag_169:\n        /* \"#utility.yul\":9176:9315   */\n      swap1\n      pop\n        /* \"#utility.yul\":8903:9322   */\n      swap2\n      swap1\n      pop\n      jump\t// out\n\n    auxdata: 0xa2646970667358221220aa57388f860804bfdccaa2a11d98eeb20c565fd74cdc3bdbb59cbeebe6dc47c064736f6c634300081a0033\n}\n",
				"bytecode": {
					"linkReferences": {},
					"object": "6080604052348015600e575f80fd5b50610b8d8061001c5f395ff3fe608060405260043610610054575f3560e01c806327e235e314610058578063402d8883146100945780636f9fb98a1461009e57806373b4086b146100c857806397dffc6114610105578063c5ebeaec1461010f575b5f80fd5b348015610063575f80fd5b5061007e60048036038101906100799190610713565b610137565b60405161008b9190610756565b60405180910390f35b61009c61014b565b005b3480156100a9575f80fd5b506100b261033c565b6040516100bf9190610756565b60405180910390f35b3480156100d3575f80fd5b506100ee60048036038101906100e99190610713565b610343565b6040516100fc929190610789565b60405180910390f35b61010d61036f565b005b34801561011a575f80fd5b50610135600480360381019061013091906107da565b610453565b005b5f602052805f5260405f205f915090505481565b5f60015f3373ffffffffffffffffffffffffffffffffffffffff1673ffffffffffffffffffffffffffffffffffffffff1681526020019081526020015f206040518060400160405290815f8201548152602001600182015f9054906101000a900460ff161515151581525050905080602001516101fd576040517f08c379a00000000000000000000000000000000000000000000000000000000081526004016101f49061085f565b60405180910390fd5b805f01513414610242576040517f08c379a0000000000000000000000000000000000000000000000000000000008152600401610239906108ed565b60405180910390fd5b5f60015f3373ffffffffffffffffffffffffffffffffffffffff1673ffffffffffffffffffffffffffffffffffffffff1681526020019081526020015f206001015f6101000a81548160ff021916908315150217905550345f803073ffffffffffffffffffffffffffffffffffffffff1673ffffffffffffffffffffffffffffffffffffffff1681526020019081526020015f205f8282546102e49190610938565b925050819055503373ffffffffffffffffffffffffffffffffffffffff167f5c16de4f8b59bd9caf0f49a545f25819a895ed223294290b408242e72a594231346040516103319190610756565b60405180910390a250565b5f47905090565b6001602052805f5260405f205f91509050805f015490806001015f9054906101000a900460ff16905082565b5f34116103b1576040517f08c379a00000000000000000000000000000000000000000000000000000000081526004016103a8906109b5565b60405180910390fd5b345f803373ffffffffffffffffffffffffffffffffffffffff1673ffffffffffffffffffffffffffffffffffffffff1681526020019081526020015f205f8282546103fc9190610938565b925050819055503373ffffffffffffffffffffffffffffffffffffffff167f41b123d2493c7b2067b8b7f49cf71532523d83ead11494d793531ece1fd4d046346040516104499190610756565b60405180910390a2565b5f8111610495576040517f08c379a000000000000000000000000000000000000000000000000000000000815260040161048c90610a43565b60405180910390fd5b805f803073ffffffffffffffffffffffffffffffffffffffff1673ffffffffffffffffffffffffffffffffffffffff1681526020019081526020015f20541015610514576040517f08c379a000000000000000000000000000000000000000000000000000000000815260040161050b90610aab565b60405180910390fd5b60015f3373ffffffffffffffffffffffffffffffffffffffff1673ffffffffffffffffffffffffffffffffffffffff1681526020019081526020015f206001015f9054906101000a900460ff16156105a1576040517f08c379a000000000000000000000000000000000000000000000000000000000815260040161059890610b39565b60405180910390fd5b60405180604001604052808281526020016001151581525060015f3373ffffffffffffffffffffffffffffffffffffffff1673ffffffffffffffffffffffffffffffffffffffff1681526020019081526020015f205f820151815f01556020820151816001015f6101000a81548160ff0219169083151502179055509050503373ffffffffffffffffffffffffffffffffffffffff166108fc8290811502906040515f60405180830381858888f19350505050158015610663573d5f803e3d5ffd5b503373ffffffffffffffffffffffffffffffffffffffff167fcbc04eca7e9da35cb1393a6135a199ca52e450d5e9251cbd99f7847d33a36750826040516106aa9190610756565b60405180910390a250565b5f80fd5b5f73ffffffffffffffffffffffffffffffffffffffff82169050919050565b5f6106e2826106b9565b9050919050565b6106f2816106d8565b81146106fc575f80fd5b50565b5f8135905061070d816106e9565b92915050565b5f60208284031215610728576107276106b5565b5b5f610735848285016106ff565b91505092915050565b5f819050919050565b6107508161073e565b82525050565b5f6020820190506107695f830184610747565b92915050565b5f8115159050919050565b6107838161076f565b82525050565b5f60408201905061079c5f830185610747565b6107a9602083018461077a565b9392505050565b6107b98161073e565b81146107c3575f80fd5b50565b5f813590506107d4816107b0565b92915050565b5f602082840312156107ef576107ee6106b5565b5b5f6107fc848285016107c6565b91505092915050565b5f82825260208201905092915050565b7f4e6f20616374697665206c6f616e20666f756e642e00000000000000000000005f82015250565b5f610849601583610805565b915061085482610815565b602082019050919050565b5f6020820190508181035f8301526108768161083d565b9050919050565b7f52657061796d656e7420616d6f756e74206d757374206d61746368206c6f616e5f8201527f2e00000000000000000000000000000000000000000000000000000000000000602082015250565b5f6108d7602183610805565b91506108e28261087d565b604082019050919050565b5f6020820190508181035f830152610904816108cb565b9050919050565b7f4e487b71000000000000000000000000000000000000000000000000000000005f52601160045260245ffd5b5f6109428261073e565b915061094d8361073e565b92508282019050808211156109655761096461090b565b5b92915050565b7f4d7573742073656e6420457468657220746f206c656e642e00000000000000005f82015250565b5f61099f601883610805565b91506109aa8261096b565b602082019050919050565b5f6020820190508181035f8301526109cc81610993565b9050919050565b7f4d757374207265717565737420616e20616d6f756e74206772656174657220745f8201527f68616e207a65726f2e0000000000000000000000000000000000000000000000602082015250565b5f610a2d602983610805565b9150610a38826109d3565b604082019050919050565b5f6020820190508181035f830152610a5a81610a21565b9050919050565b7f496e73756666696369656e742066756e647320696e20636f6e74726163742e005f82015250565b5f610a95601f83610805565b9150610aa082610a61565b602082019050919050565b5f6020820190508181035f830152610ac281610a89565b9050919050565b7f4578697374696e67206c6f616e206d75737420626520726570616964206669725f8201527f73742e0000000000000000000000000000000000000000000000000000000000602082015250565b5f610b23602383610805565b9150610b2e82610ac9565b604082019050919050565b5f6020820190508181035f830152610b5081610b17565b905091905056fea2646970667358221220aa57388f860804bfdccaa2a11d98eeb20c565fd74cdc3bdbb59cbeebe6dc47c064736f6c634300081a0033",
					"opcodes": "PUSH1 0x80 PUSH1 0x40 MSTORE CALLVALUE DUP1 ISZERO PUSH1 0xE JUMPI PUSH0 DUP1 REVERT JUMPDEST POP PUSH2 0xB8D DUP1 PUSH2 0x1C PUSH0 CODECOPY PUSH0 RETURN INVALID PUSH1 0x80 PUSH1 0x40 MSTORE PUSH1 0x4 CALLDATASIZE LT PUSH2 0x54 JUMPI PUSH0 CALLDATALOAD PUSH1 0xE0 SHR DUP1 PUSH4 0x27E235E3 EQ PUSH2 0x58 JUMPI DUP1 PUSH4 0x402D8883 EQ PUSH2 0x94 JUMPI DUP1 PUSH4 0x6F9FB98A EQ PUSH2 0x9E JUMPI DUP1 PUSH4 0x73B4086B EQ PUSH2 0xC8 JUMPI DUP1 PUSH4 0x97DFFC61 EQ PUSH2 0x105 JUMPI DUP1 PUSH4 0xC5EBEAEC EQ PUSH2 0x10F JUMPI JUMPDEST PUSH0 DUP1 REVERT JUMPDEST CALLVALUE DUP1 ISZERO PUSH2 0x63 JUMPI PUSH0 DUP1 REVERT JUMPDEST POP PUSH2 0x7E PUSH1 0x4 DUP1 CALLDATASIZE SUB DUP2 ADD SWAP1 PUSH2 0x79 SWAP2 SWAP1 PUSH2 0x713 JUMP JUMPDEST PUSH2 0x137 JUMP JUMPDEST PUSH1 0x40 MLOAD PUSH2 0x8B SWAP2 SWAP1 PUSH2 0x756 JUMP JUMPDEST PUSH1 0x40 MLOAD DUP1 SWAP2 SUB SWAP1 RETURN JUMPDEST PUSH2 0x9C PUSH2 0x14B JUMP JUMPDEST STOP JUMPDEST CALLVALUE DUP1 ISZERO PUSH2 0xA9 JUMPI PUSH0 DUP1 REVERT JUMPDEST POP PUSH2 0xB2 PUSH2 0x33C JUMP JUMPDEST PUSH1 0x40 MLOAD PUSH2 0xBF SWAP2 SWAP1 PUSH2 0x756 JUMP JUMPDEST PUSH1 0x40 MLOAD DUP1 SWAP2 SUB SWAP1 RETURN JUMPDEST CALLVALUE DUP1 ISZERO PUSH2 0xD3 JUMPI PUSH0 DUP1 REVERT JUMPDEST POP PUSH2 0xEE PUSH1 0x4 DUP1 CALLDATASIZE SUB DUP2 ADD SWAP1 PUSH2 0xE9 SWAP2 SWAP1 PUSH2 0x713 JUMP JUMPDEST PUSH2 0x343 JUMP JUMPDEST PUSH1 0x40 MLOAD PUSH2 0xFC SWAP3 SWAP2 SWAP1 PUSH2 0x789 JUMP JUMPDEST PUSH1 0x40 MLOAD DUP1 SWAP2 SUB SWAP1 RETURN JUMPDEST PUSH2 0x10D PUSH2 0x36F JUMP JUMPDEST STOP JUMPDEST CALLVALUE DUP1 ISZERO PUSH2 0x11A JUMPI PUSH0 DUP1 REVERT JUMPDEST POP PUSH2 0x135 PUSH1 0x4 DUP1 CALLDATASIZE SUB DUP2 ADD SWAP1 PUSH2 0x130 SWAP2 SWAP1 PUSH2 0x7DA JUMP JUMPDEST PUSH2 0x453 JUMP JUMPDEST STOP JUMPDEST PUSH0 PUSH1 0x20 MSTORE DUP1 PUSH0 MSTORE PUSH1 0x40 PUSH0 KECCAK256 PUSH0 SWAP2 POP SWAP1 POP SLOAD DUP2 JUMP JUMPDEST PUSH0 PUSH1 0x1 PUSH0 CALLER PUSH20 0xFFFFFFFFFFFFFFFFFFFFFFFFFFFFFFFFFFFFFFFF AND PUSH20 0xFFFFFFFFFFFFFFFFFFFFFFFFFFFFFFFFFFFFFFFF AND DUP2 MSTORE PUSH1 0x20 ADD SWAP1 DUP2 MSTORE PUSH1 0x20 ADD PUSH0 KECCAK256 PUSH1 0x40 MLOAD DUP1 PUSH1 0x40 ADD PUSH1 0x40 MSTORE SWAP1 DUP2 PUSH0 DUP3 ADD SLOAD DUP2 MSTORE PUSH1 0x20 ADD PUSH1 0x1 DUP3 ADD PUSH0 SWAP1 SLOAD SWAP1 PUSH2 0x100 EXP SWAP1 DIV PUSH1 0xFF AND ISZERO ISZERO ISZERO ISZERO DUP2 MSTORE POP POP SWAP1 POP DUP1 PUSH1 0x20 ADD MLOAD PUSH2 0x1FD JUMPI PUSH1 0x40 MLOAD PUSH32 0x8C379A000000000000000000000000000000000000000000000000000000000 DUP2 MSTORE PUSH1 0x4 ADD PUSH2 0x1F4 SWAP1 PUSH2 0x85F JUMP JUMPDEST PUSH1 0x40 MLOAD DUP1 SWAP2 SUB SWAP1 REVERT JUMPDEST DUP1 PUSH0 ADD MLOAD CALLVALUE EQ PUSH2 0x242 JUMPI PUSH1 0x40 MLOAD PUSH32 0x8C379A000000000000000000000000000000000000000000000000000000000 DUP2 MSTORE PUSH1 0x4 ADD PUSH2 0x239 SWAP1 PUSH2 0x8ED JUMP JUMPDEST PUSH1 0x40 MLOAD DUP1 SWAP2 SUB SWAP1 REVERT JUMPDEST PUSH0 PUSH1 0x1 PUSH0 CALLER PUSH20 0xFFFFFFFFFFFFFFFFFFFFFFFFFFFFFFFFFFFFFFFF AND PUSH20 0xFFFFFFFFFFFFFFFFFFFFFFFFFFFFFFFFFFFFFFFF AND DUP2 MSTORE PUSH1 0x20 ADD SWAP1 DUP2 MSTORE PUSH1 0x20 ADD PUSH0 KECCAK256 PUSH1 0x1 ADD PUSH0 PUSH2 0x100 EXP DUP2 SLOAD DUP2 PUSH1 0xFF MUL NOT AND SWAP1 DUP4 ISZERO ISZERO MUL OR SWAP1 SSTORE POP CALLVALUE PUSH0 DUP1 ADDRESS PUSH20 0xFFFFFFFFFFFFFFFFFFFFFFFFFFFFFFFFFFFFFFFF AND PUSH20 0xFFFFFFFFFFFFFFFFFFFFFFFFFFFFFFFFFFFFFFFF AND DUP2 MSTORE PUSH1 0x20 ADD SWAP1 DUP2 MSTORE PUSH1 0x20 ADD PUSH0 KECCAK256 PUSH0 DUP3 DUP3 SLOAD PUSH2 0x2E4 SWAP2 SWAP1 PUSH2 0x938 JUMP JUMPDEST SWAP3 POP POP DUP2 SWAP1 SSTORE POP CALLER PUSH20 0xFFFFFFFFFFFFFFFFFFFFFFFFFFFFFFFFFFFFFFFF AND PUSH32 0x5C16DE4F8B59BD9CAF0F49A545F25819A895ED223294290B408242E72A594231 CALLVALUE PUSH1 0x40 MLOAD PUSH2 0x331 SWAP2 SWAP1 PUSH2 0x756 JUMP JUMPDEST PUSH1 0x40 MLOAD DUP1 SWAP2 SUB SWAP1 LOG2 POP JUMP JUMPDEST PUSH0 SELFBALANCE SWAP1 POP SWAP1 JUMP JUMPDEST PUSH1 0x1 PUSH1 0x20 MSTORE DUP1 PUSH0 MSTORE PUSH1 0x40 PUSH0 KECCAK256 PUSH0 SWAP2 POP SWAP1 POP DUP1 PUSH0 ADD SLOAD SWAP1 DUP1 PUSH1 0x1 ADD PUSH0 SWAP1 SLOAD SWAP1 PUSH2 0x100 EXP SWAP1 DIV PUSH1 0xFF AND SWAP1 POP DUP3 JUMP JUMPDEST PUSH0 CALLVALUE GT PUSH2 0x3B1 JUMPI PUSH1 0x40 MLOAD PUSH32 0x8C379A000000000000000000000000000000000000000000000000000000000 DUP2 MSTORE PUSH1 0x4 ADD PUSH2 0x3A8 SWAP1 PUSH2 0x9B5 JUMP JUMPDEST PUSH1 0x40 MLOAD DUP1 SWAP2 SUB SWAP1 REVERT JUMPDEST CALLVALUE PUSH0 DUP1 CALLER PUSH20 0xFFFFFFFFFFFFFFFFFFFFFFFFFFFFFFFFFFFFFFFF AND PUSH20 0xFFFFFFFFFFFFFFFFFFFFFFFFFFFFFFFFFFFFFFFF AND DUP2 MSTORE PUSH1 0x20 ADD SWAP1 DUP2 MSTORE PUSH1 0x20 ADD PUSH0 KECCAK256 PUSH0 DUP3 DUP3 SLOAD PUSH2 0x3FC SWAP2 SWAP1 PUSH2 0x938 JUMP JUMPDEST SWAP3 POP POP DUP2 SWAP1 SSTORE POP CALLER PUSH20 0xFFFFFFFFFFFFFFFFFFFFFFFFFFFFFFFFFFFFFFFF AND PUSH32 0x41B123D2493C7B2067B8B7F49CF71532523D83EAD11494D793531ECE1FD4D046 CALLVALUE PUSH1 0x40 MLOAD PUSH2 0x449 SWAP2 SWAP1 PUSH2 0x756 JUMP JUMPDEST PUSH1 0x40 MLOAD DUP1 SWAP2 SUB SWAP1 LOG2 JUMP JUMPDEST PUSH0 DUP2 GT PUSH2 0x495 JUMPI PUSH1 0x40 MLOAD PUSH32 0x8C379A000000000000000000000000000000000000000000000000000000000 DUP2 MSTORE PUSH1 0x4 ADD PUSH2 0x48C SWAP1 PUSH2 0xA43 JUMP JUMPDEST PUSH1 0x40 MLOAD DUP1 SWAP2 SUB SWAP1 REVERT JUMPDEST DUP1 PUSH0 DUP1 ADDRESS PUSH20 0xFFFFFFFFFFFFFFFFFFFFFFFFFFFFFFFFFFFFFFFF AND PUSH20 0xFFFFFFFFFFFFFFFFFFFFFFFFFFFFFFFFFFFFFFFF AND DUP2 MSTORE PUSH1 0x20 ADD SWAP1 DUP2 MSTORE PUSH1 0x20 ADD PUSH0 KECCAK256 SLOAD LT ISZERO PUSH2 0x514 JUMPI PUSH1 0x40 MLOAD PUSH32 0x8C379A000000000000000000000000000000000000000000000000000000000 DUP2 MSTORE PUSH1 0x4 ADD PUSH2 0x50B SWAP1 PUSH2 0xAAB JUMP JUMPDEST PUSH1 0x40 MLOAD DUP1 SWAP2 SUB SWAP1 REVERT JUMPDEST PUSH1 0x1 PUSH0 CALLER PUSH20 0xFFFFFFFFFFFFFFFFFFFFFFFFFFFFFFFFFFFFFFFF AND PUSH20 0xFFFFFFFFFFFFFFFFFFFFFFFFFFFFFFFFFFFFFFFF AND DUP2 MSTORE PUSH1 0x20 ADD SWAP1 DUP2 MSTORE PUSH1 0x20 ADD PUSH0 KECCAK256 PUSH1 0x1 ADD PUSH0 SWAP1 SLOAD SWAP1 PUSH2 0x100 EXP SWAP1 DIV PUSH1 0xFF AND ISZERO PUSH2 0x5A1 JUMPI PUSH1 0x40 MLOAD PUSH32 0x8C379A000000000000000000000000000000000000000000000000000000000 DUP2 MSTORE PUSH1 0x4 ADD PUSH2 0x598 SWAP1 PUSH2 0xB39 JUMP JUMPDEST PUSH1 0x40 MLOAD DUP1 SWAP2 SUB SWAP1 REVERT JUMPDEST PUSH1 0x40 MLOAD DUP1 PUSH1 0x40 ADD PUSH1 0x40 MSTORE DUP1 DUP3 DUP2 MSTORE PUSH1 0x20 ADD PUSH1 0x1 ISZERO ISZERO DUP2 MSTORE POP PUSH1 0x1 PUSH0 CALLER PUSH20 0xFFFFFFFFFFFFFFFFFFFFFFFFFFFFFFFFFFFFFFFF AND PUSH20 0xFFFFFFFFFFFFFFFFFFFFFFFFFFFFFFFFFFFFFFFF AND DUP2 MSTORE PUSH1 0x20 ADD SWAP1 DUP2 MSTORE PUSH1 0x20 ADD PUSH0 KECCAK256 PUSH0 DUP3 ADD MLOAD DUP2 PUSH0 ADD SSTORE PUSH1 0x20 DUP3 ADD MLOAD DUP2 PUSH1 0x1 ADD PUSH0 PUSH2 0x100 EXP DUP2 SLOAD DUP2 PUSH1 0xFF MUL NOT AND SWAP1 DUP4 ISZERO ISZERO MUL OR SWAP1 SSTORE POP SWAP1 POP POP CALLER PUSH20 0xFFFFFFFFFFFFFFFFFFFFFFFFFFFFFFFFFFFFFFFF AND PUSH2 0x8FC DUP3 SWAP1 DUP2 ISZERO MUL SWAP1 PUSH1 0x40 MLOAD PUSH0 PUSH1 0x40 MLOAD DUP1 DUP4 SUB DUP2 DUP6 DUP9 DUP9 CALL SWAP4 POP POP POP POP ISZERO DUP1 ISZERO PUSH2 0x663 JUMPI RETURNDATASIZE PUSH0 DUP1 RETURNDATACOPY RETURNDATASIZE PUSH0 REVERT JUMPDEST POP CALLER PUSH20 0xFFFFFFFFFFFFFFFFFFFFFFFFFFFFFFFFFFFFFFFF AND PUSH32 0xCBC04ECA7E9DA35CB1393A6135A199CA52E450D5E9251CBD99F7847D33A36750 DUP3 PUSH1 0x40 MLOAD PUSH2 0x6AA SWAP2 SWAP1 PUSH2 0x756 JUMP JUMPDEST PUSH1 0x40 MLOAD DUP1 SWAP2 SUB SWAP1 LOG2 POP JUMP JUMPDEST PUSH0 DUP1 REVERT JUMPDEST PUSH0 PUSH20 0xFFFFFFFFFFFFFFFFFFFFFFFFFFFFFFFFFFFFFFFF DUP3 AND SWAP1 POP SWAP2 SWAP1 POP JUMP JUMPDEST PUSH0 PUSH2 0x6E2 DUP3 PUSH2 0x6B9 JUMP JUMPDEST SWAP1 POP SWAP2 SWAP1 POP JUMP JUMPDEST PUSH2 0x6F2 DUP2 PUSH2 0x6D8 JUMP JUMPDEST DUP2 EQ PUSH2 0x6FC JUMPI PUSH0 DUP1 REVERT JUMPDEST POP JUMP JUMPDEST PUSH0 DUP2 CALLDATALOAD SWAP1 POP PUSH2 0x70D DUP2 PUSH2 0x6E9 JUMP JUMPDEST SWAP3 SWAP2 POP POP JUMP JUMPDEST PUSH0 PUSH1 0x20 DUP3 DUP5 SUB SLT ISZERO PUSH2 0x728 JUMPI PUSH2 0x727 PUSH2 0x6B5 JUMP JUMPDEST JUMPDEST PUSH0 PUSH2 0x735 DUP5 DUP3 DUP6 ADD PUSH2 0x6FF JUMP JUMPDEST SWAP2 POP POP SWAP3 SWAP2 POP POP JUMP JUMPDEST PUSH0 DUP2 SWAP1 POP SWAP2 SWAP1 POP JUMP JUMPDEST PUSH2 0x750 DUP2 PUSH2 0x73E JUMP JUMPDEST DUP3 MSTORE POP POP JUMP JUMPDEST PUSH0 PUSH1 0x20 DUP3 ADD SWAP1 POP PUSH2 0x769 PUSH0 DUP4 ADD DUP5 PUSH2 0x747 JUMP JUMPDEST SWAP3 SWAP2 POP POP JUMP JUMPDEST PUSH0 DUP2 ISZERO ISZERO SWAP1 POP SWAP2 SWAP1 POP JUMP JUMPDEST PUSH2 0x783 DUP2 PUSH2 0x76F JUMP JUMPDEST DUP3 MSTORE POP POP JUMP JUMPDEST PUSH0 PUSH1 0x40 DUP3 ADD SWAP1 POP PUSH2 0x79C PUSH0 DUP4 ADD DUP6 PUSH2 0x747 JUMP JUMPDEST PUSH2 0x7A9 PUSH1 0x20 DUP4 ADD DUP5 PUSH2 0x77A JUMP JUMPDEST SWAP4 SWAP3 POP POP POP JUMP JUMPDEST PUSH2 0x7B9 DUP2 PUSH2 0x73E JUMP JUMPDEST DUP2 EQ PUSH2 0x7C3 JUMPI PUSH0 DUP1 REVERT JUMPDEST POP JUMP JUMPDEST PUSH0 DUP2 CALLDATALOAD SWAP1 POP PUSH2 0x7D4 DUP2 PUSH2 0x7B0 JUMP JUMPDEST SWAP3 SWAP2 POP POP JUMP JUMPDEST PUSH0 PUSH1 0x20 DUP3 DUP5 SUB SLT ISZERO PUSH2 0x7EF JUMPI PUSH2 0x7EE PUSH2 0x6B5 JUMP JUMPDEST JUMPDEST PUSH0 PUSH2 0x7FC DUP5 DUP3 DUP6 ADD PUSH2 0x7C6 JUMP JUMPDEST SWAP2 POP POP SWAP3 SWAP2 POP POP JUMP JUMPDEST PUSH0 DUP3 DUP3 MSTORE PUSH1 0x20 DUP3 ADD SWAP1 POP SWAP3 SWAP2 POP POP JUMP JUMPDEST PUSH32 0x4E6F20616374697665206C6F616E20666F756E642E0000000000000000000000 PUSH0 DUP3 ADD MSTORE POP JUMP JUMPDEST PUSH0 PUSH2 0x849 PUSH1 0x15 DUP4 PUSH2 0x805 JUMP JUMPDEST SWAP2 POP PUSH2 0x854 DUP3 PUSH2 0x815 JUMP JUMPDEST PUSH1 0x20 DUP3 ADD SWAP1 POP SWAP2 SWAP1 POP JUMP JUMPDEST PUSH0 PUSH1 0x20 DUP3 ADD SWAP1 POP DUP2 DUP2 SUB PUSH0 DUP4 ADD MSTORE PUSH2 0x876 DUP2 PUSH2 0x83D JUMP JUMPDEST SWAP1 POP SWAP2 SWAP1 POP JUMP JUMPDEST PUSH32 0x52657061796D656E7420616D6F756E74206D757374206D61746368206C6F616E PUSH0 DUP3 ADD MSTORE PUSH32 0x2E00000000000000000000000000000000000000000000000000000000000000 PUSH1 0x20 DUP3 ADD MSTORE POP JUMP JUMPDEST PUSH0 PUSH2 0x8D7 PUSH1 0x21 DUP4 PUSH2 0x805 JUMP JUMPDEST SWAP2 POP PUSH2 0x8E2 DUP3 PUSH2 0x87D JUMP JUMPDEST PUSH1 0x40 DUP3 ADD SWAP1 POP SWAP2 SWAP1 POP JUMP JUMPDEST PUSH0 PUSH1 0x20 DUP3 ADD SWAP1 POP DUP2 DUP2 SUB PUSH0 DUP4 ADD MSTORE PUSH2 0x904 DUP2 PUSH2 0x8CB JUMP JUMPDEST SWAP1 POP SWAP2 SWAP1 POP JUMP JUMPDEST PUSH32 0x4E487B7100000000000000000000000000000000000000000000000000000000 PUSH0 MSTORE PUSH1 0x11 PUSH1 0x4 MSTORE PUSH1 0x24 PUSH0 REVERT JUMPDEST PUSH0 PUSH2 0x942 DUP3 PUSH2 0x73E JUMP JUMPDEST SWAP2 POP PUSH2 0x94D DUP4 PUSH2 0x73E JUMP JUMPDEST SWAP3 POP DUP3 DUP3 ADD SWAP1 POP DUP1 DUP3 GT ISZERO PUSH2 0x965 JUMPI PUSH2 0x964 PUSH2 0x90B JUMP JUMPDEST JUMPDEST SWAP3 SWAP2 POP POP JUMP JUMPDEST PUSH32 0x4D7573742073656E6420457468657220746F206C656E642E0000000000000000 PUSH0 DUP3 ADD MSTORE POP JUMP JUMPDEST PUSH0 PUSH2 0x99F PUSH1 0x18 DUP4 PUSH2 0x805 JUMP JUMPDEST SWAP2 POP PUSH2 0x9AA DUP3 PUSH2 0x96B JUMP JUMPDEST PUSH1 0x20 DUP3 ADD SWAP1 POP SWAP2 SWAP1 POP JUMP JUMPDEST PUSH0 PUSH1 0x20 DUP3 ADD SWAP1 POP DUP2 DUP2 SUB PUSH0 DUP4 ADD MSTORE PUSH2 0x9CC DUP2 PUSH2 0x993 JUMP JUMPDEST SWAP1 POP SWAP2 SWAP1 POP JUMP JUMPDEST PUSH32 0x4D757374207265717565737420616E20616D6F756E7420677265617465722074 PUSH0 DUP3 ADD MSTORE PUSH32 0x68616E207A65726F2E0000000000000000000000000000000000000000000000 PUSH1 0x20 DUP3 ADD MSTORE POP JUMP JUMPDEST PUSH0 PUSH2 0xA2D PUSH1 0x29 DUP4 PUSH2 0x805 JUMP JUMPDEST SWAP2 POP PUSH2 0xA38 DUP3 PUSH2 0x9D3 JUMP JUMPDEST PUSH1 0x40 DUP3 ADD SWAP1 POP SWAP2 SWAP1 POP JUMP JUMPDEST PUSH0 PUSH1 0x20 DUP3 ADD SWAP1 POP DUP2 DUP2 SUB PUSH0 DUP4 ADD MSTORE PUSH2 0xA5A DUP2 PUSH2 0xA21 JUMP JUMPDEST SWAP1 POP SWAP2 SWAP1 POP JUMP JUMPDEST PUSH32 0x496E73756666696369656E742066756E647320696E20636F6E74726163742E00 PUSH0 DUP3 ADD MSTORE POP JUMP JUMPDEST PUSH0 PUSH2 0xA95 PUSH1 0x1F DUP4 PUSH2 0x805 JUMP JUMPDEST SWAP2 POP PUSH2 0xAA0 DUP3 PUSH2 0xA61 JUMP JUMPDEST PUSH1 0x20 DUP3 ADD SWAP1 POP SWAP2 SWAP1 POP JUMP JUMPDEST PUSH0 PUSH1 0x20 DUP3 ADD SWAP1 POP DUP2 DUP2 SUB PUSH0 DUP4 ADD MSTORE PUSH2 0xAC2 DUP2 PUSH2 0xA89 JUMP JUMPDEST SWAP1 POP SWAP2 SWAP1 POP JUMP JUMPDEST PUSH32 0x4578697374696E67206C6F616E206D7573742062652072657061696420666972 PUSH0 DUP3 ADD MSTORE PUSH32 0x73742E0000000000000000000000000000000000000000000000000000000000 PUSH1 0x20 DUP3 ADD MSTORE POP JUMP JUMPDEST PUSH0 PUSH2 0xB23 PUSH1 0x23 DUP4 PUSH2 0x805 JUMP JUMPDEST SWAP2 POP PUSH2 0xB2E DUP3 PUSH2 0xAC9 JUMP JUMPDEST PUSH1 0x40 DUP3 ADD SWAP1 POP SWAP2 SWAP1 POP JUMP JUMPDEST PUSH0 PUSH1 0x20 DUP3 ADD SWAP1 POP DUP2 DUP2 SUB PUSH0 DUP4 ADD MSTORE PUSH2 0xB50 DUP2 PUSH2 0xB17 JUMP JUMPDEST SWAP1 POP SWAP2 SWAP1 POP JUMP INVALID LOG2 PUSH5 0x6970667358 0x22 SLT KECCAK256 0xAA JUMPI CODESIZE DUP16 DUP7 ADDMOD DIV 0xBF 0xDC 0xCA LOG2 LOG1 SAR SWAP9 0xEE 0xB2 0xC JUMP PUSH0 0xD7 0x4C 0xDC EXTCODESIZE 0xDB 0xB5 SWAP13 0xBE 0xEB 0xE6 0xDC SELFBALANCE 0xC0 PUSH5 0x736F6C6343 STOP ADDMOD BYTE STOP CALLER "
				},
				"gasEstimates": {
					"creation": {
						"codeDepositCost": "591400",
						"executionCost": "623",
						"totalCost": "592023"
					},
					"external": {
						"balances(address)": "2779",
						"borrow(uint256)": "infinite",
						"getContractBalance()": "356",
						"lend()": "infinite",
						"loans(address)": "5111",
						"repay()": "infinite"
					}
				},
				"methodIdentifiers": {
					"balances(address)": "27e235e3",
					"borrow(uint256)": "c5ebeaec",
					"getContractBalance()": "6f9fb98a",
					"lend()": "97dffc61",
					"loans(address)": "73b4086b",
					"repay()": "402d8883"
				}
			},
			"storageLayout": {
				"storage": [
					{
						"astId": 10,
						"contract": "contracts/LendingContract.sol:LendingContract",
						"label": "balances",
						"offset": 0,
						"slot": "0",
						"type": "t_mapping(t_address,t_uint256)"
					},
					{
						"astId": 15,
						"contract": "contracts/LendingContract.sol:LendingContract",
						"label": "loans",
						"offset": 0,
						"slot": "1",
						"type": "t_mapping(t_address,t_struct(Loan)6_storage)"
					}
				],
				"types": {
					"t_address": {
						"encoding": "inplace",
						"label": "address",
						"numberOfBytes": "20"
					},
					"t_bool": {
						"encoding": "inplace",
						"label": "bool",
						"numberOfBytes": "1"
					},
					"t_mapping(t_address,t_struct(Loan)6_storage)": {
						"encoding": "mapping",
						"key": "t_address",
						"label": "mapping(address => struct LendingContract.Loan)",
						"numberOfBytes": "32",
						"value": "t_struct(Loan)6_storage"
					},
					"t_mapping(t_address,t_uint256)": {
						"encoding": "mapping",
						"key": "t_address",
						"label": "mapping(address => uint256)",
						"numberOfBytes": "32",
						"value": "t_uint256"
					},
					"t_struct(Loan)6_storage": {
						"encoding": "inplace",
						"label": "struct LendingContract.Loan",
						"members": [
							{
								"astId": 3,
								"contract": "contracts/LendingContract.sol:LendingContract",
								"label": "amount",
								"offset": 0,
								"slot": "0",
								"type": "t_uint256"
							},
							{
								"astId": 5,
								"contract": "contracts/LendingContract.sol:LendingContract",
								"label": "active",
								"offset": 0,
								"slot": "1",
								"type": "t_bool"
							}
						],
						"numberOfBytes": "64"
					},
					"t_uint256": {
						"encoding": "inplace",
						"label": "uint256",
						"numberOfBytes": "32"
					}
				}
			},
			"userdoc": {
				"kind": "user",
				"methods": {},
				"version": 1
			}
		}
	}
}