{
	"data": {
		"bytecode": {
			"linkReferences": {},
			"object": "6080604052348015600e575f80fd5b506108a18061001c5f395ff3fe608060405234801561000f575f80fd5b506004361061004a575f3560e01c80633b5408cd1461004e5780637c7712531461006a578063864fc1b814610089578063f3473249146100a7575b5f80fd5b6100686004803603810190610063919061046e565b6100c5565b005b6100726100e8565b604051610080929190610544565b60405180910390f35b61009161020a565b60405161009e9190610579565b60405180910390f35b6100af610295565b6040516100bc9190610579565b60405180910390f35b815f90816100d3919061079c565b5080600190816100e3919061079c565b505050565b6060805f60018180546100fa906105c6565b80601f0160208091040260200160405190810160405280929190818152602001828054610126906105c6565b80156101715780601f1061014857610100808354040283529160200191610171565b820191905f5260205f20905b81548152906001019060200180831161015457829003601f168201915b50505050509150808054610184906105c6565b80601f01602080910402602001604051908101604052809291908181526020018280546101b0906105c6565b80156101fb5780601f106101d2576101008083540402835291602001916101fb565b820191905f5260205f20905b8154815290600101906020018083116101de57829003601f168201915b50505050509050915091509091565b5f8054610216906105c6565b80601f0160208091040260200160405190810160405280929190818152602001828054610242906105c6565b801561028d5780601f106102645761010080835404028352916020019161028d565b820191905f5260205f20905b81548152906001019060200180831161027057829003601f168201915b505050505081565b600180546102a2906105c6565b80601f01602080910402602001604051908101604052809291908181526020018280546102ce906105c6565b80156103195780601f106102f057610100808354040283529160200191610319565b820191905f5260205f20905b8154815290600101906020018083116102fc57829003601f168201915b505050505081565b5f604051905090565b5f80fd5b5f80fd5b5f80fd5b5f80fd5b5f601f19601f8301169050919050565b7f4e487b71000000000000000000000000000000000000000000000000000000005f52604160045260245ffd5b6103808261033a565b810181811067ffffffffffffffff8211171561039f5761039e61034a565b5b80604052505050565b5f6103b1610321565b90506103bd8282610377565b919050565b5f67ffffffffffffffff8211156103dc576103db61034a565b5b6103e58261033a565b9050602081019050919050565b828183375f83830152505050565b5f61041261040d846103c2565b6103a8565b90508281526020810184848401111561042e5761042d610336565b5b6104398482856103f2565b509392505050565b5f82601f83011261045557610454610332565b5b8135610465848260208601610400565b91505092915050565b5f80604083850312156104845761048361032a565b5b5f83013567ffffffffffffffff8111156104a1576104a061032e565b5b6104ad85828601610441565b925050602083013567ffffffffffffffff8111156104ce576104cd61032e565b5b6104da85828601610441565b9150509250929050565b5f81519050919050565b5f82825260208201905092915050565b8281835e5f83830152505050565b5f610516826104e4565b61052081856104ee565b93506105308185602086016104fe565b6105398161033a565b840191505092915050565b5f6040820190508181035f83015261055c818561050c565b90508181036020830152610570818461050c565b90509392505050565b5f6020820190508181035f830152610591818461050c565b905092915050565b7f4e487b71000000000000000000000000000000000000000000000000000000005f52602260045260245ffd5b5f60028204905060018216806105dd57607f821691505b6020821081036105f0576105ef610599565b5b50919050565b5f819050815f5260205f209050919050565b5f6020601f8301049050919050565b5f82821b905092915050565b5f600883026106527fffffffffffffffffffffffffffffffffffffffffffffffffffffffffffffffff82610617565b61065c8683610617565b95508019841693508086168417925050509392505050565b5f819050919050565b5f819050919050565b5f6106a061069b61069684610674565b61067d565b610674565b9050919050565b5f819050919050565b6106b983610686565b6106cd6106c5826106a7565b848454610623565b825550505050565b5f90565b6106e16106d5565b6106ec8184846106b0565b505050565b5b8181101561070f576107045f826106d9565b6001810190506106f2565b5050565b601f82111561075457610725816105f6565b61072e84610608565b8101602085101561073d578190505b61075161074985610608565b8301826106f1565b50505b505050565b5f82821c905092915050565b5f6107745f1984600802610759565b1980831691505092915050565b5f61078c8383610765565b9150826002028217905092915050565b6107a5826104e4565b67ffffffffffffffff8111156107be576107bd61034a565b5b6107c882546105c6565b6107d3828285610713565b5f60209050601f831160018114610804575f84156107f2578287015190505b6107fc8582610781565b865550610863565b601f198416610812866105f6565b5f5b8281101561083957848901518255600182019150602085019450602081019050610814565b868310156108565784890151610852601f891682610765565b8355505b6001600288020188555050505b50505050505056fea264697066735822122077993f6806431f9d1f33216c40800bf7df62ed528d7d05f1fe515a82e224ee2764736f6c634300081a0033",
			"opcodes": "PUSH1 0x80 PUSH1 0x40 MSTORE CALLVALUE DUP1 ISZERO PUSH1 0xE JUMPI PUSH0 DUP1 REVERT JUMPDEST POP PUSH2 0x8A1 DUP1 PUSH2 0x1C PUSH0 CODECOPY PUSH0 RETURN INVALID PUSH1 0x80 PUSH1 0x40 MSTORE CALLVALUE DUP1 ISZERO PUSH2 0xF JUMPI PUSH0 DUP1 REVERT JUMPDEST POP PUSH1 0x4 CALLDATASIZE LT PUSH2 0x4A JUMPI PUSH0 CALLDATALOAD PUSH1 0xE0 SHR DUP1 PUSH4 0x3B5408CD EQ PUSH2 0x4E JUMPI DUP1 PUSH4 0x7C771253 EQ PUSH2 0x6A JUMPI DUP1 PUSH4 0x864FC1B8 EQ PUSH2 0x89 JUMPI DUP1 PUSH4 0xF3473249 EQ PUSH2 0xA7 JUMPI JUMPDEST PUSH0 DUP1 REVERT JUMPDEST PUSH2 0x68 PUSH1 0x4 DUP1 CALLDATASIZE SUB DUP2 ADD SWAP1 PUSH2 0x63 SWAP2 SWAP1 PUSH2 0x46E JUMP JUMPDEST PUSH2 0xC5 JUMP JUMPDEST STOP JUMPDEST PUSH2 0x72 PUSH2 0xE8 JUMP JUMPDEST PUSH1 0x40 MLOAD PUSH2 0x80 SWAP3 SWAP2 SWAP1 PUSH2 0x544 JUMP JUMPDEST PUSH1 0x40 MLOAD DUP1 SWAP2 SUB SWAP1 RETURN JUMPDEST PUSH2 0x91 PUSH2 0x20A JUMP JUMPDEST PUSH1 0x40 MLOAD PUSH2 0x9E SWAP2 SWAP1 PUSH2 0x579 JUMP JUMPDEST PUSH1 0x40 MLOAD DUP1 SWAP2 SUB SWAP1 RETURN JUMPDEST PUSH2 0xAF PUSH2 0x295 JUMP JUMPDEST PUSH1 0x40 MLOAD PUSH2 0xBC SWAP2 SWAP1 PUSH2 0x579 JUMP JUMPDEST PUSH1 0x40 MLOAD DUP1 SWAP2 SUB SWAP1 RETURN JUMPDEST DUP2 PUSH0 SWAP1 DUP2 PUSH2 0xD3 SWAP2 SWAP1 PUSH2 0x79C JUMP JUMPDEST POP DUP1 PUSH1 0x1 SWAP1 DUP2 PUSH2 0xE3 SWAP2 SWAP1 PUSH2 0x79C JUMP JUMPDEST POP POP POP JUMP JUMPDEST PUSH1 0x60 DUP1 PUSH0 PUSH1 0x1 DUP2 DUP1 SLOAD PUSH2 0xFA SWAP1 PUSH2 0x5C6 JUMP JUMPDEST DUP1 PUSH1 0x1F ADD PUSH1 0x20 DUP1 SWAP2 DIV MUL PUSH1 0x20 ADD PUSH1 0x40 MLOAD SWAP1 DUP2 ADD PUSH1 0x40 MSTORE DUP1 SWAP3 SWAP2 SWAP1 DUP2 DUP2 MSTORE PUSH1 0x20 ADD DUP3 DUP1 SLOAD PUSH2 0x126 SWAP1 PUSH2 0x5C6 JUMP JUMPDEST DUP1 ISZERO PUSH2 0x171 JUMPI DUP1 PUSH1 0x1F LT PUSH2 0x148 JUMPI PUSH2 0x100 DUP1 DUP4 SLOAD DIV MUL DUP4 MSTORE SWAP2 PUSH1 0x20 ADD SWAP2 PUSH2 0x171 JUMP JUMPDEST DUP3 ADD SWAP2 SWAP1 PUSH0 MSTORE PUSH1 0x20 PUSH0 KECCAK256 SWAP1 JUMPDEST DUP2 SLOAD DUP2 MSTORE SWAP1 PUSH1 0x1 ADD SWAP1 PUSH1 0x20 ADD DUP1 DUP4 GT PUSH2 0x154 JUMPI DUP3 SWAP1 SUB PUSH1 0x1F AND DUP3 ADD SWAP2 JUMPDEST POP POP POP POP POP SWAP2 POP DUP1 DUP1 SLOAD PUSH2 0x184 SWAP1 PUSH2 0x5C6 JUMP JUMPDEST DUP1 PUSH1 0x1F ADD PUSH1 0x20 DUP1 SWAP2 DIV MUL PUSH1 0x20 ADD PUSH1 0x40 MLOAD SWAP1 DUP2 ADD PUSH1 0x40 MSTORE DUP1 SWAP3 SWAP2 SWAP1 DUP2 DUP2 MSTORE PUSH1 0x20 ADD DUP3 DUP1 SLOAD PUSH2 0x1B0 SWAP1 PUSH2 0x5C6 JUMP JUMPDEST DUP1 ISZERO PUSH2 0x1FB JUMPI DUP1 PUSH1 0x1F LT PUSH2 0x1D2 JUMPI PUSH2 0x100 DUP1 DUP4 SLOAD DIV MUL DUP4 MSTORE SWAP2 PUSH1 0x20 ADD SWAP2 PUSH2 0x1FB JUMP JUMPDEST DUP3 ADD SWAP2 SWAP1 PUSH0 MSTORE PUSH1 0x20 PUSH0 KECCAK256 SWAP1 JUMPDEST DUP2 SLOAD DUP2 MSTORE SWAP1 PUSH1 0x1 ADD SWAP1 PUSH1 0x20 ADD DUP1 DUP4 GT PUSH2 0x1DE JUMPI DUP3 SWAP1 SUB PUSH1 0x1F AND DUP3 ADD SWAP2 JUMPDEST POP POP POP POP POP SWAP1 POP SWAP2 POP SWAP2 POP SWAP1 SWAP2 JUMP JUMPDEST PUSH0 DUP1 SLOAD PUSH2 0x216 SWAP1 PUSH2 0x5C6 JUMP JUMPDEST DUP1 PUSH1 0x1F ADD PUSH1 0x20 DUP1 SWAP2 DIV MUL PUSH1 0x20 ADD PUSH1 0x40 MLOAD SWAP1 DUP2 ADD PUSH1 0x40 MSTORE DUP1 SWAP3 SWAP2 SWAP1 DUP2 DUP2 MSTORE PUSH1 0x20 ADD DUP3 DUP1 SLOAD PUSH2 0x242 SWAP1 PUSH2 0x5C6 JUMP JUMPDEST DUP1 ISZERO PUSH2 0x28D JUMPI DUP1 PUSH1 0x1F LT PUSH2 0x264 JUMPI PUSH2 0x100 DUP1 DUP4 SLOAD DIV MUL DUP4 MSTORE SWAP2 PUSH1 0x20 ADD SWAP2 PUSH2 0x28D JUMP JUMPDEST DUP3 ADD SWAP2 SWAP1 PUSH0 MSTORE PUSH1 0x20 PUSH0 KECCAK256 SWAP1 JUMPDEST DUP2 SLOAD DUP2 MSTORE SWAP1 PUSH1 0x1 ADD SWAP1 PUSH1 0x20 ADD DUP1 DUP4 GT PUSH2 0x270 JUMPI DUP3 SWAP1 SUB PUSH1 0x1F AND DUP3 ADD SWAP2 JUMPDEST POP POP POP POP POP DUP2 JUMP JUMPDEST PUSH1 0x1 DUP1 SLOAD PUSH2 0x2A2 SWAP1 PUSH2 0x5C6 JUMP JUMPDEST DUP1 PUSH1 0x1F ADD PUSH1 0x20 DUP1 SWAP2 DIV MUL PUSH1 0x20 ADD PUSH1 0x40 MLOAD SWAP1 DUP2 ADD PUSH1 0x40 MSTORE DUP1 SWAP3 SWAP2 SWAP1 DUP2 DUP2 MSTORE PUSH1 0x20 ADD DUP3 DUP1 SLOAD PUSH2 0x2CE SWAP1 PUSH2 0x5C6 JUMP JUMPDEST DUP1 ISZERO PUSH2 0x319 JUMPI DUP1 PUSH1 0x1F LT PUSH2 0x2F0 JUMPI PUSH2 0x100 DUP1 DUP4 SLOAD DIV MUL DUP4 MSTORE SWAP2 PUSH1 0x20 ADD SWAP2 PUSH2 0x319 JUMP JUMPDEST DUP3 ADD SWAP2 SWAP1 PUSH0 MSTORE PUSH1 0x20 PUSH0 KECCAK256 SWAP1 JUMPDEST DUP2 SLOAD DUP2 MSTORE SWAP1 PUSH1 0x1 ADD SWAP1 PUSH1 0x20 ADD DUP1 DUP4 GT PUSH2 0x2FC JUMPI DUP3 SWAP1 SUB PUSH1 0x1F AND DUP3 ADD SWAP2 JUMPDEST POP POP POP POP POP DUP2 JUMP JUMPDEST PUSH0 PUSH1 0x40 MLOAD SWAP1 POP SWAP1 JUMP JUMPDEST PUSH0 DUP1 REVERT JUMPDEST PUSH0 DUP1 REVERT JUMPDEST PUSH0 DUP1 REVERT JUMPDEST PUSH0 DUP1 REVERT JUMPDEST PUSH0 PUSH1 0x1F NOT PUSH1 0x1F DUP4 ADD AND SWAP1 POP SWAP2 SWAP1 POP JUMP JUMPDEST PUSH32 0x4E487B7100000000000000000000000000000000000000000000000000000000 PUSH0 MSTORE PUSH1 0x41 PUSH1 0x4 MSTORE PUSH1 0x24 PUSH0 REVERT JUMPDEST PUSH2 0x380 DUP3 PUSH2 0x33A JUMP JUMPDEST DUP2 ADD DUP2 DUP2 LT PUSH8 0xFFFFFFFFFFFFFFFF DUP3 GT OR ISZERO PUSH2 0x39F JUMPI PUSH2 0x39E PUSH2 0x34A JUMP JUMPDEST JUMPDEST DUP1 PUSH1 0x40 MSTORE POP POP POP JUMP JUMPDEST PUSH0 PUSH2 0x3B1 PUSH2 0x321 JUMP JUMPDEST SWAP1 POP PUSH2 0x3BD DUP3 DUP3 PUSH2 0x377 JUMP JUMPDEST SWAP2 SWAP1 POP JUMP JUMPDEST PUSH0 PUSH8 0xFFFFFFFFFFFFFFFF DUP3 GT ISZERO PUSH2 0x3DC JUMPI PUSH2 0x3DB PUSH2 0x34A JUMP JUMPDEST JUMPDEST PUSH2 0x3E5 DUP3 PUSH2 0x33A JUMP JUMPDEST SWAP1 POP PUSH1 0x20 DUP2 ADD SWAP1 POP SWAP2 SWAP1 POP JUMP JUMPDEST DUP3 DUP2 DUP4 CALLDATACOPY PUSH0 DUP4 DUP4 ADD MSTORE POP POP POP JUMP JUMPDEST PUSH0 PUSH2 0x412 PUSH2 0x40D DUP5 PUSH2 0x3C2 JUMP JUMPDEST PUSH2 0x3A8 JUMP JUMPDEST SWAP1 POP DUP3 DUP2 MSTORE PUSH1 0x20 DUP2 ADD DUP5 DUP5 DUP5 ADD GT ISZERO PUSH2 0x42E JUMPI PUSH2 0x42D PUSH2 0x336 JUMP JUMPDEST JUMPDEST PUSH2 0x439 DUP5 DUP3 DUP6 PUSH2 0x3F2 JUMP JUMPDEST POP SWAP4 SWAP3 POP POP POP JUMP JUMPDEST PUSH0 DUP3 PUSH1 0x1F DUP4 ADD SLT PUSH2 0x455 JUMPI PUSH2 0x454 PUSH2 0x332 JUMP JUMPDEST JUMPDEST DUP2 CALLDATALOAD PUSH2 0x465 DUP5 DUP3 PUSH1 0x20 DUP7 ADD PUSH2 0x400 JUMP JUMPDEST SWAP2 POP POP SWAP3 SWAP2 POP POP JUMP JUMPDEST PUSH0 DUP1 PUSH1 0x40 DUP4 DUP6 SUB SLT ISZERO PUSH2 0x484 JUMPI PUSH2 0x483 PUSH2 0x32A JUMP JUMPDEST JUMPDEST PUSH0 DUP4 ADD CALLDATALOAD PUSH8 0xFFFFFFFFFFFFFFFF DUP2 GT ISZERO PUSH2 0x4A1 JUMPI PUSH2 0x4A0 PUSH2 0x32E JUMP JUMPDEST JUMPDEST PUSH2 0x4AD DUP6 DUP3 DUP7 ADD PUSH2 0x441 JUMP JUMPDEST SWAP3 POP POP PUSH1 0x20 DUP4 ADD CALLDATALOAD PUSH8 0xFFFFFFFFFFFFFFFF DUP2 GT ISZERO PUSH2 0x4CE JUMPI PUSH2 0x4CD PUSH2 0x32E JUMP JUMPDEST JUMPDEST PUSH2 0x4DA DUP6 DUP3 DUP7 ADD PUSH2 0x441 JUMP JUMPDEST SWAP2 POP POP SWAP3 POP SWAP3 SWAP1 POP JUMP JUMPDEST PUSH0 DUP2 MLOAD SWAP1 POP SWAP2 SWAP1 POP JUMP JUMPDEST PUSH0 DUP3 DUP3 MSTORE PUSH1 0x20 DUP3 ADD SWAP1 POP SWAP3 SWAP2 POP POP JUMP JUMPDEST DUP3 DUP2 DUP4 MCOPY PUSH0 DUP4 DUP4 ADD MSTORE POP POP POP JUMP JUMPDEST PUSH0 PUSH2 0x516 DUP3 PUSH2 0x4E4 JUMP JUMPDEST PUSH2 0x520 DUP2 DUP6 PUSH2 0x4EE JUMP JUMPDEST SWAP4 POP PUSH2 0x530 DUP2 DUP6 PUSH1 0x20 DUP7 ADD PUSH2 0x4FE JUMP JUMPDEST PUSH2 0x539 DUP2 PUSH2 0x33A JUMP JUMPDEST DUP5 ADD SWAP2 POP POP SWAP3 SWAP2 POP POP JUMP JUMPDEST PUSH0 PUSH1 0x40 DUP3 ADD SWAP1 POP DUP2 DUP2 SUB PUSH0 DUP4 ADD MSTORE PUSH2 0x55C DUP2 DUP6 PUSH2 0x50C JUMP JUMPDEST SWAP1 POP DUP2 DUP2 SUB PUSH1 0x20 DUP4 ADD MSTORE PUSH2 0x570 DUP2 DUP5 PUSH2 0x50C JUMP JUMPDEST SWAP1 POP SWAP4 SWAP3 POP POP POP JUMP JUMPDEST PUSH0 PUSH1 0x20 DUP3 ADD SWAP1 POP DUP2 DUP2 SUB PUSH0 DUP4 ADD MSTORE PUSH2 0x591 DUP2 DUP5 PUSH2 0x50C JUMP JUMPDEST SWAP1 POP SWAP3 SWAP2 POP POP JUMP JUMPDEST PUSH32 0x4E487B7100000000000000000000000000000000000000000000000000000000 PUSH0 MSTORE PUSH1 0x22 PUSH1 0x4 MSTORE PUSH1 0x24 PUSH0 REVERT JUMPDEST PUSH0 PUSH1 0x2 DUP3 DIV SWAP1 POP PUSH1 0x1 DUP3 AND DUP1 PUSH2 0x5DD JUMPI PUSH1 0x7F DUP3 AND SWAP2 POP JUMPDEST PUSH1 0x20 DUP3 LT DUP2 SUB PUSH2 0x5F0 JUMPI PUSH2 0x5EF PUSH2 0x599 JUMP JUMPDEST JUMPDEST POP SWAP2 SWAP1 POP JUMP JUMPDEST PUSH0 DUP2 SWAP1 POP DUP2 PUSH0 MSTORE PUSH1 0x20 PUSH0 KECCAK256 SWAP1 POP SWAP2 SWAP1 POP JUMP JUMPDEST PUSH0 PUSH1 0x20 PUSH1 0x1F DUP4 ADD DIV SWAP1 POP SWAP2 SWAP1 POP JUMP JUMPDEST PUSH0 DUP3 DUP3 SHL SWAP1 POP SWAP3 SWAP2 POP POP JUMP JUMPDEST PUSH0 PUSH1 0x8 DUP4 MUL PUSH2 0x652 PUSH32 0xFFFFFFFFFFFFFFFFFFFFFFFFFFFFFFFFFFFFFFFFFFFFFFFFFFFFFFFFFFFFFFFF DUP3 PUSH2 0x617 JUMP JUMPDEST PUSH2 0x65C DUP7 DUP4 PUSH2 0x617 JUMP JUMPDEST SWAP6 POP DUP1 NOT DUP5 AND SWAP4 POP DUP1 DUP7 AND DUP5 OR SWAP3 POP POP POP SWAP4 SWAP3 POP POP POP JUMP JUMPDEST PUSH0 DUP2 SWAP1 POP SWAP2 SWAP1 POP JUMP JUMPDEST PUSH0 DUP2 SWAP1 POP SWAP2 SWAP1 POP JUMP JUMPDEST PUSH0 PUSH2 0x6A0 PUSH2 0x69B PUSH2 0x696 DUP5 PUSH2 0x674 JUMP JUMPDEST PUSH2 0x67D JUMP JUMPDEST PUSH2 0x674 JUMP JUMPDEST SWAP1 POP SWAP2 SWAP1 POP JUMP JUMPDEST PUSH0 DUP2 SWAP1 POP SWAP2 SWAP1 POP JUMP JUMPDEST PUSH2 0x6B9 DUP4 PUSH2 0x686 JUMP JUMPDEST PUSH2 0x6CD PUSH2 0x6C5 DUP3 PUSH2 0x6A7 JUMP JUMPDEST DUP5 DUP5 SLOAD PUSH2 0x623 JUMP JUMPDEST DUP3 SSTORE POP POP POP POP JUMP JUMPDEST PUSH0 SWAP1 JUMP JUMPDEST PUSH2 0x6E1 PUSH2 0x6D5 JUMP JUMPDEST PUSH2 0x6EC DUP2 DUP5 DUP5 PUSH2 0x6B0 JUMP JUMPDEST POP POP POP JUMP JUMPDEST JUMPDEST DUP2 DUP2 LT ISZERO PUSH2 0x70F JUMPI PUSH2 0x704 PUSH0 DUP3 PUSH2 0x6D9 JUMP JUMPDEST PUSH1 0x1 DUP2 ADD SWAP1 POP PUSH2 0x6F2 JUMP JUMPDEST POP POP JUMP JUMPDEST PUSH1 0x1F DUP3 GT ISZERO PUSH2 0x754 JUMPI PUSH2 0x725 DUP2 PUSH2 0x5F6 JUMP JUMPDEST PUSH2 0x72E DUP5 PUSH2 0x608 JUMP JUMPDEST DUP2 ADD PUSH1 0x20 DUP6 LT ISZERO PUSH2 0x73D JUMPI DUP2 SWAP1 POP JUMPDEST PUSH2 0x751 PUSH2 0x749 DUP6 PUSH2 0x608 JUMP JUMPDEST DUP4 ADD DUP3 PUSH2 0x6F1 JUMP JUMPDEST POP POP JUMPDEST POP POP POP JUMP JUMPDEST PUSH0 DUP3 DUP3 SHR SWAP1 POP SWAP3 SWAP2 POP POP JUMP JUMPDEST PUSH0 PUSH2 0x774 PUSH0 NOT DUP5 PUSH1 0x8 MUL PUSH2 0x759 JUMP JUMPDEST NOT DUP1 DUP4 AND SWAP2 POP POP SWAP3 SWAP2 POP POP JUMP JUMPDEST PUSH0 PUSH2 0x78C DUP4 DUP4 PUSH2 0x765 JUMP JUMPDEST SWAP2 POP DUP3 PUSH1 0x2 MUL DUP3 OR SWAP1 POP SWAP3 SWAP2 POP POP JUMP JUMPDEST PUSH2 0x7A5 DUP3 PUSH2 0x4E4 JUMP JUMPDEST PUSH8 0xFFFFFFFFFFFFFFFF DUP2 GT ISZERO PUSH2 0x7BE JUMPI PUSH2 0x7BD PUSH2 0x34A JUMP JUMPDEST JUMPDEST PUSH2 0x7C8 DUP3 SLOAD PUSH2 0x5C6 JUMP JUMPDEST PUSH2 0x7D3 DUP3 DUP3 DUP6 PUSH2 0x713 JUMP JUMPDEST PUSH0 PUSH1 0x20 SWAP1 POP PUSH1 0x1F DUP4 GT PUSH1 0x1 DUP2 EQ PUSH2 0x804 JUMPI PUSH0 DUP5 ISZERO PUSH2 0x7F2 JUMPI DUP3 DUP8 ADD MLOAD SWAP1 POP JUMPDEST PUSH2 0x7FC DUP6 DUP3 PUSH2 0x781 JUMP JUMPDEST DUP7 SSTORE POP PUSH2 0x863 JUMP JUMPDEST PUSH1 0x1F NOT DUP5 AND PUSH2 0x812 DUP7 PUSH2 0x5F6 JUMP JUMPDEST PUSH0 JUMPDEST DUP3 DUP2 LT ISZERO PUSH2 0x839 JUMPI DUP5 DUP10 ADD MLOAD DUP3 SSTORE PUSH1 0x1 DUP3 ADD SWAP2 POP PUSH1 0x20 DUP6 ADD SWAP5 POP PUSH1 0x20 DUP2 ADD SWAP1 POP PUSH2 0x814 JUMP JUMPDEST DUP7 DUP4 LT ISZERO PUSH2 0x856 JUMPI DUP5 DUP10 ADD MLOAD PUSH2 0x852 PUSH1 0x1F DUP10 AND DUP3 PUSH2 0x765 JUMP JUMPDEST DUP4 SSTORE POP JUMPDEST PUSH1 0x1 PUSH1 0x2 DUP9 MUL ADD DUP9 SSTORE POP POP POP JUMPDEST POP POP POP POP POP POP JUMP INVALID LOG2 PUSH5 0x6970667358 0x22 SLT KECCAK256 PUSH24 0x993F6806431F9D1F33216C40800BF7DF62ED528D7D05F1FE MLOAD GAS DUP3 0xE2 0x24 0xEE 0x27 PUSH5 0x736F6C6343 STOP ADDMOD BYTE STOP CALLER "
		},
		"gasEstimates": {
			"creation": {
				"codeDepositCost": "441800",
				"executionCost": "478",
				"totalCost": "442278"
			},
			"external": {
				"Gioitinh()": "infinite",
				"Hien()": "infinite",
				"Hoten()": "infinite",
				"Nhap(string,string)": "infinite"
			}
		},
		"methodIdentifiers": {
			"Gioitinh()": "f3473249",
			"Hien()": "7c771253",
			"Hoten()": "864fc1b8",
			"Nhap(string,string)": "3b5408cd"
		}
	},
	"abi": [
		{
			"inputs": [],
			"name": "Gioitinh",
			"outputs": [
				{
					"internalType": "string",
					"name": "",
					"type": "string"
				}
			],
			"stateMutability": "view",
			"type": "function"
		},
		{
			"inputs": [],
			"name": "Hien",
			"outputs": [
				{
					"internalType": "string",
					"name": "",
					"type": "string"
				},
				{
					"internalType": "string",
					"name": "",
					"type": "string"
				}
			],
			"stateMutability": "view",
			"type": "function"
		},
		{
			"inputs": [],
			"name": "Hoten",
			"outputs": [
				{
					"internalType": "string",
					"name": "",
					"type": "string"
				}
			],
			"stateMutability": "view",
			"type": "function"
		},
		{
			"inputs": [
				{
					"internalType": "string",
					"name": "_Hoten",
					"type": "string"
				},
				{
					"internalType": "string",
					"name": "_Gioitinh",
					"type": "string"
				}
			],
			"name": "Nhap",
			"outputs": [],
			"stateMutability": "nonpayable",
			"type": "function"
		}
	]
}