{
	"data": {
		"bytecode": {
			"linkReferences": {},
			"object": "6080604052348015600e575f80fd5b50610b738061001c5f395ff3fe608060405234801561000f575f80fd5b506004361061007b575f3560e01c80637c771253116100595780637c771253146100d9578063864fc1b8146100f85780638724862a14610116578063f3473249146101325761007b565b806324a4e01d1461007f5780633b5408cd1461009f5780634ca55da2146100bb575b5f80fd5b610087610150565b60405161009693929190610575565b60405180910390f35b6100b960048036038101906100b491906106fc565b6101fe565b005b6100c3610221565b6040516100d09190610772565b60405180910390f35b6100e16102ad565b6040516100ef929190610792565b60405180910390f35b6101006103cf565b60405161010d9190610772565b60405180910390f35b610130600480360381019061012b91906107c7565b61045a565b005b61013a610479565b6040516101479190610772565b60405180910390f35b60608060605f8061015f6102ad565b915091508181600280805461017390610898565b80601f016020809104026020016040519081016040528092919081815260200182805461019f90610898565b80156101ea5780601f106101c1576101008083540402835291602001916101ea565b820191905f5260205f20905b8154815290600101906020018083116101cd57829003601f168201915b505050505090509450945094505050909192565b815f908161020c9190610a6e565b50806001908161021c9190610a6e565b505050565b6002805461022e90610898565b80601f016020809104026020016040519081016040528092919081815260200182805461025a90610898565b80156102a55780601f1061027c576101008083540402835291602001916102a5565b820191905f5260205f20905b81548152906001019060200180831161028857829003601f168201915b505050505081565b6060805f60018180546102bf90610898565b80601f01602080910402602001604051908101604052809291908181526020018280546102eb90610898565b80156103365780601f1061030d57610100808354040283529160200191610336565b820191905f5260205f20905b81548152906001019060200180831161031957829003601f168201915b5050505050915080805461034990610898565b80601f016020809104026020016040519081016040528092919081815260200182805461037590610898565b80156103c05780601f10610397576101008083540402835291602001916103c0565b820191905f5260205f20905b8154815290600101906020018083116103a357829003601f168201915b50505050509050915091509091565b5f80546103db90610898565b80601f016020809104026020016040519081016040528092919081815260200182805461040790610898565b80156104525780601f1061042957610100808354040283529160200191610452565b820191905f5260205f20905b81548152906001019060200180831161043557829003601f168201915b505050505081565b61046483836101fe565b80600290816104739190610a6e565b50505050565b6001805461048690610898565b80601f01602080910402602001604051908101604052809291908181526020018280546104b290610898565b80156104fd5780601f106104d4576101008083540402835291602001916104fd565b820191905f5260205f20905b8154815290600101906020018083116104e057829003601f168201915b505050505081565b5f81519050919050565b5f82825260208201905092915050565b8281835e5f83830152505050565b5f601f19601f8301169050919050565b5f61054782610505565b610551818561050f565b935061056181856020860161051f565b61056a8161052d565b840191505092915050565b5f6060820190508181035f83015261058d818661053d565b905081810360208301526105a1818561053d565b905081810360408301526105b5818461053d565b9050949350505050565b5f604051905090565b5f80fd5b5f80fd5b5f80fd5b5f80fd5b7f4e487b71000000000000000000000000000000000000000000000000000000005f52604160045260245ffd5b61060e8261052d565b810181811067ffffffffffffffff8211171561062d5761062c6105d8565b5b80604052505050565b5f61063f6105bf565b905061064b8282610605565b919050565b5f67ffffffffffffffff82111561066a576106696105d8565b5b6106738261052d565b9050602081019050919050565b828183375f83830152505050565b5f6106a061069b84610650565b610636565b9050828152602081018484840111156106bc576106bb6105d4565b5b6106c7848285610680565b509392505050565b5f82601f8301126106e3576106e26105d0565b5b81356106f384826020860161068e565b91505092915050565b5f8060408385031215610712576107116105c8565b5b5f83013567ffffffffffffffff81111561072f5761072e6105cc565b5b61073b858286016106cf565b925050602083013567ffffffffffffffff81111561075c5761075b6105cc565b5b610768858286016106cf565b9150509250929050565b5f6020820190508181035f83015261078a818461053d565b905092915050565b5f6040820190508181035f8301526107aa818561053d565b905081810360208301526107be818461053d565b90509392505050565b5f805f606084860312156107de576107dd6105c8565b5b5f84013567ffffffffffffffff8111156107fb576107fa6105cc565b5b610807868287016106cf565b935050602084013567ffffffffffffffff811115610828576108276105cc565b5b610834868287016106cf565b925050604084013567ffffffffffffffff811115610855576108546105cc565b5b610861868287016106cf565b9150509250925092565b7f4e487b71000000000000000000000000000000000000000000000000000000005f52602260045260245ffd5b5f60028204905060018216806108af57607f821691505b6020821081036108c2576108c161086b565b5b50919050565b5f819050815f5260205f209050919050565b5f6020601f8301049050919050565b5f82821b905092915050565b5f600883026109247fffffffffffffffffffffffffffffffffffffffffffffffffffffffffffffffff826108e9565b61092e86836108e9565b95508019841693508086168417925050509392505050565b5f819050919050565b5f819050919050565b5f61097261096d61096884610946565b61094f565b610946565b9050919050565b5f819050919050565b61098b83610958565b61099f61099782610979565b8484546108f5565b825550505050565b5f90565b6109b36109a7565b6109be818484610982565b505050565b5b818110156109e1576109d65f826109ab565b6001810190506109c4565b5050565b601f821115610a26576109f7816108c8565b610a00846108da565b81016020851015610a0f578190505b610a23610a1b856108da565b8301826109c3565b50505b505050565b5f82821c905092915050565b5f610a465f1984600802610a2b565b1980831691505092915050565b5f610a5e8383610a37565b9150826002028217905092915050565b610a7782610505565b67ffffffffffffffff811115610a9057610a8f6105d8565b5b610a9a8254610898565b610aa58282856109e5565b5f60209050601f831160018114610ad6575f8415610ac4578287015190505b610ace8582610a53565b865550610b35565b601f198416610ae4866108c8565b5f5b82811015610b0b57848901518255600182019150602085019450602081019050610ae6565b86831015610b285784890151610b24601f891682610a37565b8355505b6001600288020188555050505b50505050505056fea2646970667358221220b9ccd49fdc7fb9338021dc1ab52e00c30bd7f09f6e85b5fba3719260d95992ab64736f6c634300081a0033",
			"opcodes": "PUSH1 0x80 PUSH1 0x40 MSTORE CALLVALUE DUP1 ISZERO PUSH1 0xE JUMPI PUSH0 DUP1 REVERT JUMPDEST POP PUSH2 0xB73 DUP1 PUSH2 0x1C PUSH0 CODECOPY PUSH0 RETURN INVALID PUSH1 0x80 PUSH1 0x40 MSTORE CALLVALUE DUP1 ISZERO PUSH2 0xF JUMPI PUSH0 DUP1 REVERT JUMPDEST POP PUSH1 0x4 CALLDATASIZE LT PUSH2 0x7B JUMPI PUSH0 CALLDATALOAD PUSH1 0xE0 SHR DUP1 PUSH4 0x7C771253 GT PUSH2 0x59 JUMPI DUP1 PUSH4 0x7C771253 EQ PUSH2 0xD9 JUMPI DUP1 PUSH4 0x864FC1B8 EQ PUSH2 0xF8 JUMPI DUP1 PUSH4 0x8724862A EQ PUSH2 0x116 JUMPI DUP1 PUSH4 0xF3473249 EQ PUSH2 0x132 JUMPI PUSH2 0x7B JUMP JUMPDEST DUP1 PUSH4 0x24A4E01D EQ PUSH2 0x7F JUMPI DUP1 PUSH4 0x3B5408CD EQ PUSH2 0x9F JUMPI DUP1 PUSH4 0x4CA55DA2 EQ PUSH2 0xBB JUMPI JUMPDEST PUSH0 DUP1 REVERT JUMPDEST PUSH2 0x87 PUSH2 0x150 JUMP JUMPDEST PUSH1 0x40 MLOAD PUSH2 0x96 SWAP4 SWAP3 SWAP2 SWAP1 PUSH2 0x575 JUMP JUMPDEST PUSH1 0x40 MLOAD DUP1 SWAP2 SUB SWAP1 RETURN JUMPDEST PUSH2 0xB9 PUSH1 0x4 DUP1 CALLDATASIZE SUB DUP2 ADD SWAP1 PUSH2 0xB4 SWAP2 SWAP1 PUSH2 0x6FC JUMP JUMPDEST PUSH2 0x1FE JUMP JUMPDEST STOP JUMPDEST PUSH2 0xC3 PUSH2 0x221 JUMP JUMPDEST PUSH1 0x40 MLOAD PUSH2 0xD0 SWAP2 SWAP1 PUSH2 0x772 JUMP JUMPDEST PUSH1 0x40 MLOAD DUP1 SWAP2 SUB SWAP1 RETURN JUMPDEST PUSH2 0xE1 PUSH2 0x2AD JUMP JUMPDEST PUSH1 0x40 MLOAD PUSH2 0xEF SWAP3 SWAP2 SWAP1 PUSH2 0x792 JUMP JUMPDEST PUSH1 0x40 MLOAD DUP1 SWAP2 SUB SWAP1 RETURN JUMPDEST PUSH2 0x100 PUSH2 0x3CF JUMP JUMPDEST PUSH1 0x40 MLOAD PUSH2 0x10D SWAP2 SWAP1 PUSH2 0x772 JUMP JUMPDEST PUSH1 0x40 MLOAD DUP1 SWAP2 SUB SWAP1 RETURN JUMPDEST PUSH2 0x130 PUSH1 0x4 DUP1 CALLDATASIZE SUB DUP2 ADD SWAP1 PUSH2 0x12B SWAP2 SWAP1 PUSH2 0x7C7 JUMP JUMPDEST PUSH2 0x45A JUMP JUMPDEST STOP JUMPDEST PUSH2 0x13A PUSH2 0x479 JUMP JUMPDEST PUSH1 0x40 MLOAD PUSH2 0x147 SWAP2 SWAP1 PUSH2 0x772 JUMP JUMPDEST PUSH1 0x40 MLOAD DUP1 SWAP2 SUB SWAP1 RETURN JUMPDEST PUSH1 0x60 DUP1 PUSH1 0x60 PUSH0 DUP1 PUSH2 0x15F PUSH2 0x2AD JUMP JUMPDEST SWAP2 POP SWAP2 POP DUP2 DUP2 PUSH1 0x2 DUP1 DUP1 SLOAD PUSH2 0x173 SWAP1 PUSH2 0x898 JUMP JUMPDEST DUP1 PUSH1 0x1F ADD PUSH1 0x20 DUP1 SWAP2 DIV MUL PUSH1 0x20 ADD PUSH1 0x40 MLOAD SWAP1 DUP2 ADD PUSH1 0x40 MSTORE DUP1 SWAP3 SWAP2 SWAP1 DUP2 DUP2 MSTORE PUSH1 0x20 ADD DUP3 DUP1 SLOAD PUSH2 0x19F SWAP1 PUSH2 0x898 JUMP JUMPDEST DUP1 ISZERO PUSH2 0x1EA JUMPI DUP1 PUSH1 0x1F LT PUSH2 0x1C1 JUMPI PUSH2 0x100 DUP1 DUP4 SLOAD DIV MUL DUP4 MSTORE SWAP2 PUSH1 0x20 ADD SWAP2 PUSH2 0x1EA JUMP JUMPDEST DUP3 ADD SWAP2 SWAP1 PUSH0 MSTORE PUSH1 0x20 PUSH0 KECCAK256 SWAP1 JUMPDEST DUP2 SLOAD DUP2 MSTORE SWAP1 PUSH1 0x1 ADD SWAP1 PUSH1 0x20 ADD DUP1 DUP4 GT PUSH2 0x1CD JUMPI DUP3 SWAP1 SUB PUSH1 0x1F AND DUP3 ADD SWAP2 JUMPDEST POP POP POP POP POP SWAP1 POP SWAP5 POP SWAP5 POP SWAP5 POP POP POP SWAP1 SWAP2 SWAP3 JUMP JUMPDEST DUP2 PUSH0 SWAP1 DUP2 PUSH2 0x20C SWAP2 SWAP1 PUSH2 0xA6E JUMP JUMPDEST POP DUP1 PUSH1 0x1 SWAP1 DUP2 PUSH2 0x21C SWAP2 SWAP1 PUSH2 0xA6E JUMP JUMPDEST POP POP POP JUMP JUMPDEST PUSH1 0x2 DUP1 SLOAD PUSH2 0x22E SWAP1 PUSH2 0x898 JUMP JUMPDEST DUP1 PUSH1 0x1F ADD PUSH1 0x20 DUP1 SWAP2 DIV MUL PUSH1 0x20 ADD PUSH1 0x40 MLOAD SWAP1 DUP2 ADD PUSH1 0x40 MSTORE DUP1 SWAP3 SWAP2 SWAP1 DUP2 DUP2 MSTORE PUSH1 0x20 ADD DUP3 DUP1 SLOAD PUSH2 0x25A SWAP1 PUSH2 0x898 JUMP JUMPDEST DUP1 ISZERO PUSH2 0x2A5 JUMPI DUP1 PUSH1 0x1F LT PUSH2 0x27C JUMPI PUSH2 0x100 DUP1 DUP4 SLOAD DIV MUL DUP4 MSTORE SWAP2 PUSH1 0x20 ADD SWAP2 PUSH2 0x2A5 JUMP JUMPDEST DUP3 ADD SWAP2 SWAP1 PUSH0 MSTORE PUSH1 0x20 PUSH0 KECCAK256 SWAP1 JUMPDEST DUP2 SLOAD DUP2 MSTORE SWAP1 PUSH1 0x1 ADD SWAP1 PUSH1 0x20 ADD DUP1 DUP4 GT PUSH2 0x288 JUMPI DUP3 SWAP1 SUB PUSH1 0x1F AND DUP3 ADD SWAP2 JUMPDEST POP POP POP POP POP DUP2 JUMP JUMPDEST PUSH1 0x60 DUP1 PUSH0 PUSH1 0x1 DUP2 DUP1 SLOAD PUSH2 0x2BF SWAP1 PUSH2 0x898 JUMP JUMPDEST DUP1 PUSH1 0x1F ADD PUSH1 0x20 DUP1 SWAP2 DIV MUL PUSH1 0x20 ADD PUSH1 0x40 MLOAD SWAP1 DUP2 ADD PUSH1 0x40 MSTORE DUP1 SWAP3 SWAP2 SWAP1 DUP2 DUP2 MSTORE PUSH1 0x20 ADD DUP3 DUP1 SLOAD PUSH2 0x2EB SWAP1 PUSH2 0x898 JUMP JUMPDEST DUP1 ISZERO PUSH2 0x336 JUMPI DUP1 PUSH1 0x1F LT PUSH2 0x30D JUMPI PUSH2 0x100 DUP1 DUP4 SLOAD DIV MUL DUP4 MSTORE SWAP2 PUSH1 0x20 ADD SWAP2 PUSH2 0x336 JUMP JUMPDEST DUP3 ADD SWAP2 SWAP1 PUSH0 MSTORE PUSH1 0x20 PUSH0 KECCAK256 SWAP1 JUMPDEST DUP2 SLOAD DUP2 MSTORE SWAP1 PUSH1 0x1 ADD SWAP1 PUSH1 0x20 ADD DUP1 DUP4 GT PUSH2 0x319 JUMPI DUP3 SWAP1 SUB PUSH1 0x1F AND DUP3 ADD SWAP2 JUMPDEST POP POP POP POP POP SWAP2 POP DUP1 DUP1 SLOAD PUSH2 0x349 SWAP1 PUSH2 0x898 JUMP JUMPDEST DUP1 PUSH1 0x1F ADD PUSH1 0x20 DUP1 SWAP2 DIV MUL PUSH1 0x20 ADD PUSH1 0x40 MLOAD SWAP1 DUP2 ADD PUSH1 0x40 MSTORE DUP1 SWAP3 SWAP2 SWAP1 DUP2 DUP2 MSTORE PUSH1 0x20 ADD DUP3 DUP1 SLOAD PUSH2 0x375 SWAP1 PUSH2 0x898 JUMP JUMPDEST DUP1 ISZERO PUSH2 0x3C0 JUMPI DUP1 PUSH1 0x1F LT PUSH2 0x397 JUMPI PUSH2 0x100 DUP1 DUP4 SLOAD DIV MUL DUP4 MSTORE SWAP2 PUSH1 0x20 ADD SWAP2 PUSH2 0x3C0 JUMP JUMPDEST DUP3 ADD SWAP2 SWAP1 PUSH0 MSTORE PUSH1 0x20 PUSH0 KECCAK256 SWAP1 JUMPDEST DUP2 SLOAD DUP2 MSTORE SWAP1 PUSH1 0x1 ADD SWAP1 PUSH1 0x20 ADD DUP1 DUP4 GT PUSH2 0x3A3 JUMPI DUP3 SWAP1 SUB PUSH1 0x1F AND DUP3 ADD SWAP2 JUMPDEST POP POP POP POP POP SWAP1 POP SWAP2 POP SWAP2 POP SWAP1 SWAP2 JUMP JUMPDEST PUSH0 DUP1 SLOAD PUSH2 0x3DB SWAP1 PUSH2 0x898 JUMP JUMPDEST DUP1 PUSH1 0x1F ADD PUSH1 0x20 DUP1 SWAP2 DIV MUL PUSH1 0x20 ADD PUSH1 0x40 MLOAD SWAP1 DUP2 ADD PUSH1 0x40 MSTORE DUP1 SWAP3 SWAP2 SWAP1 DUP2 DUP2 MSTORE PUSH1 0x20 ADD DUP3 DUP1 SLOAD PUSH2 0x407 SWAP1 PUSH2 0x898 JUMP JUMPDEST DUP1 ISZERO PUSH2 0x452 JUMPI DUP1 PUSH1 0x1F LT PUSH2 0x429 JUMPI PUSH2 0x100 DUP1 DUP4 SLOAD DIV MUL DUP4 MSTORE SWAP2 PUSH1 0x20 ADD SWAP2 PUSH2 0x452 JUMP JUMPDEST DUP3 ADD SWAP2 SWAP1 PUSH0 MSTORE PUSH1 0x20 PUSH0 KECCAK256 SWAP1 JUMPDEST DUP2 SLOAD DUP2 MSTORE SWAP1 PUSH1 0x1 ADD SWAP1 PUSH1 0x20 ADD DUP1 DUP4 GT PUSH2 0x435 JUMPI DUP3 SWAP1 SUB PUSH1 0x1F AND DUP3 ADD SWAP2 JUMPDEST POP POP POP POP POP DUP2 JUMP JUMPDEST PUSH2 0x464 DUP4 DUP4 PUSH2 0x1FE JUMP JUMPDEST DUP1 PUSH1 0x2 SWAP1 DUP2 PUSH2 0x473 SWAP2 SWAP1 PUSH2 0xA6E JUMP JUMPDEST POP POP POP POP JUMP JUMPDEST PUSH1 0x1 DUP1 SLOAD PUSH2 0x486 SWAP1 PUSH2 0x898 JUMP JUMPDEST DUP1 PUSH1 0x1F ADD PUSH1 0x20 DUP1 SWAP2 DIV MUL PUSH1 0x20 ADD PUSH1 0x40 MLOAD SWAP1 DUP2 ADD PUSH1 0x40 MSTORE DUP1 SWAP3 SWAP2 SWAP1 DUP2 DUP2 MSTORE PUSH1 0x20 ADD DUP3 DUP1 SLOAD PUSH2 0x4B2 SWAP1 PUSH2 0x898 JUMP JUMPDEST DUP1 ISZERO PUSH2 0x4FD JUMPI DUP1 PUSH1 0x1F LT PUSH2 0x4D4 JUMPI PUSH2 0x100 DUP1 DUP4 SLOAD DIV MUL DUP4 MSTORE SWAP2 PUSH1 0x20 ADD SWAP2 PUSH2 0x4FD JUMP JUMPDEST DUP3 ADD SWAP2 SWAP1 PUSH0 MSTORE PUSH1 0x20 PUSH0 KECCAK256 SWAP1 JUMPDEST DUP2 SLOAD DUP2 MSTORE SWAP1 PUSH1 0x1 ADD SWAP1 PUSH1 0x20 ADD DUP1 DUP4 GT PUSH2 0x4E0 JUMPI DUP3 SWAP1 SUB PUSH1 0x1F AND DUP3 ADD SWAP2 JUMPDEST POP POP POP POP POP DUP2 JUMP JUMPDEST PUSH0 DUP2 MLOAD SWAP1 POP SWAP2 SWAP1 POP JUMP JUMPDEST PUSH0 DUP3 DUP3 MSTORE PUSH1 0x20 DUP3 ADD SWAP1 POP SWAP3 SWAP2 POP POP JUMP JUMPDEST DUP3 DUP2 DUP4 MCOPY PUSH0 DUP4 DUP4 ADD MSTORE POP POP POP JUMP JUMPDEST PUSH0 PUSH1 0x1F NOT PUSH1 0x1F DUP4 ADD AND SWAP1 POP SWAP2 SWAP1 POP JUMP JUMPDEST PUSH0 PUSH2 0x547 DUP3 PUSH2 0x505 JUMP JUMPDEST PUSH2 0x551 DUP2 DUP6 PUSH2 0x50F JUMP JUMPDEST SWAP4 POP PUSH2 0x561 DUP2 DUP6 PUSH1 0x20 DUP7 ADD PUSH2 0x51F JUMP JUMPDEST PUSH2 0x56A DUP2 PUSH2 0x52D JUMP JUMPDEST DUP5 ADD SWAP2 POP POP SWAP3 SWAP2 POP POP JUMP JUMPDEST PUSH0 PUSH1 0x60 DUP3 ADD SWAP1 POP DUP2 DUP2 SUB PUSH0 DUP4 ADD MSTORE PUSH2 0x58D DUP2 DUP7 PUSH2 0x53D JUMP JUMPDEST SWAP1 POP DUP2 DUP2 SUB PUSH1 0x20 DUP4 ADD MSTORE PUSH2 0x5A1 DUP2 DUP6 PUSH2 0x53D JUMP JUMPDEST SWAP1 POP DUP2 DUP2 SUB PUSH1 0x40 DUP4 ADD MSTORE PUSH2 0x5B5 DUP2 DUP5 PUSH2 0x53D JUMP JUMPDEST SWAP1 POP SWAP5 SWAP4 POP POP POP POP JUMP JUMPDEST PUSH0 PUSH1 0x40 MLOAD SWAP1 POP SWAP1 JUMP JUMPDEST PUSH0 DUP1 REVERT JUMPDEST PUSH0 DUP1 REVERT JUMPDEST PUSH0 DUP1 REVERT JUMPDEST PUSH0 DUP1 REVERT JUMPDEST PUSH32 0x4E487B7100000000000000000000000000000000000000000000000000000000 PUSH0 MSTORE PUSH1 0x41 PUSH1 0x4 MSTORE PUSH1 0x24 PUSH0 REVERT JUMPDEST PUSH2 0x60E DUP3 PUSH2 0x52D JUMP JUMPDEST DUP2 ADD DUP2 DUP2 LT PUSH8 0xFFFFFFFFFFFFFFFF DUP3 GT OR ISZERO PUSH2 0x62D JUMPI PUSH2 0x62C PUSH2 0x5D8 JUMP JUMPDEST JUMPDEST DUP1 PUSH1 0x40 MSTORE POP POP POP JUMP JUMPDEST PUSH0 PUSH2 0x63F PUSH2 0x5BF JUMP JUMPDEST SWAP1 POP PUSH2 0x64B DUP3 DUP3 PUSH2 0x605 JUMP JUMPDEST SWAP2 SWAP1 POP JUMP JUMPDEST PUSH0 PUSH8 0xFFFFFFFFFFFFFFFF DUP3 GT ISZERO PUSH2 0x66A JUMPI PUSH2 0x669 PUSH2 0x5D8 JUMP JUMPDEST JUMPDEST PUSH2 0x673 DUP3 PUSH2 0x52D JUMP JUMPDEST SWAP1 POP PUSH1 0x20 DUP2 ADD SWAP1 POP SWAP2 SWAP1 POP JUMP JUMPDEST DUP3 DUP2 DUP4 CALLDATACOPY PUSH0 DUP4 DUP4 ADD MSTORE POP POP POP JUMP JUMPDEST PUSH0 PUSH2 0x6A0 PUSH2 0x69B DUP5 PUSH2 0x650 JUMP JUMPDEST PUSH2 0x636 JUMP JUMPDEST SWAP1 POP DUP3 DUP2 MSTORE PUSH1 0x20 DUP2 ADD DUP5 DUP5 DUP5 ADD GT ISZERO PUSH2 0x6BC JUMPI PUSH2 0x6BB PUSH2 0x5D4 JUMP JUMPDEST JUMPDEST PUSH2 0x6C7 DUP5 DUP3 DUP6 PUSH2 0x680 JUMP JUMPDEST POP SWAP4 SWAP3 POP POP POP JUMP JUMPDEST PUSH0 DUP3 PUSH1 0x1F DUP4 ADD SLT PUSH2 0x6E3 JUMPI PUSH2 0x6E2 PUSH2 0x5D0 JUMP JUMPDEST JUMPDEST DUP2 CALLDATALOAD PUSH2 0x6F3 DUP5 DUP3 PUSH1 0x20 DUP7 ADD PUSH2 0x68E JUMP JUMPDEST SWAP2 POP POP SWAP3 SWAP2 POP POP JUMP JUMPDEST PUSH0 DUP1 PUSH1 0x40 DUP4 DUP6 SUB SLT ISZERO PUSH2 0x712 JUMPI PUSH2 0x711 PUSH2 0x5C8 JUMP JUMPDEST JUMPDEST PUSH0 DUP4 ADD CALLDATALOAD PUSH8 0xFFFFFFFFFFFFFFFF DUP2 GT ISZERO PUSH2 0x72F JUMPI PUSH2 0x72E PUSH2 0x5CC JUMP JUMPDEST JUMPDEST PUSH2 0x73B DUP6 DUP3 DUP7 ADD PUSH2 0x6CF JUMP JUMPDEST SWAP3 POP POP PUSH1 0x20 DUP4 ADD CALLDATALOAD PUSH8 0xFFFFFFFFFFFFFFFF DUP2 GT ISZERO PUSH2 0x75C JUMPI PUSH2 0x75B PUSH2 0x5CC JUMP JUMPDEST JUMPDEST PUSH2 0x768 DUP6 DUP3 DUP7 ADD PUSH2 0x6CF JUMP JUMPDEST SWAP2 POP POP SWAP3 POP SWAP3 SWAP1 POP JUMP JUMPDEST PUSH0 PUSH1 0x20 DUP3 ADD SWAP1 POP DUP2 DUP2 SUB PUSH0 DUP4 ADD MSTORE PUSH2 0x78A DUP2 DUP5 PUSH2 0x53D JUMP JUMPDEST SWAP1 POP SWAP3 SWAP2 POP POP JUMP JUMPDEST PUSH0 PUSH1 0x40 DUP3 ADD SWAP1 POP DUP2 DUP2 SUB PUSH0 DUP4 ADD MSTORE PUSH2 0x7AA DUP2 DUP6 PUSH2 0x53D JUMP JUMPDEST SWAP1 POP DUP2 DUP2 SUB PUSH1 0x20 DUP4 ADD MSTORE PUSH2 0x7BE DUP2 DUP5 PUSH2 0x53D JUMP JUMPDEST SWAP1 POP SWAP4 SWAP3 POP POP POP JUMP JUMPDEST PUSH0 DUP1 PUSH0 PUSH1 0x60 DUP5 DUP7 SUB SLT ISZERO PUSH2 0x7DE JUMPI PUSH2 0x7DD PUSH2 0x5C8 JUMP JUMPDEST JUMPDEST PUSH0 DUP5 ADD CALLDATALOAD PUSH8 0xFFFFFFFFFFFFFFFF DUP2 GT ISZERO PUSH2 0x7FB JUMPI PUSH2 0x7FA PUSH2 0x5CC JUMP JUMPDEST JUMPDEST PUSH2 0x807 DUP7 DUP3 DUP8 ADD PUSH2 0x6CF JUMP JUMPDEST SWAP4 POP POP PUSH1 0x20 DUP5 ADD CALLDATALOAD PUSH8 0xFFFFFFFFFFFFFFFF DUP2 GT ISZERO PUSH2 0x828 JUMPI PUSH2 0x827 PUSH2 0x5CC JUMP JUMPDEST JUMPDEST PUSH2 0x834 DUP7 DUP3 DUP8 ADD PUSH2 0x6CF JUMP JUMPDEST SWAP3 POP POP PUSH1 0x40 DUP5 ADD CALLDATALOAD PUSH8 0xFFFFFFFFFFFFFFFF DUP2 GT ISZERO PUSH2 0x855 JUMPI PUSH2 0x854 PUSH2 0x5CC JUMP JUMPDEST JUMPDEST PUSH2 0x861 DUP7 DUP3 DUP8 ADD PUSH2 0x6CF JUMP JUMPDEST SWAP2 POP POP SWAP3 POP SWAP3 POP SWAP3 JUMP JUMPDEST PUSH32 0x4E487B7100000000000000000000000000000000000000000000000000000000 PUSH0 MSTORE PUSH1 0x22 PUSH1 0x4 MSTORE PUSH1 0x24 PUSH0 REVERT JUMPDEST PUSH0 PUSH1 0x2 DUP3 DIV SWAP1 POP PUSH1 0x1 DUP3 AND DUP1 PUSH2 0x8AF JUMPI PUSH1 0x7F DUP3 AND SWAP2 POP JUMPDEST PUSH1 0x20 DUP3 LT DUP2 SUB PUSH2 0x8C2 JUMPI PUSH2 0x8C1 PUSH2 0x86B JUMP JUMPDEST JUMPDEST POP SWAP2 SWAP1 POP JUMP JUMPDEST PUSH0 DUP2 SWAP1 POP DUP2 PUSH0 MSTORE PUSH1 0x20 PUSH0 KECCAK256 SWAP1 POP SWAP2 SWAP1 POP JUMP JUMPDEST PUSH0 PUSH1 0x20 PUSH1 0x1F DUP4 ADD DIV SWAP1 POP SWAP2 SWAP1 POP JUMP JUMPDEST PUSH0 DUP3 DUP3 SHL SWAP1 POP SWAP3 SWAP2 POP POP JUMP JUMPDEST PUSH0 PUSH1 0x8 DUP4 MUL PUSH2 0x924 PUSH32 0xFFFFFFFFFFFFFFFFFFFFFFFFFFFFFFFFFFFFFFFFFFFFFFFFFFFFFFFFFFFFFFFF DUP3 PUSH2 0x8E9 JUMP JUMPDEST PUSH2 0x92E DUP7 DUP4 PUSH2 0x8E9 JUMP JUMPDEST SWAP6 POP DUP1 NOT DUP5 AND SWAP4 POP DUP1 DUP7 AND DUP5 OR SWAP3 POP POP POP SWAP4 SWAP3 POP POP POP JUMP JUMPDEST PUSH0 DUP2 SWAP1 POP SWAP2 SWAP1 POP JUMP JUMPDEST PUSH0 DUP2 SWAP1 POP SWAP2 SWAP1 POP JUMP JUMPDEST PUSH0 PUSH2 0x972 PUSH2 0x96D PUSH2 0x968 DUP5 PUSH2 0x946 JUMP JUMPDEST PUSH2 0x94F JUMP JUMPDEST PUSH2 0x946 JUMP JUMPDEST SWAP1 POP SWAP2 SWAP1 POP JUMP JUMPDEST PUSH0 DUP2 SWAP1 POP SWAP2 SWAP1 POP JUMP JUMPDEST PUSH2 0x98B DUP4 PUSH2 0x958 JUMP JUMPDEST PUSH2 0x99F PUSH2 0x997 DUP3 PUSH2 0x979 JUMP JUMPDEST DUP5 DUP5 SLOAD PUSH2 0x8F5 JUMP JUMPDEST DUP3 SSTORE POP POP POP POP JUMP JUMPDEST PUSH0 SWAP1 JUMP JUMPDEST PUSH2 0x9B3 PUSH2 0x9A7 JUMP JUMPDEST PUSH2 0x9BE DUP2 DUP5 DUP5 PUSH2 0x982 JUMP JUMPDEST POP POP POP JUMP JUMPDEST JUMPDEST DUP2 DUP2 LT ISZERO PUSH2 0x9E1 JUMPI PUSH2 0x9D6 PUSH0 DUP3 PUSH2 0x9AB JUMP JUMPDEST PUSH1 0x1 DUP2 ADD SWAP1 POP PUSH2 0x9C4 JUMP JUMPDEST POP POP JUMP JUMPDEST PUSH1 0x1F DUP3 GT ISZERO PUSH2 0xA26 JUMPI PUSH2 0x9F7 DUP2 PUSH2 0x8C8 JUMP JUMPDEST PUSH2 0xA00 DUP5 PUSH2 0x8DA JUMP JUMPDEST DUP2 ADD PUSH1 0x20 DUP6 LT ISZERO PUSH2 0xA0F JUMPI DUP2 SWAP1 POP JUMPDEST PUSH2 0xA23 PUSH2 0xA1B DUP6 PUSH2 0x8DA JUMP JUMPDEST DUP4 ADD DUP3 PUSH2 0x9C3 JUMP JUMPDEST POP POP JUMPDEST POP POP POP JUMP JUMPDEST PUSH0 DUP3 DUP3 SHR SWAP1 POP SWAP3 SWAP2 POP POP JUMP JUMPDEST PUSH0 PUSH2 0xA46 PUSH0 NOT DUP5 PUSH1 0x8 MUL PUSH2 0xA2B JUMP JUMPDEST NOT DUP1 DUP4 AND SWAP2 POP POP SWAP3 SWAP2 POP POP JUMP JUMPDEST PUSH0 PUSH2 0xA5E DUP4 DUP4 PUSH2 0xA37 JUMP JUMPDEST SWAP2 POP DUP3 PUSH1 0x2 MUL DUP3 OR SWAP1 POP SWAP3 SWAP2 POP POP JUMP JUMPDEST PUSH2 0xA77 DUP3 PUSH2 0x505 JUMP JUMPDEST PUSH8 0xFFFFFFFFFFFFFFFF DUP2 GT ISZERO PUSH2 0xA90 JUMPI PUSH2 0xA8F PUSH2 0x5D8 JUMP JUMPDEST JUMPDEST PUSH2 0xA9A DUP3 SLOAD PUSH2 0x898 JUMP JUMPDEST PUSH2 0xAA5 DUP3 DUP3 DUP6 PUSH2 0x9E5 JUMP JUMPDEST PUSH0 PUSH1 0x20 SWAP1 POP PUSH1 0x1F DUP4 GT PUSH1 0x1 DUP2 EQ PUSH2 0xAD6 JUMPI PUSH0 DUP5 ISZERO PUSH2 0xAC4 JUMPI DUP3 DUP8 ADD MLOAD SWAP1 POP JUMPDEST PUSH2 0xACE DUP6 DUP3 PUSH2 0xA53 JUMP JUMPDEST DUP7 SSTORE POP PUSH2 0xB35 JUMP JUMPDEST PUSH1 0x1F NOT DUP5 AND PUSH2 0xAE4 DUP7 PUSH2 0x8C8 JUMP JUMPDEST PUSH0 JUMPDEST DUP3 DUP2 LT ISZERO PUSH2 0xB0B JUMPI DUP5 DUP10 ADD MLOAD DUP3 SSTORE PUSH1 0x1 DUP3 ADD SWAP2 POP PUSH1 0x20 DUP6 ADD SWAP5 POP PUSH1 0x20 DUP2 ADD SWAP1 POP PUSH2 0xAE6 JUMP JUMPDEST DUP7 DUP4 LT ISZERO PUSH2 0xB28 JUMPI DUP5 DUP10 ADD MLOAD PUSH2 0xB24 PUSH1 0x1F DUP10 AND DUP3 PUSH2 0xA37 JUMP JUMPDEST DUP4 SSTORE POP JUMPDEST PUSH1 0x1 PUSH1 0x2 DUP9 MUL ADD DUP9 SSTORE POP POP POP JUMPDEST POP POP POP POP POP POP JUMP INVALID LOG2 PUSH5 0x6970667358 0x22 SLT KECCAK256 0xB9 0xCC 0xD4 SWAP16 0xDC PUSH32 0xB9338021DC1AB52E00C30BD7F09F6E85B5FBA3719260D95992AB64736F6C6343 STOP ADDMOD BYTE STOP CALLER "
		},
		"gasEstimates": {
			"creation": {
				"codeDepositCost": "586200",
				"executionCost": "617",
				"totalCost": "586817"
			},
			"external": {
				"Gioitinh()": "infinite",
				"Hien()": "infinite",
				"HienThiSV()": "infinite",
				"Hoten()": "infinite",
				"Nhap(string,string)": "infinite",
				"Nhap(string,string,string)": "infinite",
				"TenLop()": "infinite"
			}
		},
		"methodIdentifiers": {
			"Gioitinh()": "f3473249",
			"Hien()": "7c771253",
			"HienThiSV()": "24a4e01d",
			"Hoten()": "864fc1b8",
			"Nhap(string,string)": "3b5408cd",
			"Nhap(string,string,string)": "8724862a",
			"TenLop()": "4ca55da2"
		}
	},
	"abi": [
		{
			"inputs": [],
			"name": "Gioitinh",
			"outputs": [
				{
					"internalType": "string",
					"name": "",
					"type": "string"
				}
			],
			"stateMutability": "view",
			"type": "function"
		},
		{
			"inputs": [],
			"name": "Hien",
			"outputs": [
				{
					"internalType": "string",
					"name": "",
					"type": "string"
				},
				{
					"internalType": "string",
					"name": "",
					"type": "string"
				}
			],
			"stateMutability": "view",
			"type": "function"
		},
		{
			"inputs": [],
			"name": "HienThiSV",
			"outputs": [
				{
					"internalType": "string",
					"name": "",
					"type": "string"
				},
				{
					"internalType": "string",
					"name": "",
					"type": "string"
				},
				{
					"internalType": "string",
					"name": "",
					"type": "string"
				}
			],
			"stateMutability": "view",
			"type": "function"
		},
		{
			"inputs": [],
			"name": "Hoten",
			"outputs": [
				{
					"internalType": "string",
					"name": "",
					"type": "string"
				}
			],
			"stateMutability": "view",
			"type": "function"
		},
		{
			"inputs": [
				{
					"internalType": "string",
					"name": "_Hoten",
					"type": "string"
				},
				{
					"internalType": "string",
					"name": "_Gioitinh",
					"type": "string"
				}
			],
			"name": "Nhap",
			"outputs": [],
			"stateMutability": "nonpayable",
			"type": "function"
		},
		{
			"inputs": [
				{
					"internalType": "string",
					"name": "_Hoten",
					"type": "string"
				},
				{
					"internalType": "string",
					"name": "_Gioitinh",
					"type": "string"
				},
				{
					"internalType": "string",
					"name": "_TenLop",
					"type": "string"
				}
			],
			"name": "Nhap",
			"outputs": [],
			"stateMutability": "nonpayable",
			"type": "function"
		},
		{
			"inputs": [],
			"name": "TenLop",
			"outputs": [
				{
					"internalType": "string",
					"name": "",
					"type": "string"
				}
			],
			"stateMutability": "view",
			"type": "function"
		}
	]
}